:020000040800F2
:10000000100B0020C9010008E92A0008EB2A0008AB
:1000100000000000000000000000000000000000E0
:10002000000000000000000000000000EF2A0008AF
:100030000000000000000000F12A0008F32A000878
:10004000DB010008DB010008DB010008DB01000820
:10005000DB010008DB010008DB010008DB01000810
:10006000DB010008DB010008DB010008DB01000800
:10007000DB010008DB010008DB010008DB010008F0
:10008000DB010008DB01000800000000DB010008C4
:10009000DB010008DB010008DB010008DB010008D0
:1000A000DB010008DB010008DB010008D133000898
:1000B000DB01000800000000DB0100080000000078
:1000C00000F002F800F055F80CA030C808382418E9
:1000D0002D18A246671EAB4654465D46AC4201D180
:1000E00000F047F87E460F3E0FCCB646012633425D
:1000F00000D0FB1AA246AB4633431847E48B0000FE
:10010000048C00000023002400250026103A01D3AF
:1001100078C1FBD8520700D330C100D50B607047BF
:1001200010B5662902D108F029F910BD642902D161
:1001300005F0D0FE10BD632902D107F0D7F910BD3C
:10014000732902D107F0DAF910BD002010BD1FB5E8
:1001500007F0BEFA04000020002107F05DFF401CFC
:1001600060600020002107F041FFE0601FBD10B576
:1001700010BD07F069FE1146FFF7E9FF04F030FA01
:1001800007F090FE03B4FFF7F2FF03BC02F077F82C
:1001900070B505460C46164602E00FCC0FC5103E62
:1001A000102EFAD2082E02D303CC03C5083E042E2B
:1001B00007D301CC01C5361F03E021782970641CE8
:1001C0006D1C761EF9D270BD07488047074800476E
:1001D000FEE7FEE7FEE7FEE7FEE7FEE70448054927
:1001E000054A064B704700000D300008C1000008AA
:1001F00010050020100B0020100700201007002021
:1002000010B504460920C006844209D101214804E2
:1002100000F033FC00210120400400F02EFC30E00F
:100220006E48844208D10121000200F026FC002122
:10023000200200F022FC24E06948844208D1012118
:10024000000200F01AFC0021200200F016FC18E069
:100250006448844209D10121080500F00EFC002108
:100260000120000500F009FC0BE05F48844208D142
:100270000121880500F001FC00210120800500F02B
:10028000FCFB10BDF0B50A4600210023002400BF8E
:100290003DE001258D402B4615681D402C469C42B3
:1002A00034D11579012D02D01579022D16D185682A
:1002B0004F000326BE40B543856055794E00B540DA
:1002C000866835438560858801268E40B5438580E4
:1002D000858896798E40B6B23543858005684F0093
:1002E0000326BE40B543056015794E00B54006684B
:1002F00035430560C5684F000326BE40B543C56061
:10030000D5794E00B540C6683543C560491C1029F3
:10031000BFD3F0BD35490160002101710221417157
:1003200000218171C171704708B501221204009249
:10033000009A0A430092009AC261C161009AC261A8
:10034000C2690092C269009208BD02460020138A69
:100350000B40002B01D0012000E000207047014637
:10036000088A704702460020938A0B40002B01D078
:10037000012000E0002070470146888A70478161B3
:10038000704701857047002A01D0816100E0018536
:10039000704781827047F0B5002300244D07EE0EB0
:1003A0001546B5402B46CD10AE0005462035AD595B
:1003B0004E07F70E0F26BE40B543CE10B6000746D7
:1003C0002037BD51CD10AE003D46AD591D432C46E2
:1003D000CD10AD003E467451F0BD00000004004851
:1003E00000080048000C004800140048FFFF00000F
:1003F00010B50121080700F05CFB00210120000777
:1004000000F057FB10BD002807D046490968FF22BD
:1004100001321143434A116006E042490968FF2254
:10042000013291433F4A11607047014600203D4A26
:100430001068E02302469A43104602460A431046DB
:10044000384A10607047002806D0364909681022E3
:100450001143344A116005E0324909681022914382
:10046000304A11607047002905D02E4A5268024375
:100470002C4B5A6004E02B4A52688243294B5A6045
:1004800070472949096904229143274A11610128CB
:1004900001D130BF00E020BF704710B502460020F8
:1004A000204B1868800880000346134318461D4BF4
:1004B00018601D4B1B69042423431B4C2361012935
:1004C00001D130BF00E020BF174B1B690424A343B8
:1004D000154C236110BD13480068042108431149DD
:1004E000086008460068022108430E4908600E486B
:1004F0000069042108430C49086130BF7047014678
:100500000020084A52680A40002A01D0012000E079
:10051000002070470349096882001143014A1160B5
:10052000704700000070004000ED00E0FD480068EA
:1005300001210843FB49086008464068FA49084021
:10054000F849486008460068F8490840F5490860DD
:1005500008460068012189048843F249086008467A
:1005600040683F2109048843EE4948600846C06A54
:1005700000090001C8620846006BFF21543188431E
:10058000E84908630846406B400840004863002083
:10059000886070470021E34A917011468870704767
:1005A00010B502460021002300205111002902D17C
:1005B000DC4C23680BE0012902D1DA4C236A06E007
:1005C000022902D1D74C636A01E0D64C636BD10695
:1005D000C90E01248C401C40002C01D0012000E0F9
:1005E000002010BD38B5002000900024002500BF79
:1005F0001120FFF7D5FF05460098401C009005210B
:1006000009020098884201D0002DF1D01120FFF797
:10061000C7FF002801D0012400E00024204638BD97
:1006200001460020BF4A1068F82302469A4310464C
:10063000CA001043BB4A10607047002806D0B94971
:10064000096801221143B74A116005E0B5490968FC
:1006500049084900B34A1160704701460020B14A79
:10066000506BF82302469A431046CA001043AD4A25
:1006700050637047002806D0AA49496B01221143F4
:10068000A84A516305E0A749496B49084900A54AB2
:1006900051637047002806D0A249496B0422914358
:1006A000A04A516305E09F49496B042211439D4ACA
:1006B000516370479B49096A49084900994A116288
:1006C0001146096A04229143964A11621146096A49
:1006D0000143116270479349096A18229143914A74
:1006E00011621146096A014311627047002806D061
:1006F0008C49496A012211438A4A516205E08949BD
:10070000496A49084900874A51627047854A5268D8
:100710003D231B049A43834B5A601A465268034692
:100720000B431A437F4B5A607047002807D07D491E
:1007300009680122120611437A4A116006E07949DC
:100740000968012212069143764A116070470146FA
:100750000020744AD06A0009000102460A4310468C
:10076000704AD0627047002807D06E49096801229C
:10077000D20411436B4A116006E06A4909680122FC
:10078000D2049143674A116070476649C871704747
:1007900001460020634A50688008800002460A43F0
:1007A0001046604A506070475E4840680C2108401F
:1007B0007047014600205B4A5068F02302469A4386
:1007C000104602460A431046564A5060704701469A
:1007D0000020544A506807231B0202469A431046E1
:1007E00002460A4310464F4A506070474D494968D7
:1007F0000122920391434B4A51601146496882B2EB
:100800001143484A51601146096B92159143454A7C
:1008100011631146096B020C1143424A1163704780
:100820004049096B402291433E4A11631146096BCE
:100830000143116370473B49096B10229143394AC8
:1008400011631146096B0143116370473549096B08
:1008500089088900334A11631146096B014311630A
:100860007047FEB504460025002600200190009048
:1008700000272C4840680C2108400546002D04D074
:10088000042D05D0082D28D105E02948206027E057
:100890002748206024E0234840680F21890408404D
:1008A0000646204840680121090408400190B00C28
:1008B000861C0198002803D11E48704320600BE07D
:1008C0001848C06A0007000F401C009018480099A3
:1008D00005F096FC7043206002E01548206000BFE0
:1008E00000BF10484068F021084005462D09124815
:1008F000475D2068F84060600A48406807210902A7
:10090000084005462D0A0C48475D6068F840A06025
:100910000448006BFF2101310840884210D007488D
:10092000E0601BE0001002400CB8FFF8FFFFF6FE8D
:1009300000127A0000093D0000000020809FD500D1
:1009400075484068012189030840884203D0A068A7
:100950004008E06002E0A0688008E0606E48006B3C
:1009600040210840402802D06C48206102E001206C
:10097000C00320616848006B10210840102802D095
:100980006748606101E0206860616348006B800730
:10099000800F002802D1A068A06119E05E48006BBA
:1009A0008007800F012802D12068A06110E05A481A
:1009B000006B8007800F022802D18003A06107E04E
:1009C0005548006B8007800F032801D15448A0616F
:1009D000FEBD5149096A01434F4A11627047002820
:1009E00007D04D49096A0122D20311434A4A1162D4
:1009F00006E04949096A0122D2039143464A11623D
:100A00007047002807D04449096A012212041143A3
:100A1000414A116206E04049096A012212049143E9
:100A20003D4A11627047002905D03B4A5269024392
:100A3000394B5A6104E0384A52698243364B5A6155
:100A40007047002905D0344A92690243324B9A61BB
:100A500004E0314A926982432F4B9A617047002922
:100A600005D02D4AD26902432B4BDA6104E02A4AB1
:100A7000D2698243284BDA617047002905D0264AA3
:100A8000926A0243244B9A6204E0234A926A8243A8
:100A9000214B9A627047002905D01F4AD268024351
:100AA0001D4BDA6004E01C4AD26882431A4BDA60BC
:100AB0007047002905D0184A12690243164B1A6183
:100AC00004E0154A12698243134B1A6170470029EA
:100AD00005D0114A527A02430F4B5A7204E00E4A73
:100AE000527A82430C4B5A7270470B48406A01217C
:100AF0000906084308494862704701460020064A33
:100B000092680A40002A01D0012000E000207047CE
:100B100001498872704700000010024012800000F6
:100B200000127A0010B50446FE48844208D1012123
:100B3000C014FFF7B0FF0021E014FFF7ACFF56E050
:100B400001208007844208D101210846FFF7B1FF48
:100B500000210120FFF7ADFF49E0F348844208D1AE
:100B600001210220FFF7A5FF00210220FFF7A1FFCE
:100B70003DE0EE48844208D101211020FFF799FFA3
:100B800000211020FFF795FF31E0E948844208D1A9
:100B900001218015FFF78DFF0021A015FFF789FFC8
:100BA00025E0E448844209D101210804FFF773FFDE
:100BB000002101200004FFF76EFF18E0DE488442A8
:100BC00009D101214804FFF766FF002101204004FC
:100BD000FFF761FF0BE0D948844208D10121880466
:100BE000FFF759FF002101208004FFF754FF10BDDB
:100BF00000220288CB4B984206D001239B079842E3
:100C000002D0C94B984203D1CD4B1A404B881A43AE
:100C1000C64B984203D0CB4B1A400B891A43028033
:100C20004B68C3620B880385BE4B984208D0C14B0A
:100C3000984205D0C04B984202D0C04B984201D197
:100C40008B7A03860123838270470021C943416068
:100C5000002101800181418081727047018582827B
:100C600070470A4600210188B54B19400B461343D3
:100C700019460180704741627047C1627047014662
:100C8000486A70470146088D7047002904D00288E1
:100C900002231A43028004E00288A94B6E331A40F3
:100CA00002807047002904D0028804231A4302807E
:100CB00004E00288A24B6C331A400280704700297E
:100CC00004D0028880231A43028004E002889C4BEF
:100CD000103B1A40028070470288994B68331A40D3
:100CE000028002880A43028070470288954B1A40AE
:100CF000028002880A4302807047002904D00288DB
:100D000001231A43028004E002888D4B6F331A409E
:100D1000028070470A884B881A438B881A43CB8815
:100D20001A430B891A434B891A438B891A4344236C
:100D30001A5270470021018041808180C180018169
:100D4000418181817047002907D04422125A012332
:100D5000DB031A4344231A5205E04422125A530477
:100D60005B0C44221352704770B50024002200230C
:100D7000058C734E6F3635400584028C8388048B56
:100D80006F4D2C40B51E2C400D882C43751E2A40FB
:100D90008D892A434D882A43624DA84208D0654D6B
:100DA000A84205D0644DA84202D0644DA84212D199
:100DB000634D68352A40CD892A43614D6C352A4000
:100DC0008D882A435E4D903D2B405F4D2B400D8A10
:100DD0002B434D8A2B43838004838D6845630284B3
:100DE00070BD70B5002400220023058C544E60367F
:100DF00035400584028C8388048B544D2C40514D22
:100E00002C400D782D062D0C2C434D4D50352A408D
:100E10008D892D052D0C2A434D882D052D0C2A4337
:100E2000404DA84219D1464D103D2A40CD892D058F
:100E30002D0C2A43424D30352A408D882D052D0C2E
:100E40002A43434D2B40434D2B400D8AAD042D0CBE
:100E50002B434D8AAD042D0C2B43838004838D6876
:100E60008563028470BD70B5002400220023058CC8
:100E7000334E903E35400584028C8388848B304D00
:100E80002C402F4D6D352C400D882C432E4D2A4083
:100E90000D7B2D062D0C2A438D782D062D0C2A4313
:100EA000204DA84217D12B4D2A408D7B2D062D0CAD
:100EB0002A43274D2A400D792D062D0C2A43264D15
:100EC0002B40264D2B400D8A2D052D0C2B434D8A92
:100ED0002D052D0C2B43838084838D68C56302848C
:100EE00070BD70B5002200230024058C1A4E3540D9
:100EF0000584038C8488828B144D2A40114D2A402E
:100F00000D782D062D0C2A43144D2B400D7B2D07FB
:100F10002D0C2B438D782D072D0C2B43014DA84212
:100F200024D11DE0002C01400004004000100040CE
:100F300000200040004001400044014000480140C2
:100F40008FFF0000FFFC0000FFFD0000FF8F00008E
:100F5000FFFB0000FFF70000FFEF0000FFDF0000D5
:100F6000FC4D2C400D8AAD052D0C2C4384808283D2
:100F70008D680564038470BD0021018041808180FB
:100F800081608181C18101824182704770B50346D1
:100F9000002000241846183001258D40ACB21D8C6D
:100FA000A5431D84002901D0082909D14D10281816
:100FB00005687026B54305600568154305600DE0BA
:100FC0000D1F2D046D0C2818056807263603B54340
:100FD000056005681606360C3543056070BD416333
:100FE000704781637047C1637047016470470A4668
:100FF0000021018BD84B19400B461343194601833E
:1010000070470A460021018BD44B194013061B0C74
:101010001943018370470A460021818BCE4B19404A
:101020000B4613431946818370470A460021818B82
:10103000CA4B194013061B0C1943818370470029C2
:1010400004D0828801231A43828004E08288C24B44
:101050006F331A40828070470A460021018BBE4BD5
:10106000683319400B4613431946018370470A46FB
:101070000021018BBA4B194013061B0C1943018345
:1010800070470A460021818BB34B683319400B46E9
:1010900013431946818370470A460021818BB04B68
:1010A000194013061B0C1943818370470A4600211F
:1010B000018BA94B6C3319400B461343194601832E
:1010C00070470A460021018BA64B194013061B0CE2
:1010D0001943018370470A460021818B9E4B6C3374
:1010E00019400B4613431946818370470A46002175
:1010F000818B9C4B194013061B0C1943818370474D
:101100000A460021018B944B103B19400B461343B8
:101110001946018370470A460021018B4904490C96
:1011200013061B0C1943018370470A460021818B6B
:10113000894B103B19400B46134319468183704776
:101140000A460021818B4904490C13061B0C1943E4
:10115000818370470A460021018C7F4B6E33194012
:101160000B4613431946018470470A460021018C3F
:10117000794B683319400B46134319460184704775
:101180000A460021018C744B5033194013051B0C87
:101190001943018470470A460021018C6E4B103BB5
:1011A000194013051B0C1943018470470A4600219E
:1011B000018C6D4B194013061B0C194301847047B9
:1011C0000A460021018C664B194013061B0C19437B
:1011D000018470470A460021018C644B19401307B3
:1011E0001B0C19430184704702895B4B68331A401A
:1011F000028102890A430281704730B5002301242D
:101200008C40A3B2048C9C430484048C15468D400E
:10121000ADB22C43048430BD30B5002304248C408F
:10122000A3B2048C9C430484048C15468D40ADB25B
:101230002C43048430BD002904D0828804231A433F
:10124000828004E08288444B6C331A40828070476D
:10125000828B474B1A408283828B0B061B0C1A43EE
:1012600082837047F8B50C460021002500260096C1
:10127000068C404F3E400684818B058C2607360C39
:1012800000963D4E31401606360C31431E07360C93
:1012900031433A4E354001273F03009E3E433543DC
:1012A00081830584F8BD828B2B4B64331A40828383
:1012B000828B0A4382837047F8B50C4600210025D3
:1012C00000260096068C244F903F3E400684818B7A
:1012D000058C2606360C00961F4E833E31401E05B7
:1012E000360C16433143264E3540FF270137009E0A
:1012F0003E43354381830584F8BD028B1C4B1A4065
:101300000283028B0B061B0C1A4302837047F8B54D
:101310000C460021002500260096068C0E4F6037F3
:101320003E400684018B058C2605360C0096124E35
:1013300031401E07360C31431606360C3143064E3B
:10134000303E35401027009E3E43354301830584DF
:10135000F8BD0000FFBF00008FFF0000FF8F0000FE
:10136000FFF70000FFFB0000FFFD0000FFDF0000B3
:10137000FFF30000FFEF0000FF0C0000FF5F000024
:10138000FFF50000028BD84B1A400283028B0A4300
:1013900002837047F0B50C4600210025068CD24F21
:1013A0000B373E400684018B058CCF4EE73E314023
:1013B0001E05360C16433143CB4EB61C3540012674
:1013C0002643354301830584F0BD70B505460C46C0
:1013D000208800280AD12389A28861882846FFF73F
:1013E000D9FFE1882846FFF7CDFF25E020880428B3
:1013F0000AD12389A28861882846FFF788FFE188FF
:101400002846FFF77AFF17E0208808280AD12389A9
:10141000A28861882846FFF74FFFE1882846FFF73A
:1014200042FF09E02389A28861882846FFF71AFF56
:10143000E1882846FFF70CFF70BD00210180418044
:10144000012181800021C18001817047F8B50546E6
:101450000C46002601276088002801D1022600E002
:101460000026A088012801D1022700E0012720885A
:10147000002814D12389A28861882846FFF78AFFB3
:10148000E1882846FFF77EFF23893A463146284601
:10149000FFF73DFFE1882846FFF72FFF13E0238980
:1014A000A28861882846FFF732FFE1882846FFF7C7
:1014B00024FF23893A4631462846FFF76BFFE1882F
:1014C0002846FFF75FFFF8BD0146486B70470146AD
:1014D000886B70470146C86B70470146086C7047BF
:1014E000002A03D083890B43838102E083898B43E5
:1014F000838170478182704702460020138A0B4027
:10150000002B01D0012000E000207047CA43028276
:10151000704730B50246002000230024158A0D4094
:101520002B4695890D402C46002B03D0002C01D072
:10153000012000E0002030BDCA430282704710B590
:101540000B4613434824235210BD002A03D083893D
:101550000B43838102E083898B4383817047002999
:1015600004D0828808231A43828004E082885E4B7C
:101570001B1D1A408280704701895B4A521D114031
:10158000018170470A4600210189574B643B19408D
:101590000B46134319460181704730B504460D468A
:1015A00029462046FFF7EEFF2089072108432081C6
:1015B00030BDF8B504460D4616461F46602D06D1CF
:1015C0003B46012231462046FFF7A1FE05E03B469F
:1015D000012231462046FFF7DDFE29462046FFF76F
:1015E000D1FF2089072108432081F8BD30B50C4682
:1015F00000210189C9B21D062D0C1543254329433D
:10160000018130BDFFB505460E46174600243A4617
:1016100031462846039BFFF7E9FF2C893248401DDD
:1016200004400720044330486438044070200443D9
:101630002C81FFBDF0B504460D4616461F463B46BD
:10164000324629462046FFF7D1FF20890121890330
:1016500008432081F0BD8288234B643B1A4082807E
:1016600082880A438280704702891F4B5B1D1A40A3
:10167000028102890A430281704702891A4B743B36
:101680001A40028102890A4302817047F0B50C4674
:101690000021002500260189058B068C124F7F1D35
:1016A00039400F4627433946104F3D40FF27023748
:1016B0003D430D4F9E3F3E401F053F0C17433E43A9
:1016C000018105830684F0BD002904D0828880232F
:1016D0001A43828004E08288034B743B1A40828064
:1016E0007047502211527047F3FF0000FCFC0000CD
:1016F0003E483F490860002048608860C8603D4817
:101700004861704700213A498279002A35D00A465B
:10171000126803689A430B461A600A4652680368C7
:101720009A430B465A60027951180A6803681A43B3
:101730000A602F4A926803689A432D4B9A601A46B2
:10174000D26803689A432A4BDA604279102A0CD196
:101750001A46926803681A43254B9A601A46D26863
:1017600003681A43224BDA600DE02149427951188F
:101770000A6803681A430A6005E0027951180A688A
:1017800003689A430A6070470021016001710C21CF
:101790004171002181717047154909690143144A5B
:1017A0001161704701460020114A52690A40002A1F
:1017B00001D0012000E0002070470D4948617047CA
:1017C0000146002000220A4B1B680B401A46084BBA
:1017D0005B690B40002B03D0002A01D0012000E000
:1017E0000020704702494861704700000000940FD4
:1017F00000040140FFFF6B0000218278002A27D0FF
:10180000274A03231B02D21803789B109B00D15850
:1018100002789207D30EFF229A400B469343194653
:1018200042789207120E03789B07DB0E9A40114311
:101830001B4A03231B02D21803789B109B00D15034
:101840000278D306DB0E01229A40154B1A6007E09E
:101850000278D306DB0E01229A40114B80331A60C6
:101860007047002905D00F4A126902430D4B1A61D7
:1018700004E00C4A126982430A4B1A61704704283B
:1018800006D10949096904221143074A116105E09B
:101890000549096904229143034A11617047000018
:1018A00000E100E000ED00E000E000E03A48006800
:1018B0008007800F38490860002088600021364882
:1018C000C160016141618069FF21013108433249F2
:1018D00088617047014600202F4A10688008800008
:1018E00002460A4310462C4A10607047002905D072
:1018F000294A12680243284B1A6004E0264A1268FB
:101900008243254B1A607047002905D0224A12688D
:101910000243214B1A6004E01F4A126882431E4BA7
:101920001A60704730B500228B071C0F0F23A340AD
:101930001A46194B08338C10A4001B599343164CBC
:1019400008348D10AD00635123468C10A4001B5940
:101950008C07250F0446AC4023430F4C08348D10F0
:10196000AD00635130BD0C49896901430A4A916158
:10197000704701460020084A9269FF2301331A404C
:10198000002A01D0012000E0002070470249896947
:101990000143014A916170470000014010B50446BF
:1019A000F648844209D101218803FFF774F8002129
:1019B00001208003FFF76FF80BE0F148844208D163
:1019C00001214804FFF775F8002101204004FFF7CA
:1019D00070F810BDF0B589B004460D460027002010
:1019E00008900026206840084000206066680321B7
:1019F0000903304688430646A868064366602668A1
:101A0000E0480640E96868680843296908430643D6
:101A10002660A668032109023046884306466869A5
:101A20000643A66001A8FEF71CFFD448844202D1F9
:101A30000798089001E00398089020680121C903E5
:101A4000084000280CD02968089A500004F0D8FB00
:101A500007462968089A500004F0D2FB0E4609E0B8
:101A60002968089804F0CCFB07462968089804F018
:101A7000C7FB0E4628684008B04200D87F1C20688B
:101A80000121C9030840002806D03807460F384610
:101A9000BD49084030430746A78109B0F0BD4B213E
:101AA000C9010160002141608160C1600C210161B8
:101AB00000214161704710B5002242680F242402C2
:101AC0001346A3431A464C680B6823438C68234390
:101AD000CC6823431A43426010BD0021016041607D
:101AE0008160C1607047002904D0026801231A4355
:101AF000026003E002685208520002607047002A48
:101B000003D003680B43036002E003688B43036068
:101B10007047002905D002680123DB031A430260E5
:101B200004E002680123DB039A4302607047002946
:101B300005D082680123DB021A43826004E08268D8
:101B40000123DB029A4382607047002905D0426876
:101B50000123DB041A43426004E042680123DB04F2
:101B60009A4342607047002905D0426801239B04D4
:101B70001A43426004E0426801239B049A43426096
:101B80007047002A03D043680B43436002E0436878
:101B90008B4343607047002905D042680123DB0373
:101BA0001A43426004E042680123DB039A43426027
:101BB0007047002905D042680123DB051A434260C3
:101BC00004E042680123DB059A43426070474269A2
:101BD000120E1206426142690A4342617047028A4C
:101BE000FF231B021A400282028A0A4302827047C4
:101BF000002904D0026802231A43026003E002684D
:101C000002239A4302607047826803231B059A43AC
:101C1000826082680A4382607047002905D042686A
:101C200001231B051A43426004E0426801231B059F
:101C30009A4342607047426803235B059A434260BF
:101C400042680A4342607047CA05D20D0285704758
:101C50000146888CC005C00D704742681202120A06
:101C6000426042680B061A4342607047002905D063
:101C7000026801235B031A43026004E00268012347
:101C80005B039A430260704702680123DB029A43B8
:101C9000026002680A4302607047426810239A4358
:101CA000426042680A4342607047426820239A4378
:101CB000426042680A4342607047002905D042688A
:101CC00001239B031A43426004E0426801239B0303
:101CD0009A4342607047002904D0826808231A435F
:101CE000826003E0826808239A4382607047028A18
:101CF000D2B20282028A0B021A4302827047002982
:101D000004D0826820231A43826003E08268202383
:101D10009A4382607047002904D0826810231A43D6
:101D2000826003E0826810239A4382607047826871
:101D300007235B049A43826082684B041A438260E3
:101D4000704742691202120A426142690B061A4345
:101D500042617047826804239A43826082680A4322
:101D600082607047002904D0826802231A4382608F
:101D700003E0826802239A43826070470038014082
:101D800000440040F3E9FFFFF0FF0000002905D008
:101D9000826801239B031A43826004E08268012366
:101DA0009B039A438260704782680123DB039A4356
:101DB000826082680A438260704702681F235B0565
:101DC0009A43026002684B051A430260704702683A
:101DD0001F231B049A43026002680B041A4302602B
:101DE0007047002A03D083680B43836002E0836856
:101DF0008B4383607047826801235B039A43826050
:101E000082680A4382607047F8B5034600240026C2
:101E100000960025002018460E04340ECEB200961F
:101E20000127009EB7403D46022C01D1001D02E073
:101E3000032C00D10830002A03D006682E43066028
:101E400002E00668AE430660F8BD002A03D0038BAB
:101E50000B43038302E0038B8B4303837047826849
:101E600001231B039A43826082680A4382607047A1
:101E700002460020D3690B40002B01D0012000E076
:101E8000002070470162704770B502460B4600247F
:101E90000021002500201E04350ED9B201268E40F7
:101EA0003146012D02D11668314006E0022D02D1E3
:101EB0005668314001E0966831401C0C0126A6406E
:101EC0003446D6693440002903D0002C01D00120CB
:101ED00000E0002070BD10B5002300220B0C01248F
:101EE0009C402246026210BD10B50446B5488442AB
:101EF00007D101214015FEF7CEFD00216015FEF748
:101F0000CAFD10BD10B50022C268AF4B1A400C7953
:101F100064030B6823438C682343CC6823430C6918
:101F200023434C6923431A43C26010BD0021016062
:101F300001718160C160016141617047002904D075
:101F4000826801231A43826003E0826802231A43F5
:101F500082607047002A03D003690B43036102E0EB
:101F600003698B4303617047002905D0C2680123D0
:101F7000DB031A43C26004E0C2680123DB039A4317
:101F8000C2607047002905D0C26801239B031A4331
:101F9000C26004E0C26801239B039A43C260704799
:101FA000002905D0C2680123DB051A43C26004E0A2
:101FB000C2680123DB059A43C26070470B041343D8
:101FC0000362704710B50A460021C1681F24A406A9
:101FD0000B46A34319460B4613431946C16010BD77
:101FE000002905D0C26801239B051A43C26004E0A2
:101FF000C26801239B059A43C2607047002807D03E
:10200000724989680122D2051143704A916006E045
:102010006E4989680122D20591436C4A91607047EC
:10202000002807D069498968012292051143674A4F
:10203000916006E065498968012292059143634AEF
:1020400091607047002807D0604989680122120614
:1020500011435E4A916006E05C49896801221206DC
:1020600091435A4A9160704710B50B460021846A2B
:102070001C43846200BF0C4614432146416110BDDD
:10208000002905D0C26801235B031A43C26004E043
:10209000C26801235B039A43C2607047002905D0E0
:1020A000C26801231B041A43C26004E0C268012312
:1020B0001B049A43C2607047002905D0C2680123FF
:1020C0001B031A43C26004E0C26801231B039A4346
:1020D000C260704730B501460020002200238C68A2
:1020E0000125ED072C438C6000BF8C68E30FDB07F4
:1020F000521C0F242403A24201D0002BF5D18C687E
:10210000E40FE407002C01D1086C00E0002030BD92
:102110008168102211438160704781680422114355
:10212000816070470146086C80B27047002904D076
:10213000C26801231A43C26003E0C2685208520019
:10214000C2607047C26802239A43C260C2680A43F1
:10215000C2607047002A03D043680B43436002E02B
:1021600043688B434360704730B50246002000232C
:10217000012424060C40002C05D0946801252D066E
:10218000AC43234600E013681C460C40002C01D0F1
:10219000012000E0002030BD0160704710B502460C
:1021A0000020002354680C40234614680C40002C87
:1021B00003D0002B01D0012000E0002010BD016001
:1021C000704700000024014003D2FFFF00270140B8
:1021D0000F49086070470E49486070470C49886095
:1021E00070470C480A490860704709490861704700
:1021F000094807490860704701460020044AD26830
:102200000A40002A01D0012000E0002070470000B1
:1022100000300040AAAA0000CCCC000070B50446F3
:102220000D4600BF80219248FFF722FE0028F9D01A
:10223000A1B28F48FFF708FD204670BD70B5054676
:1022400000BF20218A48FFF713FE0028F9D08848F4
:10225000FFF7FEFCC4B2204670BD01460020C0431B
:10226000704710B5044600BF80218148FFF700FE8B
:102270000028F9D0A1B27E48FFF7E6FC10BD00BFF0
:10228000FEE708B51B21684601700021417001215D
:102290008170FFF7B1FA08BD1CB501214804FEF7B3
:1022A000C2FB01218803FEF7CCFB01220321092098
:1022B000C006FEF770F8012202210920C006FEF7D1
:1022C0006AF8012000900321684601710021C17164
:1022D00069460920C006FDF7D5FF0C2000900321B8
:1022E0006846417102210171002181710121C17192
:1022F00069460920C006FDF7C5FF1CBD10B586B0B4
:102300000446FFF7C9FF009400200190029003905B
:1023100005900C20049069465548FFF75BFBFFF7DA
:10232000B0FF012253495248FFF76EFD012150488A
:10233000FFF7D9FB1B20012181404F4A116000BFEC
:1023400006B010BD10B504462046FFF7D7FF4B4836
:1023500004600321002000F032FA0421012000F083
:102360002EFA10BD46480088704746484649086026
:10237000464908600020424908804549088045498F
:1023800008707047FF203E490988002917D03E4950
:10239000096808783C490968491C3B4A116038497A
:1023A0000988491E364A118000213A4A117036497F
:1023B0000A6839498A4202D93249334A1160704762
:1023C000FF202F490988002902D02F490968087881
:1023D000704710B504463149204603F045FE10BD54
:1023E00070B505462C4600BF2078641C2B4903F0CD
:1023F0003BFE20780028F7D170BD10B5044620467A
:10240000FFF7EEFF0D20FFF7E4FF0A20FFF7E1FFE3
:1024100010BD10B5044600BF802121480068FFF7B9
:1024200027FD0028F8D06106490E1D480068FFF717
:102430000BFC0D20FFF7CDFF0A20FFF7CAFF10BDF0
:1024400010B5044600BF802115480068FFF710FD55
:102450000028F8D06106490E11480068FFF7F4FB28
:102460000D20FFF7B6FF0A20FFF7B3FF10BD0000F5
:10247000003801400501050000E100E018000020DF
:102480004C0000205403002044000020480000209D
:102490004E000020500000205404002010000020B6
:1024A00054000020FEB504460D460C206043F84958
:1024B0004018067A00200290019000270090002E1C
:1024C00034D10C206043401840680921C906884275
:1024D00004D101214804FEF7A6FA27E00C2060434E
:1024E000EB4940184068EB49884204D101210002C1
:1024F000FEF799FA1AE00C206043E549401840685D
:10250000E549884204D101210002FEF78CFA0DE072
:102510000C206043DE4940184068E049884204D1FD
:1025200001218805FEF77FFA00E0FEBD0C20604324
:10253000D749085ADA49086003204871E807C00FF4
:1025400000282BD0002008712B0005F023FD0C255E
:1025500007250E251225082516251D2500BF00205C
:10256000CF49C8710120029017E00220CC490871C0
:1025700013E00320CA4908710FE00120C849C8715F
:10258000002E00D1029008E00220C549C871002E3B
:1025900001D10120029000E000BF24E00120C049E9
:1025A00008710020C871A81E030005F0F3FC09069D
:1025B0001A0B1A121A071A161A0000BF0120B8497E
:1025C00088710FE00220B649087100208871012748
:1025D00008E00320B249087104E00020B049887186
:1025E00000E000BF00BF0C216143A94A8918486878
:1025F000AB49FDF747FE0C206043A54A80180572E1
:102600000098002831D00A2C1FD00E2C0FD00F2C90
:1026100029D10021A348FEF770FB0021A148FEF755
:1026200092FB002101204004FEF70BFA1CE0002180
:102630009D48FEF762FB00219B48FEF784FB0021CA
:1026400001208004FEF7FDF90EE000219748FEF717
:1026500054FB00219548FEF776FB00210120C002C3
:10266000FEF7EFF900E000BF00BF002F78D0002098
:102670008F49088048807D21C9008E48006803F09A
:10268000BFFD401E8A4948607D21C9008948006815
:1026900003F0B6FD401E81B20C2060437C4A8018D6
:1026A00041810020824908818872834988606020C6
:1026B0000880012048800420888002208881002032
:1026C000C881FF2001300882002048820A2C48D0AF
:1026D0000E2C23D00F2C66D101214804FEF7B1F94E
:1026E000022208216B48FDF756FE71496D48FEF73E
:1026F0007FFA71496B48FEF737FB08216948FEF7FE
:10270000ABFC00216748FEF7E7FA01216548FEF7B8
:10271000F4FA01216348FEF716FB45E00121880425
:10272000FEF78FF9022209215A48FDF734FE60496D
:102730005D48FEF75DFA60495B48FEF715FB08212E
:102740005948FEF789FC00215748FEF7C5FA0121D8
:102750005548FEF7D2FA01215348FEF7F4FA23E078
:1027600023E00121C802FEF76CF902220D2149483D
:10277000FDF711FE4E494D48FEF73AFA4E494B48D7
:10278000FEF7F2FA08214948FEF766FC00214748A7
:10279000FEF7A2FA01214548FEF7AFFA01214348AE
:1027A000FEF7D1FA00E000BF00BF00BFBDE670B584
:1027B00004460D4629462046FFF774FE70BD10B54D
:1027C0000C224243324C1219117210BD70B50446EE
:1027D0000C2060432E494018067A002E03D10121B7
:1027E0002046FFF7E4FFF007C00F00280BD00C22B3
:1027F0006243274B995A0C226243D2185068FDF766
:10280000A4FD05460AE00C226243214B995A0C2292
:102810006243D2185068FDF7A5FD0546012D01D190
:10282000012070BD0020FCE770B504460D46012D67
:1028300009D10C226243164B995A0C226243D218DA
:102840005068FDF79CFD002D09D10C226243104B0E
:10285000995A0C226243D2185068FDF792FD70BD60
:10286000F8B504460C20604309494018067A002751
:10287000012C23D0022C06D0082C24D10120084999
:102880000860012520E040200549086040251BE044
:102890005C000020000400480008004800140048C4
:1028A000DC0100200044014000480140002C0140B0
:1028B00054040020FC0100206004002080207E4998
:1028C0000860802500E000BF00BF052E33D0012145
:1028D0004802FEF7B6F87948FFF706FB7848FFF79D
:1028E00025FB082076490860012008710121400479
:1028F000FEF799F80320704908710020C87109207B
:10290000C006FDF7BFFC6E496C48FFF7FBFA6B4849
:10291000FFF7E0FB01216948FFF710FB00BF6949A1
:102920006648FFF721FC0028F9D005210C20604300
:10293000654A80180172072229466048FFF794FB18
:102940005E48FFF7EAFB00BF04215C48FFF70CFC80
:102950000028F9D05948FFF7E5FB07465748FFF72D
:10296000D7FB3846F8BDF8B505460E460C2068433F
:1029700055494018077A042F03D004212846FFF751
:1029800091FD3446514806800A2D04D00E2D05D005
:102990000F2D09D105E04E48446306E04D484463DD
:1029A00003E04D48446300E000BF00BFF8BD70B5D0
:1029B00004460D460C20604343494018067A042E15
:1029C00003D004212046FFF76DFD294643480068E7
:1029D00003F016FC401E81B20C2060433A4A801876
:1029E0004181E01E030005F0D5FA0D085B11195B6B
:1029F0005B21293139424B535B000C206043324943
:102A00004018408901218907C8624AE00C206043D0
:102A10002D49401840892F49C86242E00C2060438C
:102A20002949401840892C49C8623AE00C2060438B
:102A30002549401840892A49C86232E00C20604389
:102A40002149401840892249C8622AE00C2060438D
:102A50001D49401840892349C86222E00C20604388
:102A600019494018408901218907C86219E00C20E2
:102A7000604315494018408901218907C86210E068
:102A80000C2060431049401840891249C86208E090
:102A90000C2060430C49401840890F49C86200E08F
:102AA00000BF00BF70BD10B50C224A43064BD418BE
:102AB0001CCC1CC00C3810BDDC01002000240140DF
:102AC00074040020010000015C0000205800002078
:102AD000002C01400048014000440140FC0100205E
:102AE0000020004000040040704700BFFEE7704730
:102AF000704705480068002804D003480068401E5D
:102B00000149086070470000F401002010B5044638
:102B1000601EF849884201D9012010BD601EF649A7
:102B200048610321081F00F0ADF90020F2498861D7
:102B3000072008610020F0E700BF0146401E002981
:102B4000FBD170471CB501214804FDF76CFF032041
:102B5000C00200900121684641710171002181711C
:102B6000C17169460920C006FDF78CFB1CBD10B57C
:102B70000024FFF7E7FF33E0E04800680121490443
:102B80000840002803D17D20C000FFF7D5FFDB48B7
:102B90000068012149040840002802D1D848FFF705
:102BA000CBFFD6480068012149040840002802D123
:102BB0004812D4498861D14800680121490408407D
:102BC000002802D1CE48FFF7B7FFCC4800680121AA
:102BD00049040840002803D14812CA49203108811D
:102BE000C64800680121490408400028C4D04812A2
:102BF000C449203108810020C34908600021012018
:102C00000004FDF783FD0120FDF78FFD33E0BB4895
:102C10000068012149060840002803D17D20C0003A
:102C2000FFF78AFFB54800680121490608400028DF
:102C300002D1B348FFF780FFB04800680121490680
:102C40000840002802D14814AE498861AB480068AA
:102C5000012149060840002802D1A948FFF76CFF6E
:102C6000A6480068012149060840002803D14814FD
:102C7000A44920310881A148006801214906084083
:102C80000028C4D00220FDF783FD00BFFDF78CFDB6
:102C90000828FBD101214006FDF7E1FE0120FDF7E8
:102CA000B2FBFF200130044300F0E7F910BD10B57E
:102CB00004469648FFF72AFF9548046000BF9448F1
:102CC0000068A042FBD091481E30FFF71FFF00BFF5
:102CD0008F4800680028FBD110BD10B504468C4811
:102CE0000460D220FFF712FF00BF89480068A042AD
:102CF000FBD0F020FFF70AFF00BF854800680028DE
:102D0000FBD110BD00B585B001218804FDF78BFE15
:102D1000012000030390002168460174C17403A9D7
:102D20007C48FDF7AFFA01210846FDF78AFE0C2129
:102D30000120FEF7F7FD0120000301900021684605
:102D400001720C2141720121817201A8FEF7DAFCA7
:102D50000721684601700021417001218170FEF752
:102D60004BFD05B000BD00B585B001218804FDF71D
:102D70005AFE0120C0020390002168460174C1740C
:102D800003A96448FDF77EFA01210846FDF759FEC4
:102D90000B210120FEF7C6FD0120C0020190002199
:102DA000684601720C2141720121817201A8FEF76F
:102DB000A9FC072168460170002141700121817042
:102DC000FEF71AFD05B000BD10B5FFF79BFF10BD63
:102DD00030B58BB000BF00BF01214804FDF723FED2
:102DE0000121C802FDF72DFEFF20013009900221CC
:102DF00008A80172032141720021C17209A90920AA
:102E0000C006FDF73FFA022208210920C006FDF79F
:102E1000C2FA41494148006803F0F2F9401E84B209
:102E2000611E8A0088180A2103F0EAF985B20021A0
:102E30006846018341830794018408A8817006A92C
:102E40003748FDF7D5FE7021684681800121C18099
:102E50000421018103950221018200214182FF2189
:102E6000013181820021C18201A92D48FDF77CFF3B
:102E700001212B48FDF741FF01212948FDF763FFA0
:102E80000BB030BD10B5002819DA264A03071B0F16
:102E9000083B9B089B00D2588307DC0EFF23A3400E
:102EA0009A438B071B0E8407E40EA3401A431D4B65
:102EB0000407240F083CA408A4001A5118E01A4A79
:102EC00003231B02D21883089B00D2588307DC0E11
:102ED000FF23A3409A438B071B0E8407E40EA340F5
:102EE0001A43114B032424021B198408A4001A510D
:102EF00010BD0000FFFFFF0000E000E000100240F6
:102F000040420F000008004800200240A25D00007F
:102F1000F401002000040048A2440000FC0100204D
:102F2000002C01401CED00E000E100E00CB50020A9
:102F30000190009077480068012109040843754911
:102F4000086000BF734800680121490408400090F0
:102F50000198401C01900098002804D10521090225
:102F600001988842EED16B4800680121490408406D
:102F7000002802D00120009001E00020009000987D
:102F8000012842D164480068102108436249086062
:102F900008460068012108435F4908605D484068B1
:102FA0005C494860084640684860084640683F21E0
:102FB00009048843574948600846406811210904BC
:102FC000084354494860084600680121090608433F
:102FD0005049086000BF4F48006801214906084079
:102FE0000028F8D04B484068800880004949486074
:102FF00008464068022108434649486000BF4548EA
:1030000040680C2108400828F9D10CBD10B5414892
:103010000068012108433F490860084640683F496D
:1030200008403C494860084600683D490840394925
:103030000860084600680121890488433549086012
:10304000084640683F2109048843324948600846E1
:10305000C06A00090001C8620846006BFF215431B4
:1030600088432C4908630846406B40084000486389
:1030700000208860FFF75AFF10BDF8B50025002436
:1030800000260027234840680C2108400546002DF3
:1030900004D0042D06D0082D2AD107E0214822496A
:1030A000086029E01F482049086025E01948406869
:1030B0000F2189040840044616484068012109048C
:1030C00008400646A00C841C002E04D1174860431B
:1030D000154908600BE00F48C06A0007000F471C45
:1030E0003946104803F08CF860430F49086003E04C
:1030F0000C480D49086000BF00BF06484068F02139
:10310000084000090A490D5C07480068E840064984
:103110000860F8BD00100240002002400CB8FFF823
:10312000FFFFF6FE00127A00FC01002000093D00BE
:103130000002002010B504210F20FFF738FB0A2100
:103140000E20FFF734FB01210820FFF730FB01219F
:103150000220FFF72CFB01210846FFF728FB012185
:103160001320FFF724FB01211220FFF720FB012190
:103170001620FFF71CFB0A211720FFF718FB0A2176
:103180000846FFF714FB0A211520FFF710FB012169
:103190001720FFF749FB01210E20FFF745FB002117
:1031A0000F20FFF7E0FBFE490A20FFF7DCFB0120C0
:1031B000FC490860FC4908600420FC49086010BD17
:1031C00070B5049CFA4D2860FA4D2960FA4D2A60CA
:1031D000FA4D2B60FA4D2C600025FA4E3560FA4E00
:1031E00035600125F94E357070BD0246501AF84B16
:1031F000186018460068EE4B1B685843F54B186082
:10320000F3480068002809DDF1480068E94B1B68B5
:103210005843EC4B1B68181AEA4B1860EC480068DE
:10322000002809DAEA480068E24B1B685843E54B7E
:103230001B68C018E34B1860E2480068DF4B1B684E
:10324000984203DADD480068DE4B1860DD4800680C
:10325000DB4B1B68984203DDD9480068D94B1860E6
:10326000DA480078002804D00020D84B1870D648DF
:103270000160D5480068081ACF4B1B685843D64BED
:103280001860D1480160D3480068CE4B1B68C01855
:10329000D14B1B68C01AD14B186018460068C74B49
:1032A0001B68984203DAC5480068CC4B1860CB48CD
:1032B0000068C34B1B68984203DDC1480068C74BD8
:1032C0001860C6480068C64B181AC44B18601846E8
:1032D000006819235843C14B186018460068B04B6A
:1032E000984202DD1846BD4B1860BC4800680028B3
:1032F00002DA0020B94B1860B8480068704710B572
:1033000004460BE02178641CB648FEF79DFC00BF24
:103310004021B448FEF7ACFD0028F9D02078002801
:10332000F0D110BD00B589B001214804FDF77BFB49
:1033300001218803FDF785FB01220921C806FDF75D
:103340002AF801220A210920C006FDF724F80120ED
:10335000400201900321684641720221017200215E
:1033600081720121C17201A90920C006FCF78AFF00
:1033700001208002019003216846417202210172FE
:10338000002181720121C17201A90920C006FCF748
:1033900079FF9548006803900020049005900690FE
:1033A00008900C20079003A98E48FEF713FB01221A
:1033B0008E498C48FEF728FD01218A48FEF793FBD1
:1033C0001B20012181408A4A116000BF09B000BD65
:1033D00070B586498348FEF757FD002820D0814804
:1033E000FEF736FCC4B20D2C08D00A2C06D02346BA
:1033F000804A81A1104602F009FD10E07D4802F0EC
:1034000037FE05462A467B497D4802F053FE79483F
:1034100002F02EFE05462946764802F0A8FE00BFBF
:103420007848006801285ED1754800784E2801D19F
:10343000012000E00020724909786E2901D10121A4
:1034400000E00021084300284DD000206E490860AC
:103450006B484078002846D069480079002842D05F
:1034600000206A49086012E000206949674A126832
:103470008854634965480068401C095C6448634A95
:103480001268815461480068401C604908605F48C8
:1034900000680328E8DB5E4802F0D9FD5A4908605D
:1034A0005C480088096888420FD0554802F0E0FD6A
:1034B00004462146524802F05AFE534802685548D5
:1034C000018855A002F094FC0DE04F480088514956
:1034D00008804D4801685EA002F08AFC4D480088D3
:1034E000401C4C49088047480068002801D14949E0
:1034F0000880594800684249085C432801D10120EE
:1035000000E00020544909683D4A515C632901D11B
:10351000012100E00021084300283FD000203A4963
:1035200008604D480068401C3549085C002836D0CA
:1035300049480068801C085C002830D04648006874
:10354000401C085C31281ED143480068801C085C80
:10355000312808D101202B49086040A002F048FC26
:1035600004203D4908603C480068801C2449085CF0
:10357000302808D10020234908603CA002F038FC24
:1035800000203549086034480068401C1C49085C2C
:10359000322804D100201D49086087E0A4E097E0AC
:1035A000FFFF0000680200206C0200207002002073
:1035B0009C020020A0020020A4020020B0020020F3
:1035C000B4020020A8020020AC020020B8020020B3
:1035D000C8020020BC020020C0020020C40200205B
:1035E000410A0000003801401402002005010500D6
:1035F00000E100E0A0040020257325630000000026
:103600008C04002020020020340200203002002020
:10361000D80200201C0200200D0A206C696E652073
:103620006572726F722021212020204C696E652006
:103630006E756D6265722073756C642062652025FD
:103640006420206E6F74202564200D0A00000000A5
:103650006F6B4025640D0A00240200206C696E65C2
:1036600020636865636B204F4E0D0A006C696E65C0
:1036700020636865636B204F46460D0A000000001A
:103680000020FE49FE4A12688854FD480068801CEC
:10369000FC4909684018FC49085CF849F84A126876
:1036A0008854F7480068401CF5490860F4480068F1
:1036B0000328E5DBF14802F0CAFCF449086008463B
:1036C0000088F349088008460188F2A002F090FBC8
:1036D000EC480068401CEC49085C332804D1EC48F5
:1036E0000188F3A002F084FBF748007802287DD11E
:1036F000E4480068E449085C482801D1012000E062
:103700000020E0490968E04A515C682901D10121A3
:1037100000E00021084300286ED00020DB4908604B
:10372000EA490860D7480068401CD749085C00286F
:1037300062D00020D249086015E00021CF48D04A6D
:1037400012688154CE480068401CCE490968401870
:10375000CD49095CC948CA4A12688154C848006802
:10376000401CC7490860C64800680428E5DBC34818
:1037700002F06DFCC549086008460068D4498842DB
:1037800032DCC248006800282EDBD24800680028DE
:1037900001D1012000E00020CF490968002901D1B2
:1037A000012100E000210843002816D000210F204D
:1037B000FFF7D9F800210E20FFF7D5F80120C54901
:1037C00008600920C54908600120C3490860092034
:1037D000C34908600A20FFF76AFA0120C14908605E
:1037E000AA480068B9490860A84801E09AE203E0E5
:1037F0000168BDA002F0FCFAA2480068A249085C7A
:103800004F2801D1012000E000209E4909689E4A0E
:10381000515C6F2901D1012100E0002108430028FB
:103820000FD0B048006801280BD1B2490A20FFF739
:103830009AF80020AB490860A4490860AEA002F0E5
:10384000D7FA904800689049085C462801D10120C9
:1038500000E000208B4909688B4A515C662901D140
:10386000012100E00021084300287DD00020874985
:103870000860A349088083480068401C8249085CAE
:103880000028F2D07F480068801C085C0028ECD03B
:103890007C480068401C085C312862D100207849CF
:1038A000086015E000207549754A1268885474480C
:1038B0000068801C7349096840187349085C6F49A7
:1038C0006F4A126888546E480068401C6C49086052
:1038D0006B4800680328E5DB684802F0B8FB6B49D9
:1038E000086008460068002813DD08460068FF28C5
:1038F0000FDA08460078FF21081A0006000C8049FC
:103900000880084601880F20FFF72DF80120714933
:1039100008605E48006800280AD1401E7849088087
:10392000084601880F20FFF71EF80020694908604B
:1039300056480068FF280AD10020714908800846CF
:1039400001880F20FFF70FF80120624908604D48F9
:103950000068401C4C4A115C4C48026869A002F0A7
:1039600047FA4848006800E04BE0401C4649085CC4
:10397000322846D143480068801C085C4F2801D19A
:10398000012000E000203F490968891C3E4A515C43
:103990006F2901D1012100E000210843002806D051
:1039A00001210E20FEF740FF01204B4908603548F9
:1039B0000068801C3449085C462801D1012000E0E1
:1039C000002030490968891C2F4A515C662901D1C1
:1039D000012100E000210843002806D000210E202C
:1039E000FEF722FF00203C49086026480068801C42
:1039F000254B1A5C23480068401C195C44A002F067
:103A0000F7F9204800682049085C502801D10120BE
:103A100000E000201B4909681B4A515C702901D154
:103A2000012100E00021084300287BD00020174935
:103A300008603AA002F0DCF912480068401C124904
:103A4000085C00286ED00F480068801C085C0028C5
:103A500068D000200A4908606BE000200749084A46
:103A60001268885406480068801C06490968401896
:103A70000549085C0149024A126854E0D802002056
:103A800030020020240200208C0400203402002098
:103A90001C0200206368616E6765206C696E65209A
:103AA0006E756D2066726F6D2025640D0A00000032
:103AB0006C696E65206E756D2069732066726F6D1E
:103AC0002025640D0A00000011020020CC02002015
:103AD000410A0000680200206C02002070020020F1
:103AE00074020020380200206F6B404825640D0AE4
:103AF00000000000FFFF00006F6B404F0D0A000048
:103B0000780200206F6B4046256325640D0A000093
:103B10006F6B4046256325630D0A00006F6B4050B4
:103B20000D0A00005FE08854FE480068401CFD4913
:103B30000860FC48006803288FDBFB4802F087FA26
:103B4000FA490860FA480068401CFA49085C5028A5
:103B500001D1012000E00020F5490968491CF54A1F
:103B6000515C702901D1012100E0002108430028A7
:103B700003D0EE480068F0490860ED480068401C3A
:103B8000EC49085C492801D1012000E00020E84907
:103B90000968491CE74A515C692901D1012100E00B
:103BA00000210843002803D0E0480068E34908608A
:103BB000DF480068401CDF49085C442801D101202F
:103BC00000E00020DA490968491CDA4A515C64299E
:103BD00001D1012100E000210843002803D0D3488F
:103BE0000068D7490860D2480068D249085C4D286F
:103BF00001D1012000E00020CD490968CD4A515C87
:103C00006D2901D1012100E00021084300286ED078
:103C10000020C6490860C6480068401CC549085CC9
:103C2000002864D0C2480068401C085C312802D1DA
:103C30006420C4490880BE480068401CBD49085C37
:103C4000322802D1C820BF490880B9480068401C0A
:103C5000B849085C332803D1FF202D30B9490880CA
:103C6000B3480068401CB349085C342803D1FF20E6
:103C70009130B4490880AE480068401CAD49085CEA
:103C8000352803D1FF20F530AE490880A8480068E8
:103C9000401CA849085C362803D14B20C000A94924
:103CA0000880A3480068401CA249085C372803D15B
:103CB000AF208000A34908809D480068401C9D49B2
:103CC000085C382803D1192040019E490880984893
:103CD0000068401C9749085C392803D1E120800026
:103CE000984908809748018897A002F081F8904889
:103CF00000689049085C542801D1012000E00020B0
:103D00008B4909688B4A515C742901D1012100E07B
:103D100000210843002805D001208E4908608EA0AC
:103D200002F066F88E48007801287DD1804800684E
:103D30008049085C4C2801D1012000E000207C492A
:103D400009687C4A515C6C2901D1012100E0002105
:103D5000084300286BD0002074490860814908801E
:103D600073480068401C7349085C002858D00A2139
:103D70000846FEF71CFD01210A20FEF755FD002034
:103D80006849086015E000206749664A126888544F
:103D900064480068401C6649096840186549085C29
:103DA0006149604A126888545E480068401C5D4959
:103DB00008605C4800680328E5DB5B4802F047F9CF
:103DC0005A49086008460068002815DB0846006864
:103DD000FF2811DA084600780006000C61490880C7
:103DE0000A210F20FEF7E3FC5E4801880F20FEF752
:103DF000BAFD01205C4908604C480068FF280FD1DB
:103E00000020C043574908800A210F20FEF7CFFC4D
:103E1000544801880F20FEF7A6FD00205249086093
:103E20004248016851A000E001E001F0E1FF52A129
:103E3000404802F0A1F9002805D150A001F0D8FFB8
:103E400001205149086051A13A4802F095F9002833
:103E500005D14FA001F0CCFF012050490860344843
:103E600000683449085C522801D1012000E000209C
:103E70002F4909682F4A515C722901D1012100E0C4
:103E80000021084300284AD00020454908804549C0
:103E9000088045A001F0ACFF0020224908600CE03A
:103EA0000820FEF7DDFC3F49098840183D4908809D
:103EB0001C480068401C1B4908601A4800680A2812
:103EC000EEDB3BA001F094FF25480078012802D1E9
:103ED00044A001F08DFF22480078022802D146A0BC
:103EE00001F086FF00224A4B4AA001F081FF1C48E6
:103EF0000078022814D10A212A48008802F08AF9A1
:103F00004A4908800846008840004949085A24491F
:103F1000088012A001F06CFF214801888AE0F2E0DD
:103F2000CAE0000030020020D80200203402002045
:103F3000240200208C0400209C020020A00200200B
:103F4000A4020020600200206F6B404D25640D0A22
:103F5000000000003C0200206F6B40540D0A00007E
:103F600011020020780200204C0200206F6B404CB0
:103F700025640D0A00000000696430000D0A20521B
:103F800065616420494430004002002069643100CA
:103F90000D0A20526561642049443100440200202A
:103FA000DC020020E40200206F6B40520D0A00008A
:103FB0002A2A2A2A2A2A2A2A2A2A2A2A2A2A2A2A61
:103FC0002A2A2A2A2A2A2A2A2A2A2A2A2A2A2A2A51
:103FD0002A2A2A2A2A2A2A2A2A2A2A2A2A2A2A2A41
:103FE0002A0D0A00464C5558204C61736572204DCD
:103FF0006F64756C650D0A00464C55582050726907
:104000006E746572204D6F64756C650D0A0000005A
:104010000000F03F46575F56657273696F6E203A35
:10402000207625332E31660D0A000000DE020020C6
:104030008C830008CBA001F0DBFED1480188D1A021
:1040400001F0D6FED5480168D5A001F0D1FED748D1
:104050000168D7A001F0CCFED8480168D8A001F0D3
:10406000C7FEDA480068012808D1D9A001F0C0FED7
:10407000DD480168DDA001F0BBFE02E0DFA001F039
:10408000B7FEE4480168E4A001F0B2FEE64800682B
:10409000012803D1E5A001F0ABFE02E0E8A001F0A9
:1040A000A7FEEC480068012803D1EBA001F0A0FEB8
:1040B00002E0EEA001F09CFEF148007801280DD14D
:1040C000CDA001F095FEEF480068012803D1EEA0D5
:1040D00001F08EFE02E0F1A001F08AFEC6A001F020
:1040E00087FEF4480168F4A001F082FEF6480168FA
:1040F000F6A001F07DFEF9480168F9A001F078FE14
:10410000FE4801F075FEFE480068FE49085C4B2839
:1041100001D1012000E00020F9490968F94A515C09
:104120006B2901D1012100E000210843002805D0BE
:104130000120E5490860F4A001F05AFEF04800684B
:10414000F049085C532801D1012000E00020EC492F
:104150000968EC4A515C732901D1012100E000217A
:104160000843002805D00120D2490860E8A001F0EA
:104170003FFEE3480068E349085C5A2801D101206A
:1041800000E00020DE490968DE4A515C7A2901D14D
:10419000012100E00021084300280DD0DEA001F03D
:1041A00027FE00BFBFF34F8FDD48DE49C860BFF375
:1041B0004F8F00BF00BFFEE7D1480068D149085CBF
:1041C000412801D1012000E00020CD490968CD4AF5
:1041D000515C612901D1012100E000210843002840
:1041E0006DD00020D0490860C5480068401CC54912
:1041F000085C002863D0CDA1C24801F0BDFF0028B3
:1042000001D1012400E00024C9A1BE4801F0B4FF9F
:10421000002801D1012000E000200443002C02D03E
:10422000002097490870C3A1B64801F0A5FF0028F7
:1042300001D1012400E00024BFA1B24801F09CFF9D
:10424000002801D1012000E000200443002C02D00E
:1042500001208B490870B9A1AA4801F08DFF002800
:1042600001D1012400E00024B5A1A64801F084FF9B
:10427000002801D1012000E000200443002C02D0DE
:1042800002207F490870AFA19E4801F075FF002809
:1042900001D1012400E00024ABA19A4801F06CFF99
:1042A000002801D1012000E000200443002C02D0AE
:1042B0000320734908709349A4A001F099FD904828
:1042C00000689049085C512801D1012000E00020DD
:1042D0008B4909688B4A515C712901D1012100E0A9
:1042E0000021084300281CD000204A4908600A2108
:1042F0001520FEF75CFA00211520FEF795FA002044
:104300006C490860934908609349086093490860C4
:10431000934908602D4908605A49086091A001F04E
:1043200067FD784801F0A4FE04462146754801F077
:104330001EFF70BD10B564208C49096888470020B5
:104340008B4908808B4908800220FEF789FA88494A
:10435000088064208549096888470120FEF780FAB3
:10436000844909E143757272656E742054656D70FD
:10437000726174757265203A25640D0A00000000B0
:104380006002002054656D706572617475726520FD
:104390004C696D6974203A25640D0A009C02002066
:1043A0004B70203A25640D0A00000000A002002096
:1043B0004B69203A25640D0A00000000A402002089
:1043C0004B64203A25640D0A0000000038020020EA
:1043D00048656174657220537461747573203A2066
:1043E0004F4E0D0A00000000CC020020536574708F
:1043F0006F696E74203A25640D0A00004865617487
:10440000657220537461747573203A204F46460DCF
:104410000A0000003C0200207420666C6167203AAC
:1044200025640D0A000000006802002046616E311C
:1044300020537461747573203A204F4E0D0A0000AA
:1044400046616E3120537461747573203A204F4673
:10445000460D0A006C02002046616E3220537461E2
:10446000747573203A204F4E0D0A000046616E327B
:1044700020537461747573203A204F46460D0A002C
:10448000110200204C0200204C61736572205374AD
:1044900061747573203A204F4E0D0A004C617365AC
:1044A0007220537461747573203A204F46460D0A8A
:1044B00000000000480200207320666C6167203A0B
:1044C00025640D0A00000000500200206B20666C7D
:1044D0006167203A25640D0A0000000054020020A4
:1044E00073656E736F722063616C69627261746967
:1044F0006F6E203A25640D0A00000000B03F0008EE
:10450000240200208C0400206F6B404B0D0A000039
:104510006F6B40530D0A00006F6B405A0D0A00008C
:104520000400FA0500ED00E03402002041300000F4
:104530006130000041310000613100004132000073
:104540006132000041330000613300006F6B402591
:10455000730D0A004002002044020020580200208F
:104560005C0200206F6B40510D0A0000F801002032
:10457000E0020020E2020020088008460088FE4990
:1045800088422CD1FD480088FD49884201DB01208A
:1045900000E00020F9490988E1229200914201DC03
:1045A000012100E000210840002802D00220F54946
:1045B0000870F2480088BA2801DB012000E00020E2
:1045C000EE490988AF229200914201DC012100E00E
:1045D00000210840002802D00120EA49087010BDDF
:1045E00088B00020E8490860E8490880E849088068
:1045F000FEF798FEFEF79EFD7D21C900E5480068A4
:1046000001F0FEFD07900798401EE349884201D95A
:1046100001200DE00798401EE04948610321081F72
:1046200001F03BF80020DD49886107200861002087
:10463000002801D000BFFEE75D20FBF7B1FF002896
:1046400001D0FCF752FAD648FDF7C2FD0520FDF770
:10465000C2FDD44800688003000C0790FDF7BEFD42
:10466000FDF7BFFDFDF7C4FDCF480023CF4A5A2117
:104670000090FF202D30FEF7A3FDCDA001F0B8FB88
:10468000FFF758FEBF48007802280CD10820FEF73B
:10469000E7F8BE49088008460088C82803DDD449E9
:1046A0000A20FEF760F9F9E3D2A001F0A1FBD3489C
:1046B000006801285DD10020B44908800820FEF779
:1046C000CFF8B249088008460188CDA001F090FBE0
:1046D000AE4800884000CD49085A01460790CCA05A
:1046E00001F086FBCD480068002801D1C34908606D
:1046F000CA480068012816D10A211520FEF757F88C
:10470000C748008880B2014607901520FEF78CF854
:10471000C348006801214840C1490860FF20F530C6
:10472000C04909688847C0480068012821D10A218A
:104730001C20FEF73CF8BA48008880B2014607907A
:104740001C20FEF771F80A211B20FEF730F8B44850
:10475000008881B21B200791FEF766F8B048006818
:1047600001214840AE490860FF20F530AD49096895
:104770008847AE48006801282BD100208349088073
:104780000220FEF76DF88149088008460188A8A03C
:1047900001F02EFB7D48008802F019FAA74AA84BC9
:1047A0000391029002F016FA0591049001F0D8FDF1
:1047B000A449079002F05CFBA34908600846006822
:1047C00002F02CFB02460B46079106909FA001F0D9
:1047D0000FFBA148006801282BD100206B490880FD
:1047E0000120FEF73DF869490880084601889BA032
:1047F00001F0FEFA6548008802F0E9F98F4A904B13
:104800000391029002F0E6F90591049001F0A8FDF1
:104810008C49079002F02CFB8B4908600846006821
:1048200002F0FCFA02460B460791069087A001F0C1
:10483000DFFA8D480068002829D16D490A20FEF76B
:1048400092F879480068012821D10A211C20FDF73F
:10485000AEFF7348008880B2014607901C20FDF728
:10486000E3FF0A211B20FDF7A2FF6D48008881B2FB
:104870001B200791FDF7D8FF6948006801214840D7
:1048800067490860FF20F53066490968884776481F
:10489000006801286ED10020744908803B490880D7
:1048A0003B4908800820FDF7DBFF394908800846AE
:1048B000008840005549085A344908805748006824
:1048C000012804D10846018869A001F091FA2F4817
:1048D00000886B490860084601686A480068FEF76E
:1048E00084FC694908601B2149020A20FEF75FF831
:1048F0006548008880B2014607900A20FEF733F829
:10490000604800686149098840185D490968884223
:1049100009DA5FA001F06CFA35490A20FEF723F8A6
:1049200000205149086040480068012823D10A212D
:104930001C20FDF73CFF01211C20FDF775FF0A211B
:104940001B20FDF734FF01211B20FDF76DFFFF2029
:10495000F5303449096888470A211C20FDF727FFF4
:1049600000211C20FDF760FF0A211B20FDF71FFF1F
:10497000002195E0BEE096E0FF030000E002002089
:10498000BD0200001102002030020020DC020020E5
:10499000DE020020FC010020FFFFFF0000E000E03D
:1049A0005555000018020020410A0000881300003D
:1049B0000D0A426F6F747570203E3E3E3E3E3E3E95
:1049C0003E3E3E3E3E3E3E3E3E3E3E3E3E3E3E3E07
:1049D0003E3E3E3E3E3E3E3E3E3E3E3E3E3E3E3EF7
:1049E0003E3E3E3E3E3E3E3E3E3E3E3E3E0D0A008A
:1049F000FFFF00000D0A2061616100003C02002001
:104A00000D0A20616463203A202564008C8300082D
:104A100020203E3E20256420000000005802002097
:104A200028020020F80100205C0200204002002043
:104A30000D0A20494430203A2025640066666666E7
:104A400066660A4000C07F445003002020203E3E9E
:104A50002025662000000000440200200D0A2049A5
:104A60004431203A2025640038020020E40200206E
:104A70000D0A2074656D70203A2025640000000046
:104A8000D0020020CC020020D402002060020020CE
:104A90000D0A204F5645522054454D50000000004D
:104AA0001B20FDF7C1FEFE480068012822D10A2123
:104AB0001520FDF77CFE01211520FDF7B5FEFF2036
:104AC000F530F849096888470A211520FDF76FFE7F
:104AD00000211520FDF7A8FEF3480168F3A001F0BE
:104AE00087F96420EF4909688847EF480068401C4F
:104AF000ED490860F248006801287CD10020F149A6
:104B00000860F1490860F1490860F1490860F1491D
:104B10000860F1490860F1490860F1490860F1490D
:104B20000860F1490860F1490860F1490860F148FE
:104B30000068002816D101F099F80F2001F0D5F88F
:104B4000ED49087008460078692806D1EBA001F00D
:104B50004FF90120E749086004E0E7480178EDA03B
:104B600001F046F90020D04908604EE06021102095
:104B700001F0F9F86021112001F0F5F8042112206C
:104B800001F0F1F8282001F0B0F8E9490870292077
:104B900001F0ABF8E64948702A2001F0A6F8E44994
:104BA00088702B2001F0A1F8E149C8702C2001F099
:104BB0009CF8DF4908712D2001F097F8DC49487115
:104BC000222001F092F8DB490870232001F08DF8D3
:104BD000D8494870242001F088F8D64988702520EB
:104BE00001F083F8D349C870262001F07EF8D1493E
:104BF0000871272000E0A2E201F077F8CD49487162
:104C0000A9480068401CA8490860A7480068032814
:104C1000ACDBC7484078000200B2C54909784018AB
:104C20008000019001F0CBFFC34AC44B0391029076
:104C300001F0D0FF0022C24B0591049001F07AFDF3
:104C40000791069001F08CFBA1490860B848C07834
:104C5000000200B2B649897840188000019001F046
:104C6000AEFFB54AB54B0391029001F0B3FF0022AD
:104C7000B34B0591049001F05DFD0791069001F0A2
:104C80006FFB94490860AA484079000200B2A84925
:104C9000097940188000019001F091FFA64AA74BC6
:104CA0000391029001F096FF0022A54B059104901C
:104CB00001F040FD0791069001F052FB8649086023
:104CC0009C484078000200B29A4909784018800058
:104CD000019001F074FF984A984B0391029001F003
:104CE00079FF0022964B0591049001F023FD079176
:104CF000069001F035FB794908608E48C0780002C3
:104D000000B28C49897840188000019001F057FF6B
:104D1000894A8A4B0391029001F05CFF0022884B84
:104D20000591049001F006FD0791069001F018FB33
:104D30006B4908607F484079000200B27D490979DB
:104D400040188000019001F03AFF7B4A7B4B0391B1
:104D5000029001F03FFF0022794B0591049001F091
:104D6000E9FC0791069001F0FBFA5E49086075487E
:104D700001685748006803F0FDF90021079003F02F
:104D800069FA0AD36F4801685148006803F0F2F9E4
:104D90000021079003F034FA64D26BA001F028F8E8
:104DA00000204149086032E0282000F09EFF604961
:104DB0000870292000F099FF5D4948700846407846
:104DC000000200B2097840188000019001F0F7FE5F
:104DD000594A5A4B0391029001F0FCFE0022584BB5
:104DE0000591049001F0A6FC0791069001F0B8FA35
:104DF00037490860084601683B48006803F0BAF983
:104E00003949086028480068401C2749086026483E
:104E100000686428C8DB4E493348006802F028F86F
:104E20002B4908600846006801F0F8FF02460B466F
:104E30000791069047A000F0DBFF2548006801219C
:104E4000C90748403F4908600846006801F0E6FF8E
:104E500002460B460791069041A000F0C9FF43A00F
:104E600000F0C6FF424801681A48006803F082F962
:104E70000021079003F0EEF90AD33D480168154878
:104E8000006803F077F90021079003F0B9F906D222
:104E900038A000F0ADFF002003496FE0FAE3CDE059
:104EA00058020020F8010020300200200D0A206383
:104EB0006F756E74203A202564200D0A00000000F2
:104EC00050020020FC020020000300200403002008
:104ED000180300201C0300202003002024030020CE
:104EE000280300202C03002030030020340300207E
:104EF0003803002054020020E60200200D0A4C5323
:104F00004D3644533320636F6E6E65637465642160
:104F1000000000000D0A2063686970206964206E3B
:104F20006F74206D61746368203A2025640A0A005A
:104F3000ED020020F30200209A9999999999234053
:104F4000E0FFEF403C0300200D0A204B58202100D9
:104F50000000C842204758203A20252E3266000023
:104F6000206B78203A20252E326600000D0A0000C2
:104F7000400300200D0A204B59202100086032E038
:104F80002A2000F0B2FEFE4988702B2000F0ADFE12
:104F9000FB49C8700846C078000200B28978401802
:104FA0008000019001F00BFEF64AF74B039102904E
:104FB00001F010FE0022F54B0591049001F0BAFBC0
:104FC0000791069001F0CCF9F149086008460168A4
:104FD000F048006803F0CEF8EE490860EE4800683B
:104FE000401CED490860EC4800686428C8DBEB49C8
:104FF000E848006801F03CFFE549086008460068A1
:1050000001F00CFF02460B4607910690E4A000F069
:10501000EFFEDF4800680121C9074840E349086006
:105020000846006801F0FAFE02460B46079106901A
:10503000DFA000F0DDFEE1A000F0DAFEE04801684C
:10504000E048006803F096F8059001F0E7FECD4ACD
:10505000CD4B0791069002F0F5FF6DD0DAA000F07D
:10506000C7FE0020CC49086032E02C2000F03DFE55
:10507000C34908712D2000F038FEC1494871084627
:105080004079000200B2097940188000019001F0D7
:1050900096FDBC4ABC4B0391029001F09BFD00229F
:1050A000BA4B0591049001F045FB0791069001F081
:1050B00057F9C449086008460168C548006803F00C
:1050C00059F8C3490860B4480068401CB2490860F8
:1050D000B14800686428C8DBB049BD48006801F0E9
:1050E000C7FEB84908600846006801F097FE02460E
:1050F0000B4607910690B7A000F07AFEB148006811
:1051000001F08CFE9F4AA04B0591049001F0FAFA41
:105110000791069001F024F9A94908600846006843
:1051200001F07CFE02460B4607910690AC4800F069
:105130005FFEA2A000F05CFE0020AA490860AA4819
:10514000006801287ED10020A8490860A8490860AD
:10515000A8490860A8490860A8490860A8490860EB
:10516000A84908608A49086096490860A64908600D
:105170008849086096490860A4480068002817D14B
:1051800000F074FD0F2000F0B0FDA1490870084642
:105190000078692804D19248643800F029FE04E0C0
:1051A0009B4801789BA000F023FE012097490860EE
:1051B0006021102000F0D7FD6021112000F0D3FD08
:1051C0000421122000F0CFFD282000F08EFD6C4954
:1051D0000870292000F089FD694948702A2000F0F4
:1051E00084FD674988702B2000F07FFD6449C870FA
:1051F0002C2000F07AFD624908712D2000F075FD29
:105200005F494871222000F070FD8A490870232010
:1052100000F06BFD87494870242000F066FD854949
:105220008870252000F061FD8249C870262000F0BA
:105230005CFD80490871272000F057FD7D494871C9
:105240004F4800E00AE24078000200B24C49097879
:1052500040188000019001F0B2FC4A4A4A4B039189
:10526000029001F0B7FC0022484B0591049001F038
:1052700061FA0791069001F073F8624908604048AE
:10528000C078000200B23E49897840188000019041
:1052900001F095FC3B4A3C4B0391029001F09AFCD3
:1052A00000223A4B0591049001F044FA07910690D0
:1052B00001F056F83649086031484079000200B2E2
:1052C0002F49097940188000019001F078FC2D4A9F
:1052D0002D4B0391029001F07DFC00222B4B059198
:1052E000049001F027FA0791069001F039F835494A
:1052F000086050484078000200B24E4909784018D2
:105300008000019001F05BFC1E4A1F4B039102904C
:1053100001F060FC00221D4B0591049001F00AFA97
:105320000791069001F01CF8434908604148C07895
:10533000000200B23F49897840188000019001F0D6
:105340003EFC104A104B0391029001F043FC0022F6
:105350000E4B0591049001F0EDF90791069000F0D5
:10536000FFFF3649086033484079000200B23149F6
:10537000097940188000019001F021FC014A5FE0AA
:10538000ED0200209A99999999992340E0FFEF4006
:105390001C03002034030020300200200000C8421B
:1053A000204759203A20252E326600004003002075
:1053B000206B79203A20252E326600000D0A00006D
:1053C00044030020200300200D0A204B5A20210016
:1053D0003803002020475A203A20252E326600004C
:1053E000604F00085002002048020020FC0200200C
:1053F0000003002004030020080300200C03002009
:105400001003002018030020300300205402002065
:10541000E60200200D0A2063686970206964204E4E
:105420006F74206D6174636820213A2025640A0A34
:1054300000000000F30200202403002028030020C5
:10544000B14B0391029001F0C5FB0022AF4B0591D7
:10545000049001F06FF90791069000F081FFAC49CC
:105460000860AC480168AC48006802F083FEAA49B5
:105470000860AA480168AA48006802F07BFEA849B3
:105480000860A8480168A848006802F073FEA649B1
:105490000860A148006801F0C1FC0022A34B0791FD
:1054A000069002F033FE20D39B48006801F0B6FC62
:1054B00000229F4B0791069002F0F6FD15D3984805
:1054C000006801F0ABFC0022984B0791069002F0B7
:1054D0001DFE0AD39248006801F0A0FC0022944B04
:1054E0000791069002F0E0FD7ED29248006801F03C
:1054F00095FC00228D4B0791069002F007FE36D3F3
:105500008C48006801F08AFC0022894B07910690C4
:1055100002F0CAFD2BD38848006801F07FFC00220E
:10552000824B0791069002F0F1FD20D3824800687B
:1055300001F074FC00227E4B0791069002F0B4FD4E
:1055400015D37348006801F069FC0022774B07917E
:10555000069002F0DBFD0AD36D48006801F05EFCA6
:105560000022734B0791069002F09EFD66D2412106
:1055700009066D48006802F06DFE5FD201206F4998
:1055800008706FA000F034FC0A211520FDF70FF918
:1055900001211520FDF748F90A211720FDF707F929
:1055A00000211720FDF740F95B48006801F036FC48
:1055B00002460B460791069069A000F019FC584876
:1055C000006801F02BFC02460B460791069067A08D
:1055D00000F00EFC5448006801F020FC02460B4627
:1055E0000791069064A000E028E000F001FC51481B
:1055F000006801F013FC02460B460791069061A07B
:1056000000F0F6FB4C48006801F008FC02460B462F
:10561000079106905EA000F0EBFB3D48006801F0AA
:10562000FDFB02460B46079106905CA000F0E0FBF4
:105630005DA000F0DDFB00205C4908603A4800688E
:105640005A4908600A211720FDF7B1F801211720F7
:10565000FDF7EAF800211520FDF7E6F8FCF7C1FD9B
:1056600053480068012816D100205249086010E014
:10567000504800684F490968491C4E4A116001466C
:1056800007904DA000F0B4FBFF20F5304E490968AB
:105690008847EDE7FFE7FFF707F810B5002819DAAC
:1056A0004A4A03071B0F083B9B089B00D2588307FD
:1056B000DC0EFF23A3409A438B071B0E8407E40EE6
:1056C000A3401A43414B0407240F083CA408A4003C
:1056D0001A5118E03E4A03231B02D21883089B008C
:1056E000D2588307DC0EFF23A3409A438B071B0E7F
:1056F0008407E40EA3401A43354B032424021B19EC
:105700008408A4001A5110BD99992340E0FFEF408E
:105710002C0300203C03002018030020400300203D
:105720001C03002044030020200300200000E03F71
:105730000000E0BF24030020280300204A030020CB
:105740000D0A20474F5421212121212121212121EE
:10575000212121212121212121212121212100007B
:105760000D0A2058203A20252E3266002059203A72
:1057700020252E3266000000205A203A20252E32A5
:1057800066000000204F58203A20252E3266000087
:10579000204F59203A20252E32660000204F5A20F3
:1057A0003A20252E326600000D0000001403002070
:1057B0002C020020300200200D0A20546573742052
:1057C0002564202121210000F80100201CED00E0CB
:1057D00000E100E010B50446F948844209D10121F6
:1057E0004805FBF766F9002101204005FBF761F948
:1057F00008E001218805FBF75CF900210120800504
:10580000FBF757F910BD10B50A46002103685B0885
:105810005B0003600168EB4B1940946824025368F5
:105820002343194301600F2424061368A343036133
:10583000036801242343036000218160C16014696F
:10584000936923431946816083680124E403234359
:105850008360D16803680B4303604168DA4B1940E9
:1058600053691943416010BD0021016041608160AE
:10587000C16001610121C90341610021816170475B
:10588000002904D0026801231A43026003E0026881
:1058900052085200026070470168490849000160DF
:1058A000016801680122114301607047002A03D09A
:1058B00003680B43036002E003688B430360704797
:1058C000002905D0026801235B049A43026004E0CA
:1058D000026801235B041A4302607047002905D067
:1058E000026801239B041A43026004E0026801235A
:1058F0009B049A4302607047002905D0C2680123C7
:10590000DB031A43C26004E0C2680123DB039A434D
:10591000C260704770B50B460021C168AB4C214096
:10592000FE241C4015020726360235402C43214335
:10593000C16070BD002905D002680123DB041A4351
:10594000026004E002680123DB049A4302607047AE
:10595000002905D0026801231B041A43026004E0F9
:10596000026801231B049A43026070470A46002123
:105970004168890A890293059B0D1943416070476C
:10598000002905D042680123DB021A43426004E08B
:1059900042680123DB029A4342607047002905D028
:1059A000426801235B061A43426004E04268012317
:1059B0005B069A4342607047002905D04268012384
:1059C0001B061A43426004E0426801231B069A4307
:1059D0004260704710B50A4600214168FF24240444
:1059E0000B46A3431946130423401943416010BDDD
:1059F000002905D1426801239B029A43426004E0DA
:105A0000426801239B021A4342607047002905D077
:105A1000426801235B031A43426004E042680123A9
:105A20005B039A4342607047002905D04268012316
:105A30009B031A43426004E0426801239B039A439C
:105A400042607047002905D0426801231B031A43B6
:105A5000426004E0426801231B039A43426070479E
:105A6000002905D042680123DB039A43426004E029
:105A700042680123DB031A4342607047014688698C
:105A80007F2252041040000C704710B501460022DE
:105A900000208B690124240423401A46002A00D1E7
:105AA00001E00120800210BDF0B50C4600214168E4
:105AB000474D2940A505AD0D1604FF273F043E4084
:105AC00035431D43059E354329434160F0BD002900
:105AD00005D0026801239B051A43026004E00268B6
