:020000040800F2
:10000000A80F0020A5010008E1270008E327000849
:1000100000000000000000000000000000000000E0
:10002000000000000000000000000000E7270008BA
:100030000000000000000000E9270008EB2700088E
:10004000B7010008B7010008B7010008B7010008B0
:10005000B7010008B7010008392A0008532A000830
:10006000B7010008B7010008B7010008B701000890
:10007000B7010008B7010008B7010008B701000880
:10008000B7010008212A000800000000B70100089D
:10009000B7010008B7010008B7010008B701000860
:1000A000B7010008B7010008B7010008192A0008C5
:1000B000B701000800000000B701000800000000C0
:1000C00000F002F800F05EF80CA030C808382418E0
:1000D0002D18A246671EAB4654465D46AC4201D180
:1000E00000F050F87E460F3E0FCCB6460126334254
:1000F00000D0FB1AA246AB46334318477CEB000006
:100100009CEB00000023002400250026103A01D3B8
:1001100078C1FBD8520700D330C100D50B607047BF
:1001200010B5662902D10CF019FB10BD642902D16B
:1001300008F018FD10BD752902D108F013FD10BD9F
:10014000782902D108F044FD10BD732902D10AF0CC
:1001500063F910BD002010BD1FB50098019909F08A
:1001600064FE0AF053FB0400002000210CF0CAF8E2
:10017000401C6060002000210CF0DAF8E0601FBD38
:1001800010B510BD0AF09DFF1146FFF7E5FF02F024
:10019000CAFC0BF02DFA03B4FFF7F2FF03BC0BF01F
:1001A0008DFA00000748804707480047FEE7FEE752
:1001B000FEE7FEE7FEE7FEE704480549054A064B71
:1001C00070470000EF280008C1000008A8090020BF
:1001D000A80F0020A80B0020A80B002010B5044693
:1001E0000920C006844209D10121480400F033FCF3
:1001F00000210120400400F02EFC30E06E488442D3
:1002000008D10121000200F026FC0021200200F0AC
:1002100022FC24E06948844208D10121000200F058
:100220001AFC0021200200F016FC18E06448844209
:1002300009D10121080500F00EFC00210120000574
:1002400000F009FC0BE05F48844208D101218805D9
:1002500000F001FC00210120800500F0FCFB10BD36
:10026000F0B50A4600210023002400BF3DE001252F
:100270008D402B4615681D402C469C4234D1157983
:10028000012D02D01579022D16D185684F00032665
:10029000BE40B543856055794E00B540866835430C
:1002A0008560858801268E40B5438580858896794E
:1002B0008E40B6B23543858005684F000326BE40A8
:1002C000B543056015794E00B540066835430560B5
:1002D000C5684F000326BE40B543C560D5794E00C2
:1002E000B540C6683543C560491C1029BFD3F0BD71
:1002F00035490160002101710221417100218171A4
:10030000C171704708B5012212040092009A0A4395
:100310000092009AC261C161009AC261C2690092F2
:10032000C269009208BD02460020138A0B40002BD0
:1003300001D0012000E0002070470146088A704784
:1003400002460020938A0B40002B01D0012000E0E0
:10035000002070470146888A704781617047018597
:100360007047002A01D0816100E0018570478182D9
:100370007047F0B5002300244D07EE0E1546B5403A
:100380002B46CD10AE0005462035AD594E07F70E71
:100390000F26BE40B543CE10B60007462037BD51EC
:1003A000CD10AE003D46AD591D432C46CD10AD00DD
:1003B0003E467451F0BD00000004004800080048AB
:1003C000000C004800140048FFFF000010B5012198
:1003D000080700F05CFB00210120000700F057FB3C
:1003E00010BD002807D046490968FF220132114399
:1003F000434A116006E042490968FF2201329143F5
:100400003F4A11607047014600203D4A1068E023D2
:1004100002469A43104602460A431046384A106084
:100420007047002806D03649096810221143344A23
:10043000116005E03249096810229143304A116089
:100440007047002905D02E4A526802432C4B5A604F
:1004500004E02B4A52688243294B5A60704729496D
:10046000096904229143274A1161012801D130BF53
:1004700000E020BF704710B502460020204B1868EE
:10048000800880000346134318461D4B18601D4B1F
:100490001B69042423431B4C2361012901D130BF74
:1004A00000E020BF174B1B690424A343154C2361B4
:1004B00010BD13480068042108431149086008462C
:1004C0000068022108430E4908600E4800690421B3
:1004D00008430C49086130BF704701460020084AB4
:1004E00052680A40002A01D0012000E00020704735
:1004F0000349096882001143014A116070470000F6
:100500000070004000ED00E0FD4800680121084354
:10051000FB49086008464068FA490840F8494860C5
:1005200008460068F8490840F54908600846006830
:10053000012189048843F2490860084640683F2148
:1005400009048843EE4948600846C06A0009000172
:10055000C8620846006BFF2154318843E8490863AC
:100560000846406B400840004863002088607047A0
:100570000021E34A917011468870704710B5024619
:100580000021002300205111002902D1DC4C2368F6
:100590000BE0012902D1DA4C236A06E0022902D1DC
:1005A000D74C636A01E0D64C636BD106C90E0124B7
:1005B0008C401C40002C01D0012000E0002010BD28
:1005C00038B5002000900024002500BF1120FFF75F
:1005D000D5FF05460098401C0090052109020098AF
:1005E000884201D0002DF1D01120FFF7C7FF00286D
:1005F00001D0012400E00024204638BD014600203F
:10060000BF4A1068F82302469A431046CA001043B6
:10061000BB4A10607047002806D0B949096801221A
:100620001143B74A116005E0B54909684908490016
:10063000B34A1160704701460020B14A506BF8235D
:1006400002469A431046CA001043AD4A50637047B1
:10065000002806D0AA49496B01221143A84A5163D8
:1006600005E0A749496B49084900A54A516370470D
:10067000002806D0A249496B04229143A04A516345
:1006800005E09F49496B042211439D4A516370471D
:100690009B49096A49084900994A11621146096A49
:1006A00004229143964A11621146096A014311627C
:1006B00070479349096A18229143914A1162114681
:1006C000096A014311627047002806D08C49496AC3
:1006D000012211438A4A516205E08949496A490861
:1006E0004900874A51627047854A52683D231B047E
:1006F0009A43834B5A601A46526803460B431A4387
:100700007F4B5A607047002807D07D490968012255
:10071000120611437A4A116006E0794909680122FC
:1007200012069143764A1160704701460020744AD0
:10073000D06A0009000102460A431046704AD0629E
:100740007047002807D06E4909680122D20411437E
:100750006B4A116006E06A4909680122D20491439C
:10076000674A116070476649C871704701460020AA
:10077000634A50688008800002460A431046604A77
:10078000506070475E4840680C2108407047014641
:1007900000205B4A5068F02302469A431046024606
:1007A0000A431046564A5060704701460020544A9A
:1007B000506807231B0202469A43104602460A432A
:1007C00010464F4A506070474D49496801229203D4
:1007D00091434B4A51601146496882B21143484ADD
:1007E00051601146096B92159143454A11631146B8
:1007F000096B020C1143424A116370474049096B6F
:10080000402291433E4A11631146096B0143116333
:1008100070473B49096B10229143394A11631146D5
:10082000096B0143116370473549096B89088900D9
:10083000334A11631146096B014311637047FEB5DA
:1008400004460025002600200190009000272C4837
:1008500040680C2108400546002D04D0042D05D029
:10086000082D28D105E02948206027E0274820608E
:1008700024E0234840680F218904084006462048A8
:1008800040680121090408400190B00C861C0198C1
:10089000002803D11E48704320600BE01848C06A4E
:1008A0000007000F401C00901848009908F03EFB1C
:1008B0007043206002E01548206000BF00BF104870
:1008C0004068F021084005462D091248475D206820
:1008D000F84060600A484068072109020840054660
:1008E0002D0A0C48475D6068F840A0600448006B22
:1008F000FF2101310840884210D00748E0601BE02A
:10090000001002400CB8FFF8FFFFF6FE00127A005C
:1009100000093D0000000020809FD5007548406818
:10092000012189030840884203D0A0684008E060A4
:1009300002E0A0688008E0606E48006B402108403B
:10094000402802D06C48206102E00120C0032061F1
:100950006848006B10210840102802D06748606189
:1009600001E0206860616348006B8007800F002809
:1009700002D1A068A06119E05E48006B8007800F7B
:10098000012802D12068A06110E05A48006B80075E
:10099000800F022802D18003A06107E05548006B58
:1009A0008007800F032801D15448A061FEBD514942
:1009B000096A01434F4A11627047002807D04D4928
:1009C000096A0122D20311434A4A116206E04949E9
:1009D000096A0122D2039143464A116270470028F6
:1009E00007D04449096A012212041143414A1162A5
:1009F00006E04049096A0122120491433D4A11620E
:100A00007047002905D03B4A52690243394B5A616D
:100A100004E0384A52698243364B5A6170470029D4
:100A200005D0344A92690243324B9A6104E0314A5C
:100A3000926982432F4B9A617047002905D02D4A55
:100A4000D26902432B4BDA6104E02A4AD26982431D
:100A5000284BDA617047002905D0264A926A024382
:100A6000244B9A6204E0234A926A8243214B9A62A1
:100A70007047002905D01F4AD26802431D4BDA6037
:100A800004E01C4AD26882431A4BDA60704700299E
:100A900005D0184A12690243164B1A6104E0154A40
:100AA00012698243134B1A617047002905D0114A1D
:100AB000527A02430F4B5A7204E00E4A527A824332
:100AC0000C4B5A7270470B48406A012109060843D3
:100AD00008494862704701460020064A92680A4069
:100AE000002A01D0012000E00020704701498872EF
:100AF00070470000001002401280000000127A00CF
:100B000010B50446FE48844208D10121C014FFF705
:100B1000B0FF0021E014FFF7ACFF56E00120800792
:100B2000844208D101210846FFF7B1FF00210120CE
:100B3000FFF7ADFF49E0F348844208D101210220CC
:100B4000FFF7A5FF00210220FFF7A1FF3DE0EE48DF
:100B5000844208D101211020FFF799FF00211020C5
:100B6000FFF795FF31E0E948844208D10121801563
:100B7000FFF78DFF0021A015FFF789FF25E0E4486E
:100B8000844209D101210804FFF773FF00210120ED
:100B90000004FFF76EFF18E0DE48844209D101210E
:100BA0004804FFF766FF002101204004FFF761FFC2
:100BB0000BE0D948844208D101218804FFF759FF8E
:100BC000002101208004FFF754FF10BD002202889D
:100BD000CB4B984206D001239B07984202D0C94BC9
:100BE000984203D1CD4B1A404B881A43C64B9842CA
:100BF00003D0CB4B1A400B891A4302804B68C36267
:100C00000B880385BE4B984208D0C14B984205D053
:100C1000C04B984202D0C04B984201D18B7A0386D8
:100C20000123838270470021C94341600021018074
:100C300001814180817270470185828270470A4636
:100C400000210188B54B19400B461343194601801A
:100C5000704741627047C16270470146486A7047F9
:100C60000146088D7047002904D0028802231A43E8
:100C7000028004E00288A94B6E331A40028070475C
:100C8000002904D0028804231A43028004E0028869
:100C9000A24B6C331A4002807047002904D00288AE
:100CA00080231A43028004E002889C4B103B1A40C8
:100CB000028070470288994B68331A40028002888C
:100CC0000A43028070470288954B1A4002800288CE
:100CD0000A4302807047002904D0028801231A4386
:100CE000028004E002888D4B6F331A400280704707
:100CF0000A884B881A438B881A43CB881A430B897E
:100D00001A434B891A438B891A4344231A5270475A
:100D10000021018041808180C180018141818181E8
:100D20007047002907D04422125A0123DB031A43DB
:100D300044231A5205E04422125A53045B0C442205
:100D40001352704770B5002400220023058C734EA7
:100D50006F3635400584028C8388048B6F4D2C40A0
:100D6000B51E2C400D882C43751E2A408D892A43C0
:100D70004D882A43624DA84208D0654DA84205D04F
:100D8000644DA84202D0644DA84212D1634D68352B
:100D90002A40CD892A43614D6C352A408D882A43EB
:100DA0005E4D903D2B405F4D2B400D8A2B434D8A6D
:100DB0002B43838004838D684563028470BD70B5C6
:100DC000002400220023058C544E603635400584F3
:100DD000028C8388048B544D2C40514D2C400D784F
:100DE0002D062D0C2C434D4D50352A408D892D0557
:100DF0002D0C2A434D882D052D0C2A43404DA84229
:100E000019D1464D103D2A40CD892D052D0C2A4380
:100E1000424D30352A408D882D052D0C2A43434DF7
:100E20002B40434D2B400D8AAD042D0C2B434D8A96
:100E3000AD042D0C2B43838004838D68856302846D
:100E400070BD70B5002400220023058C334E903E07
:100E500035400584028C8388848B304D2C402F4D87
:100E60006D352C400D882C432E4D2A400D7B2D06D0
:100E70002D0C2A438D782D062D0C2A43204DA84297
:100E800017D12B4D2A408D7B2D062D0C2A43274D43
:100E90002A400D792D062D0C2A43264D2B40264D38
:100EA0002B400D8A2D052D0C2B434D8A2D052D0C25
:100EB0002B43838084838D68C563028470BD70B5C5
:100EC000002200230024058C1A4E35400584038C33
:100ED0008488828B144D2A40114D2A400D782D06AE
:100EE0002D0C2A43144D2B400D7B2D072D0C2B432D
:100EF0008D782D072D0C2B43014DA84224D11DE0E8
:100F0000002C014000040040001000400020004080
:100F10000040014000440140004801408FFF0000B4
:100F2000FFFC0000FFFD0000FF8F0000FFFB000042
:100F3000FFF70000FFEF0000FFDF0000FC4D2C403A
:100F40000D8AAD052D0C2C43848082838D68056449
:100F5000038470BD00210180418081808160818196
:100F6000C18101824182704770B503460020002490
:100F70001846183001258D40ACB21D8CA5431D8448
:100F8000002901D0082909D14D10281805687026BC
:100F9000B54305600568154305600DE00D1F2D0480
:100FA0006D0C2818056807263603B54305600568EB
:100FB0001606360C3543056070BD4163704781638A
:100FC0007047C1637047016470470A460021018B76
:100FD000D84B19400B4613431946018370470A4604
:100FE0000021018BD44B194013061B0C19430183BC
:100FF00070470A460021818BCE4B19400B461343A4
:101000001946818370470A460021818BCA4B1940DB
:1010100013061B0C194381837047002904D0828872
:1010200001231A43828004E08288C24B6F331A4046
:10103000828070470A460021018BBE4B68331940FD
:101040000B4613431946018370470A460021018B62
:10105000BA4B194013061B0C1943018370470A460B
:101060000021818BB34B683319400B46134319465B
:10107000818370470A460021818BB04B19401306CB
:101080001B0C1943818370470A460021018BA94B31
:101090006C3319400B4613431946018370470A46C7
:1010A0000021018BA64B194013061B0C1943018329
:1010B00070470A460021818B9E4B6C3319400B46CA
:1010C00013431946818370470A460021818B9C4B4C
:1010D000194013061B0C1943818370470A460021EF
:1010E000018B944B103B19400B4613431946018367
:1010F00070470A460021018B4904490C13061B0C5A
:101100001943018370470A460021818B894B103BAC
:1011100019400B4613431946818370470A46002144
:10112000818B4904490C13061B0C194381837047BA
:101130000A460021018C7F4B6E3319400B46134346
:101140001946018470470A460021018C794B6833A7
:1011500019400B4613431946018470470A46002183
:10116000018C744B5033194013051B0C1943018437
:1011700070470A460021018C6E4B103B1940130545
:101180001B0C1943018470470A460021018C6D4BEA
:10119000194013061B0C1943018470470A460021AD
:1011A000018C664B194013061B0C194301847047D0
:1011B0000A460021018C644B194013071B0C19438C
:1011C0000184704702895B4B68331A4002810289AF
:1011D0000A430281704730B5002301248C40A3B23A
:1011E000048C9C430484048C15468D40ADB22C4382
:1011F000048430BD30B5002304248C40A3B2048C99
:101200009C430484048C15468D40ADB22C43048469
:1012100030BD002904D0828804231A43828004E070
:101220008288444B6C331A4082807047828B474BD4
:101230001A408283828B0B061B0C1A4382837047F1
:10124000F8B50C460021002500260096068C404F7C
:101250003E400684818B058C2607360C00963D4E59
:1012600031401606360C31431E07360C31433A4ED8
:10127000354001273F03009E3E433543818305846B
:10128000F8BD828B2B4B64331A408283828B0A43D6
:1012900082837047F8B50C46002100250026009691
:1012A000068C244F903F3E400684818B058C260699
:1012B000360C00961F4E833E31401E05360C1643F9
:1012C0003143264E3540FF270137009E3E433543CC
:1012D00081830584F8BD028B1C4B1A400283028B6C
:1012E0000B061B0C1A4302837047F8B50C4600210D
:1012F000002500260096068C0E4F60373E4006847F
:10130000018B058C2605360C0096124E31401E07C7
:10131000360C31431606360C3143064E303E35400E
:101320001027009E3E43354301830584F8BD00002D
:10133000FFBF00008FFF0000FF8F0000FFF70000DD
:10134000FFFB0000FFFD0000FFDF0000FFF30000D7
:10135000FFEF0000FF0C0000FF5F0000FFF5000042
:10136000028BD84B1A400283028B0A4302837047D8
:10137000F0B50C4600210025068CD24F0B373E40BD
:101380000684018B058CCF4EE73E31401E05360C9E
:1013900016433143CB4EB61C354001262643354318
:1013A00001830584F0BD70B505460C4620880028F1
:1013B0000AD12389A28861882846FFF7D9FFE188EE
:1013C0002846FFF7CDFF25E0208804280AD123898D
:1013D000A28861882846FFF788FFE1882846FFF742
:1013E0007AFF17E0208808280AD12389A28861881B
:1013F0002846FFF74FFFE1882846FFF742FF09E044
:101400002389A28861882846FFF71AFFE1882846C9
:10141000FFF70CFF70BD0021018041800121818018
:101420000021C18001817047F8B505460C460026B1
:1014300001276088002801D1022600E00026A0884C
:10144000012801D1022700E001272088002814D1BB
:101450002389A28861882846FFF78AFFE188284609
:10146000FFF77EFF23893A4631462846FFF73DFFC6
:10147000E1882846FFF72FFF13E02389A2886188BF
:101480002846FFF732FFE1882846FFF724FF23892B
:101490003A4631462846FFF76BFFE1882846FFF7BA
:1014A0005FFFF8BD0146486B70470146886B704787
:1014B0000146C86B70470146086C7047002A03D08C
:1014C00083890B43838102E083898B438381704747
:1014D0008182704702460020138A0B40002B01D006
:1014E000012000E000207047CA430282704730B5F7
:1014F0000246002000230024158A0D402B469589C2
:101500000D402C46002B03D0002C01D0012000E020
:10151000002030BDCA430282704710B50B4613430A
:101520004824235210BD002A03D083890B438381B2
:1015300002E083898B4383817047002904D082882D
:1015400008231A43828004E082885E4B1B1D1A40E8
:101550008280704701895B4A521D114001817047AA
:101560000A4600210189574B643B19400B4613433F
:1015700019460181704730B504460D46294620467C
:10158000FFF7EEFF208907210843208130BDF8B521
:1015900004460D4616461F46602D06D13B460122E5
:1015A00031462046FFF7A1FE05E03B4601223146C9
:1015B0002046FFF7DDFE29462046FFF7D1FF2089B0
:1015C000072108432081F8BD30B50C460021018970
:1015D000C9B21D062D0C154325432943018130BD99
:1015E000FFB505460E46174600243A4631462846C2
:1015F000039BFFF7E9FF2C893248401D0440072078
:101600000443304864380440702004432C81FFBDFB
:10161000F0B504460D4616461F463B46324629465F
:101620002046FFF7D1FF208901218903084320814B
:10163000F0BD8288234B643B1A40828082880A4333
:101640008280704702891F4B5B1D1A40028102890C
:101650000A430281704702891A4B743B1A40028187
:1016600002890A4302817047F0B50C46002100252B
:1016700000260189058B068C124F7F1D39400F46CD
:1016800027433946104F3D40FF2702373D430D4F5A
:101690009E3F3E401F053F0C17433E43018105839B
:1016A0000684F0BD002904D0828880231A438280FA
:1016B00004E08288034B743B1A40828070475022BA
:1016C00011527047F3FF0000FCFC00003E483F4908
:1016D0000860002048608860C8603D4848617047E5
:1016E00000213A498279002A35D00A4612680368F7
:1016F0009A430B461A600A46526803689A430B469F
:101700005A60027951180A6803681A430A602F4A1E
:10171000926803689A432D4B9A601A46D268036810
:101720009A432A4BDA604279102A0CD11A46926801
:1017300003681A43254B9A601A46D26803681A4315
:10174000224BDA600DE02149427951180A6803689A
:101750001A430A6005E0027951180A6803689A433F
:101760000A6070470021016001710C214171002164
:1017700081717047154909690143144A1161704725
:1017800001460020114A52690A40002A01D0012076
:1017900000E0002070470D49486170470146002075
:1017A00000220A4B1B680B401A46084B5B690B4032
:1017B000002B03D0002A01D0012000E00020704758
:1017C00002494861704700000000940F0004014086
:1017D000FFFF6B0000218278002A27D0274A0323CD
:1017E0001B02D21803789B109B00D15802789207F5
:1017F000D30EFF229A400B46934319464278920734
:10180000120E03789B07DB0E9A4011431B4A0323F9
:101810001B02D21803789B109B00D1500278D3068C
:10182000DB0E01229A40154B1A6007E00278D306BE
:10183000DB0E01229A40114B80331A607047002959
:1018400005D00F4A126902430D4B1A6104E00C4A9D
:10185000126982430A4B1A617047042806D109496C
:10186000096904221143074A116105E00549096924
:1018700004229143034A11617047000000E100E037
:1018800000ED00E000E000E03A4800688007800FCB
:10189000384908600020886000213648C160016135
:1018A00041618069FF2101310843324988617047F5
:1018B000014600202F4A10688008800002460A4333
:1018C00010462C4A10607047002905D0294A12683A
:1018D0000243284B1A6004E0264A12688243254BD3
:1018E0001A607047002905D0224A12680243214B32
:1018F0001A6004E01F4A126882431E4B1A60704748
:1019000030B500228B071C0F0F23A3401A46194B3A
:1019100008338C10A4001B599343164C08348D10C7
:10192000AD00635123468C10A4001B598C07250F72
:101930000446AC4023430F4C08348D10AD00635176
:1019400030BD0C49896901430A4A916170470146DB
:101950000020084A9269FF2301331A40002A01D06F
:10196000012000E000207047024989690143014AD3
:10197000916170470000014010B50446F64884426A
:1019800009D101218803FFF774F8002101208003A9
:10199000FFF76FF80BE0F148844208D101214804B9
:1019A000FFF775F8002101204004FFF770F810BD23
:1019B000F0B589B004460D460027002008900026A7
:1019C0002068400840002060666803210903304613
:1019D00088430646A868064366602668E0480640D5
:1019E000E968686808432969084306432660A668D1
:1019F0000321090230468843064668690643A6600B
:101A000001A8FEF71CFFD448844202D10798089031
:101A100001E00398089020680121C90308400028CC
:101A20000CD02968089A500007F080FA0746296808
:101A3000089A500007F07AFA0E4609E029680898DB
:101A400007F074FA07462968089807F06FFA0E46FF
:101A500028684008B04200D87F1C20680121C903D3
:101A60000840002806D03807460F3846BD490840D0
:101A700030430746A78109B0F0BD4B21C901016081
:101A8000002141608160C1600C2101610021416140
:101A9000704710B5002242680F2424021346A34366
:101AA0001A464C680B6823438C682343CC68234355
:101AB0001A43426010BD0021016041608160C16035
:101AC0007047002904D0026801231A43026003E032
:101AD00002685208520002607047002A03D003686F
:101AE0000B43036002E003688B43036070470029E7
:101AF00005D002680123DB031A43026004E0026898
:101B00000123DB039A4302607047002905D08268F5
:101B10000123DB021A43826004E082680123DB02B6
:101B20009A4382607047002905D042680123DB0494
:101B30001A43426004E042680123DB049A43426096
:101B40007047002905D0426801239B041A43426074
:101B500004E0426801239B049A4342607047002AD4
:101B600003D043680B43436002E043688B43436008
:101B70007047002905D042680123DB031A43426005
:101B800004E042680123DB039A4342607047002966
:101B900005D042680123DB051A43426004E0426835
:101BA0000123DB059A43426070474269120E120618
:101BB000426142690A4342617047028AFF231B0265
:101BC0001A400282028A0A4302827047002904D026
:101BD000026802231A43026003E0026802239A4368
:101BE00002607047826803231B059A438260826803
:101BF0000A4382607047002905D0426801231B0513
:101C00001A43426004E0426801231B059A43426084
:101C10007047426803235B059A43426042680A4367
:101C200042607047CA05D20D028570470146888C14
:101C3000C005C00D704742681202120A4260426835
:101C40000B061A4342607047002905D00268012341
:101C50005B031A43026004E0026801235B039A43BA
:101C60000260704702680123DB029A430260026847
:101C70000A4302607047426810239A4342604268F8
:101C80000A4342607047426820239A434260426898
:101C90000A4342607047002905D0426801239B0334
:101CA0001A43426004E0426801239B039A43426066
:101CB0007047002904D0826808231A43826003E039
:101CC000826808239A4382607047028AD2B20282F5
:101CD000028A0B021A4302827047002904D08268EC
:101CE00020231A43826003E0826820239A438260A3
:101CF0007047002904D0826810231A43826003E0F1
:101D0000826810239A4382607047826807235B04CD
:101D10009A43826082684B041A438260704742692A
:101D20001202120A426142690B061A43426170476D
:101D3000826804239A43826082680A438260704703
:101D4000002904D0826802231A43826003E082687B
:101D500002239A43826070470038014000440040EB
:101D6000F3E9FFFFF0FF0000002905D0826801239E
:101D70009B031A43826004E0826801239B039A4319
:101D80008260704782680123DB039A438260826825
:101D90000A438260704702681F235B059A43026012
:101DA00002684B051A430260704702681F231B0438
:101DB0009A43026002680B041A4302607047002ACB
:101DC00003D083680B43836002E083688B438360A6
:101DD0007047826801235B039A43826082680A43EA
:101DE00082607047F8B5034600240026009600255F
:101DF000002018460E04340ECEB200960127009E35
:101E0000B7403D46022C01D1001D02E0032C00D159
:101E10000830002A03D006682E43066002E00668F8
:101E2000AE430660F8BD002A03D0038B0B43038347
:101E300002E0038B8B4303837047826801231B03FB
:101E40009A43826082680A4382607047024600209B
:101E5000D3690B40002B01D0012000E00020704727
:101E60000162704770B502460B4600240021002530
:101E700000201E04350ED9B201268E403146012DB8
:101E800002D11668314006E0022D02D15668314079
:101E900001E0966831401C0C0126A6403446D66904
:101EA0003440002903D0002C01D0012000E00020A4
:101EB00070BD10B5002300220B0C01249C4022466B
:101EC000026210BD10B50446B548844207D1012115
:101ED0004015FEF7CEFD00216015FEF7CAFD10BDCE
:101EE00010B50022C268AF4B1A400C7964030B682E
:101EF00023438C682343CC6823430C6923434C69F8
:101F000023431A43C26010BD00210160017181604A
:101F1000C160016141617047002904D082680123DA
:101F20001A43826003E0826802231A43826070478A
:101F3000002A03D003690B43036102E003698B436A
:101F400003617047002905D0C2680123DB031A43EF
:101F5000C26004E0C2680123DB039A43C260704799
:101F6000002905D0C26801239B031A43C26004E024
:101F7000C26801239B039A43C2607047002905D0C1
:101F8000C2680123DB051A43C26004E0C268012372
:101F9000DB059A43C26070470B041343036270472A
:101FA00010B50A460021C1681F24A4060B46A343AE
:101FB00019460B4613431946C16010BD002905D0D0
:101FC000C26801239B051A43C26004E0C268012372
:101FD0009B059A43C2607047002807D07249896800
:101FE0000122D2051143704A916006E06E4989686A
:101FF0000122D20591436C4A91607047002807D0B6
:1020000069498968012292051143674A916006E097
:1020100065498968012292059143634A916070473E
:10202000002807D0604989680122120611435E4AE0
:10203000916006E05C4989680122120691435A4A80
:102040009160704710B50B460021846A1C4384627E
:1020500000BF0C4614432146416110BD002905D044
:10206000C26801235B031A43C26004E0C268012313
:102070005B039A43C2607047002905D0C268012300
:102080001B041A43C26004E0C26801231B049A4384
:10209000C2607047002905D0C26801231B031A43A0
:1020A000C26004E0C26801231B039A43C260704708
:1020B00030B501460020002200238C680125ED0781
:1020C0002C438C6000BF8C68E30FDB07521C0F248D
:1020D0002403A24201D0002BF5D18C68E40FE40761
:1020E000002C01D1086C00E0002030BD8168102276
:1020F00011438160704781680422114381607047F9
:102100000146086C80B27047002904D0C2680123E0
:102110001A43C26003E0C26852085200C2607047AE
:10212000C26802239A43C260C2680A43C260704711
:10213000002A03D043680B43436002E043688B43AB
:102140004360704730B50246002000230124240676
:102150000C40002C05D0946801252D06AC43234685
:1021600000E013681C460C40002C01D0012000E068
:10217000002030BD0160704710B5024600200023EA
:1021800054680C40234614680C40002C03D0002BEC
:1021900001D0012000E0002010BD01607047000068
:1021A0000024014003D2FFFF002701400146002028
:1021B000FE4A10684008400002460A431046FB4AA7
:1021C00010607047002806D0F849096810221143B2
:1021D000F64A116005E0F549096810229143F34A77
:1021E000116070470020F149096820221140002940
:1021F00001D0012000E000207047EC4800698021F8
:102200000840002804D0EA48E8494860E9484860A6
:102210007047E648006980210843E4490861704737
:102220000420E249C968C907C90F002901D001206B
:1022300010E0DE49C96810221140002901D00220B7
:1022400008E0DA49C96804221140002901D00320BE
:1022500000E00420704710B503460424FFF7E0FFB8
:10226000044603E0FFF7DCFF04465B1E012C01D1AE
:10227000002BF7D1002B00D10524204610BD30B52E
:10228000044604250B200004FFF7E5FF0546042D56
:1022900017D1C648006902210843C44908610846AD
:1022A0004461006940210843C04908610B200004D3
:1022B000FFF7D1FF0546BD48006902218843BB49AD
:1022C0000861284630BD10B504240B200004FFF738
:1022D000C2FF0446042C16D1B44800690421084307
:1022E000B24908610846006940210843AF490861C6
:1022F0000B200004FFF7AFFF0446AC48006904213F
:102300008843AA490861204610BD78B506460C46A8
:102310000425002000900B200004FFF79CFF0546D9
:10232000042D24D1A1480069012108439F49086177
:1023300034800B200004FFF78EFF0546042D10D1DA
:10234000B01C0090200C009908800B200004FFF7BF
:1023500082FF05469548006940084000934908619E
:1023600005E092480069400840009049086128460D
:1023700078BD70B504460D4604260B200004FFF717
:102380006AFF0646042E11D18848006901210843DE
:102390008649086125800B200004FFF75CFF064694
:1023A000824800694008400080490861304670BD9D
:1023B0007E480069012149020840002804D17C4878
:1023C0007A4988607B4888607047784800690121B5
:1023D00049028843754908617047744800690121C2
:1023E0004903084371490861704700206F49C96972
:1023F00006221140002901D0012000E00020704792
:1024000030B5AA250424FFF7F0FF002800D00025EE
:102410000B200004FFF71FFF0446042C36D163484D
:10242000006920210843614908610846006940218C
:1024300008435E4908610B200004FFF70CFF0446C7
:10244000042C1BD159480069202188435749086151
:102450000846006910210843544908615648058020
:102460000B200004FFF7F7FE0446052C0ED04F4862
:102470000069102188434D49086107E0052C05D00B
:102480004A4800691021884348490861204630BD08
:10249000F0B50446494E37460425E443E6B2FF2032
:1024A00000022040070A0B200004FFF7D4FE054677
:1024B000042D21D13D480069102108433B490861A2
:1024C000FF2E06D03C4806810B200004FFF7C3FE18
:1024D0000546042D08D1FF2F06D0374847810B2031
:1024E0000004FFF7B8FE0546052D05D02F4800690A
:1024F000102188432D4908612846F0BD30B50546B6
:1025000004240B200004FFF7A6FE0446042C36D159
:1025100026480069202108432449086108460069CB
:1025200040210843214908610B200004FFF793FE76
:102530000446042C1BD11D480069202188431B49F7
:1025400008610846006910210843184908611A48C3
:1025500005800B200004FFF77EFE0446052C0ED0FC
:1025600012480069102188431049086107E0052CD2
:1025700005D00E480069202188430C490861204697
:1025800030BDF0B505460E46174604240B20000466
:10259000FFF761FE0446042C24D104480069102191
:1025A0000843024908612846304309E00020024000
:1025B00023016745AB89EFCD00F8FF1FFFFF000047
:1025C000F82139430843714948800B200004FFF784
:1025D00042FE0446052C05D06D4800691021884351
:1025E0006B4908612046F0BD30B5054604240B2038
:1025F0000004FFF730FE0446042C16D1644800693D
:102600001021084362490861EF2028435F49488050
:102610000B200004FFF71FFE0446052C05D05C4884
:102620000069102188435A490861204630BD30B501
:10263000054604240B200004FFF70DFE0446042C7D
:1026400016D1534800691021084351490861DF2021
:1026500028434E4948800B200004FFF7FCFD044648
:10266000052C05D04A480069102188434849086173
:10267000204630BD30B5054604240B200004FFF78A
:10268000EAFD0446042C16D1414800691021084394
:102690003F490861BF2028433C4948800B20000483
:1026A000FFF7D9FD0446052C05D0394800691021F3
:1026B000884337490861204630BD30B505460424BB
:1026C0000B200004FFF7C7FD0446042C16D1304848
:1026D0000069102108432E490861882028432B49AE
:1026E00048800B200004FFF7B6FD0446052C05D0FA
:1026F000274800691021884325490861204630BDDC
:1027000070B505460E4604240B200004FFF7A3FD18
:102710000446042C13D11E480069102108431C49AB
:1027200008612E800B200004FFF795FD0446052C60
:1027300005D01748006910218843154908612046D3
:1027400070BD1348C0690004000E70471048006A4D
:102750007047002905D00E4A126902430C4B1A61DA
:1027600004E00B4A12698243094B1A617047014623
:102770000020074AD2680A40002A01D0012000E068
:10278000002070470249C8607047000000F8FF1F32
:10279000002002400F49086070470E4948607047AA
:1027A0000C49886070470C480A490860704709491D
:1027B00008617047094807490860704701460020D2
:1027C000044AD2680A40002A01D0012000E000201B
:1027D0007047000000300040AAAA0000CCCC0000E6
:1027E000704700BFFEE7704770470A480068401C0A
:1027F0000849086008480068401C07490860074805
:102800000068002804D005480068401E034908609D
:10281000704700007C010020280000207401002087
:102820000CB5002001900090734800680121090454
:1028300008437149086000BF6F48006801214904DE
:10284000084000900198401C01900098002804D195
:102850000521090201988842EED1674800680121EC
:1028600049040840002802D00120009001E0002027
:1028700000900098012839D11120604908605E4815
:1028800040685D49486008464068486008464068BE
:102890003F2109048843584948600846406811218F
:1028A00009040843544948600846006801210906A4
:1028B00008435149086000BF4F480068012149069C
:1028C00008400028F8D04C484068800880004A49F9
:1028D000486008464068022108434749486000BFF5
:1028E000454840680C2108400828F9D10CBD10B5B6
:1028F00041480068012108433F4908600846406894
:102900003F4908403C494860084600683D49084046
:10291000394908600846006801218904884336491E
:102920000860084640683F210904884332494860EE
:102930000846C06A00090001C8620846006BFF2112
:10294000543188432C4908630846406B40084000D6
:10295000486300208860FFF763FF10BDF8B50025CD
:10296000002400260027244840680C210840054622
:10297000002D04D0042D06D0082D2AD107E02248CE
:102980002249086029E020482049086025E01A48CB
:1029900040680F2189040840044617484068012117
:1029A000090408400646A00C841C002E04D11848D7
:1029B0006043164908600BE00F48C06A0007000F2B
:1029C000471C3946104806F0B1FA60430F490860C9
:1029D00003E00D480D49086000BF00BF064840688D
:1029E000F021084000090B490D5C08480068E840E8
:1029F00006490860F8BD00000010024000200240B7
:102A00000CB8FFF8FFFFF6FE00127A00100000205D
:102A100000093D001400002010B501F04AFE10BD71
:102A200010B50121BE48FEF762FD012803D1012146
:102A3000BB48FEF76FFD10BD10B50420FEF7AEFEDB
:102A4000002805D0B748006880470420FEF7B8FE8C
:102A500010BD10B501200003FEF7A0FE002808D02D
:102A6000B1480088401CB049088001200003FEF7EF
:102A7000A7FE01208003FEF791FE002808D0AB4896
:102A80000088401CA949088001208003FEF798FEB9
:102A90002020FEF783FE002807D0A5480088401CB0
:102AA000A34908802020FEF78BFE10BD10B55D20E5
:102AB000FDF764FD012804D1800200F0BFFCFEF7A1
:102AC00002F8FFF770FE10BD10B5FDF71DFD0120E7
:102AD000FDF7A1FD00BF0120FDF750FD0028FAD051
:102AE0000020FDF754FE0020FDF75FFE0120FFF7F8
:102AF0005DFB0120FFF766FB0521C9040020FDF7FF
:102B0000F3FD0120FDF7FFFD00BF1920FDF736FDA5
:102B10000028FAD00220FDF729FE00BFFDF732FEA3
:102B20000828FBD110BD1CB50020019000900024A6
:102B3000FFF7CAFF7D21C9007E48006806F0F6F95C
:102B40000546681E7C49884200D90CE0681E7B4916
:102B500048610321081F00F0ABF800207749886125
:102B60000720086100BF322003F0F2FE01F0F4F903
:102B700000F06AFC01F0B7F901F0DBFC01F03FFD69
:102B800001F00FFA04F011F802F05BFB6C480078DA
:102B9000030009F056F8060714150408181C01F084
:102BA00011FC00BF00BF01F0FCFA01F057FB01F07F
:102BB000CFFB322003F0CCFE01F084FA07E006E000
:102BC00001F061FC03E0012000F038FC00BF00BF11
:102BD00001F03BFA00F0E0FE002801D101F00EF810
:102BE00001F08EFC63E0FFF761FF00F0D7FC544872
:102BF0000078002806D002280FD0032803D004282C
:102C000012D101E000BF00BF02F003F901F0CEFFD6
:102C100003F0DEFB04F0C4F806E004F0E1FB04F08E
:102C2000CEFA04F0D9F800BF00BF03F0B3FC01995D
:102C3000401A009000983C2831D303F0ABFC01907F
:102C400040480078002801D002F054FE3C4800784B
:102C5000002803D03A480078032820D113E001204F
:102C600000F0BBFD38490880084600886921C9008A
:102C7000884208DA354800683349098840183349E2
:102C80000860601C84B20A2CE9DB2146204606F06D
:102C900057F92D49088000202C49086000242C4851
:102CA000006802210840002801D103F00BFA9AE7DE
:102CB00010B5002819DA274A03071B0F083B9B08A9
:102CC0009B00D2588307DC0EFF23A3409A438B0757
:102CD0001B0E8407E40EA3401A431E4B0407240F67
:102CE000083CA408A4001A5118E01B4A03231B0245
:102CF000D21883089B00D2588307DC0EFF23A34021
:102D00009A438B071B0E8407E40EA3401A43124B11
:102D1000032424021B198408A4001A5110BD0000CA
:102D2000001000409C0100204C0100204E010020BA
:102D30005001002010000020FFFFFF0000E000E035
:102D400036000020350000206C00002070000020BC
:102D50002C0000201CED00E000E100E010B504466E
:102D6000F948844209D101214805FDF790FE002170
:102D700001204005FDF78BFE08E001218805FDF7E5
:102D800086FE002101208005FDF781FE10BD10B5F3
:102D90000A46002103685B085B0003600168EB4B97
:102DA00019409468240253682343194301600F2497
:102DB00024061368A34303610368012423430360CB
:102DC00000218160C16014699369234319468160C1
:102DD00083680124E40323438360D16803680B43C1
:102DE00003604168DA4B194053691943416010BDD3
:102DF0000021016041608160C16001610121C9035E
:102E00004161002181617047002904D002680123DB
:102E10001A43026003E002685208520002607047E1
:102E200001684908490001600168016801221143F5
:102E300001607047002A03D003680B43036002E07F
:102E400003688B4303607047002905D002680123A3
:102E50005B049A43026004E0026801235B041A43A6
:102E600002607047002905D0026801239B041A43C1
:102E7000026004E0026801239B049A4302607047E9
:102E8000002905D0C2680123DB031A43C26004E0B5
:102E9000C2680123DB039A43C260704770B50B46DA
:102EA0000021C168AB4C2140FE241C4015020726BE
:102EB000360235402C432143C16070BD002905D046
:102EC00002680123DB041A43026004E00268012364
:102ED000DB049A4302607047002905D00268012391
:102EE0001B041A43026004E0026801231B049A4396
:102EF000026070470A4600214168890A89029305E9
:102F00009B0D194341607047002905D04268012399
:102F1000DB021A43426004E042680123DB029A4369
:102F200042607047002905D0426801235B061A43BE
:102F3000426004E0426801235B069A4342607047A6
:102F4000002905D0426801231B061A43426004E0B1
:102F5000426801231B069A434260704710B50A4637
:102F600000214168FF2424040B46A343194613049F
:102F700023401943416010BD002905D14268012357
:102F80009B029A43426004E0426801239B021A4379
:102F900042607047002905D0426801235B031A4351
:102FA000426004E0426801235B039A434260704739
:102FB000002905D0426801239B031A43426004E0C4
:102FC000426801239B039A4342607047002905D061
:102FD000426801231B031A43426004E04268012354
:102FE0001B039A4342607047002905D042680123C1
:102FF000DB039A43426004E042680123DB031A4387
:1030000042607047014688697F2252041040000CDC
:10301000704710B50146002200208B69012424046A
:1030200023401A46002A00D101E00120800210BD91
:10303000F0B50C4600214168474D2940A505AD0D6E
:103040001604FF273F043E4035431D43059E35438C
:1030500029434160F0BD002905D0026801239B058A
:103060001A43026004E0026801239B059A43026050
:103070007047002905D042690123DB031A434261EE
:1030800004E042690123DB039A434261704700294F
:1030900005D042690123DB071A43426103E042691C
:1030A0005200520842617047002905D0426901234D
:1030B0001B031A43426104E0426901231B039A4344
:1030C000426170470A4600214169090B0903130553
:1030D0001B0D19434161704710B50A460021416933
:1030E0001E4B194013041D4CE44323401943416116
:1030F00010BD002905D002680123DB051A430260D8
:1031000004E002680123DB059A430260704700294E
:1031100005D0426801239B061A43426004E04268DE
:1031200001239B069A43426070470146086AC0B279
:10313000704708B5024600200090009200984018A1
:1031400000900098006808BD00540040FFE0CF00E8
:10315000FF7FFF0701F8FFFF009800FCFFFF00F072
:10316000816270470146486AC0B27047002A03D0A6
:1031700003680B43036002E003688B4303607047FE
:1031800010B502460023002093691C460C402346DC
:10319000002B01D0012000E0002010BDC16170476C
:1031A00070B502460023002000243F252D020D406B
:1031B000002D04D01568802635402C460BE0C02534
:1031C0000D40002D04D01568402635402C4602E005
:1031D00015680D402C4693691D460D402B46002B6B
:1031E00003D0002C01D0012000E0002070BDC1619F
:1031F0007047000000B589B00020FDF70AFB0121EF
:103200004805FDF71AFC01218804FDF7FAFB0122AD
:1032100006218748FDF7ADF8012207218448FDF714
:10322000A8F807A8FDF764F8022108A80170C020DB
:103230000790012108A8C17081700321417007A97E
:103240007B48FDF70DF86846FFF7D2FD002005909A
:103250000690019002900390049076480090694691
:103260007548FFF794FD01217348FFF7CDFD09B0C4
:1032700000BDF8B50546FF260120400300230122CA
:10328000D72100906C48FFF7D3FE03F083F9044682
:1032900009E003F07FF9001B022804D920206649C9
:1032A000C8610020F8BD64488069022108400028F8
:1032B000EFD029466048FFF753FF03F06BF904464F
:1032C00009E003F067F9001B022804D920205A49BD
:1032D000C8610020E6E7584880694021084000287E
:1032E000EFD009208002CB040122D7210090524860
:1032F000FFF79EFE03F04EF9044609E003F04AF999
:10330000001B022804D920204B49C8610020C9E7CE
:1033100049488069042108400028EFD04648FFF75B
:1033200021FF064603F036F9044609E003F032F9BE
:10333000001B022804D920203F49C8610020B1E7C2
:103340003D488069202108400028EFD020203A49DC
:10335000C8613046A6E7F8B505460E460120400391
:10336000C3020122D72100903348FFF761FE03F02A
:1033700011F9044608E003F00DF9001B022803D9F7
:1033800020202D49C861F8BD2B48806902210840E2
:103390000028F0D029462848FFF7E2FE03F0FAF8AB
:1033A000044608E003F0F6F8001B022803D92020A9
:1033B0002149C861E7E7204880698021084000284A
:1033C000F0D001211C48FFF7ADFD03F0E3F80446FF
:1033D00008E003F0DFF8001B022803D9202016497B
:1033E000C861D0E714488069022108400028F0D065
:1033F00031461148FFF7B4FE00210F48FFF7A0FD4A
:1034000003F0C8F8044608E003F0C4F8001B0228E3
:1034100003D920200849C861B5E707488069202101
:1034200008400028F0D020200349C86100BFAAE767
:10343000000400481210730000540040F949096864
:103440000143F84A1160704700B50420FFF7F6FF0A
:1034500000BDF44909688143F24A11607047014692
:10346000F048006808407047EF4909680143EE4A98
:1034700011607047EC4909688143EB4A116070475D
:103480000146E94800680840704710B50020E74948
:10349000087001208002FFF7F3FF002803D0E4A1A9
:1034A000E24805F0BDFC0120C002FFF7E9FF00285B
:1034B00003D0E3A1DD4805F0B3FC01200003FFF7D2
:1034C000DFFF002803D0E2A1D84805F0A9FC0120C5
:1034D0004003FFF7D5FF002803D0E0A1D34805F053
:1034E0009FFC01208003FFF7CBFF002803D0DFA162
:1034F000CE4805F095FC0120C003FFF7C1FF00286E
:1035000003D0DDA1C94805F08BFCC84810BD70B5DB
:103510000446002506E0A168485D05F0A1FAA1680F
:1035200048556D1CA089A842F5DC70BD70B50546F4
:103530000C46284605F052FC86B23146284603F078
:103540000AF8A04201D1012070BD0020FCE770B54F
:10355000CCB005460C461DE0601E80B20446285CD7
:103560002A2817D12246294601A805F065FC00202B
:1035700001A90855611C681805F01AFCC6B231464D
:1035800001A8FFF7D3FF002802D001204CB070BD86
:103590000020FBE7002CDFD10020F7E7F8B5BA48A0
:1035A0000078002835D1B9480078030008F049FBBD
:1035B00006041D2605062F3000BF00BFB448006872
:1035C000B449884202D9002001F0FAFB01F09CF9CD
:1035D000074606F0B9FA0546AF4AB04B08F0F0FED0
:1035E00002D2002002F08BFE12E0A9480068A9492F
:1035F000884202D9002001F0E3FB09E0A4480068FA
:103600007D210901884201D903F093FD00E000BF4C
:1036100000BFA348807B002800D1F8BDA04988687E
:10362000A0A105F03FFC002806D09D4988689FA115
:1036300005F038FC002803D10120934908700EE002
:10364000974A91899068FFF782FF002807D18E483A
:103650000078002803D1924801F022F8DDE7904974
:10366000886894A105F0B2FB04469349204605F012
:1036700019FC002803D08A4801F012F8CDE78848E9
:10368000FFF745FF81480078030008F0DAFA0604E6
:103690000A10161C222803F0D5FE00207C49086081
:1036A0001DE004F017FA00207949086017E003F0E4
:1036B000F6FB00207649086011E004F0D5FA0020FE
:1036C000734908600BE004F037FE00207049086081
:1036D00005E004F001FA00206D49086000BF00BF5A
:1036E0006F4800F0DDFF00BF97E774487047F0B502
:1036F00085B073480468476872486040B84210D18A
:10370000204606F05DFB019006F01EFA05460022F9
:103710006D4B05F0A5FE0391029005F0B7FC05B0D6
:10372000F0BD0020FBE7F8B505466849284608F0DB
:103730001DFF074606F0E2FA044600F091FCFEF792
:103740005CFD3520FFF71EF85D48FEF798FD214629
:103750005B48FEF7DAFD5B48604001465848001DB3
:10376000FEF7D3FDFEF755FD00F06FFC54480668E8
:10377000A64201D10120F8BD0020FCE770B5044647
:10378000204605F02BFB86B2002512E0701E205C5F
:103790000D2804D1701E002801DD012070BD605D80
:1037A000302802DB605D392801DD0020F6E7681C67
:1037B00085B2B542EADB0120F0E7704770B50446F8
:1037C000002506E0A168485D05F03DF9A16848556F
:1037D0006D1CA089A842F5DC70BD10B586B004460A
:1037E0003B48FEF76FFB6846FEF78EFB002000901B
:1037F0000120694608710020029004900590344829
:10380000FEF76EFB002C05D1072201213048FEF7A0
:1038100019FC80E0012C5DD1072202212C48FEF723
:1038200011FC78E02C00002030000020B4010020C2
:10383000544845524D414C5F53484F52542C000060
:10384000544845524D414C5F4F50454E2C000000AE
:103850004F5645525F54454D502C00004E54435F27
:103860004F5645525F54454D502C00004155544F22
:103870005F484541542C000043414E4E4F545F4831
:103880004541542C00000000340000203600002088
:1038900028000020E09304009A9999999999B93FDA
:1038A00038000020312044454255470031206465EE
:1038B0006275670020000000A7C70008ACF7FF1F73
:1038C00000F8030878563412000059400000C8423E
:1038D00000240140022C05D107224021FE48FEF7BA
:1038E000B1FB18E0032C05D107228021FA48FEF72E
:1038F000A9FB10E0042C0BD10722A103F648FEF728
:10390000A1FB0120FEF768FB0120FEF777FB02E038
:10391000002006B010BDF048FEF7CAFB0121EE48BA
:10392000FEF7FAFA00BF0121EB48FEF70BFC002876
:10393000F9D0E948FEF7DFFB00BF0421E648FEF7B7
:1039400001FC0028F9D0E448FEF7DAFB00BF0421AF
:10395000E148FEF7F7FB0028F9D0DF48FEF7D0FB7F
:10396000D7E77FB50420FFF738FFDC49098B0E1A33
:10397000304605F0BAFF0446D94ADA4B05F070FD2F
:103980000022D94B0191009005F03AFD039102907D
:1039900005F07CFB04B070BD1CB501214804FDF7A7
:1039A00030F80120C0030090002168460171C17108
:1039B00069460920C006FCF753FC0121C903092010
:1039C000C006FCF7B0FC1CBD70B500F09DFF0646BC
:1039D000304606F0B9F80446C44AC54B08F0F0FC7E
:1039E00008D3304606F0B0F804460022C14B08F078
:1039F00019FD01D2102070BD0020FCE710B5002099
:103A0000BD494863012002F0A3FF01218903BB489F
:103A1000FCF789FC002801D1802010BD8020FCE744
:103A200010B50120FFF7D9FE0446442C05DDFF2028
:103A30001C30844201DA402010BD0020FCE710B5A4
:103A40000020AF494863022002F082FF0121C90231
:103A5000AA48FCF768FC012801D1202010BD0020F5
:103A6000FCE7F8B5002500260027A64800680221DB
:103A7000084000284DD1002419E0032001F080FA0D
:103A80002946009008F002FD0546042001F078FA6E
:103A90003146009008F0FAFC0646052001F070FA65
:103AA0003946009008F0F2FC0746601CC4B2142CA2
:103AB000E3DB9549284606F071F8009002F058FDC6
:103AC00005469149304606F069F8009002F050FD35
:103AD00006468D49384606F061F8009002F048FD30
:103AE00007468A49284608F099FD0ED38749304693
:103AF00008F094FD09D38649384608F08FFD04D3B9
:103B00008449384608F008FD01D20020F8BD0420A1
:103B1000FCE70020FAE77B48006802210840002803
:103B200001D1022070470020FCE710B50121734845
:103B3000FCF715FC012002F00BFF10210920C00644
:103B4000FCF7F1FB002801D1012010BD0020FCE7AB
:103B500030B58BB00024FFF7E8FF0419FFF7DBFF57
:103B60000419FFF77EFF041908346B480078032816
:103B700003D069480078042801D1203402E0FFF71F
:103B80005EFF0419FFF74CFF0419FFF737FF041914
:103B9000FF20F53002F0DCFEFFF716FF041902A942
:103BA000204602F0D1FD05464C4820380095C36AF6
:103BB000026B416B59A004F063FF0BB030BD30B510
:103BC0008BB00024FFF7B1FF0419FFF7A4FF04191D
:103BD000FFF747FF041908341034203402A92046A7
:103BE00002F0B2FD05463D4820380095C36A026BDD
:103BF000416B4FA004F044FF0BB030BD08B500F09E
:103C0000FEFC45480078030008F01BF8050407088F
:103C10000B0E1100FFF79CFF14E013E0FFF7CFFF3E
:103C200010E0FFF795FF0DE0FFF792FF0AE045A0D7
:103C300000902A482038C36A026B416B42A004F00E
:103C40001FFF00BF00BF08BDF0B589B000250026EA
:103C5000002700240520079032200690022001F062
:103C60008FF9044604940594B6E0002008901BE008
:103C7000032001F085F92946039008F007FC05466A
:103C8000042001F07DF93146039008F0FFFB064661
:103C9000052001F075F93946039008F0F7FB074657
:103CA0000898401CC0B2089008980528E0DB2B4912
:103CB000284605F073FF039002F05AFC0546274999
:103CC000304605F06BFF039002F052FC0646234994
:103CD000384605F063FF43E000240140A0F7FF1FD2
:103CE000618907944D59154000003E402D431CEB5F
:103CF000E2361A3F00208C40004801400004004892
:103D0000002C01402C0000200000A041000048428F
:103D10000040834400806D44360000202530385830
:103D200025303858253038582031302025730A0086
:103D30002530385825303858253038582030312033
:103D400025730A00300000002530385825303858D7
:103D5000253038582030302025730A000000A0405C
:103D6000039002F005FC07464B49284608F0D4FBB7
:103D700032D84949304608F0CFFB2DD8474938465C
:103D800008F0CAFB28D84649384608F047FC23D833
:103D9000022001F0F5F804462146059808F0BCFB26
:103DA00000D205942146049808F038FC00D204940F
:103DB0000499059808F06AFC009002F0D9FB019084
:103DC00005F0C2FE0022374B0391029008F02AFB57
:103DD00002D2002009B0F0BD0698411EC9B206917A
:103DE000002800D041E70120F4E770B502F0D2FBD3
:103DF00084B200252C48006802210840002810D118
:103E00000BE002F0C7FB001B7D214901884201D96C
:103E1000002070BDFFF718FF0546002DF1D00820E7
:103E2000F7E70020F5E710B500202049486301209E
:103E300002F08EFD012109031D48FCF774FA0028E9
:103E400001D1402010BD4020FCE710B50121092020
:103E5000C006FCF784FA012002F07AFD0421092053
:103E6000C006FCF760FA012801D1102010BD002027
:103E7000FCE710B5012149020D48FCF770FA01205A
:103E800002F066FD04210A48FCF74DFA012801D131
:103E9000202010BD0020FCE7000048420040834481
:103EA00000806D44000079402C0000200044014057
:103EB000000400481CB501214804FCF7A2FD0121C3
:103EC0004802FCF7ACFDC020009003216846017158
:103ED0000021C17169460920C006FCF7C1F9FE48FE
:103EE000FDF7F0FF1CBD70B5FFF7E4FF0220FFF700
:103EF00074FC04460320FFF770FC0546F748844233
:103F000003DB0020F649087021E0F648844206DB16
:103F1000F248844203DA0220F149087017E0F248BF
:103F200084420EDBEF4884420BDAFF200001854219
:103F300003DD0320EA49087009E00420E84908701D
:103F400005E00520E64908700120FFF777FA70BD0B
:103F500010B5FFF7C8FF10BD08B5FF216846017016
:103F60000021417001218170FDF734FC1B2168465E
:103F70000170012141708170FDF72CFC1121684610
:103F800001700221417001218170FDF723FC07219E
:103F9000684601700321417001218170FDF71AFC10
:103FA00008BD00B589B001214804FCF72AFD0121B4
:103FB0008803FCF734FD01220921C806FCF7D9F972
:103FC00001220A210920C006FCF7D3F90120400292
:103FD0000190032168464172022101720121817220
:103FE000C17201A90920C006FCF73AF9012080023C
:103FF0000190032168464172022101720121817200
:10400000C17201A90920C006FCF72AF9E12040028B
:104010000390002004900590069008900C200790D3
:1040200003A9B248FDF7C4FC0022B149AF48FDF72F
:10403000D9FE0021AD48FDF744FD1B200121814040
:10404000AC4A116000BF09B000BD10B50122A849FB
:10405000A648FDF7C7FE0121A448FDF732FD10BDBB
:1040600010B50022A249A148FDF7BCFE00219F48DF
:10407000FDF727FD10BD3EB501211020FCF7DDFC4A
:104080007D21C9009C48006804F050FF401E84B2A6
:104090001420019000216846018001814180694619
:1040A0009648FCF793FD012221469448FCF7C4FD95
:1040B00001219248FCF70FFE012211468F48FDF7BF
:1040C000FDF93EBD00B58BB001218804FCF799FCD9
:1040D00001214804FCF795FC0121C802FCF79FFC74
:1040E00003200990032108A801720021C17209A9C7
:1040F0000920C006FCF7B4F8012040030990022112
:1041000008A8017200218172032141720221C1724B
:1041100009A97B48FCF7A4F8002168460183418384
:104120007D21C9007448006804F000FF401E07901C
:1041300000216846018408A8817000200390602156
:10414000684681800121C180042101810221018210
:1041500000214182FF21013181820021C18202229E
:104160000D216748FCF705F906A96648FCF72EFD06
:1041700001A96448FCF7E6FD08216248FCF75AFFF4
:1041800000216048FCF796FD01215E48FCF7A3FD85
:1041900001215C48FCF7C5FD5B485A4948630BB0F8
:1041A00000BD00B58BB001218804FCF72AFCFF207C
:1041B00001300190022168460172002181720321C1
:1041C000417201A94E48FCF74BF800216846018472
:1041D00041847D21C9004848006804F0A7FE401EC4
:1041E000099000216846018508A881720020059089
:1041F0006021684681810121C1810421018202215F
:10420000018300214183FF21013181830021C1838A
:1042100001214804FCF703FC022208213848FCF77E
:10422000A8F808A93948FCF7D1FC03A93748FCF7DE
:1042300089FD08213548FCF7FDFE00213348FCF7D5
:1042400039FD01213148FCF746FD01212F48FCF7DB
:1042500068FD2D482D4948630BB000BD00B58BB0FB
:1042600001218804FCF7CDFB0120400201900221CE
:1042700068460172002181720321417201A9204820
:10428000FBF7EEFF00216846018441847D21C900CF
:104290001948006804F04AFE401E09900021684653
:1042A000018508A8817200200590602168468181FF
:1042B0000121C18104210182022101830021418366
:1042C000FF21013181830021C18301218804FCF792
:1042D000A6FB022209211BE0002401408C0C0000F7
:1042E00036000020690900009907000000380140ED
:1042F0000501050000E100E0100000200010004072
:1043000000040048002C0140FFFF00000044014071
:10431000D548FCF72EF808A9D448FCF757FC03A9A8
:10432000D248FCF70FFD0821D048FCF783FE00219E
:10433000CE48FCF7BFFC0121CC48FCF7CCFC0121A6
:10434000CA48FCF7EEFCCA48C84948630BB000BD38
:104350001FB501218804FCF754FB01210846FCF736
:104360005EFB012000030290002168460173C173C7
:1043700002A9BD48FBF774FF0120800302900021D1
:1043800068460173C17302A9B748FBF769FF0C21A6
:104390000120FDF7B5FA0E210120FDF7B1FA012049
:1043A000000300900021684601710C214171012138
:1043B0008171FDF795F90120800300906846FDF7B3
:1043C0008FF91FBD1FB501214804FCF71AFB2020FF
:1043D0000290002168460173C17302A90920C0063A
:1043E000FBF73EFF05210020FDF78AFA2020009010
:1043F0000021684601710C21417101218171FDF795
:104400006FF91FBD00B589B001214804FCF7F9FA26
:1044100001214802FCF703FB0120019003216846BB
:1044200001720021C17201A90920C006FBF718FF23
:104430009048FDF747FD03A8FDF766FD00200390B7
:10444000012168460174002005900790089003A997
:104450008848FDF745FD072201218648FDF7F2FD5A
:104460008448FDF725FE01218248FDF755FD00BF78
:1044700001218048FDF766FE0028F9D07D48FDF750
:104480003AFE09B000BD1CB501214804FCF7B9FA99
:1044900001218804FCF7B5FA01200090012168464B
:1044A000017100218171032141710021C1716946AF
:1044B0000920C006FBF7D4FE012040020090012134
:1044C000684601718171032141710021C171694602
:1044D0006548FBF7C5FE0420009000216846017185
:1044E000C17169466048FBF7BBFE01210920C00687
:1044F000FBF733FF012149025B48FBF72EFF1CBD90
:1045000010B50120FCF7E0F800BF4120FCF736F8B9
:104510000028FAD05848FEF73DF90320FEF73DF990
:104520007D20C000FEF73CF9FEF73DF9FEF742F9A9
:1045300010BD1CB501218804FCF763FA012000902E
:104540000121684601718171032141710121C1710D
:1045500069464548FBF784FE01214348FBF7FDFE11
:104560001CBD1CB501214804FCF74BFA012188044D
:10457000FCF747FA102000900021684601710121E4
:10458000C17169460920C006FBF76AFE042000904D
:10459000002168460171C17169460920C006FBF718
:1045A0005FFE012080020090002168460171012118
:1045B000C17169462C48FBF753FE1CBD1CB5012197
:1045C0004804FCF71EFA01218804FCF71AFA1020AF
:1045D00000900021684601710121C17169460920DE
:1045E000C006FBF73DFE0120C00200900021684696
:1045F0000171C17169461C48FBF732FE1CBD10B544
:104600001E480078030007F01CFB0604090A050693
:104610000D0E00BF00BFFFF7D1FF04E003E0FFF77E
:10462000A0FF00E000BF00BF10BD1CB502210120AB
:10463000FDF766F9042000900021684601710C2105
:10464000417101218171FDF74BF81CBD1CB504209F
:1046500000900021684601710C2141710021817197
:10466000FDF73EF81CBD0000000400480048014072
:10467000FFFF0000002401405555000036000020D7
:1046800070B504460D4600BF80219B48FDF7DEFB58
:104690000028F9D0A1B29848FDF7C4FA204670BDB1
:1046A000FF21F531818000218173818102691160D0
:1046B000704710B591488089002807DD8F48006950
:1046C00000680A2802D98D48FFF7EAFF00208B49CD
:1046D000096908608A498848FDF7C4FB002839D079
:1046E0008548FDF7A3FAC4B2844880898349898844
:1046F000884203DD8148FFF7D3FF10BD7F48807BF0
:10470000002826D10A2C0CD07C4881898089401C45
:104710007A4A90811046806844540020114688737C
:1047200017E001207549887300208968734A9289CF
:104730008854724881688089401E085C0D2808D121
:1047400000216E4882688089401E80B26B4B988140
:10475000115400BF00BFD0E7F7B582B00546002076
:104760000190039C04980A2804D00020207003982C
:1047700005B0F0BD002D06D130202070641C002053
:1047800020700398F4E7002D03DA2D202070641CBC
:104790006D425C4E17E03146284604F0D1FB0746D7
:1047A000002F02D10198002808D038463030207000
:1047B000641C384670432D1A012001900A213046AE
:1047C00004F0BEFB0646002EE5DC002020700398B6
:1047D000CEE70FB470B586B006460CA8019081E014
:1047E0000B9800785C282AD10B98401C0B9000781D
:1047F0006E2810D072281DD100BF40213046FDF731
:1048000025FB0028F9D00D213046FDF70BFA0B9857
:10481000401C0B9012E000BF40213046FDF716FB14
:104820000028F9D00A213046FDF7FCF90B98401C0E
:104830000B9003E00B98401C0B9000BF52E00B98CC
:104840000078252840D10B98401C0B9000786428F4
:1048500018D0732833D1019810C801900BE000BF25
:1048600040213046FDF7F2FA0028F9D02178304691
:10487000FDF7D8F9641C20780028F0D10B98401C73
:104880000B9020E0019820C801900A2202A9284636
:10489000FFF762FF02AC0BE000BF40213046FDF79E
:1048A000D5FA0028F9D021783046FDF7BBF9641C11
:1048B00020780028F0D10B98401C0B9003E00B9857
:1048C000401C0B9000BF0DE000BF40213046FDF7BB
:1048D000BDFA0028F9D00B980178401C0B903046A7
:1048E000FDF7A0F90B980078002800D078E706B013
:1048F00070BC08BC04B018470038014038000020E4
:10490000050105001027000070B50024002505E012
:104910000020FEF762FF0419681CC5B2322DF7DBD8
:104920003221204604F002FB044600BFFE488442C8
:1049300021D8FE480078002804D003280CD0042891
:1049400017D10AE06100FA4A505A05F041FA0646CA
:10495000F84905F023F970BD00BFF349091B490070
:10496000F34A505A05F034FA0646F24905F016F9B2
:10497000F1E7F148EFE7F048EDE7F0B58BB0FFF76E
:10498000C3FF0A900A9805F0DFF807910690EB48FC
:10499000006805F0D9F805460022134604F030FD02
:1049A00005910490079B069A04F037FD0991089041
:1049B00004F06CFB0746384605F0C6F805460022B1
:1049C000DF4B07F02FFD04D2DE4C0120DE490870DA
:1049D000D5E0384605F0B8F805460022DB4B07F075
:1049E000EFFC04D200240120D7490870C7E0D64864
:1049F0000078002804D00020D5490860D24908700A
:104A00003946D448006807F0B1FDD34908603946FB
:104A1000CF48006807F03AFDCD490860CF480168EB
:104A2000CB48006807F078FD04D2CC48006805F058
:104A30008BF825E0CA48006805F086F80022C94BCB
:104A40000591049004F0DCFC09910890C0480068CE
:104A500005F07AF807910690099B089A07F0E2FCA6
:104A60000AD2BF48006805F06FF80022BD4B0991DB
:104A7000089004F0C5FC03E0B548006805F064F850
:104A8000054604F003FBB249086008460168B648D1
:104A9000006807F06BFDB5490860B548006805F08F
:104AA00053F80546B34AB44B04F02AFF0791069029
:104AB000B24801680A9807F0E9FD054605F044F898
:104AC00003910290AE48006805F03EF80546AD4AF5
:104AD000AD4B04F015FF01910090039B029A04F086
:104AE0000FFF05910490079B069A04F089FC099139
:104AF000089004F0CBFA9E4908609C4801689648EB
:104B0000006807F0C3FC054699480168284607F08D
:104B1000BDFD0446204605F017F8054600229B4BD4
:104B200007F080FC11D2384605F00EF80546002249
:104B3000134607F077FC06D239468548006807F02F
:104B4000A5FD834908607F4C19E0204604F0FCFF76
:104B500005460022134607F033FC10D8384604F00F
:104B6000F3FF05460022134607F02AFC06D8394613
:104B70007748006807F08AFD7549086000247F497E
:104B80000A980860204605F0DFF8C0B20BB0F0BD0F
:104B9000FF21091A0A0289187D4A5163704710B52E
:104BA000FFF7EBFE0446FFF7F3FF10BD70B57F265D
:104BB000F60501207749087001F0ECFC7649096898
:104BC000401A142800D270BD01F0E4FC724908605C
:104BD000FFF79AFE0646304604F0B6FF0446002270
:104BE0006E4B07F0EDFB03D2002001F085FB02E0E5
:104BF000FF2001F081FB304604F0A6FF0446684A1E
:104C0000684B07F0DDFB1CD3304604F09DFF0446E3
:104C10000022654B07F006FC13D3304604F094FFE6
:104C200004460022614B07F0FDFB0AD36048008870
:104C30006049884205DC01208003FEF721FC002842
:104C400039D00020FFF7A4FF4020FEF7F7FB3046E5
:104C500004F07AFF0446524A524B07F0B1FB04D2EB
:104C60000120C002FEF700FCA8E0304604F06CFF13
:104C7000044600224C4B07F0D5FB04D201208002F1
:104C8000FEF7F2FB9AE0304604F05EFF0446002295
:104C9000464B07F0C7FB04D201200003FEF7E4FBFC
:104CA0008CE0434800884349884203DD01204003EB
:104CB000FEF7DAFB82E02148006804F045FF044675
:104CC000374A384B07F07CFB16D80020FFF760FF0F
:104CD0004020FEF7BEFB0120C002FEF7CBFB012007
:104CE0008002FEF7C7FB01200003FEF7C3FB012093
:104CF0004003FEF7BFFB61E02648007800285DD046
:104D0000FFF74DFF4020FEF7A4FB0120C002FEF795
:104D1000B1FB01208002FEF7ADFB01200003FEF78E
:104D2000A9FB0120400347E0FF0F000036000020F0
:104D3000AAC70008000020419AF9794454000020D5
:104D40000000244000007F435D000020000024C0DC
:104D500090000020780000208400002098000020AF
:104D6000940000200000F03F7C000020880000201C
:104D70008C000020666666666666EE3F9C0000203A
:104D800080000020A09999999999A93F00E06F406F
:104D9000002C01405C00002058000020000044402E
:104DA000FCA9F1D24D62503F00208C4000A06E4023
:104DB0006C00002047020000FEF75CFB00BF02E72A
:104DC00070B5064601205F49087000205E49086002
:104DD0005E480660304604F0B7FE04465C4A5D4B10
:104DE00007F020FB02D2FF2001F07EFA00205A4992
:104DF000086001F0CFFB5949086070BD7047584901
:104E0000091A584A5163704700B50020FFF7C0FEE9
:104E100000BDFEB5002701F0BDFB50490968401AEE
:104E20005149884200D2FEBD01F0B4FB4F490968E8
:104E3000471A7D200001874273D901F0ABFB4B4933
:104E400008604548006804F07FFE0546484A494B23
:104E500007F0B6FA04D2FFF757FD3F490860E2E7D2
:104E6000FFF752FD044621463848006807F00EFC63
:104E700001903648006804F067FE05463C4A3D4B09
:104E800007F09EFA1BD234480168204607F0FEFB6B
:104E900005460121890707F0C1FB10D24020FEF72B
:104EA000DEFA00284AD14020FEF7C8FA012040026D
:104EB000FEF7C4FA01208003FEF7D6FA3EE023484D
:104EC000006804F041FE0546294A2A4B07F0AAFA79
:104ED00028D2019804F038FE05460022264B07F040
:104EE000A1FA1FD21C480168204607F0CFFB0090B2
:104EF00004F02AFE05460022204B07F061FA11D289
:104F00004020FEF7ACFA002818D14020FEF796FAB0
:104F100001204002FEF792FA0120C003FEF7A4FA36
:104F20000CE00DE001204002FEF793FA012080031F
:104F3000FEF7A0FA0120C003FEF79CFA06480460C1
:104F400000BF70E75D0000208C00002054000020AE
:104F50009A9999999999B93F6800002064000020B6
:104F6000FFFF0000002C0140204E000060000020E8
:104F70007B14AE47E17A843F000024400000F03FFC
:104F8000F0B58FB00646002400200E9001270025C2
:104F9000A2E0032E04D0042E35D0052E32D165E0D8
:104FA0002820FEF766F904432920FEF762F9000283
:104FB000204304B2FE48006804F0C6FD0791069045
:104FC000204604F0FDFE019004F0BEFDF94AFA4BC4
:104FD0000391029004F094FC05910490079B069ABB
:104FE00004F00EFA0B910A900E9804F0ADFD0991B1
:104FF00008900B9B0A9A04F003FA0D910C9004F0B0
:1050000045F80E9065E02A20FEF733F904432B2083
:10501000FEF72FF90002204304B2E848006804F0CC
:1050200093FD07910690204604F0CAFE019004F01B
:105030008BFDE04AE04B0391029004F061FC059186
:105040000490079B069A04F0DBF90B910A900E98E6
:1050500004F07AFD099108900B9B0A9A04F0D0F9AC
:105060000D910C9004F012F80E9032E02C20FEF717
:1050700000F904432D20FEF7FCF80002204304B29F
:10508000CF48006804F060FD07910690204604F0C8
:1050900097FE019004F058FDC64AC74B0391029059
:1050A00004F02EFC05910490079B069A04F0A8F9E1
:1050B0000B910A900E9804F047FD099108900B9B04
:1050C0000A9A04F09DF90D910C9003F0DFFF0E9009
:1050D00000BF00BF681C05B2BD4200DA59E70025D9
:1050E000A2E0002E04D0012E35D0022E32D165E090
:1050F0002220FEF7BEF804432320FEF7BAF8000290
:10510000204304B2AF48006804F01EFD07910690EA
:10511000204604F055FE019004F016FD0022AA4B33
:105120000391029004F0ECFB05910490079B069A12
:1051300004F066F90B910A900E9804F005FD0991B0
:1051400008900B9B0A9A04F05BF90D910C9003F008
:105150009DFF0E9065E02420FEF78BF80443252088
:10516000FEF787F80002204304B29848006804F074
:10517000EBFC07910690204604F022FE019004F01B
:10518000E3FC0022904B0391029004F0B9FB0591DF
:105190000490079B069A04F033F90B910A900E983D
:1051A00004F0D2FC099108900B9B0A9A04F028F9AC
:1051B0000D910C9003F06AFF0E9032E02620FEF76E
:1051C00058F804432720FEF754F80002204304B2A5
:1051D0007F48006804F0B8FC07910690204604F070
:1051E000EFFD019004F0B0FC0022774B0391029098
:1051F00004F086FB05910490079B069A04F000F9E1
:105200000B910A900E9804F09FFC099108900B9B5B
:105210000A9A04F0F5F80D910C9003F037FF0E9008
:1052200000BF00BF681C05B2BD4200DA59E738462E
:1052300004F0CEFD01460D900E9804F0AFFC0FB0C7
:10524000F0BDFEB500270524FDF7D4FF0220FEF7D0
:10525000F5F8E7E10F20FEF70CF80746692F00D0BC
:10526000E0E160211020FEF776F861211120FEF7C1
:1052700072F804211220FEF76EF80320FFF780FE7B
:105280000420FFF77DFE0520FFF77AFE0020FFF7E0
:1052900077FE0120FFF774FE0220FFF771FE032066
:1052A000FFF76EFE009004F04FFC05462A460B46C1
:1052B00048A003F0E5FB0420FFF762FE009004F035
:1052C00043FC05462A460B4645A003F0D9FB0520C2
:1052D000FFF756FE009004F037FC05462A460B46C1
:1052E00042A003F0CDFB0320FFF74AFE009004F03C
:1052F0002BFC05462A460B4636A003F0C1FB0420D2
:10530000FFF73EFE009004F01FFC05462A460B46C0
:1053100033A003F0B5FB0520FFF732FE009004F048
:1053200013FC05462A460B4630A003F0A9FB0020DB
:10533000FFF726FE009004F007FC05462A460B46C0
:105340002DA003F09DFB0120FFF71AFE009004F052
:10535000FBFB05462A460B462AA003F091FB0220E0
:10536000FFF70EFE009004F0EFFB05462A460B46C1
:1053700027A003F085FB0020FFF702FE009004F059
:10538000E3FB05462A460B461BA003F079FB0120F0
:10539000FFF7F6FD009004F0D7FB05462A460B46C2
:1053A00018A003F06DFB0220FFF7EAFD009035E046
:1053B0003C01002008AC1C5A643BAF3F4001002078
:1053C0004401002030010020008011403401002001
:1053D0003801002041636320783D256C660A000097
:1053E00041636320793D256C660A000041636320B8
:1053F0007A3D256C660A00004779726F20783D255A
:105400006C660A004779726F20793D256C660A0048
:105410004779726F207A3D256C660A0004F094FB90
:1054200005462A460B46FE4803F02AFB0020FFF7FC
:10543000A7FD009004F088FB05462A460B46F84875
:10544000183803F01DFB0120FFF79AFD009004F0CF
:105450007BFB05462A460B46F1480C3803F010FB4F
:105460000220FFF78DFD009004F06EFB05462A46F2
:105470000B46EB4803F004FB0020FFF781FD009092
:1054800004F062FB05462A460B46E548183803F04F
:10549000F7FA0120FFF774FD009004F055FB054674
:1054A0002A460B46DE480C3803F0EAFA0220FFF7E2
:1054B00067FD009004F048FB05462A460B46D84895
:1054C00003F0DEFA0320FFF75BFD054601F050F81C
:1054D0000190019804F038FB0546D24AD24B06F001
:1054E0006FFF09D2019804F02FFB05462A460B46B0
:1054F000CEA003F0C5FA95E00420FFF741FD054674
:1055000001F036F80190019804F01EFB0546C54AEB
:10551000C54B06F055FF09D2019804F015FB05466E
:105520002A460B46C5A003F0ABFA7BE00520FFF747
:1055300027FD054601F01CF80190019804F004FBDA
:105540000546B84AB84B06F03BFF09D2019804F073
:10555000FBFA05462A460B46BCA003F091FA61E02F
:105560000020FFF70DFD054601F002F801900198BB
:1055700004F0EAFA0546AB4AAB4B06F021FF04D330
:10558000B649019807F04AF809D2019804F0DCFA0C
:1055900005462A460B46B2A003F072FA42E001200B
:1055A000FFF7EEFC054600F0E3FF0190019804F0E0
:1055B000CBFA05469B4A9C4B06F002FF04D3A74951
:1055C000019807F02BF809D2019804F0BDFA0546BE
:1055D0002A460B46A6A003F053FA23E00220FFF769
:1055E000CFFC054600F0C4FF0190019804F0ACFA2E
:1055F00005468C4A8C4B06F0E3FE04D3974901988C
:1056000007F00CF809D2019804F09EFA05462A46E4
:105610000B469BA003F034FA04E00220FDF719FFCB
:105620000120FEBD2046611ECCB2002800D011E64C
:105630000220FDF703FF0020F3E7F0B587B0002656
:105640000027002005900024012004909048007855
:10565000002801D107B0F0BD002519E00320FFF7B5
:105660008FFC3146039006F011FF06460420FFF739
:1056700087FC3946039006F009FF07460520FFF72F
:105680007FFC0390059906F001FF0590681CC5B2E8
:10569000012DE3DB7F21C905304604F07FFA03903A
:1056A00000F066FF06467F21C905384604F076FA09
:1056B000039000F05DFF07467F21C905059804F0BF
:1056C0006DFA039000F054FF05907249304606F0E1
:1056D00023FF70D86F49384606F01EFF6BD86E491D
:1056E000059806F019FF66D86C49059806F096FFF4
:1056F00061D80220FFF744FC04466548007814286E
:1057000003D1674804606748046021466548006823
:1057100006F002FF01D26348046021466048006839
:1057200006F07CFF01D25E480460204604F00CFACB
:10573000039102905C480CC8029803F061FE5A4A3B
:1057400003C253480078401E51490870544801680C
:105750005448006806F09AFF009000F009FF01909D
:1057600004F0F2F90022514B0391029006F028FE5A
:1057700018D24748007800281ED14B4903C901229E
:10578000D207514000224A4B0191009003F068FE7D
:105790000391029003F07AFC464908600820FDF767
:1057A00058FE09E014203A49087000213E4A116071
:1057B000516001E0FFE74DE700BF4BE7F0B587B070
:1057C0003748006804F0C0F904460D4635480068C3
:1057D00004F0BAF9064632460B4637A0019500940C
:1057E00003F04EF93348006804F0AEF904460D4664
:1057F0003648006804F0A8F906460F4634480068A9
:1058000004F0A2F902460B46019700960395029414
:10581000059104902FA003F033F907B0F0BD00000C
:10582000105400082D431CEBE2361A3F455220412C
:10583000636320783D256C660A00000045522041D4
:10584000636320793D256C660A00000045522041C3
:105850006363207A3D256C660A0000000050C34750
:105860004552204779726F20783D256C660A00000A
:105870004552204779726F20793D256C660A0000F9
:105880004552204779726F207A3D256C660A0000E8
:105890001C010020000048420040834400806D4409
:1058A0002C01002028010020200100200000694078
:1058B00000003440380100204D61783D256C6620A1
:1058C0004D696E3D256C660A000000003401002021
:1058D000300100206F66667365742058273D252EC1
:1058E00034662059273D252E3466205A273D252E23
:1058F00034660A00F0B587B0FE48006804F024F969
:1059000004460D46FC49086804F01EF906460F4699
:10591000FA49086804F018F902460B460197009608
:105920000395029405910490F5A003F0A9F807B03F
:10593000F0BDF0B587B00446059804F005FAC5B28D
:105940002846FFF71DFB0590049804F0FDF9C5B249
:105950002846FFF715FB0490002C14D1059804F09D
:10596000F3F9C0B20190FFF70BFB074604F0ECF827
:1059700005460022E74B03F073FD0391029003F00C
:1059800085FB07B0F0BD012C13D1049804F0DCF9BD
:10599000C0B20190FFF7F4FA074604F0D5F80546C7
:1059A0000022DC4B03F05CFD0391029003F06EFBE0
:1059B000E7E700BFE5E7F1B58AB00320FFF7E0FABB
:1059C00009900420FFF7DCFA08900520FFF7D8FAC9
:1059D0000790079804F0B8F804460022CD4B03F076
:1059E0003FFD064603F052FB0690089804F0ACF821
:1059F00004460022134606F015FD08D2C649089851
:105A000006F08AFD01D2089809E0C34807E0C349BF
:105A1000089806F003FE01D2089800E0BF480890FD
:105A2000099804F091F804460022134606F0FAFCA7
:105A300008D2B949099806F06FFD01D2099809E02A
:105A4000B54807E0B549099806F0E8FD01D2099884
:105A500000E0B24809900A98002826D1079804F07F
:105A600073F80022AB4B0191009006F0DBFC02D2F0
:105A70000020A84902E0079804F066F8039102901C
:105A8000089804F061F80646039B029A06F0E0FAD3
:105A90000022A34B0591049003F032FF0446A14A73
:105AA000A14B03F0DDFC0BB0F0BD0A98012829D111
:105AB000079804F049F80022964B0191009006F0F7
:105AC000B1FC02D20020934902E0079804F03CF8B0
:105AD000039102900121C90709984840019004F000
