:020000040800F2
:10000000B8120020A5010008713000087330000804
:1000100000000000000000000000000000000000E0
:100020000000000000000000000000007730000821
:100030000000000000000000793000087B3000085C
:10004000B7010008B7010008B7010008B7010008B0
:10005000B7010008B7010008C9320008E332000800
:10006000B7010008B7010008B7010008B701000890
:10007000B7010008B7010008B7010008B701000880
:10008000B7010008B132000800000000B701000805
:10009000B7010008B7010008B7010008B701000860
:1000A000B7010008B7010008B7010008A93200082D
:1000B000B701000800000000B701000800000000C0
:1000C00000F002F800F05EF80CA030C808382418E0
:1000D0002D18A246671EAB4654465D46AC4201D180
:1000E00000F050F87E460F3E0FCCB6460126334254
:1000F00000D0FB1AA246AB4633431847D4F20000A7
:10010000F4F200000023002400250026103A01D359
:1001100078C1FBD8520700D330C100D50B607047BF
:1001200010B5662902D10CF0E9FE10BD642902D198
:1001300009F0F6F810BD752902D109F0F1F810BDEB
:10014000782902D109F022F910BD732902D10AF0F1
:1001500045FD10BD002010BD1FB5009801990AF0A3
:1001600046FA0AF035FF0400002000210CF09AFC4A
:10017000401C6060002000210CF0AAFCE0601FBD64
:1001800010B510BD0BF07AFB1146FFF7E5FF03F049
:1001900012F90BF009FE03B4FFF7F2FF03BC02F003
:1001A00062FE00000748804707480047FEE7FEE779
:1001B000FEE7FEE7FEE7FEE704480549054A064B71
:1001C000704700007F310008C1000008B80C002013
:1001D000B8120020B80E0020B80E002010B504465A
:1001E0000920C006844209D10121480400F033FCF3
:1001F00000210120400400F02EFC30E06E488442D3
:1002000008D10121000200F026FC0021200200F0AC
:1002100022FC24E06948844208D10121000200F058
:100220001AFC0021200200F016FC18E06448844209
:1002300009D10121080500F00EFC00210120000574
:1002400000F009FC0BE05F48844208D101218805D9
:1002500000F001FC00210120800500F0FCFB10BD36
:10026000F0B50A4600210023002400BF3DE001252F
:100270008D402B4615681D402C469C4234D1157983
:10028000012D02D01579022D16D185684F00032665
:10029000BE40B543856055794E00B540866835430C
:1002A0008560858801268E40B5438580858896794E
:1002B0008E40B6B23543858005684F000326BE40A8
:1002C000B543056015794E00B540066835430560B5
:1002D000C5684F000326BE40B543C560D5794E00C2
:1002E000B540C6683543C560491C1029BFD3F0BD71
:1002F00035490160002101710221417100218171A4
:10030000C171704708B5012212040092009A0A4395
:100310000092009AC261C161009AC261C2690092F2
:10032000C269009208BD02460020138A0B40002BD0
:1003300001D0012000E0002070470146088A704784
:1003400002460020938A0B40002B01D0012000E0E0
:10035000002070470146888A704781617047018597
:100360007047002A01D0816100E0018570478182D9
:100370007047F0B5002300244D07EE0E1546B5403A
:100380002B46CD10AE0005462035AD594E07F70E71
:100390000F26BE40B543CE10B60007462037BD51EC
:1003A000CD10AE003D46AD591D432C46CD10AD00DD
:1003B0003E467451F0BD00000004004800080048AB
:1003C000000C004800140048FFFF000010B5012198
:1003D000080700F05CFB00210120000700F057FB3C
:1003E00010BD002807D046490968FF220132114399
:1003F000434A116006E042490968FF2201329143F5
:100400003F4A11607047014600203D4A1068E023D2
:1004100002469A43104602460A431046384A106084
:100420007047002806D03649096810221143344A23
:10043000116005E03249096810229143304A116089
:100440007047002905D02E4A526802432C4B5A604F
:1004500004E02B4A52688243294B5A60704729496D
:10046000096904229143274A1161012801D130BF53
:1004700000E020BF704710B502460020204B1868EE
:10048000800880000346134318461D4B18601D4B1F
:100490001B69042423431B4C2361012901D130BF74
:1004A00000E020BF174B1B690424A343154C2361B4
:1004B00010BD13480068042108431149086008462C
:1004C0000068022108430E4908600E4800690421B3
:1004D00008430C49086130BF704701460020084AB4
:1004E00052680A40002A01D0012000E00020704735
:1004F0000349096882001143014A116070470000F6
:100500000070004000ED00E0FD4800680121084354
:10051000FB49086008464068FA490840F8494860C5
:1005200008460068F8490840F54908600846006830
:10053000012189048843F2490860084640683F2148
:1005400009048843EE4948600846C06A0009000172
:10055000C8620846006BFF2154318843E8490863AC
:100560000846406B400840004863002088607047A0
:100570000021E34A917011468870704710B5024619
:100580000021002300205111002902D1DC4C2368F6
:100590000BE0012902D1DA4C236A06E0022902D1DC
:1005A000D74C636A01E0D64C636BD106C90E0124B7
:1005B0008C401C40002C01D0012000E0002010BD28
:1005C00038B5002000900024002500BF1120FFF75F
:1005D000D5FF05460098401C0090052109020098AF
:1005E000884201D0002DF1D01120FFF7C7FF00286D
:1005F00001D0012400E00024204638BD014600203F
:10060000BF4A1068F82302469A431046CA001043B6
:10061000BB4A10607047002806D0B949096801221A
:100620001143B74A116005E0B54909684908490016
:10063000B34A1160704701460020B14A506BF8235D
:1006400002469A431046CA001043AD4A50637047B1
:10065000002806D0AA49496B01221143A84A5163D8
:1006600005E0A749496B49084900A54A516370470D
:10067000002806D0A249496B04229143A04A516345
:1006800005E09F49496B042211439D4A516370471D
:100690009B49096A49084900994A11621146096A49
:1006A00004229143964A11621146096A014311627C
:1006B00070479349096A18229143914A1162114681
:1006C000096A014311627047002806D08C49496AC3
:1006D000012211438A4A516205E08949496A490861
:1006E0004900874A51627047854A52683D231B047E
:1006F0009A43834B5A601A46526803460B431A4387
:100700007F4B5A607047002807D07D490968012255
:10071000120611437A4A116006E0794909680122FC
:1007200012069143764A1160704701460020744AD0
:10073000D06A0009000102460A431046704AD0629E
:100740007047002807D06E4909680122D20411437E
:100750006B4A116006E06A4909680122D20491439C
:10076000674A116070476649C871704701460020AA
:10077000634A50688008800002460A431046604A77
:10078000506070475E4840680C2108407047014641
:1007900000205B4A5068F02302469A431046024606
:1007A0000A431046564A5060704701460020544A9A
:1007B000506807231B0202469A43104602460A432A
:1007C00010464F4A506070474D49496801229203D4
:1007D00091434B4A51601146496882B21143484ADD
:1007E00051601146096B92159143454A11631146B8
:1007F000096B020C1143424A116370474049096B6F
:10080000402291433E4A11631146096B0143116333
:1008100070473B49096B10229143394A11631146D5
:10082000096B0143116370473549096B89088900D9
:10083000334A11631146096B014311637047FEB5DA
:1008400004460025002600200190009000272C4837
:1008500040680C2108400546002D04D0042D05D029
:10086000082D28D105E02948206027E0274820608E
:1008700024E0234840680F218904084006462048A8
:1008800040680121090408400190B00C861C0198C1
:10089000002803D11E48704320600BE01848C06A4E
:1008A0000007000F401C00901848009908F020FF36
:1008B0007043206002E01548206000BF00BF104870
:1008C0004068F021084005462D091248475D206820
:1008D000F84060600A484068072109020840054660
:1008E0002D0A0C48475D6068F840A0600448006B22
:1008F000FF2101310840884210D00748E0601BE02A
:10090000001002400CB8FFF8FFFFF6FE00127A005C
:1009100000093D0000000020809FD5007548406818
:10092000012189030840884203D0A0684008E060A4
:1009300002E0A0688008E0606E48006B402108403B
:10094000402802D06C48206102E00120C0032061F1
:100950006848006B10210840102802D06748606189
:1009600001E0206860616348006B8007800F002809
:1009700002D1A068A06119E05E48006B8007800F7B
:10098000012802D12068A06110E05A48006B80075E
:10099000800F022802D18003A06107E05548006B58
:1009A0008007800F032801D15448A061FEBD514942
:1009B000096A01434F4A11627047002807D04D4928
:1009C000096A0122D20311434A4A116206E04949E9
:1009D000096A0122D2039143464A116270470028F6
:1009E00007D04449096A012212041143414A1162A5
:1009F00006E04049096A0122120491433D4A11620E
:100A00007047002905D03B4A52690243394B5A616D
:100A100004E0384A52698243364B5A6170470029D4
:100A200005D0344A92690243324B9A6104E0314A5C
:100A3000926982432F4B9A617047002905D02D4A55
:100A4000D26902432B4BDA6104E02A4AD26982431D
:100A5000284BDA617047002905D0264A926A024382
:100A6000244B9A6204E0234A926A8243214B9A62A1
:100A70007047002905D01F4AD26802431D4BDA6037
:100A800004E01C4AD26882431A4BDA60704700299E
:100A900005D0184A12690243164B1A6104E0154A40
:100AA00012698243134B1A617047002905D0114A1D
:100AB000527A02430F4B5A7204E00E4A527A824332
:100AC0000C4B5A7270470B48406A012109060843D3
:100AD00008494862704701460020064A92680A4069
:100AE000002A01D0012000E00020704701498872EF
:100AF00070470000001002401280000000127A00CF
:100B000010B50446FE48844208D10121C014FFF705
:100B1000B0FF0021E014FFF7ACFF56E00120800792
:100B2000844208D101210846FFF7B1FF00210120CE
:100B3000FFF7ADFF49E0F348844208D101210220CC
:100B4000FFF7A5FF00210220FFF7A1FF3DE0EE48DF
:100B5000844208D101211020FFF799FF00211020C5
:100B6000FFF795FF31E0E948844208D10121801563
:100B7000FFF78DFF0021A015FFF789FF25E0E4486E
:100B8000844209D101210804FFF773FF00210120ED
:100B90000004FFF76EFF18E0DE48844209D101210E
:100BA0004804FFF766FF002101204004FFF761FFC2
:100BB0000BE0D948844208D101218804FFF759FF8E
:100BC000002101208004FFF754FF10BD002202889D
:100BD000CB4B984206D001239B07984202D0C94BC9
:100BE000984203D1CD4B1A404B881A43C64B9842CA
:100BF00003D0CB4B1A400B891A4302804B68C36267
:100C00000B880385BE4B984208D0C14B984205D053
:100C1000C04B984202D0C04B984201D18B7A0386D8
:100C20000123838270470021C94341600021018074
:100C300001814180817270470185828270470A4636
:100C400000210188B54B19400B461343194601801A
:100C5000704741627047C16270470146486A7047F9
:100C60000146088D7047002904D0028802231A43E8
:100C7000028004E00288A94B6E331A40028070475C
:100C8000002904D0028804231A43028004E0028869
:100C9000A24B6C331A4002807047002904D00288AE
:100CA00080231A43028004E002889C4B103B1A40C8
:100CB000028070470288994B68331A40028002888C
:100CC0000A43028070470288954B1A4002800288CE
:100CD0000A4302807047002904D0028801231A4386
:100CE000028004E002888D4B6F331A400280704707
:100CF0000A884B881A438B881A43CB881A430B897E
:100D00001A434B891A438B891A4344231A5270475A
:100D10000021018041808180C180018141818181E8
:100D20007047002907D04422125A0123DB031A43DB
:100D300044231A5205E04422125A53045B0C442205
:100D40001352704770B5002400220023058C734EA7
:100D50006F3635400584028C8388048B6F4D2C40A0
:100D6000B51E2C400D882C43751E2A408D892A43C0
:100D70004D882A43624DA84208D0654DA84205D04F
:100D8000644DA84202D0644DA84212D1634D68352B
:100D90002A40CD892A43614D6C352A408D882A43EB
:100DA0005E4D903D2B405F4D2B400D8A2B434D8A6D
:100DB0002B43838004838D684563028470BD70B5C6
:100DC000002400220023058C544E603635400584F3
:100DD000028C8388048B544D2C40514D2C400D784F
:100DE0002D062D0C2C434D4D50352A408D892D0557
:100DF0002D0C2A434D882D052D0C2A43404DA84229
:100E000019D1464D103D2A40CD892D052D0C2A4380
:100E1000424D30352A408D882D052D0C2A43434DF7
:100E20002B40434D2B400D8AAD042D0C2B434D8A96
:100E3000AD042D0C2B43838004838D68856302846D
:100E400070BD70B5002400220023058C334E903E07
:100E500035400584028C8388848B304D2C402F4D87
:100E60006D352C400D882C432E4D2A400D7B2D06D0
:100E70002D0C2A438D782D062D0C2A43204DA84297
:100E800017D12B4D2A408D7B2D062D0C2A43274D43
:100E90002A400D792D062D0C2A43264D2B40264D38
:100EA0002B400D8A2D052D0C2B434D8A2D052D0C25
:100EB0002B43838084838D68C563028470BD70B5C5
:100EC000002200230024058C1A4E35400584038C33
:100ED0008488828B144D2A40114D2A400D782D06AE
:100EE0002D0C2A43144D2B400D7B2D072D0C2B432D
:100EF0008D782D072D0C2B43014DA84224D11DE0E8
:100F0000002C014000040040001000400020004080
:100F10000040014000440140004801408FFF0000B4
:100F2000FFFC0000FFFD0000FF8F0000FFFB000042
:100F3000FFF70000FFEF0000FFDF0000FC4D2C403A
:100F40000D8AAD052D0C2C43848082838D68056449
:100F5000038470BD00210180418081808160818196
:100F6000C18101824182704770B503460020002490
:100F70001846183001258D40ACB21D8CA5431D8448
:100F8000002901D0082909D14D10281805687026BC
:100F9000B54305600568154305600DE00D1F2D0480
:100FA0006D0C2818056807263603B54305600568EB
:100FB0001606360C3543056070BD4163704781638A
:100FC0007047C1637047016470470A460021018B76
:100FD000D84B19400B4613431946018370470A4604
:100FE0000021018BD44B194013061B0C19430183BC
:100FF00070470A460021818BCE4B19400B461343A4
:101000001946818370470A460021818BCA4B1940DB
:1010100013061B0C194381837047002904D0828872
:1010200001231A43828004E08288C24B6F331A4046
:10103000828070470A460021018BBE4B68331940FD
:101040000B4613431946018370470A460021018B62
:10105000BA4B194013061B0C1943018370470A460B
:101060000021818BB34B683319400B46134319465B
:10107000818370470A460021818BB04B19401306CB
:101080001B0C1943818370470A460021018BA94B31
:101090006C3319400B4613431946018370470A46C7
:1010A0000021018BA64B194013061B0C1943018329
:1010B00070470A460021818B9E4B6C3319400B46CA
:1010C00013431946818370470A460021818B9C4B4C
:1010D000194013061B0C1943818370470A460021EF
:1010E000018B944B103B19400B4613431946018367
:1010F00070470A460021018B4904490C13061B0C5A
:101100001943018370470A460021818B894B103BAC
:1011100019400B4613431946818370470A46002144
:10112000818B4904490C13061B0C194381837047BA
:101130000A460021018C7F4B6E3319400B46134346
:101140001946018470470A460021018C794B6833A7
:1011500019400B4613431946018470470A46002183
:10116000018C744B5033194013051B0C1943018437
:1011700070470A460021018C6E4B103B1940130545
:101180001B0C1943018470470A460021018C6D4BEA
:10119000194013061B0C1943018470470A460021AD
:1011A000018C664B194013061B0C194301847047D0
:1011B0000A460021018C644B194013071B0C19438C
:1011C0000184704702895B4B68331A4002810289AF
:1011D0000A430281704730B5002301248C40A3B23A
:1011E000048C9C430484048C15468D40ADB22C4382
:1011F000048430BD30B5002304248C40A3B2048C99
:101200009C430484048C15468D40ADB22C43048469
:1012100030BD002904D0828804231A43828004E070
:101220008288444B6C331A4082807047828B474BD4
:101230001A408283828B0B061B0C1A4382837047F1
:10124000F8B50C460021002500260096068C404F7C
:101250003E400684818B058C2607360C00963D4E59
:1012600031401606360C31431E07360C31433A4ED8
:10127000354001273F03009E3E433543818305846B
:10128000F8BD828B2B4B64331A408283828B0A43D6
:1012900082837047F8B50C46002100250026009691
:1012A000068C244F903F3E400684818B058C260699
:1012B000360C00961F4E833E31401E05360C1643F9
:1012C0003143264E3540FF270137009E3E433543CC
:1012D00081830584F8BD028B1C4B1A400283028B6C
:1012E0000B061B0C1A4302837047F8B50C4600210D
:1012F000002500260096068C0E4F60373E4006847F
:10130000018B058C2605360C0096124E31401E07C7
:10131000360C31431606360C3143064E303E35400E
:101320001027009E3E43354301830584F8BD00002D
:10133000FFBF00008FFF0000FF8F0000FFF70000DD
:10134000FFFB0000FFFD0000FFDF0000FFF30000D7
:10135000FFEF0000FF0C0000FF5F0000FFF5000042
:10136000028BD84B1A400283028B0A4302837047D8
:10137000F0B50C4600210025068CD24F0B373E40BD
:101380000684018B058CCF4EE73E31401E05360C9E
:1013900016433143CB4EB61C354001262643354318
:1013A00001830584F0BD70B505460C4620880028F1
:1013B0000AD12389A28861882846FFF7D9FFE188EE
:1013C0002846FFF7CDFF25E0208804280AD123898D
:1013D000A28861882846FFF788FFE1882846FFF742
:1013E0007AFF17E0208808280AD12389A28861881B
:1013F0002846FFF74FFFE1882846FFF742FF09E044
:101400002389A28861882846FFF71AFFE1882846C9
:10141000FFF70CFF70BD0021018041800121818018
:101420000021C18001817047F8B505460C460026B1
:1014300001276088002801D1022600E00026A0884C
:10144000012801D1022700E001272088002814D1BB
:101450002389A28861882846FFF78AFFE188284609
:10146000FFF77EFF23893A4631462846FFF73DFFC6
:10147000E1882846FFF72FFF13E02389A2886188BF
:101480002846FFF732FFE1882846FFF724FF23892B
:101490003A4631462846FFF76BFFE1882846FFF7BA
:1014A0005FFFF8BD0146486B70470146886B704787
:1014B0000146C86B70470146086C7047002A03D08C
:1014C00083890B43838102E083898B438381704747
:1014D0008182704702460020138A0B40002B01D006
:1014E000012000E000207047CA430282704730B5F7
:1014F0000246002000230024158A0D402B469589C2
:101500000D402C46002B03D0002C01D0012000E020
:10151000002030BDCA430282704710B50B4613430A
:101520004824235210BD002A03D083890B438381B2
:1015300002E083898B4383817047002904D082882D
:1015400008231A43828004E082885E4B1B1D1A40E8
:101550008280704701895B4A521D114001817047AA
:101560000A4600210189574B643B19400B4613433F
:1015700019460181704730B504460D46294620467C
:10158000FFF7EEFF208907210843208130BDF8B521
:1015900004460D4616461F46602D06D13B460122E5
:1015A00031462046FFF7A1FE05E03B4601223146C9
:1015B0002046FFF7DDFE29462046FFF7D1FF2089B0
:1015C000072108432081F8BD30B50C460021018970
:1015D000C9B21D062D0C154325432943018130BD99
:1015E000FFB505460E46174600243A4631462846C2
:1015F000039BFFF7E9FF2C893248401D0440072078
:101600000443304864380440702004432C81FFBDFB
:10161000F0B504460D4616461F463B46324629465F
:101620002046FFF7D1FF208901218903084320814B
:10163000F0BD8288234B643B1A40828082880A4333
:101640008280704702891F4B5B1D1A40028102890C
:101650000A430281704702891A4B743B1A40028187
:1016600002890A4302817047F0B50C46002100252B
:1016700000260189058B068C124F7F1D39400F46CD
:1016800027433946104F3D40FF2702373D430D4F5A
:101690009E3F3E401F053F0C17433E43018105839B
:1016A0000684F0BD002904D0828880231A438280FA
:1016B00004E08288034B743B1A40828070475022BA
:1016C00011527047F3FF0000FCFC00003E483F4908
:1016D0000860002048608860C8603D4848617047E5
:1016E00000213A498279002A35D00A4612680368F7
:1016F0009A430B461A600A46526803689A430B469F
:101700005A60027951180A6803681A430A602F4A1E
:10171000926803689A432D4B9A601A46D268036810
:101720009A432A4BDA604279102A0CD11A46926801
:1017300003681A43254B9A601A46D26803681A4315
:10174000224BDA600DE02149427951180A6803689A
:101750001A430A6005E0027951180A6803689A433F
:101760000A6070470021016001710C214171002164
:1017700081717047154909690143144A1161704725
:1017800001460020114A52690A40002A01D0012076
:1017900000E0002070470D49486170470146002075
:1017A00000220A4B1B680B401A46084B5B690B4032
:1017B000002B03D0002A01D0012000E00020704758
:1017C00002494861704700000000940F0004014086
:1017D000FFFF6B0000218278002A27D0274A0323CD
:1017E0001B02D21803789B109B00D15802789207F5
:1017F000D30EFF229A400B46934319464278920734
:10180000120E03789B07DB0E9A4011431B4A0323F9
:101810001B02D21803789B109B00D1500278D3068C
:10182000DB0E01229A40154B1A6007E00278D306BE
:10183000DB0E01229A40114B80331A607047002959
:1018400005D00F4A126902430D4B1A6104E00C4A9D
:10185000126982430A4B1A617047042806D109496C
:10186000096904221143074A116105E00549096924
:1018700004229143034A11617047000000E100E037
:1018800000ED00E000E000E03A4800688007800FCB
:10189000384908600020886000213648C160016135
:1018A00041618069FF2101310843324988617047F5
:1018B000014600202F4A10688008800002460A4333
:1018C00010462C4A10607047002905D0294A12683A
:1018D0000243284B1A6004E0264A12688243254BD3
:1018E0001A607047002905D0224A12680243214B32
:1018F0001A6004E01F4A126882431E4B1A60704748
:1019000030B500228B071C0F0F23A3401A46194B3A
:1019100008338C10A4001B599343164C08348D10C7
:10192000AD00635123468C10A4001B598C07250F72
:101930000446AC4023430F4C08348D10AD00635176
:1019400030BD0C49896901430A4A916170470146DB
:101950000020084A9269FF2301331A40002A01D06F
:10196000012000E000207047024989690143014AD3
:10197000916170470000014010B50446F64884426A
:1019800009D101218803FFF774F8002101208003A9
:10199000FFF76FF80BE0F148844208D101214804B9
:1019A000FFF775F8002101204004FFF770F810BD23
:1019B000F0B589B004460D460027002008900026A7
:1019C0002068400840002060666803210903304613
:1019D00088430646A868064366602668E0480640D5
:1019E000E968686808432969084306432660A668D1
:1019F0000321090230468843064668690643A6600B
:101A000001A8FEF71CFFD448844202D10798089031
:101A100001E00398089020680121C90308400028CC
:101A20000CD02968089A500007F062FE0746296822
:101A3000089A500007F05CFE0E4609E029680898F5
:101A400007F056FE07462968089807F051FE0E4633
:101A500028684008B04200D87F1C20680121C903D3
:101A60000840002806D03807460F3846BD490840D0
:101A700030430746A78109B0F0BD4B21C901016081
:101A8000002141608160C1600C2101610021416140
:101A9000704710B5002242680F2424021346A34366
:101AA0001A464C680B6823438C682343CC68234355
:101AB0001A43426010BD0021016041608160C16035
:101AC0007047002904D0026801231A43026003E032
:101AD00002685208520002607047002A03D003686F
:101AE0000B43036002E003688B43036070470029E7
:101AF00005D002680123DB031A43026004E0026898
:101B00000123DB039A4302607047002905D08268F5
:101B10000123DB021A43826004E082680123DB02B6
:101B20009A4382607047002905D042680123DB0494
:101B30001A43426004E042680123DB049A43426096
:101B40007047002905D0426801239B041A43426074
:101B500004E0426801239B049A4342607047002AD4
:101B600003D043680B43436002E043688B43436008
:101B70007047002905D042680123DB031A43426005
:101B800004E042680123DB039A4342607047002966
:101B900005D042680123DB051A43426004E0426835
:101BA0000123DB059A43426070474269120E120618
:101BB000426142690A4342617047028AFF231B0265
:101BC0001A400282028A0A4302827047002904D026
:101BD000026802231A43026003E0026802239A4368
:101BE00002607047826803231B059A438260826803
:101BF0000A4382607047002905D0426801231B0513
:101C00001A43426004E0426801231B059A43426084
:101C10007047426803235B059A43426042680A4367
:101C200042607047CA05D20D028570470146888C14
:101C3000C005C00D704742681202120A4260426835
:101C40000B061A4342607047002905D00268012341
:101C50005B031A43026004E0026801235B039A43BA
:101C60000260704702680123DB029A430260026847
:101C70000A4302607047426810239A4342604268F8
:101C80000A4342607047426820239A434260426898
:101C90000A4342607047002905D0426801239B0334
:101CA0001A43426004E0426801239B039A43426066
:101CB0007047002904D0826808231A43826003E039
:101CC000826808239A4382607047028AD2B20282F5
:101CD000028A0B021A4302827047002904D08268EC
:101CE00020231A43826003E0826820239A438260A3
:101CF0007047002904D0826810231A43826003E0F1
:101D0000826810239A4382607047826807235B04CD
:101D10009A43826082684B041A438260704742692A
:101D20001202120A426142690B061A43426170476D
:101D3000826804239A43826082680A438260704703
:101D4000002904D0826802231A43826003E082687B
:101D500002239A43826070470038014000440040EB
:101D6000F3E9FFFFF0FF0000002905D0826801239E
:101D70009B031A43826004E0826801239B039A4319
:101D80008260704782680123DB039A438260826825
:101D90000A438260704702681F235B059A43026012
:101DA00002684B051A430260704702681F231B0438
:101DB0009A43026002680B041A4302607047002ACB
:101DC00003D083680B43836002E083688B438360A6
:101DD0007047826801235B039A43826082680A43EA
:101DE00082607047F8B5034600240026009600255F
:101DF000002018460E04340ECEB200960127009E35
:101E0000B7403D46022C01D1001D02E0032C00D159
:101E10000830002A03D006682E43066002E00668F8
:101E2000AE430660F8BD002A03D0038B0B43038347
:101E300002E0038B8B4303837047826801231B03FB
:101E40009A43826082680A4382607047024600209B
:101E5000D3690B40002B01D0012000E00020704727
:101E60000162704770B502460B4600240021002530
:101E700000201E04350ED9B201268E403146012DB8
:101E800002D11668314006E0022D02D15668314079
:101E900001E0966831401C0C0126A6403446D66904
:101EA0003440002903D0002C01D0012000E00020A4
:101EB00070BD10B5002300220B0C01249C4022466B
:101EC000026210BD10B50446B548844207D1012115
:101ED0004015FEF7CEFD00216015FEF7CAFD10BDCE
:101EE00010B50022C268AF4B1A400C7964030B682E
:101EF00023438C682343CC6823430C6923434C69F8
:101F000023431A43C26010BD00210160017181604A
:101F1000C160016141617047002904D082680123DA
:101F20001A43826003E0826802231A43826070478A
:101F3000002A03D003690B43036102E003698B436A
:101F400003617047002905D0C2680123DB031A43EF
:101F5000C26004E0C2680123DB039A43C260704799
:101F6000002905D0C26801239B031A43C26004E024
:101F7000C26801239B039A43C2607047002905D0C1
:101F8000C2680123DB051A43C26004E0C268012372
:101F9000DB059A43C26070470B041343036270472A
:101FA00010B50A460021C1681F24A4060B46A343AE
:101FB00019460B4613431946C16010BD002905D0D0
:101FC000C26801239B051A43C26004E0C268012372
:101FD0009B059A43C2607047002807D07249896800
:101FE0000122D2051143704A916006E06E4989686A
:101FF0000122D20591436C4A91607047002807D0B6
:1020000069498968012292051143674A916006E097
:1020100065498968012292059143634A916070473E
:10202000002807D0604989680122120611435E4AE0
:10203000916006E05C4989680122120691435A4A80
:102040009160704710B50B460021846A1C4384627E
:1020500000BF0C4614432146416110BD002905D044
:10206000C26801235B031A43C26004E0C268012313
:102070005B039A43C2607047002905D0C268012300
:102080001B041A43C26004E0C26801231B049A4384
:10209000C2607047002905D0C26801231B031A43A0
:1020A000C26004E0C26801231B039A43C260704708
:1020B00030B501460020002200238C680125ED0781
:1020C0002C438C6000BF8C68E30FDB07521C0F248D
:1020D0002403A24201D0002BF5D18C68E40FE40761
:1020E000002C01D1086C00E0002030BD8168102276
:1020F00011438160704781680422114381607047F9
:102100000146086C80B27047002904D0C2680123E0
:102110001A43C26003E0C26852085200C2607047AE
:10212000C26802239A43C260C2680A43C260704711
:10213000002A03D043680B43436002E043688B43AB
:102140004360704730B50246002000230124240676
:102150000C40002C05D0946801252D06AC43234685
:1021600000E013681C460C40002C01D0012000E068
:10217000002030BD0160704710B5024600200023EA
:1021800054680C40234614680C40002C03D0002BEC
:1021900001D0012000E0002010BD01607047000068
:1021A0000024014003D2FFFF002701400146002028
:1021B000FE4A10684008400002460A431046FB4AA7
:1021C00010607047002806D0F849096810221143B2
:1021D000F64A116005E0F549096810229143F34A77
:1021E000116070470020F149096820221140002940
:1021F00001D0012000E000207047EC4800698021F8
:102200000840002804D0EA48E8494860E9484860A6
:102210007047E648006980210843E4490861704737
:102220000420E249C968C907C90F002901D001206B
:1022300010E0DE49C96810221140002901D00220B7
:1022400008E0DA49C96804221140002901D00320BE
:1022500000E00420704710B503460424FFF7E0FFB8
:10226000044603E0FFF7DCFF04465B1E012C01D1AE
:10227000002BF7D1002B00D10524204610BD30B52E
:10228000044604250B200004FFF7E5FF0546042D56
:1022900017D1C648006902210843C44908610846AD
:1022A0004461006940210843C04908610B200004D3
:1022B000FFF7D1FF0546BD48006902218843BB49AD
:1022C0000861284630BD10B504240B200004FFF738
:1022D000C2FF0446042C16D1B44800690421084307
:1022E000B24908610846006940210843AF490861C6
:1022F0000B200004FFF7AFFF0446AC48006904213F
:102300008843AA490861204610BD78B506460C46A8
:102310000425002000900B200004FFF79CFF0546D9
:10232000042D24D1A1480069012108439F49086177
:1023300034800B200004FFF78EFF0546042D10D1DA
:10234000B01C0090200C009908800B200004FFF7BF
:1023500082FF05469548006940084000934908619E
:1023600005E092480069400840009049086128460D
:1023700078BD70B504460D4604260B200004FFF717
:102380006AFF0646042E11D18848006901210843DE
:102390008649086125800B200004FFF75CFF064694
:1023A000824800694008400080490861304670BD9D
:1023B0007E480069012149020840002804D17C4878
:1023C0007A4988607B4888607047784800690121B5
:1023D00049028843754908617047744800690121C2
:1023E0004903084371490861704700206F49C96972
:1023F00006221140002901D0012000E00020704792
:1024000030B5AA250424FFF7F0FF002800D00025EE
:102410000B200004FFF71FFF0446042C36D163484D
:10242000006920210843614908610846006940218C
:1024300008435E4908610B200004FFF70CFF0446C7
:10244000042C1BD159480069202188435749086151
:102450000846006910210843544908615648058020
:102460000B200004FFF7F7FE0446052C0ED04F4862
:102470000069102188434D49086107E0052C05D00B
:102480004A4800691021884348490861204630BD08
:10249000F0B50446494E37460425E443E6B2FF2032
:1024A00000022040070A0B200004FFF7D4FE054677
:1024B000042D21D13D480069102108433B490861A2
:1024C000FF2E06D03C4806810B200004FFF7C3FE18
:1024D0000546042D08D1FF2F06D0374847810B2031
:1024E0000004FFF7B8FE0546052D05D02F4800690A
:1024F000102188432D4908612846F0BD30B50546B6
:1025000004240B200004FFF7A6FE0446042C36D159
:1025100026480069202108432449086108460069CB
:1025200040210843214908610B200004FFF793FE76
:102530000446042C1BD11D480069202188431B49F7
:1025400008610846006910210843184908611A48C3
:1025500005800B200004FFF77EFE0446052C0ED0FC
:1025600012480069102188431049086107E0052CD2
:1025700005D00E480069202188430C490861204697
:1025800030BDF0B505460E46174604240B20000466
:10259000FFF761FE0446042C24D104480069102191
:1025A0000843024908612846304309E00020024000
:1025B00023016745AB89EFCD00F8FF1FFFFF000047
:1025C000F82139430843714948800B200004FFF784
:1025D00042FE0446052C05D06D4800691021884351
:1025E0006B4908612046F0BD30B5054604240B2038
:1025F0000004FFF730FE0446042C16D1644800693D
:102600001021084362490861EF2028435F49488050
:102610000B200004FFF71FFE0446052C05D05C4884
:102620000069102188435A490861204630BD30B501
:10263000054604240B200004FFF70DFE0446042C7D
:1026400016D1534800691021084351490861DF2021
:1026500028434E4948800B200004FFF7FCFD044648
:10266000052C05D04A480069102188434849086173
:10267000204630BD30B5054604240B200004FFF78A
:10268000EAFD0446042C16D1414800691021084394
:102690003F490861BF2028433C4948800B20000483
:1026A000FFF7D9FD0446052C05D0394800691021F3
:1026B000884337490861204630BD30B505460424BB
:1026C0000B200004FFF7C7FD0446042C16D1304848
:1026D0000069102108432E490861882028432B49AE
:1026E00048800B200004FFF7B6FD0446052C05D0FA
:1026F000274800691021884325490861204630BDDC
:1027000070B505460E4604240B200004FFF7A3FD18
:102710000446042C13D11E480069102108431C49AB
:1027200008612E800B200004FFF795FD0446052C60
:1027300005D01748006910218843154908612046D3
:1027400070BD1348C0690004000E70471048006A4D
:102750007047002905D00E4A126902430C4B1A61DA
:1027600004E00B4A12698243094B1A617047014623
:102770000020074AD2680A40002A01D0012000E068
:10278000002070470249C8607047000000F8FF1F32
:10279000002002400F49086070470E4948607047AA
:1027A0000C49886070470C480A490860704709491D
:1027B00008617047094807490860704701460020D2
:1027C000044AD2680A40002A01D0012000E000201B
:1027D0007047000000300040AAAA0000CCCC0000E6
:1027E000FEB504460D460C206043F8494018067AB1
:1027F00000200290019000270090002E34D10C2080
:102800006043401840680921C906884204D101216B
:102810004804FEF7F6F827E00C206043EB49401827
:102820004068EB49884204D101210002FEF7E9F833
:102830001AE00C206043E54940184068E5498842A9
:1028400004D101210002FEF7DCF80DE00C2060430A
:10285000DE4940184068E049884204D101218805DA
:10286000FEF7CFF800E0FEBD0C206043D749085AC0
:10287000DA49086003204871E807C00F00282BD010
:10288000002008712B0009F0ACFD0C2507250E2552
:102890001225082516251D2500BF0020CF49C87127
:1028A0000120029017E00220CC49087113E00320B8
:1028B000CA4908710FE00120C849C871002E00D133
:1028C000029008E00220C549C871002E01D1012004
:1028D000029000E000BF24E00120C0490871002000
:1028E000C871A81E030009F07CFD09061A0B1A1214
:1028F0001A071A161A0000BF0120B84988710FE0A4
:102900000220B649087100208871012708E00320E1
:10291000B249087104E00020B049887100E000BFAE
:1029200000BF0C216143A94A89184868AB49FDF7EB
:1029300097FC0C206043A54A801805720098002877
:1029400031D00A2C1FD00E2C0FD00F2C29D10021F2
:10295000A348FEF7C0F90021A148FEF7E2F90021E3
:1029600001204004FEF75BF81CE000219D48FEF7C3
:10297000B2F900219B48FEF7D4F900210120800420
:10298000FEF74DF80EE000219748FEF7A4F900216C
:102990009548FEF7C6F900210120C002FEF73FF876
:1029A00000E000BF00BF002F78D000208F490880D2
:1029B00048807D21C9008E48006806F099FE401EBF
:1029C0008A4948607D21C9008948006806F090FE68
:1029D000401E81B20C2060437C4A80184181002057
:1029E00082490881887283498860602008800120BC
:1029F000488004208880022088810020C881FF2030
:102A000001300882002048820A2C48D00E2C23D0A6
:102A10000F2C66D101214804FEF701F8022208219B
:102A20006B48FDF7A6FC71496D48FEF7CFF8714978
:102A30006B48FEF787F908216948FEF7FBFA002189
:102A40006748FEF737F901216548FEF744F901218F
:102A50006348FEF766F945E001218804FDF7DFFFD2
:102A6000022209215A48FDF784FC60495D48FEF7BF
:102A7000ADF860495B48FEF765F908215948FEF753
:102A8000D9FA00215748FEF715F901215548FEF7FC
:102A900022F901215348FEF744F923E023E0012104
:102AA000C802FDF7BCFF02220D214948FDF761FC79
:102AB0004E494D48FEF78AF84E494B48FEF742F919
:102AC00008214948FEF7B6FA00214748FEF7F2F818
:102AD00001214548FEF7FFF801214348FEF721F99F
:102AE00000E000BF00BF00BFBDE670B504460D4664
:102AF00029462046FFF774FE70BD10B50C224243F4
:102B0000324C1219117210BD70B504460C2060438E
:102B10002E494018067A002E03D101212046FFF7E6
:102B2000E4FFF007C00F00280BD00C226243274BB4
:102B3000995A0C226243D2185068FDF7F4FB0546FF
:102B40000AE00C226243214B995A0C226243D218AC
:102B50005068FDF7F5FB0546012D01D1012070BD40
:102B60000020FCE770B504460D46012D09D10C226A
:102B70006243164B995A0C226243D2185068FDF7F3
:102B8000ECFB002D09D10C226243104B995A0C2208
:102B90006243D2185068FDF7E2FB70BDF8B50446F9
:102BA0000C20604309494018067A0027012C23D0E5
:102BB000022C06D0082C24D10120084908600125E8
:102BC00020E040200549086040251BE0140000205B
:102BD0000004004800080048001400489401002048
:102BE0000044014000480140002C01408C030020BB
:102BF000F40100209803002080207E490860802591
:102C000000E000BF00BF052E33D001214802FDF7D0
:102C100006FF7948FFF756F97848FFF775F908205D
:102C2000764908600120087101214004FDF7E9FEA2
:102C30000320704908710020C8710920C006FDF703
:102C40000FFB6E496C48FFF74BF96B48FFF730FA02
:102C500001216948FFF760F900BF69496648FFF73D
:102C600071FA0028F9D005210C206043654A8018CC
:102C70000172072229466048FFF7E4F95E48FFF732
:102C80003AFA00BF04215C48FFF75CFA0028F9D04B
:102C90005948FFF735FA07465748FFF727FA3846ED
:102CA000F8BDF8B505460E460C2068435549401856
:102CB000077A042F03D004212846FFF791FD3446FC
:102CC000514806800A2D04D00E2D05D00F2D09D1B4
:102CD00005E04E48446306E04D48446303E04D4838
:102CE000446300E000BF00BFF8BD70B504460D4668
:102CF0000C20604343494018067A042E03D0042177
:102D00002046FFF76DFD29464348006806F0F0FCB9
:102D1000401E81B20C2060433A4A80184181E01E77
:102D2000030009F05EFB0D085B11195B5B21293183
:102D300039424B535B000C206043324940184089B4
:102D400001218907C8624AE00C2060432D494018E0
:102D500040892F49C86242E00C206043294940184D
:102D600040892C49C8623AE00C206043254940184C
:102D700040892A49C86232E00C206043214940184A
:102D800040892249C8622AE00C2060431D4940184E
:102D900040892349C86222E00C2060431949401849
:102DA000408901218907C86219E00C206043154958
:102DB0004018408901218907C86210E00C20604357
:102DC0001049401840891249C86208E00C2060434D
:102DD0000C49401840890F49C86200E000BF00BF9D
:102DE00070BD10B50C224A43064BD4181CCC1CC035
:102DF0000C3810BD9401002000240140AC030020D9
:102E0000010000011400002010000020002C0140EF
:102E10000048014000440140F4010020002000402F
:102E20000004004070B5054600BF20218348FFF72D
:102E30000DF80028F9D08148FEF7F8FEC4B220460C
:102E400070BD01460020C043704710B5044600BF66
:102E500080217A48FEF7FAFF0028F9D0A1B277481E
:102E6000FEF7E0FE10BD00BFFEE71CB501214804DF
:102E7000FDF7C7FD01218803FDF7D1FD01220321E4
:102E80000920C006FDF775FA012202210920C006BB
:102E9000FDF76FFA012000900321684601710021BF
:102EA000C17169460920C006FDF7DAF90C200090CF
:102EB00003216846417102210171002181710121C4
:102EC000C17169460920C006FDF7CAF91CBD10B5DD
:102ED00086B00446FFF7C9FF0094002001900290DD
:102EE000039005900C20049069465448FEF760FD5D
:102EF000012253495148FEF775FF01214F48FEF763
:102F0000E0FD1B20012181404E4A116000BF06B048
:102F100010BD10B504462046FFF7D9FF4A480460AB
:102F200003210020FFF7E9FD04210120FFF7E5FD63
:102F300010BD4648008870474548464908604649E4
:102F400008600020414908804449088044490870CD
:102F50007047FF203D490988002917D03D4909687D
:102F600008783C490968491C3A4A11603749098880
:102F7000491E364A11800021394A117035490A68C4
:102F800038498A4202D93249324A11607047FF20DB
:102F90002E490988002902D02E490968087870470F
:102FA00010B504463049204606F0EDFA10BD70B564
:102FB00005462C4600BF2078641C2B4906F0E3FA36
:102FC00020780028F7D170BD10B504462046FFF7E1
:102FD000EEFF0D20FFF7E4FF0A20FFF7E1FF10BD31
:102FE00010B5044600BF802120480068FEF72EFF80
:102FF0000028F8D06106490E1C480068FEF712FE52
:103000000D20FFF7CDFF0A20FFF7CAFF10BD10B556
:10301000044600BF802115480068FEF717FF00280E
:10302000F8D06106490E11480068FEF7FBFD0D203F
:10303000FFF7B6FF0A20FFF7B3FF10BD00380140CD
:103040000501050000E100E0B4010020E8010020D6
:10305000C4030020E0010020E4010020EA01002078
:10306000EC010020C4040020AC010020F00100208D
:10307000704700BFFEE7704770470A480068401C71
:103080000849086008480068401C0749086007486C
:103090000068002804D005480068401E0349086005
:1030A00070470000540300200C0200204C03002055
:1030B0000CB50020019000907348006801210904BC
:1030C00008437149086000BF6F4800680121490446
:1030D000084000900198401C01900098002804D1FD
:1030E0000521090201988842EED167480068012154
:1030F00049040840002802D00120009001E000208F
:1031000000900098012839D11120604908605E487C
:1031100040685D4948600846406848600846406825
:103120003F210904884358494860084640681121F6
:10313000090408435449486008460068012109060B
:1031400008435149086000BF4F4800680121490603
:1031500008400028F8D04C484068800880004A4960
:10316000486008464068022108434749486000BF5C
:10317000454840680C2108400828F9D10CBD10B51D
:1031800041480068012108433F49086008464068FB
:103190003F4908403C494860084600683D490840AE
:1031A0003949086008460068012189048843364986
:1031B0000860084640683F21090488433249486056
:1031C0000846C06A00090001C8620846006BFF217A
:1031D000543188432C4908630846406B400840003E
:1031E000486300208860FFF763FF10BDF8B5002535
:1031F000002400260027244840680C21084005468A
:10320000002D04D0042D06D0082D2AD107E0224835
:103210002249086029E020482049086025E01A4832
:1032200040680F218904084004461748406801217E
:10323000090408400646A00C841C002E04D118483E
:103240006043164908600BE00F48C06A0007000F92
:10325000471C3946104806F04BFA60430F49086096
:1032600003E00D480D49086000BF00BF06484068F4
:10327000F021084000090B490D5C08480068E8404F
:1032800006490860F8BD000000100240002002401E
:103290000CB8FFF8FFFFF6FE00127A00F4010020E0
:1032A00000093D00F801002010B501F02AFE10BD14
:1032B00010B50121AF48FEF71AF9012803D1012109
:1032C000AC48FEF727F910BD10B50420FEF766FAEA
:1032D000002805D0A848006880470420FEF770FA4F
:1032E00010BD10B501200003FEF758FA002808D0E1
:1032F000A2480088401CA149088001200003FEF775
:103300005FFA01208003FEF749FA002808D09C48A4
:103310000088401C9A49088001208003FEF750FA7B
:103320002020FEF73BFA002807D096480088401C72
:10333000944908802020FEF743FA10BD10B55D20A7
:10334000FDF71CF9012804D1800200F09FFCFDF775
:10335000BAFBFFF728FA10BD10B5FDF7D5F801202C
:10336000FDF759F900BF0120FDF708F90028FAD050
:103370000020FDF70CFA0020FDF717FA0120FEF7F8
:1033800015FF0120FEF71EFF0521C9040020FDF7EF
:10339000ABF90120FDF7B7F900BF1920FDF7EEF8F2
:1033A0000028FAD00220FDF7E1F900BFFDF7EAF9A5
:1033B0000828FBD110BD1CB5002001900090FFF73C
:1033C000CBFF7D21C9007048006806F091F90446E2
:1033D000601E6E49884200D90CE0601E6C4948614D
:1033E0000321081F00F08FF8002069498861072039
:1033F000086100BF322003F0D3FE01F0D5F900F0E0
:103400004BFC01F098F901F0BCFC01F021FD01F04A
:10341000F0F903F0F2FF02F03CFB5E480078030095
:1034200008F0DFFF060714150408181C01F0F2FB72
:1034300000BF00BF01F0DDFA01F038FB01F0B0FB86
:10344000322003F0ADFE01F065FA07E006E001F07E
:1034500042FC03E0012000F019FC00BF00BF01F0B6
:103460001CFA00F0C1FE002801D100F0EFFF01F0CE
:103470006FFC47E0FFF762FF00F0B8FC45480078BA
:10348000002806D002280FD0032803D0042812D128
:1034900001E000BF00BF02F0E4F801F0AFFF03F06D
:1034A000BFFB04F0A5F806E004F0C2FB04F0AFFA9D
:1034B00004F0BAF800BF00BF03F094FC0199401A71
:1034C000009000983C2815D303F08CFC0190324802
:1034D0000078002801D002F035FE2E480078002840
:1034E00003D02C480078032804D1012000F09DFD72
:1034F0002A4908802A48006802210840002801D192
:1035000003F008FAB6E710B5002819DA254A0307D0
:103510001B0F083B9B089B00D2588307DC0EFF2340
:10352000A3409A438B071B0E8407E40EA3401A4363
:103530001C4B0407240F083CA408A4001A5118E0EF
:10354000194A03231B02D21883089B00D258830711
:10355000DC0EFF23A3409A438B071B0E8407E40E67
:10356000A3401A43104B032424021B198408A4000F
:103570001A5110BD001000407403002024030020E5
:103580002603002028030020F4010020FFFFFF0095
:1035900000E000E01A02002019020020480200208A
:1035A000100200201CED00E000E100E010B5044630
:1035B000F948844209D101214805FDF768FA002144
:1035C00001204005FDF763FA08E001218805FDF7B9
:1035D0005EFA002101208005FDF759FA10BD10B5F3
:1035E0000A46002103685B085B0003600168EB4B3F
:1035F00019409468240253682343194301600F243F
:1036000024061368A3430361036801242343036072
:1036100000218160C1601469936923431946816068
:1036200083680124E40323438360D16803680B4368
:1036300003604168DA4B194053691943416010BD7A
:103640000021016041608160C16001610121C90305
:103650004161002181617047002904D00268012383
:103660001A43026003E00268520852000260704789
:10367000016849084900016001680168012211439D
:1036800001607047002A03D003680B43036002E027
:1036900003688B4303607047002905D0026801234B
:1036A0005B049A43026004E0026801235B041A434E
:1036B00002607047002905D0026801239B041A4369
:1036C000026004E0026801239B049A430260704791
:1036D000002905D0C2680123DB031A43C26004E05D
:1036E000C2680123DB039A43C260704770B50B4682
:1036F0000021C168AB4C2140FE241C401502072666
:10370000360235402C432143C16070BD002905D0ED
:1037100002680123DB041A43026004E0026801230B
:10372000DB049A4302607047002905D00268012338
:103730001B041A43026004E0026801231B049A433D
:10374000026070470A4600214168890A8902930590
:103750009B0D194341607047002905D04268012341
:10376000DB021A43426004E042680123DB029A4311
:1037700042607047002905D0426801235B061A4366
:10378000426004E0426801235B069A43426070474E
:10379000002905D0426801231B061A43426004E059
:1037A000426801231B069A434260704710B50A46DF
:1037B00000214168FF2424040B46A3431946130447
:1037C00023401943416010BD002905D142680123FF
:1037D0009B029A43426004E0426801239B021A4321
:1037E00042607047002905D0426801235B031A43F9
:1037F000426004E0426801235B039A4342607047E1
:10380000002905D0426801239B031A43426004E06B
:10381000426801239B039A4342607047002905D008
:10382000426801231B031A43426004E042680123FB
:103830001B039A4342607047002905D04268012368
:10384000DB039A43426004E042680123DB031A432E
:1038500042607047014688697F2252041040000C84
:10386000704710B50146002200208B690124240412
:1038700023401A46002A00D101E00120800210BD39
:10388000F0B50C4600214168474D2940A505AD0D16
:103890001604FF273F043E4035431D43059E354334
:1038A00029434160F0BD002905D0026801239B0532
:1038B0001A43026004E0026801239B059A430260F8
:1038C0007047002905D042690123DB031A43426196
:1038D00004E042690123DB039A43426170470029F7
:1038E00005D042690123DB071A43426103E04269C4
:1038F0005200520842617047002905D042690123F5
:103900001B031A43426104E0426901231B039A43EB
:10391000426170470A4600214169090B09031305FA
:103920001B0D19434161704710B50A4600214169DA
:103930001E4B194013041D4CE443234019434161BD
:1039400010BD002905D002680123DB051A4302607F
:1039500004E002680123DB059A43026070470029F6
:1039600005D0426801239B061A43426004E0426886
:1039700001239B069A43426070470146086AC0B221
:10398000704708B502460020009000920098401849
:1039900000900098006808BD00540040FFE0CF0090
:1039A000FF7FFF0701F8FFFF009800FCFFFF00F01A
:1039B000816270470146486AC0B27047002A03D04E
:1039C00003680B43036002E003688B4303607047A6
:1039D00010B502460023002093691C460C40234684
:1039E000002B01D0012000E0002010BDC161704714
:1039F00070B502460023002000243F252D020D4013
:103A0000002D04D01568802635402C460BE0C025DB
:103A10000D40002D04D01568402635402C4602E0AC
:103A200015680D402C4693691D460D402B46002B12
:103A300003D0002C01D0012000E0002070BDC16146
:103A40007047000000B589B00020FCF7E2FE0121BC
:103A50004805FCF7F2FF01218804FCF7D2FF0122A0
:103A600006218748FCF785FC012207218448FCF7E2
:103A700080FC07A8FCF73CFC022108A80170C020CC
:103A80000790012108A8C17081700321417007A926
:103A90007B48FCF7E5FB6846FFF7D2FD0020059068
:103AA0000690019002900390049076480090694639
:103AB0007548FFF794FD01217348FFF7CDFD09B06C
:103AC00000BDF8B50546FF26012040030023012272
:103AD000D72100906C48FFF7D3FE03F083F904462A
:103AE00009E003F07FF9001B022804D92020664971
:103AF000C8610020F8BD64488069022108400028A0
:103B0000EFD029466048FFF753FF03F06BF90446F6
:103B100009E003F067F9001B022804D920205A4964
:103B2000C8610020E6E75848806940210840002825
:103B3000EFD009208002CB040122D7210090524807
:103B4000FFF79EFE03F04EF9044609E003F04AF940
:103B5000001B022804D920204B49C8610020C9E776
:103B600049488069042108400028EFD04648FFF703
:103B700021FF064603F036F9044609E003F032F966
:103B8000001B022804D920203F49C8610020B1E76A
:103B90003D488069202108400028EFD020203A4984
:103BA000C8613046A6E7F8B505460E460120400339
:103BB000C3020122D72100903348FFF761FE03F0D2
:103BC00011F9044608E003F00DF9001B022803D99F
:103BD00020202D49C861F8BD2B488069022108408A
:103BE0000028F0D029462848FFF7E2FE03F0FAF853
:103BF000044608E003F0F6F8001B022803D9202051
:103C00002149C861E7E720488069802108400028F1
:103C1000F0D001211C48FFF7ADFD03F0E3F80446A6
:103C200008E003F0DFF8001B022803D92020164922
:103C3000C861D0E714488069022108400028F0D00C
:103C400031461148FFF7B4FE00210F48FFF7A0FDF1
:103C500003F0C8F8044608E003F0C4F8001B02288B
:103C600003D920200849C861B5E7074880692021A9
:103C700008400028F0D020200349C86100BFAAE70F
:103C8000000400481210730000540040F94909680C
:103C90000143F84A1160704700B50420FFF7F6FFB2
:103CA00000BDF44909688143F24A1160704701463A
:103CB000F048006808407047EF4909680143EE4A40
:103CC00011607047EC4909688143EB4A1160704705
:103CD0000146E94800680840704710B50020E749F0
:103CE000087001208002FFF7F3FF002803D0E4A151
:103CF000E24805F077FC0120C002FFF7E9FF002849
:103D000003D0E3A1DD4805F06DFC01200003FFF7BF
:103D1000DFFF002803D0E2A1D84805F063FC0120B2
:103D20004003FFF7D5FF002803D0E0A1D34805F0FA
:103D300059FC01208003FFF7CBFF002803D0DFA14F
:103D4000CE4805F04FFC0120C003FFF7C1FF00285B
:103D500003D0DDA1C94805F045FCC84810BD70B5C9
:103D60000446002506E0A168485D05F058FAA16800
:103D700048556D1CA089A842F5DC70BD70B505469C
:103D80000C46284605F00CFC86B23146284603F066
:103D90000AF8A04201D1012070BD0020FCE770B5F7
:103DA000CCB005460C461DE0601E80B20446285C7F
:103DB0002A2817D12246294601A805F01FFC002019
:103DC00001A90855611C681805F0D0FBC6B2314640
:103DD00001A8FFF7D3FF002802D001204CB070BD2E
:103DE0000020FBE7002CDFD10020F7E7F8B5BA4848
:103DF0000078002835D1B9480078030008F0F1FABE
:103E000006041D2605062F3000BF00BFB448006819
:103E1000B449884202D9002001F0FAFB01F09CF974
:103E2000074606F073FA0546AF4AB04B08F098FE15
:103E300002D2002002F08BFE12E0A9480068A949D6
:103E4000884202D9002001F0E3FB09E0A4480068A1
:103E50007D210901884201D903F093FD00E000BFF4
:103E600000BFA348807B002800D1F8BDA049886826
:103E7000A0A105F0F9FB002806D09D4988689FA104
:103E800005F0F2FB002803D10120934908700EE0F1
:103E9000974A91899068FFF782FF002807D18E48E2
:103EA0000078002803D1924801F022F8DDE790491C
:103EB000886894A105F06CFB04469349204605F000
:103EC000D3FB002803D08A4801F012F8CDE78848D8
:103ED000FFF745FF81480078030008F082FA0604E6
:103EE0000A10161C222803F0D5FE00207C49086029
:103EF0001DE004F0FFF900207949086017E003F0A5
:103F0000F6FB00207649086011E004F0BDFA0020BD
:103F1000734908600BE004F0FFFD00207049086061
:103F200005E004F0E9F900206D49086000BF00BF1A
:103F30006F4800F0DDFF00BF97E774487047F0B5A9
:103F400085B073480468476872486040B84210D131
:103F5000204606F017FB019006F0D8F9054600222E
:103F60006D4B05F05FFE0391029005F071FC05B00A
:103F7000F0BD0020FBE7F8B505466849284608F083
:103F8000C5FE074606F09CFA044600F091FCFEF7D9
:103F900034F93520FEF7F6FB5D48FEF770F921464F
:103FA0005B48FEF7B2F95B48604001465848001D87
:103FB000FEF7ABF9FEF72DF900F06FFC54480668E8
:103FC000A64201D10120F8BD0020FCE770B50446EF
:103FD000204605F0E5FA86B2002512E0701E205C4E
:103FE0000D2804D1701E002801DD012070BD605D28
:103FF000302802DB605D392801DD0020F6E7681C0F
:1040000085B2B542EADB0120F0E7704770B504469F
:10401000002506E0A168485D05F0F4F8A168485560
:104020006D1CA089A842F5DC70BD10B586B00446B1
:104030003B48FDF747FF6846FDF766FF002000900C
:1040400001206946087100200290049005903448D0
:10405000FDF746FF002C05D1072201213048FDF76E
:10406000F1FF80E0012C5DD1072202212C48FDF7F1
:10407000E9FF78E01002002014020020C4040020B0
:10408000544845524D414C5F53484F52542C000008
:10409000544845524D414C5F4F50454E2C00000056
:1040A0004F5645525F54454D502C00004E54435FCF
:1040B0004F5645525F54454D502C00004155544FCA
:1040C0005F484541542C000043414E4E4F545F48D9
:1040D0004541542C00000000180200201A02002064
:1040E0000C020020E09304009A9999999999B93F9C
:1040F0001C020020312044454255470031206465B0
:10410000627567002000000047CF0008ACF7FF1F72
:1041100000F8030878563412000059400000C842E5
:1041200000240140022C05D107224021FE48FDF762
:1041300089FF18E0032C05D107228021FA48FDF7FA
:1041400081FF10E0042C0BD10722A103F648FDF7F4
:1041500079FF0120FDF740FF0120FDF74FFF02E04E
:10416000002006B010BDF048FDF7A2FF0121EE4887
:10417000FDF7D2FE00BF0121EB48FDF7E3FF002869
:10418000F9D0E948FDF7B7FF00BF0421E648FDF785
:10419000D9FF0028F9D0E448FDF7B2FF00BF0421A1
:1041A000E148FDF7CFFF0028F9D0DF48FDF7A8FF71
:1041B000D7E77FB50420FFF738FFDC49098B0E1ADB
:1041C000304605F074FF0446D94ADA4B05F02AFD63
:1041D0000022D94B0191009005F0F4FC039102906C
:1041E00005F036FB04B070BD1CB501214804FCF796
:1041F00008FC0120C0030090002168460171C171D4
:1042000069460920C006FCF72BF80121C9030920E3
:10421000C006FCF788F81CBD70B500F09DFF06468F
:10422000304606F073F80446C44AC54B08F098FCC3
:1042300008D3304606F06AF804460022C14B08F065
:10424000C1FC01D2102070BD0020FCE710B5002099
:10425000BD494863012002F0A3FF01218903BB4847
:10426000FCF761F8002801D1802010BD8020FCE718
:1042700010B50120FFF7D9FE0446442C05DDFF20D0
:104280001C30844201DA402010BD0020FCE710B54C
:104290000020AF494863022002F082FF0121C902D9
:1042A000AA48FCF740F8012801D1202010BD0020C9
:1042B000FCE7F8B5002500260027A6480068022183
:1042C000084000284DD1002419E0032001F080FAB5
:1042D0002946009008F0AAFC0546042001F078FA6F
:1042E0003146009008F0A2FC0646052001F070FA65
:1042F0003946009008F09AFC0746601CC4B2142CA2
:10430000E3DB9549284606F02BF8009002F058FDB3
:1043100005469149304606F023F8009002F050FD22
:1043200006468D49384606F01BF8009002F048FD1D
:1043300007468A49284608F041FD0ED38749304692
:1043400008F03CFD09D38649384608F037FD04D310
:104350008449384608F0B0FC01D20020F8BD0420A2
:10436000FCE70020FAE77B480068022108400028AB
:1043700001D1022070470020FCE710B501217348ED
:10438000FBF7EDFF012002F00BFF10210920C00612
:10439000FBF7C9FF002801D1012010BD0020FCE778
:1043A00030B58BB00024FFF7E8FF0419FFF7DBFFFF
:1043B0000419FFF77EFF041908346B4800780328BE
:1043C00003D069480078042801D1203402E0FFF7C7
:1043D0005EFF0419FFF74CFF0419FFF737FF0419BC
:1043E000FF20F53002F0DCFEFFF716FF041902A9EA
:1043F000204602F0D1FD05464C4820380095C36A9E
:10440000026B416B59A004F019FF0BB030BD30B501
:104410008BB00024FFF7B1FF0419FFF7A4FF0419C4
:10442000FFF747FF041908341034203402A920464E
:1044300002F0B2FD05463D4820380095C36A026B84
:10444000416B4FA004F0FAFE0BB030BD08B500F090
:10445000FFFC45480078030007F0C3FF0504070888
:104460000B0E1100FFF79CFF14E013E0FFF7CFFFE6
:1044700010E0FFF795FF0DE0FFF792FF0AE045A07F
:1044800000902A482038C36A026B416B42A004F0B6
:10449000D5FE00BF00BF08BDF0B589B000250026DD
:1044A000002700240520079032200690022001F00A
:1044B0008FF9044604940594B6E0002008901BE0B0
:1044C000032001F085F92946039008F0AFFB05466B
:1044D000042001F07DF93146039008F0A7FB064661
:1044E000052001F075F93946039008F09FFB074657
:1044F0000898401CC0B2089008980528E0DB2B49BA
:10450000284605F02DFF039002F05AFC0546274986
:10451000304605F025FF039002F052FC0646234981
:10452000384605F01DFF43E000240140A0F7FF1FBF
:10453000618907944D59154000003E402D431CEB06
:10454000E2361A3F00208C40004801400004004839
:10455000002C0140100200200000A0410000484251
:104560000040834400806D441A02002025303858F2
:1045700025303858253038582031302025730A002E
:1045800025303858253038582530385820303120DB
:1045900025730A003000000025303858253038587F
:1045A000253038582030302025730A000000A04004
:1045B000039002F005FC07464B49284608F07CFBB7
:1045C00032D84949304608F077FB2DD8474938465C
:1045D00008F072FB28D84649384608F0EFFB23D88C
:1045E000022001F0F5F804462146059808F064FB26
:1045F00000D205942146049808F0E0FB00D2049410
:104600000499059808F012FC009002F0D9FB019083
:1046100005F07CFE0022374B0391029008F0D2FA9D
:1046200002D2002009B0F0BD0698411EC9B2069121
:10463000002800D041E70120F4E770B502F0D2FB7A
:1046400084B200252C48006802210840002810D1BF
:104650000BE002F0C7FB001B7D214901884201D914
:10466000002070BDFFF718FF0546002DF1D008208F
:10467000F7E70020F5E710B5002020494863012046
:1046800002F08EFD012109031D48FBF74CFE0028B6
:1046900001D1402010BD4020FCE710B501210920C8
:1046A000C006FBF75CFE012002F07AFD0421092020
:1046B000C006FBF738FE012801D1102010BD0020F4
:1046C000FCE710B5012149020D48FBF748FE012027
:1046D00002F066FD04210A48FBF725FE012801D1FE
:1046E000202010BD0020FCE7000048420040834429
:1046F00000806D4400007940100200200044014019
:10470000000400481CB501214804FCF77AF9012196
:104710004802FCF784F9C02000900321684601712B
:104720000021C17169460920C006FBF799FDFE48CA
:10473000FDF7C8FB1CBD70B5FFF7E4FF0220FFF7D3
:1047400074FC04460320FFF770FC0546F7488442DA
:1047500003DB0020F649087021E0F648844206DBBE
:10476000F248844203DA0220F149087017E0F24867
:1047700084420EDBEF4884420BDAFF2000018542C1
:1047800003DD0320EA49087009E00420E8490870C5
:1047900005E00520E64908700120FFF777FA70BDB3
:1047A00010B5FFF7C8FF10BD08B5FF2168460170BE
:1047B0000021417001218170FDF70CF81B21684632
:1047C0000170012141708170FDF704F811216846E4
:1047D00001700221417001218170FCF7FBFF07216C
:1047E000684601700321417001218170FCF7F2FFDE
:1047F00008BD00B589B001214804FCF702F9012188
:104800008803FCF70CF901220921C806FBF7B1FD6A
:1048100001220A210920C006FBF7ABFD012040025E
:1048200001900321684641720221017201218172C7
:10483000C17201A90920C006FBF712FD0120800208
:1048400001900321684641720221017201218172A7
:10485000C17201A90920C006FBF702FDE120400258
:104860000390002004900590069008900C2007907B
:1048700003A9B248FDF79CF80022B149AF48FDF703
:10488000B1FA0021AD48FDF71CF91B200121814040
:10489000AC4A116000BF09B000BD10B50122A849A3
:1048A000A648FDF79FFA0121A448FDF70AF910BDBB
:1048B00010B50022A249A148FDF794FA00219F48B3
:1048C000FDF7FFF810BD3EB501211020FCF7B5F84B
:1048D0007D21C9009C48006804F00AFF401E84B294
:1048E00014200190002168460180018141806946C1
:1048F0009648FCF76BF9012221469448FCF79CF995
:1049000001219248FCF7E7F9012211468F48FCF794
:10491000D5FD3EBD00B58BB001218804FCF771F8D0
:1049200001214804FCF76DF80121C802FCF777F873
:1049300003200990032108A801720021C17209A96E
:104940000920C006FBF78CFC0120400309900221DE
:1049500008A8017200218172032141720221C172F3
:1049600009A97B48FBF77CFC002168460183418351
:104970007D21C9007448006804F0BAFE401E07900B
:1049800000216846018408A88170002003906021FE
:10499000684681800121C1800421018102210182B8
:1049A00000214182FF21013181820021C182022246
:1049B0000D216748FBF7DDFC06A96648FCF706F900
:1049C00001A96448FCF7BEF908216248FCF732FBF4
:1049D00000216048FCF76EF901215E48FCF77BF985
:1049E00001215C48FCF79DF95B485A4948630BB0CC
:1049F00000BD00B58BB001218804FCF702F8FF2050
:104A00000130019002216846017200218172032168
:104A1000417201A94E48FBF723FC0021684601843E
:104A200041847D21C9004848006804F061FE401EB1
:104A3000099000216846018508A881720020059030
:104A40006021684681810121C18104210182022106
:104A5000018300214183FF21013181830021C18332
:104A600001214804FBF7DBFF022208213848FBF74D
:104A700080FC08A93948FCF7A9F803A93748FCF7D6
:104A800061F908213548FCF7D5FA00213348FCF7D5
:104A900011F901213148FCF71EF901212F48FCF7DB
:104AA00040F92D482D4948630BB000BD00B58BB0CF
:104AB00001218804FBF7A5FF01204002019002219B
:104AC00068460172002181720321417201A92048C8
:104AD000FBF7C6FB00216846018441847D21C900A3
:104AE0001948006804F004FE401E09900021684641
:104AF000018508A8817200200590602168468181A7
:104B00000121C1810421018202210183002141830D
:104B1000FF21013181830021C18301218804FBF73A
:104B20007EFF022209211BE0002401408C0C0000C2
:104B30001A020020690900009907000000380140AE
:104B40000501050000E100E0F40100200010004034
:104B500000040048002C0140FFFF00000044014019
:104B6000D548FBF706FC08A9D448FCF72FF803A9A1
:104B7000D248FCF7E7F80821D048FCF75BFA00219F
:104B8000CE48FCF797F80121CC48FCF7A4F80121A6
:104B9000CA48FCF7C6F8CA48C84948630BB000BD0C
:104BA0001FB501218804FBF72CFF01210846FBF704
:104BB00036FF012000030290002168460173C17393
:104BC00002A9BD48FBF74CFB0120800302900021A5
:104BD00068460173C17302A9B748FBF741FB0C217A
:104BE0000120FCF78DFE0E210120FCF789FE01203B
:104BF000000300900021684601710C2141710121E0
:104C00008171FCF76DFD0120800300906846FCF780
:104C100067FD1FBD1FB501214804FBF7F2FE2020F0
:104C20000290002168460173C17302A90920C006E1
:104C3000FBF716FB05210020FCF762FE2020009008
:104C40000021684601710C21417101218171FCF73D
:104C500047FD1FBD00B589B001214804FBF7D1FE17
:104C600001214802FBF7DBFE012001900321684689
:104C700001720021C17201A90920C006FBF7F0FAF8
:104C80009048FDF71FF903A8FDF73EF900200390B7
:104C9000012168460174002005900790089003A93F
:104CA0008848FDF71DF9072201218648FDF7CAF95A
:104CB0008448FDF7FDF901218248FDF72DF900BF79
:104CC00001218048FDF73EFA0028F9D07D48FDF724
:104CD00012FA09B000BD1CB501214804FBF791FE92
:104CE00001218804FBF78DFE012000900121684618
:104CF000017100218171032141710021C171694657
:104D00000920C006FBF7ACFA012040020090012107
:104D1000684601718171032141710021C1716946A9
:104D20006548FBF79DFA0420009000216846017158
:104D3000C17169466048FBF793FA01210920C0065A
:104D4000FBF70BFB012149025B48FBF706FB1CBD8F
:104D500010B50120FBF7B8FC00BF4120FBF70EFCAB
:104D60000028FAD05848FDF715FD0320FDF715FD82
:104D70007D20C000FDF714FDFDF715FDFDF71AFDC0
:104D800010BD1CB501218804FBF73BFE01200090FB
:104D900001216846017100218171032141710121C6
:104DA000C17169464448FBF75BFA01214248FBF7B1
:104DB000D4FA1CBD1CB501214804FBF722FE0121D9
:104DC0008804FBF71EFE1020009000216846017148
:104DD0000121C17169460920C006FBF741FA042090
:104DE0000090002168460171C17169460920C00622
:104DF000FBF736FA0120800200900021684601711D
:104E00000121C17169462C48FBF72AFA1CBD1CB56B
:104E100001214804FBF7F5FD01218804FBF7F1FDB2
:104E2000102000900021684601710121C17169467E
:104E30000920C006FBF714FA0120C00200900021EF
:104E400068460171C17169461B48FBF709FA1CBD30
:104E500010B51E480078030007F0C3FA0604090ADB
:104E600005060D0E00BF00BFFFF7D1FF04E003E011
:104E7000FFF7A0FF00E000BF00BF10BD1CB502217E
:104E80000120FCF73DFD04200090002168460171DF
:104E90000C21417101218171FCF722FC1CBD1CB564
:104EA000042000900021684601710C21417100210D
:104EB0008171FCF715FC1CBD00040048004801404E
:104EC000FFFF000000240140555500001A02002099
:104ED00070B504460D4600BF80219B48FCF7B6FF25
:104EE0000028F9D0A1B29848FCF79CFE204670BD7E
:104EF000FF21F53181800021817381810269116078
:104F0000704710B591488089002807DD8F480069F7
:104F100000680A2802D98D48FFF7EAFF00208B4974
:104F2000096908608A498848FCF79CFF002839D045
:104F30008548FCF77BFEC4B2844880898349898810
:104F4000884203DD8148FFF7D3FF10BD7F48807B97
:104F5000002826D10A2C0CD07C4881898089401CED
:104F60007A4A908110468068445400201146887324
:104F700017E001207549887300208968734A928977
:104F80008854724881688089401E085C0D2808D1C9
:104F900000216E4882688089401E80B26B4B9881E8
:104FA000115400BF00BFD0E7F7B582B0054600201E
:104FB0000190039C04980A2804D0002020700398D4
:104FC00005B0F0BD002D06D130202070641C0020FB
:104FD00020700398F4E7002D03DA2D202070641C64
:104FE0006D425C4E17E03146284604F08BFB0746C5
:104FF000002F02D10198002808D0384630302070A8
:10500000641C384670432D1A012001900A21304655
:1050100004F078FB0646002EE5DC002020700398A3
:10502000CEE70FB470B586B006460CA8019081E0BB
:105030000B9800785C282AD10B98401C0B900078C4
:105040006E2810D072281DD100BF40213046FCF7D9
:10505000FDFE0028F9D00D213046FCF7E3FD0B984A
:10506000401C0B9012E000BF40213046FCF7EEFEE2
:105070000028F9D00A213046FCF7D4FD0B98401CDB
:105080000B9003E00B98401C0B9000BF52E00B9874
:105090000078252840D10B98401C0B90007864289C
:1050A00018D0732833D1019810C801900BE000BFCD
:1050B00040213046FCF7CAFE0028F9D0217830465E
:1050C000FCF7B0FD641C20780028F0D10B98401C40
:1050D0000B9020E0019820C801900A2202A92846DE
:1050E000FFF762FF02AC0BE000BF40213046FCF747
:1050F000ADFE0028F9D021783046FCF793FD641C02
:1051000020780028F0D10B98401C0B9003E00B98FE
:10511000401C0B9000BF0DE000BF40213046FCF763
:1051200095FE0028F9D00B980178401C0B90304672
:10513000FCF778FD0B980078002800D078E706B0DF
:1051400070BC08BC04B01847003801401C020020A5
:10515000050105001027000070B50024002505E0BA
:105160000020FEF762FF0419681CC5B2322DF7DB80
:105170003221204604F0BCFA044600BFFE488442B7
:1051800021D8FE480078002804D003280CD0042839
:1051900017D10AE06100FA4A505A05F0FBF90646B9
:1051A000F84905F0DDF870BD00BFF349091B49005F
:1051B000F34A505A05F0EEF90646F24905F0D0F8E8
:1051C000F1E7F148EFE7F048EDE7F0B58BB0FFF716
:1051D000C3FF0A900A9805F099F807910690EB48EA
:1051E000006805F093F805460022134604F0EAFC37
:1051F00005910490079B069A04F0F1FC0991089030
:1052000004F026FB0746384605F080F805460022E4
:10521000DF4B07F0D7FC04D2DE4C0120DE490870DA
:10522000D5E0384605F072F805460022DB4B07F062
:1052300097FC04D200240120D7490870C7E0D64863
:105240000078002804D00020D5490860D2490870B1
:105250003946D448006807F059FDD34908603946FB
:10526000CF48006807F0E2FCCD490860CF480168EC
:10527000CB48006807F020FD04D2CC48006805F058
:1052800045F825E0CA48006805F040F80022C94BFF
:105290000591049004F096FC09910890C0480068BC
:1052A00005F034F807910690099B089A07F08AFCEC
:1052B0000AD2BF48006805F029F80022BD4B0991C9
:1052C000089004F07FFC03E0B548006805F01EF884
:1052D000054604F0BDFAB249086008460168B648C0
:1052E000006807F013FDB5490860B548006805F08F
:1052F0000DF80546B34AB44B04F0E4FE079106905E
:10530000B24801680A9807F091FD054604F0FEFFD7
:1053100003910290AE48006804F0F8FF0546AD4ADC
:10532000AD4B04F0CFFE01910090039B029A04F074
:10533000C9FE05910490079B069A04F043FC09916D
:10534000089004F085FA9E4908609C4801689648D8
:10535000006807F06BFC054699480168284607F08D
:1053600065FD0446204604F0D1FF054600229B4B14
:1053700007F028FC11D2384604F0C8FF0546002289
:10538000134607F01FFC06D239468548006807F02F
:105390004DFD834908607F4C19E0204604F0B6FFBC
:1053A00005460022134607F0DBFB10D8384604F010
:1053B000ADFF05460022134607F0D2FB06D839465A
:1053C0007748006807F032FD7549086000247F497E
:1053D0000A980860204605F099F8C0B20BB0F0BDFD
:1053E000FF21091A0A0289187D4A5163704710B5D6
:1053F000FFF7EBFE0446FFF7F3FF10BD70B57F2605
:10540000F60501207749087001F0ECFC764909683F
:10541000401A142800D270BD01F0E4FC7249086003
:10542000FFF79AFE0646304604F070FF044600225D
:105430006E4B07F095FB03D2002001F085FB02E0E4
:10544000FF2001F081FB304604F060FF0446684A0B
:10545000684B07F085FB1CD3304604F057FF044629
:105460000022654B07F0AEFB13D3304604F04EFF2D
:1054700004460022614B07F0A5FB0AD36048008870
:105480006049884205DC01208003FEF721FC0028EA
:1054900039D00020FFF7A4FF4020FEF7F7FB30468D
:1054A00004F034FF0446524A524B07F059FB04D231
:1054B0000120C002FEF700FCA8E0304604F026FF01
:1054C000044600224C4B07F07DFB04D201208002F1
:1054D000FEF7F2FB9AE0304604F018FF0446002283
:1054E000464B07F06FFB04D201200003FEF7E4FBFC
:1054F0008CE0434800884349884203DD0120400393
:10550000FEF7DAFB82E02148006804F0FFFE044663
:10551000374A384B07F024FB16D80020FFF760FF0E
:105520004020FEF7BEFB0120C002FEF7CBFB0120AE
:105530008002FEF7C7FB01200003FEF7C3FB01203A
:105540004003FEF7BFFB61E02648007800285DD0ED
:10555000FFF74DFF4020FEF7A4FB0120C002FEF73D
:10556000B1FB01208002FEF7ADFB01200003FEF736
:10557000A9FB0120400347E0FF0F00001A020020B2
:105580004ACF0008000020419AF9794430020020F7
:105590000000244000007F4339020020000024C0A6
:1055A00068020020500200205C02002070020020EF
:1055B0006C0200200000F03F540200206002002036
:1055C00064020020666666666666EE3F740200202E
:1055D00058020020A09999999999A93F00E06F403D
:1055E000002C01403802002034020020000044401A
:1055F000FCA9F1D24D62503F00208C4000A06E40CB
:105600004802002047020000FEF75CFB00BF02E7F3
:1056100070B5064601205F49087000205E490860A9
:105620005E480660304604F071FE04465C4A5D4BFD
:1056300007F0C8FA02D2FF2001F07EFA00205A4992
:10564000086001F0CFFB5949086070BD70475849A8
:10565000091A584A5163704700B50020FFF7C0FE91
:1056600000BDFEB5002701F0BDFB50490968401A96
:105670005149884200D2FEBD01F0B4FB4F49096890
:10568000471A7D200001874273D901F0ABFB4B49DB
:1056900008604548006804F039FE0546484A494B11
:1056A00007F05EFA04D2FFF757FD3F490860E2E7D2
:1056B000FFF752FD044621463848006807F0B6FB64
:1056C00001903648006804F021FE05463C4A3D4BF7
:1056D00007F046FA1BD234480168204607F0A6FBC3
:1056E00005460121890707F069FB10D24020FEF72B
:1056F000DEFA00284AD14020FEF7C8FA0120400215
:10570000FEF7C4FA01208003FEF7D6FA3EE02348F4
:10571000006804F0FBFD0546294A2A4B07F052FABF
:1057200028D2019804F0F2FD05460022264B07F02E
:1057300049FA1FD21C480168204607F077FB009009
:1057400004F0E4FD05460022204B07F009FA11D2CF
:105750004020FEF7ACFA002818D14020FEF796FA58
:1057600001204002FEF792FA0120C003FEF7A4FADE
:105770000CE00DE001204002FEF793FA01208003C7
:10578000FEF7A0FA0120C003FEF79CFA0648046069
:1057900000BF70E7390200206402002030020020C0
:1057A0009A9999999999B93F4402002040020020A2
:1057B000FFFF0000002C0140204E00003C020020B2
:1057C0007B14AE47E17A843F000024400000F03FA4
:1057D000F0B58FB00646002400200E90012700256A
:1057E000A2E0032E04D0042E35D0052E32D165E080
:1057F0002820FEF766F904432920FEF762F900022B
:10580000204304B2FE48006804F080FD0791069032
:10581000204604F0B7FE019004F078FDF94AFA4BF7
:105820000391029004F04EFC05910490079B069AA8
:1058300004F0C8F90B910A900E9804F067FD0991E5
:1058400008900B9B0A9A04F0BDF90D910C9003F09F
:10585000FFFF0E9065E02A20FEF733F904432B206A
:10586000FEF72FF90002204304B2E848006804F074
:105870004DFD07910690204604F084FE019004F04F
:1058800045FDE04AE04B0391029004F01BFC0591BA
:105890000490079B069A04F095F90B910A900E98D4
:1058A00004F034FD099108900B9B0A9A04F08AF9E0
:1058B0000D910C9003F0CCFF0E9032E02C20FEF7FF
:1058C00000F904432D20FEF7FCF80002204304B247
:1058D000CF48006804F01AFD07910690204604F0B6
:1058E00051FE019004F012FDC64AC74B039102908D
:1058F00004F0E8FB05910490079B069A04F062F916
:105900000B910A900E9804F001FD099108900B9BF1
:105910000A9A04F057F90D910C9003F099FF0E903C
:1059200000BF00BF681C05B2BD4200DA59E7002580
:10593000A2E0002E04D0012E35D0022E32D165E037
:105940002220FEF7BEF804432320FEF7BAF8000237
:10595000204304B2AF48006804F0D8FC07910690D9
:10596000204604F00FFE019004F0D0FC0022AA4B68
:105970000391029004F0A6FB05910490079B069A00
:1059800004F020F90B910A900E9804F0BFFC0991E5
:1059900008900B9B0A9A04F015F90D910C9003F0F6
:1059A00057FF0E9065E02420FEF78BF80443252076
:1059B000FEF787F80002204304B29848006804F01C
:1059C000A5FC07910690204604F0DCFD019004F050
:1059D0009DFC0022904B0391029004F073FB059113
:1059E0000490079B069A04F0EDF80B910A900E982C
:1059F00004F08CFC099108900B9B0A9A04F0E2F8E1
:105A00000D910C9003F024FF0E9032E02620FEF75B
:105A100058F804432720FEF754F80002204304B24C
:105A20007F48006804F072FC07910690204604F05D
:105A3000A9FD019004F06AFC0022774B03910290CB
:105A400004F040FB05910490079B069A04F0BAF815
:105A50000B910A900E9804F059FC099108900B9B49
:105A60000A9A04F0AFF80D910C9003F0F1FE0E903D
:105A700000BF00BF681C05B2BD4200DA59E73846D6
:105A800004F088FD01460D900E9804F069FC0FB0FB
:105A9000F0BDFEB500270524FDF7D4FF0220FEF778
:105AA000F5F8E7E10F20FEF70CF80746692F00D064
:105AB000E0E160211020FEF776F861211120FEF769
:105AC00072F804211220FEF76EF80320FFF780FE23
:105AD0000420FFF77DFE0520FFF77AFE0020FFF788
