:020000040800F2
:10000000F8110020A50100087130000873300008C5
:1000100000000000000000000000000000000000E0
:100020000000000000000000000000007730000821
:100030000000000000000000793000087B3000085C
:10004000B7010008B7010008B7010008B7010008B0
:10005000B7010008B7010008C9320008E332000800
:10006000B7010008B7010008B7010008B701000890
:10007000B7010008B7010008B7010008B701000880
:10008000B7010008B132000800000000B701000805
:10009000B7010008B7010008B7010008B701000860
:1000A000B7010008B7010008B7010008A93200082D
:1000B000B701000800000000B701000800000000C0
:1000C00000F002F800F05EF80CA030C808382418E0
:1000D0002D18A246671EAB4654465D46AC4201D180
:1000E00000F050F87E460F3E0FCCB6460126334254
:1000F00000D0FB1AA246AB463343184794E80000F1
:10010000B4E800000023002400250026103A01D3A3
:1001100078C1FBD8520700D330C100D50B607047BF
:1001200010B5662902D10CF009FA10BD642902D17C
:1001300008F022FC10BD752902D108F01DFC10BD8D
:10014000782902D108F04EFC10BD732902D10AF0C3
:1001500065F810BD002010BD1FB50098019909F089
:1001600066FD0AF055FA0400002000210BF0BAFFEA
:10017000401C6060002000210BF0CAFFE0601FBD42
:1001800010B510BD0AF09AFE1146FFF7E5FF03F027
:100190000FF90BF029F903B4FFF7F2FF03BC02F0EB
:1001A00062FE00000748804707480047FEE7FEE779
:1001B000FEE7FEE7FEE7FEE704480549054A064B71
:1001C000704700007F310008C1000008F80B0020D4
:1001D000F8110020F80D0020F80D002010B504469D
:1001E0000920C006844209D10121480400F033FCF3
:1001F00000210120400400F02EFC30E06E488442D3
:1002000008D10121000200F026FC0021200200F0AC
:1002100022FC24E06948844208D10121000200F058
:100220001AFC0021200200F016FC18E06448844209
:1002300009D10121080500F00EFC00210120000574
:1002400000F009FC0BE05F48844208D101218805D9
:1002500000F001FC00210120800500F0FCFB10BD36
:10026000F0B50A4600210023002400BF3DE001252F
:100270008D402B4615681D402C469C4234D1157983
:10028000012D02D01579022D16D185684F00032665
:10029000BE40B543856055794E00B540866835430C
:1002A0008560858801268E40B5438580858896794E
:1002B0008E40B6B23543858005684F000326BE40A8
:1002C000B543056015794E00B540066835430560B5
:1002D000C5684F000326BE40B543C560D5794E00C2
:1002E000B540C6683543C560491C1029BFD3F0BD71
:1002F00035490160002101710221417100218171A4
:10030000C171704708B5012212040092009A0A4395
:100310000092009AC261C161009AC261C2690092F2
:10032000C269009208BD02460020138A0B40002BD0
:1003300001D0012000E0002070470146088A704784
:1003400002460020938A0B40002B01D0012000E0E0
:10035000002070470146888A704781617047018597
:100360007047002A01D0816100E0018570478182D9
:100370007047F0B5002300244D07EE0E1546B5403A
:100380002B46CD10AE0005462035AD594E07F70E71
:100390000F26BE40B543CE10B60007462037BD51EC
:1003A000CD10AE003D46AD591D432C46CD10AD00DD
:1003B0003E467451F0BD00000004004800080048AB
:1003C000000C004800140048FFFF000010B5012198
:1003D000080700F05CFB00210120000700F057FB3C
:1003E00010BD002807D046490968FF220132114399
:1003F000434A116006E042490968FF2201329143F5
:100400003F4A11607047014600203D4A1068E023D2
:1004100002469A43104602460A431046384A106084
:100420007047002806D03649096810221143344A23
:10043000116005E03249096810229143304A116089
:100440007047002905D02E4A526802432C4B5A604F
:1004500004E02B4A52688243294B5A60704729496D
:10046000096904229143274A1161012801D130BF53
:1004700000E020BF704710B502460020204B1868EE
:10048000800880000346134318461D4B18601D4B1F
:100490001B69042423431B4C2361012901D130BF74
:1004A00000E020BF174B1B690424A343154C2361B4
:1004B00010BD13480068042108431149086008462C
:1004C0000068022108430E4908600E4800690421B3
:1004D00008430C49086130BF704701460020084AB4
:1004E00052680A40002A01D0012000E00020704735
:1004F0000349096882001143014A116070470000F6
:100500000070004000ED00E0FD4800680121084354
:10051000FB49086008464068FA490840F8494860C5
:1005200008460068F8490840F54908600846006830
:10053000012189048843F2490860084640683F2148
:1005400009048843EE4948600846C06A0009000172
:10055000C8620846006BFF2154318843E8490863AC
:100560000846406B400840004863002088607047A0
:100570000021E34A917011468870704710B5024619
:100580000021002300205111002902D1DC4C2368F6
:100590000BE0012902D1DA4C236A06E0022902D1DC
:1005A000D74C636A01E0D64C636BD106C90E0124B7
:1005B0008C401C40002C01D0012000E0002010BD28
:1005C00038B5002000900024002500BF1120FFF75F
:1005D000D5FF05460098401C0090052109020098AF
:1005E000884201D0002DF1D01120FFF7C7FF00286D
:1005F00001D0012400E00024204638BD014600203F
:10060000BF4A1068F82302469A431046CA001043B6
:10061000BB4A10607047002806D0B949096801221A
:100620001143B74A116005E0B54909684908490016
:10063000B34A1160704701460020B14A506BF8235D
:1006400002469A431046CA001043AD4A50637047B1
:10065000002806D0AA49496B01221143A84A5163D8
:1006600005E0A749496B49084900A54A516370470D
:10067000002806D0A249496B04229143A04A516345
:1006800005E09F49496B042211439D4A516370471D
:100690009B49096A49084900994A11621146096A49
:1006A00004229143964A11621146096A014311627C
:1006B00070479349096A18229143914A1162114681
:1006C000096A014311627047002806D08C49496AC3
:1006D000012211438A4A516205E08949496A490861
:1006E0004900874A51627047854A52683D231B047E
:1006F0009A43834B5A601A46526803460B431A4387
:100700007F4B5A607047002807D07D490968012255
:10071000120611437A4A116006E0794909680122FC
:1007200012069143764A1160704701460020744AD0
:10073000D06A0009000102460A431046704AD0629E
:100740007047002807D06E4909680122D20411437E
:100750006B4A116006E06A4909680122D20491439C
:10076000674A116070476649C871704701460020AA
:10077000634A50688008800002460A431046604A77
:10078000506070475E4840680C2108407047014641
:1007900000205B4A5068F02302469A431046024606
:1007A0000A431046564A5060704701460020544A9A
:1007B000506807231B0202469A43104602460A432A
:1007C00010464F4A506070474D49496801229203D4
:1007D00091434B4A51601146496882B21143484ADD
:1007E00051601146096B92159143454A11631146B8
:1007F000096B020C1143424A116370474049096B6F
:10080000402291433E4A11631146096B0143116333
:1008100070473B49096B10229143394A11631146D5
:10082000096B0143116370473549096B89088900D9
:10083000334A11631146096B014311637047FEB5DA
:1008400004460025002600200190009000272C4837
:1008500040680C2108400546002D04D0042D05D029
:10086000082D28D105E02948206027E0274820608E
:1008700024E0234840680F218904084006462048A8
:1008800040680121090408400190B00C861C0198C1
:10089000002803D11E48704320600BE01848C06A4E
:1008A0000007000F401C00901848009908F040FA1B
:1008B0007043206002E01548206000BF00BF104870
:1008C0004068F021084005462D091248475D206820
:1008D000F84060600A484068072109020840054660
:1008E0002D0A0C48475D6068F840A0600448006B22
:1008F000FF2101310840884210D00748E0601BE02A
:10090000001002400CB8FFF8FFFFF6FE00127A005C
:1009100000093D0000000020809FD5007548406818
:10092000012189030840884203D0A0684008E060A4
:1009300002E0A0688008E0606E48006B402108403B
:10094000402802D06C48206102E00120C0032061F1
:100950006848006B10210840102802D06748606189
:1009600001E0206860616348006B8007800F002809
:1009700002D1A068A06119E05E48006B8007800F7B
:10098000012802D12068A06110E05A48006B80075E
:10099000800F022802D18003A06107E05548006B58
:1009A0008007800F032801D15448A061FEBD514942
:1009B000096A01434F4A11627047002807D04D4928
:1009C000096A0122D20311434A4A116206E04949E9
:1009D000096A0122D2039143464A116270470028F6
:1009E00007D04449096A012212041143414A1162A5
:1009F00006E04049096A0122120491433D4A11620E
:100A00007047002905D03B4A52690243394B5A616D
:100A100004E0384A52698243364B5A6170470029D4
:100A200005D0344A92690243324B9A6104E0314A5C
:100A3000926982432F4B9A617047002905D02D4A55
:100A4000D26902432B4BDA6104E02A4AD26982431D
:100A5000284BDA617047002905D0264A926A024382
:100A6000244B9A6204E0234A926A8243214B9A62A1
:100A70007047002905D01F4AD26802431D4BDA6037
:100A800004E01C4AD26882431A4BDA60704700299E
:100A900005D0184A12690243164B1A6104E0154A40
:100AA00012698243134B1A617047002905D0114A1D
:100AB000527A02430F4B5A7204E00E4A527A824332
:100AC0000C4B5A7270470B48406A012109060843D3
:100AD00008494862704701460020064A92680A4069
:100AE000002A01D0012000E00020704701498872EF
:100AF00070470000001002401280000000127A00CF
:100B000010B50446FE48844208D10121C014FFF705
:100B1000B0FF0021E014FFF7ACFF56E00120800792
:100B2000844208D101210846FFF7B1FF00210120CE
:100B3000FFF7ADFF49E0F348844208D101210220CC
:100B4000FFF7A5FF00210220FFF7A1FF3DE0EE48DF
:100B5000844208D101211020FFF799FF00211020C5
:100B6000FFF795FF31E0E948844208D10121801563
:100B7000FFF78DFF0021A015FFF789FF25E0E4486E
:100B8000844209D101210804FFF773FF00210120ED
:100B90000004FFF76EFF18E0DE48844209D101210E
:100BA0004804FFF766FF002101204004FFF761FFC2
:100BB0000BE0D948844208D101218804FFF759FF8E
:100BC000002101208004FFF754FF10BD002202889D
:100BD000CB4B984206D001239B07984202D0C94BC9
:100BE000984203D1CD4B1A404B881A43C64B9842CA
:100BF00003D0CB4B1A400B891A4302804B68C36267
:100C00000B880385BE4B984208D0C14B984205D053
:100C1000C04B984202D0C04B984201D18B7A0386D8
:100C20000123838270470021C94341600021018074
:100C300001814180817270470185828270470A4636
:100C400000210188B54B19400B461343194601801A
:100C5000704741627047C16270470146486A7047F9
:100C60000146088D7047002904D0028802231A43E8
:100C7000028004E00288A94B6E331A40028070475C
:100C8000002904D0028804231A43028004E0028869
:100C9000A24B6C331A4002807047002904D00288AE
:100CA00080231A43028004E002889C4B103B1A40C8
:100CB000028070470288994B68331A40028002888C
:100CC0000A43028070470288954B1A4002800288CE
:100CD0000A4302807047002904D0028801231A4386
:100CE000028004E002888D4B6F331A400280704707
:100CF0000A884B881A438B881A43CB881A430B897E
:100D00001A434B891A438B891A4344231A5270475A
:100D10000021018041808180C180018141818181E8
:100D20007047002907D04422125A0123DB031A43DB
:100D300044231A5205E04422125A53045B0C442205
:100D40001352704770B5002400220023058C734EA7
:100D50006F3635400584028C8388048B6F4D2C40A0
:100D6000B51E2C400D882C43751E2A408D892A43C0
:100D70004D882A43624DA84208D0654DA84205D04F
:100D8000644DA84202D0644DA84212D1634D68352B
:100D90002A40CD892A43614D6C352A408D882A43EB
:100DA0005E4D903D2B405F4D2B400D8A2B434D8A6D
:100DB0002B43838004838D684563028470BD70B5C6
:100DC000002400220023058C544E603635400584F3
:100DD000028C8388048B544D2C40514D2C400D784F
:100DE0002D062D0C2C434D4D50352A408D892D0557
:100DF0002D0C2A434D882D052D0C2A43404DA84229
:100E000019D1464D103D2A40CD892D052D0C2A4380
:100E1000424D30352A408D882D052D0C2A43434DF7
:100E20002B40434D2B400D8AAD042D0C2B434D8A96
:100E3000AD042D0C2B43838004838D68856302846D
:100E400070BD70B5002400220023058C334E903E07
:100E500035400584028C8388848B304D2C402F4D87
:100E60006D352C400D882C432E4D2A400D7B2D06D0
:100E70002D0C2A438D782D062D0C2A43204DA84297
:100E800017D12B4D2A408D7B2D062D0C2A43274D43
:100E90002A400D792D062D0C2A43264D2B40264D38
:100EA0002B400D8A2D052D0C2B434D8A2D052D0C25
:100EB0002B43838084838D68C563028470BD70B5C5
:100EC000002200230024058C1A4E35400584038C33
:100ED0008488828B144D2A40114D2A400D782D06AE
:100EE0002D0C2A43144D2B400D7B2D072D0C2B432D
:100EF0008D782D072D0C2B43014DA84224D11DE0E8
:100F0000002C014000040040001000400020004080
:100F10000040014000440140004801408FFF0000B4
:100F2000FFFC0000FFFD0000FF8F0000FFFB000042
:100F3000FFF70000FFEF0000FFDF0000FC4D2C403A
:100F40000D8AAD052D0C2C43848082838D68056449
:100F5000038470BD00210180418081808160818196
:100F6000C18101824182704770B503460020002490
:100F70001846183001258D40ACB21D8CA5431D8448
:100F8000002901D0082909D14D10281805687026BC
:100F9000B54305600568154305600DE00D1F2D0480
:100FA0006D0C2818056807263603B54305600568EB
:100FB0001606360C3543056070BD4163704781638A
:100FC0007047C1637047016470470A460021018B76
:100FD000D84B19400B4613431946018370470A4604
:100FE0000021018BD44B194013061B0C19430183BC
:100FF00070470A460021818BCE4B19400B461343A4
:101000001946818370470A460021818BCA4B1940DB
:1010100013061B0C194381837047002904D0828872
:1010200001231A43828004E08288C24B6F331A4046
:10103000828070470A460021018BBE4B68331940FD
:101040000B4613431946018370470A460021018B62
:10105000BA4B194013061B0C1943018370470A460B
:101060000021818BB34B683319400B46134319465B
:10107000818370470A460021818BB04B19401306CB
:101080001B0C1943818370470A460021018BA94B31
:101090006C3319400B4613431946018370470A46C7
:1010A0000021018BA64B194013061B0C1943018329
:1010B00070470A460021818B9E4B6C3319400B46CA
:1010C00013431946818370470A460021818B9C4B4C
:1010D000194013061B0C1943818370470A460021EF
:1010E000018B944B103B19400B4613431946018367
:1010F00070470A460021018B4904490C13061B0C5A
:101100001943018370470A460021818B894B103BAC
:1011100019400B4613431946818370470A46002144
:10112000818B4904490C13061B0C194381837047BA
:101130000A460021018C7F4B6E3319400B46134346
:101140001946018470470A460021018C794B6833A7
:1011500019400B4613431946018470470A46002183
:10116000018C744B5033194013051B0C1943018437
:1011700070470A460021018C6E4B103B1940130545
:101180001B0C1943018470470A460021018C6D4BEA
:10119000194013061B0C1943018470470A460021AD
:1011A000018C664B194013061B0C194301847047D0
:1011B0000A460021018C644B194013071B0C19438C
:1011C0000184704702895B4B68331A4002810289AF
:1011D0000A430281704730B5002301248C40A3B23A
:1011E000048C9C430484048C15468D40ADB22C4382
:1011F000048430BD30B5002304248C40A3B2048C99
:101200009C430484048C15468D40ADB22C43048469
:1012100030BD002904D0828804231A43828004E070
:101220008288444B6C331A4082807047828B474BD4
:101230001A408283828B0B061B0C1A4382837047F1
:10124000F8B50C460021002500260096068C404F7C
:101250003E400684818B058C2607360C00963D4E59
:1012600031401606360C31431E07360C31433A4ED8
:10127000354001273F03009E3E433543818305846B
:10128000F8BD828B2B4B64331A408283828B0A43D6
:1012900082837047F8B50C46002100250026009691
:1012A000068C244F903F3E400684818B058C260699
:1012B000360C00961F4E833E31401E05360C1643F9
:1012C0003143264E3540FF270137009E3E433543CC
:1012D00081830584F8BD028B1C4B1A400283028B6C
:1012E0000B061B0C1A4302837047F8B50C4600210D
:1012F000002500260096068C0E4F60373E4006847F
:10130000018B058C2605360C0096124E31401E07C7
:10131000360C31431606360C3143064E303E35400E
:101320001027009E3E43354301830584F8BD00002D
:10133000FFBF00008FFF0000FF8F0000FFF70000DD
:10134000FFFB0000FFFD0000FFDF0000FFF30000D7
:10135000FFEF0000FF0C0000FF5F0000FFF5000042
:10136000028BD84B1A400283028B0A4302837047D8
:10137000F0B50C4600210025068CD24F0B373E40BD
:101380000684018B058CCF4EE73E31401E05360C9E
:1013900016433143CB4EB61C354001262643354318
:1013A00001830584F0BD70B505460C4620880028F1
:1013B0000AD12389A28861882846FFF7D9FFE188EE
:1013C0002846FFF7CDFF25E0208804280AD123898D
:1013D000A28861882846FFF788FFE1882846FFF742
:1013E0007AFF17E0208808280AD12389A28861881B
:1013F0002846FFF74FFFE1882846FFF742FF09E044
:101400002389A28861882846FFF71AFFE1882846C9
:10141000FFF70CFF70BD0021018041800121818018
:101420000021C18001817047F8B505460C460026B1
:1014300001276088002801D1022600E00026A0884C
:10144000012801D1022700E001272088002814D1BB
:101450002389A28861882846FFF78AFFE188284609
:10146000FFF77EFF23893A4631462846FFF73DFFC6
:10147000E1882846FFF72FFF13E02389A2886188BF
:101480002846FFF732FFE1882846FFF724FF23892B
:101490003A4631462846FFF76BFFE1882846FFF7BA
:1014A0005FFFF8BD0146486B70470146886B704787
:1014B0000146C86B70470146086C7047002A03D08C
:1014C00083890B43838102E083898B438381704747
:1014D0008182704702460020138A0B40002B01D006
:1014E000012000E000207047CA430282704730B5F7
:1014F0000246002000230024158A0D402B469589C2
:101500000D402C46002B03D0002C01D0012000E020
:10151000002030BDCA430282704710B50B4613430A
:101520004824235210BD002A03D083890B438381B2
:1015300002E083898B4383817047002904D082882D
:1015400008231A43828004E082885E4B1B1D1A40E8
:101550008280704701895B4A521D114001817047AA
:101560000A4600210189574B643B19400B4613433F
:1015700019460181704730B504460D46294620467C
:10158000FFF7EEFF208907210843208130BDF8B521
:1015900004460D4616461F46602D06D13B460122E5
:1015A00031462046FFF7A1FE05E03B4601223146C9
:1015B0002046FFF7DDFE29462046FFF7D1FF2089B0
:1015C000072108432081F8BD30B50C460021018970
:1015D000C9B21D062D0C154325432943018130BD99
:1015E000FFB505460E46174600243A4631462846C2
:1015F000039BFFF7E9FF2C893248401D0440072078
:101600000443304864380440702004432C81FFBDFB
:10161000F0B504460D4616461F463B46324629465F
:101620002046FFF7D1FF208901218903084320814B
:10163000F0BD8288234B643B1A40828082880A4333
:101640008280704702891F4B5B1D1A40028102890C
:101650000A430281704702891A4B743B1A40028187
:1016600002890A4302817047F0B50C46002100252B
:1016700000260189058B068C124F7F1D39400F46CD
:1016800027433946104F3D40FF2702373D430D4F5A
:101690009E3F3E401F053F0C17433E43018105839B
:1016A0000684F0BD002904D0828880231A438280FA
:1016B00004E08288034B743B1A40828070475022BA
:1016C00011527047F3FF0000FCFC00003E483F4908
:1016D0000860002048608860C8603D4848617047E5
:1016E00000213A498279002A35D00A4612680368F7
:1016F0009A430B461A600A46526803689A430B469F
:101700005A60027951180A6803681A430A602F4A1E
:10171000926803689A432D4B9A601A46D268036810
:101720009A432A4BDA604279102A0CD11A46926801
:1017300003681A43254B9A601A46D26803681A4315
:10174000224BDA600DE02149427951180A6803689A
:101750001A430A6005E0027951180A6803689A433F
:101760000A6070470021016001710C214171002164
:1017700081717047154909690143144A1161704725
:1017800001460020114A52690A40002A01D0012076
:1017900000E0002070470D49486170470146002075
:1017A00000220A4B1B680B401A46084B5B690B4032
:1017B000002B03D0002A01D0012000E00020704758
:1017C00002494861704700000000940F0004014086
:1017D000FFFF6B0000218278002A27D0274A0323CD
:1017E0001B02D21803789B109B00D15802789207F5
:1017F000D30EFF229A400B46934319464278920734
:10180000120E03789B07DB0E9A4011431B4A0323F9
:101810001B02D21803789B109B00D1500278D3068C
:10182000DB0E01229A40154B1A6007E00278D306BE
:10183000DB0E01229A40114B80331A607047002959
:1018400005D00F4A126902430D4B1A6104E00C4A9D
:10185000126982430A4B1A617047042806D109496C
:10186000096904221143074A116105E00549096924
:1018700004229143034A11617047000000E100E037
:1018800000ED00E000E000E03A4800688007800FCB
:10189000384908600020886000213648C160016135
:1018A00041618069FF2101310843324988617047F5
:1018B000014600202F4A10688008800002460A4333
:1018C00010462C4A10607047002905D0294A12683A
:1018D0000243284B1A6004E0264A12688243254BD3
:1018E0001A607047002905D0224A12680243214B32
:1018F0001A6004E01F4A126882431E4B1A60704748
:1019000030B500228B071C0F0F23A3401A46194B3A
:1019100008338C10A4001B599343164C08348D10C7
:10192000AD00635123468C10A4001B598C07250F72
:101930000446AC4023430F4C08348D10AD00635176
:1019400030BD0C49896901430A4A916170470146DB
:101950000020084A9269FF2301331A40002A01D06F
:10196000012000E000207047024989690143014AD3
:10197000916170470000014010B50446F64884426A
:1019800009D101218803FFF774F8002101208003A9
:10199000FFF76FF80BE0F148844208D101214804B9
:1019A000FFF775F8002101204004FFF770F810BD23
:1019B000F0B589B004460D460027002008900026A7
:1019C0002068400840002060666803210903304613
:1019D00088430646A868064366602668E0480640D5
:1019E000E968686808432969084306432660A668D1
:1019F0000321090230468843064668690643A6600B
:101A000001A8FEF71CFFD448844202D10798089031
:101A100001E00398089020680121C90308400028CC
:101A20000CD02968089A500007F082F90746296807
:101A3000089A500007F07CF90E4609E029680898DA
:101A400007F076F907462968089807F071F90E46FD
:101A500028684008B04200D87F1C20680121C903D3
:101A60000840002806D03807460F3846BD490840D0
:101A700030430746A78109B0F0BD4B21C901016081
:101A8000002141608160C1600C2101610021416140
:101A9000704710B5002242680F2424021346A34366
:101AA0001A464C680B6823438C682343CC68234355
:101AB0001A43426010BD0021016041608160C16035
:101AC0007047002904D0026801231A43026003E032
:101AD00002685208520002607047002A03D003686F
:101AE0000B43036002E003688B43036070470029E7
:101AF00005D002680123DB031A43026004E0026898
:101B00000123DB039A4302607047002905D08268F5
:101B10000123DB021A43826004E082680123DB02B6
:101B20009A4382607047002905D042680123DB0494
:101B30001A43426004E042680123DB049A43426096
:101B40007047002905D0426801239B041A43426074
:101B500004E0426801239B049A4342607047002AD4
:101B600003D043680B43436002E043688B43436008
:101B70007047002905D042680123DB031A43426005
:101B800004E042680123DB039A4342607047002966
:101B900005D042680123DB051A43426004E0426835
:101BA0000123DB059A43426070474269120E120618
:101BB000426142690A4342617047028AFF231B0265
:101BC0001A400282028A0A4302827047002904D026
:101BD000026802231A43026003E0026802239A4368
:101BE00002607047826803231B059A438260826803
:101BF0000A4382607047002905D0426801231B0513
:101C00001A43426004E0426801231B059A43426084
:101C10007047426803235B059A43426042680A4367
:101C200042607047CA05D20D028570470146888C14
:101C3000C005C00D704742681202120A4260426835
:101C40000B061A4342607047002905D00268012341
:101C50005B031A43026004E0026801235B039A43BA
:101C60000260704702680123DB029A430260026847
:101C70000A4302607047426810239A4342604268F8
:101C80000A4342607047426820239A434260426898
:101C90000A4342607047002905D0426801239B0334
:101CA0001A43426004E0426801239B039A43426066
:101CB0007047002904D0826808231A43826003E039
:101CC000826808239A4382607047028AD2B20282F5
:101CD000028A0B021A4302827047002904D08268EC
:101CE00020231A43826003E0826820239A438260A3
:101CF0007047002904D0826810231A43826003E0F1
:101D0000826810239A4382607047826807235B04CD
:101D10009A43826082684B041A438260704742692A
:101D20001202120A426142690B061A43426170476D
:101D3000826804239A43826082680A438260704703
:101D4000002904D0826802231A43826003E082687B
:101D500002239A43826070470038014000440040EB
:101D6000F3E9FFFFF0FF0000002905D0826801239E
:101D70009B031A43826004E0826801239B039A4319
:101D80008260704782680123DB039A438260826825
:101D90000A438260704702681F235B059A43026012
:101DA00002684B051A430260704702681F231B0438
:101DB0009A43026002680B041A4302607047002ACB
:101DC00003D083680B43836002E083688B438360A6
:101DD0007047826801235B039A43826082680A43EA
:101DE00082607047F8B5034600240026009600255F
:101DF000002018460E04340ECEB200960127009E35
:101E0000B7403D46022C01D1001D02E0032C00D159
:101E10000830002A03D006682E43066002E00668F8
:101E2000AE430660F8BD002A03D0038B0B43038347
:101E300002E0038B8B4303837047826801231B03FB
:101E40009A43826082680A4382607047024600209B
:101E5000D3690B40002B01D0012000E00020704727
:101E60000162704770B502460B4600240021002530
:101E700000201E04350ED9B201268E403146012DB8
:101E800002D11668314006E0022D02D15668314079
:101E900001E0966831401C0C0126A6403446D66904
:101EA0003440002903D0002C01D0012000E00020A4
:101EB00070BD10B5002300220B0C01249C4022466B
:101EC000026210BD10B50446B548844207D1012115
:101ED0004015FEF7CEFD00216015FEF7CAFD10BDCE
:101EE00010B50022C268AF4B1A400C7964030B682E
:101EF00023438C682343CC6823430C6923434C69F8
:101F000023431A43C26010BD00210160017181604A
:101F1000C160016141617047002904D082680123DA
:101F20001A43826003E0826802231A43826070478A
:101F3000002A03D003690B43036102E003698B436A
:101F400003617047002905D0C2680123DB031A43EF
:101F5000C26004E0C2680123DB039A43C260704799
:101F6000002905D0C26801239B031A43C26004E024
:101F7000C26801239B039A43C2607047002905D0C1
:101F8000C2680123DB051A43C26004E0C268012372
:101F9000DB059A43C26070470B041343036270472A
:101FA00010B50A460021C1681F24A4060B46A343AE
:101FB00019460B4613431946C16010BD002905D0D0
:101FC000C26801239B051A43C26004E0C268012372
:101FD0009B059A43C2607047002807D07249896800
:101FE0000122D2051143704A916006E06E4989686A
:101FF0000122D20591436C4A91607047002807D0B6
:1020000069498968012292051143674A916006E097
:1020100065498968012292059143634A916070473E
:10202000002807D0604989680122120611435E4AE0
:10203000916006E05C4989680122120691435A4A80
:102040009160704710B50B460021846A1C4384627E
:1020500000BF0C4614432146416110BD002905D044
:10206000C26801235B031A43C26004E0C268012313
:102070005B039A43C2607047002905D0C268012300
:102080001B041A43C26004E0C26801231B049A4384
:10209000C2607047002905D0C26801231B031A43A0
:1020A000C26004E0C26801231B039A43C260704708
:1020B00030B501460020002200238C680125ED0781
:1020C0002C438C6000BF8C68E30FDB07521C0F248D
:1020D0002403A24201D0002BF5D18C68E40FE40761
:1020E000002C01D1086C00E0002030BD8168102276
:1020F00011438160704781680422114381607047F9
:102100000146086C80B27047002904D0C2680123E0
:102110001A43C26003E0C26852085200C2607047AE
:10212000C26802239A43C260C2680A43C260704711
:10213000002A03D043680B43436002E043688B43AB
:102140004360704730B50246002000230124240676
:102150000C40002C05D0946801252D06AC43234685
:1021600000E013681C460C40002C01D0012000E068
:10217000002030BD0160704710B5024600200023EA
:1021800054680C40234614680C40002C03D0002BEC
:1021900001D0012000E0002010BD01607047000068
:1021A0000024014003D2FFFF002701400146002028
:1021B000FE4A10684008400002460A431046FB4AA7
:1021C00010607047002806D0F849096810221143B2
:1021D000F64A116005E0F549096810229143F34A77
:1021E000116070470020F149096820221140002940
:1021F00001D0012000E000207047EC4800698021F8
:102200000840002804D0EA48E8494860E9484860A6
:102210007047E648006980210843E4490861704737
:102220000420E249C968C907C90F002901D001206B
:1022300010E0DE49C96810221140002901D00220B7
:1022400008E0DA49C96804221140002901D00320BE
:1022500000E00420704710B503460424FFF7E0FFB8
:10226000044603E0FFF7DCFF04465B1E012C01D1AE
:10227000002BF7D1002B00D10524204610BD30B52E
:10228000044604250B200004FFF7E5FF0546042D56
:1022900017D1C648006902210843C44908610846AD
:1022A0004461006940210843C04908610B200004D3
:1022B000FFF7D1FF0546BD48006902218843BB49AD
:1022C0000861284630BD10B504240B200004FFF738
:1022D000C2FF0446042C16D1B44800690421084307
:1022E000B24908610846006940210843AF490861C6
:1022F0000B200004FFF7AFFF0446AC48006904213F
:102300008843AA490861204610BD78B506460C46A8
:102310000425002000900B200004FFF79CFF0546D9
:10232000042D24D1A1480069012108439F49086177
:1023300034800B200004FFF78EFF0546042D10D1DA
:10234000B01C0090200C009908800B200004FFF7BF
:1023500082FF05469548006940084000934908619E
:1023600005E092480069400840009049086128460D
:1023700078BD70B504460D4604260B200004FFF717
:102380006AFF0646042E11D18848006901210843DE
:102390008649086125800B200004FFF75CFF064694
:1023A000824800694008400080490861304670BD9D
:1023B0007E480069012149020840002804D17C4878
:1023C0007A4988607B4888607047784800690121B5
:1023D00049028843754908617047744800690121C2
:1023E0004903084371490861704700206F49C96972
:1023F00006221140002901D0012000E00020704792
:1024000030B5AA250424FFF7F0FF002800D00025EE
:102410000B200004FFF71FFF0446042C36D163484D
:10242000006920210843614908610846006940218C
:1024300008435E4908610B200004FFF70CFF0446C7
:10244000042C1BD159480069202188435749086151
:102450000846006910210843544908615648058020
:102460000B200004FFF7F7FE0446052C0ED04F4862
:102470000069102188434D49086107E0052C05D00B
:102480004A4800691021884348490861204630BD08
:10249000F0B50446494E37460425E443E6B2FF2032
:1024A00000022040070A0B200004FFF7D4FE054677
:1024B000042D21D13D480069102108433B490861A2
:1024C000FF2E06D03C4806810B200004FFF7C3FE18
:1024D0000546042D08D1FF2F06D0374847810B2031
:1024E0000004FFF7B8FE0546052D05D02F4800690A
:1024F000102188432D4908612846F0BD30B50546B6
:1025000004240B200004FFF7A6FE0446042C36D159
:1025100026480069202108432449086108460069CB
:1025200040210843214908610B200004FFF793FE76
:102530000446042C1BD11D480069202188431B49F7
:1025400008610846006910210843184908611A48C3
:1025500005800B200004FFF77EFE0446052C0ED0FC
:1025600012480069102188431049086107E0052CD2
:1025700005D00E480069202188430C490861204697
:1025800030BDF0B505460E46174604240B20000466
:10259000FFF761FE0446042C24D104480069102191
:1025A0000843024908612846304309E00020024000
:1025B00023016745AB89EFCD00F8FF1FFFFF000047
:1025C000F82139430843714948800B200004FFF784
:1025D00042FE0446052C05D06D4800691021884351
:1025E0006B4908612046F0BD30B5054604240B2038
:1025F0000004FFF730FE0446042C16D1644800693D
:102600001021084362490861EF2028435F49488050
:102610000B200004FFF71FFE0446052C05D05C4884
:102620000069102188435A490861204630BD30B501
:10263000054604240B200004FFF70DFE0446042C7D
:1026400016D1534800691021084351490861DF2021
:1026500028434E4948800B200004FFF7FCFD044648
:10266000052C05D04A480069102188434849086173
:10267000204630BD30B5054604240B200004FFF78A
:10268000EAFD0446042C16D1414800691021084394
:102690003F490861BF2028433C4948800B20000483
:1026A000FFF7D9FD0446052C05D0394800691021F3
:1026B000884337490861204630BD30B505460424BB
:1026C0000B200004FFF7C7FD0446042C16D1304848
:1026D0000069102108432E490861882028432B49AE
:1026E00048800B200004FFF7B6FD0446052C05D0FA
:1026F000274800691021884325490861204630BDDC
:1027000070B505460E4604240B200004FFF7A3FD18
:102710000446042C13D11E480069102108431C49AB
:1027200008612E800B200004FFF795FD0446052C60
:1027300005D01748006910218843154908612046D3
:1027400070BD1348C0690004000E70471048006A4D
:102750007047002905D00E4A126902430C4B1A61DA
:1027600004E00B4A12698243094B1A617047014623
:102770000020074AD2680A40002A01D0012000E068
:10278000002070470249C8607047000000F8FF1F32
:10279000002002400F49086070470E4948607047AA
:1027A0000C49886070470C480A490860704709491D
:1027B00008617047094807490860704701460020D2
:1027C000044AD2680A40002A01D0012000E000201B
:1027D0007047000000300040AAAA0000CCCC0000E6
:1027E000FEB504460D460C206043F8494018067AB1
:1027F00000200290019000270090002E34D10C2080
:102800006043401840680921C906884204D101216B
:102810004804FEF7F6F827E00C206043EB49401827
:102820004068EB49884204D101210002FEF7E9F833
:102830001AE00C206043E54940184068E5498842A9
:1028400004D101210002FEF7DCF80DE00C2060430A
:10285000DE4940184068E049884204D101218805DA
:10286000FEF7CFF800E0FEBD0C206043D749085AC0
:10287000DA49086003204871E807C00F00282BD010
:10288000002008712B0009F0CCF80C2507250E2537
:102890001225082516251D2500BF0020CF49C87127
:1028A0000120029017E00220CC49087113E00320B8
:1028B000CA4908710FE00120C849C871002E00D133
:1028C000029008E00220C549C871002E01D1012004
:1028D000029000E000BF24E00120C0490871002000
:1028E000C871A81E030009F09CF809061A0B1A12F9
:1028F0001A071A161A0000BF0120B84988710FE0A4
:102900000220B649087100208871012708E00320E1
:10291000B249087104E00020B049887100E000BFAE
:1029200000BF0C216143A94A89184868AB49FDF7EB
:1029300097FC0C206043A54A801805720098002877
:1029400031D00A2C1FD00E2C0FD00F2C29D10021F2
:10295000A348FEF7C0F90021A148FEF7E2F90021E3
:1029600001204004FEF75BF81CE000219D48FEF7C3
:10297000B2F900219B48FEF7D4F900210120800420
:10298000FEF74DF80EE000219748FEF7A4F900216C
:102990009548FEF7C6F900210120C002FEF73FF876
:1029A00000E000BF00BF002F78D000208F490880D2
:1029B00048807D21C9008E48006806F0B9F9401EA4
:1029C0008A4948607D21C9008948006806F0B0F94D
:1029D000401E81B20C2060437C4A80184181002057
:1029E00082490881887283498860602008800120BC
:1029F000488004208880022088810020C881FF2030
:102A000001300882002048820A2C48D00E2C23D0A6
:102A10000F2C66D101214804FEF701F8022208219B
:102A20006B48FDF7A6FC71496D48FEF7CFF8714978
:102A30006B48FEF787F908216948FEF7FBFA002189
:102A40006748FEF737F901216548FEF744F901218F
:102A50006348FEF766F945E001218804FDF7DFFFD2
:102A6000022209215A48FDF784FC60495D48FEF7BF
:102A7000ADF860495B48FEF765F908215948FEF753
:102A8000D9FA00215748FEF715F901215548FEF7FC
:102A900022F901215348FEF744F923E023E0012104
:102AA000C802FDF7BCFF02220D214948FDF761FC79
:102AB0004E494D48FEF78AF84E494B48FEF742F919
:102AC00008214948FEF7B6FA00214748FEF7F2F818
:102AD00001214548FEF7FFF801214348FEF721F99F
:102AE00000E000BF00BF00BFBDE670B504460D4664
:102AF00029462046FFF774FE70BD10B50C224243F4
:102B0000324C1219117210BD70B504460C2060438E
:102B10002E494018067A002E03D101212046FFF7E6
:102B2000E4FFF007C00F00280BD00C226243274BB4
:102B3000995A0C226243D2185068FDF7F4FB0546FF
:102B40000AE00C226243214B995A0C226243D218AC
:102B50005068FDF7F5FB0546012D01D1012070BD40
:102B60000020FCE770B504460D46012D09D10C226A
:102B70006243164B995A0C226243D2185068FDF7F3
:102B8000ECFB002D09D10C226243104B995A0C2208
:102B90006243D2185068FDF7E2FB70BDF8B50446F9
:102BA0000C20604309494018067A0027012C23D0E5
:102BB000022C06D0082C24D10120084908600125E8
:102BC00020E040200549086040251BE0140000205B
:102BD0000004004800080048001400489401002048
:102BE0000044014000480140002C014094030020B3
:102BF000F4010020A003002080207E490860802589
:102C000000E000BF00BF052E33D001214802FDF7D0
:102C100006FF7948FFF756F97848FFF775F908205D
:102C2000764908600120087101214004FDF7E9FEA2
:102C30000320704908710020C8710920C006FDF703
:102C40000FFB6E496C48FFF74BF96B48FFF730FA02
:102C500001216948FFF760F900BF69496648FFF73D
:102C600071FA0028F9D005210C206043654A8018CC
:102C70000172072229466048FFF7E4F95E48FFF732
:102C80003AFA00BF04215C48FFF75CFA0028F9D04B
:102C90005948FFF735FA07465748FFF727FA3846ED
:102CA000F8BDF8B505460E460C2068435549401856
:102CB000077A042F03D004212846FFF791FD3446FC
:102CC000514806800A2D04D00E2D05D00F2D09D1B4
:102CD00005E04E48446306E04D48446303E04D4838
:102CE000446300E000BF00BFF8BD70B504460D4668
:102CF0000C20604343494018067A042E03D0042177
:102D00002046FFF76DFD29464348006806F010F89D
:102D1000401E81B20C2060433A4A80184181E01E77
:102D2000030008F07EFE0D085B11195B5B21293161
:102D300039424B535B000C206043324940184089B4
:102D400001218907C8624AE00C2060432D494018E0
:102D500040892F49C86242E00C206043294940184D
:102D600040892C49C8623AE00C206043254940184C
:102D700040892A49C86232E00C206043214940184A
:102D800040892249C8622AE00C2060431D4940184E
:102D900040892349C86222E00C2060431949401849
:102DA000408901218907C86219E00C206043154958
:102DB0004018408901218907C86210E00C20604357
:102DC0001049401840891249C86208E00C2060434D
:102DD0000C49401840890F49C86200E000BF00BF9D
:102DE00070BD10B50C224A43064BD4181CCC1CC035
:102DF0000C3810BD9401002000240140B4030020D1
:102E0000010000011400002010000020002C0140EF
:102E10000048014000440140F4010020002000402F
:102E20000004004070B5054600BF20218348FFF72D
:102E30000DF80028F9D08148FEF7F8FEC4B220460C
:102E400070BD01460020C043704710B5044600BF66
:102E500080217A48FEF7FAFF0028F9D0A1B277481E
:102E6000FEF7E0FE10BD00BFFEE71CB501214804DF
:102E7000FDF7C7FD01218803FDF7D1FD01220321E4
:102E80000920C006FDF775FA012202210920C006BB
:102E9000FDF76FFA012000900321684601710021BF
:102EA000C17169460920C006FDF7DAF90C200090CF
:102EB00003216846417102210171002181710121C4
:102EC000C17169460920C006FDF7CAF91CBD10B5DD
:102ED00086B00446FFF7C9FF0094002001900290DD
:102EE000039005900C20049069465448FEF760FD5D
:102EF000012253495148FEF775FF01214F48FEF763
:102F0000E0FD1B20012181404E4A116000BF06B048
:102F100010BD10B504462046FFF7D9FF4A480460AB
:102F200003210020FFF7E9FD04210120FFF7E5FD63
:102F300010BD4648008870474548464908604649E4
:102F400008600020414908804449088044490870CD
:102F50007047FF203D490988002917D03D4909687D
:102F600008783C490968491C3A4A11603749098880
:102F7000491E364A11800021394A117035490A68C4
:102F800038498A4202D93249324A11607047FF20DB
:102F90002E490988002902D02E490968087870470F
:102FA00010B504463049204605F019FE10BD70B535
:102FB00005462C4600BF2078641C2B4905F00FFE07
:102FC00020780028F7D170BD10B504462046FFF7E1
:102FD000EEFF0D20FFF7E4FF0A20FFF7E1FF10BD31
:102FE00010B5044600BF802120480068FEF72EFF80
:102FF0000028F8D06106490E1C480068FEF712FE52
:103000000D20FFF7CDFF0A20FFF7CAFF10BD10B556
:10301000044600BF802115480068FEF717FF00280E
:10302000F8D06106490E11480068FEF7FBFD0D203F
:10303000FFF7B6FF0A20FFF7B3FF10BD00380140CD
:103040000501050000E100E0B4010020E8010020D6
:10305000CC030020E0010020E4010020EA01002070
:10306000EC010020CC040020AC010020F001002085
:10307000704700BFFEE7704770470A480068401C71
:103080000849086008480068401C0749086007486C
:103090000068002804D005480068401E0349086005
:1030A000704700005C0300200C0200205403002045
:1030B0000CB50020019000907348006801210904BC
:1030C00008437149086000BF6F4800680121490446
:1030D000084000900198401C01900098002804D1FD
:1030E0000521090201988842EED167480068012154
:1030F00049040840002802D00120009001E000208F
:1031000000900098012839D11120604908605E487C
:1031100040685D4948600846406848600846406825
:103120003F210904884358494860084640681121F6
:10313000090408435449486008460068012109060B
:1031400008435149086000BF4F4800680121490603
:1031500008400028F8D04C484068800880004A4960
:10316000486008464068022108434749486000BF5C
:10317000454840680C2108400828F9D10CBD10B51D
:1031800041480068012108433F49086008464068FB
:103190003F4908403C494860084600683D490840AE
:1031A0003949086008460068012189048843364986
:1031B0000860084640683F21090488433249486056
:1031C0000846C06A00090001C8620846006BFF217A
:1031D000543188432C4908630846406B400840003E
:1031E000486300208860FFF763FF10BDF8B5002535
:1031F000002400260027244840680C21084005468A
:10320000002D04D0042D06D0082D2AD107E0224835
:103210002249086029E020482049086025E01A4832
:1032200040680F218904084004461748406801217E
:10323000090408400646A00C841C002E04D118483E
:103240006043164908600BE00F48C06A0007000F92
:10325000471C3946104805F06BFD60430F49086074
:1032600003E00D480D49086000BF00BF06484068F4
:10327000F021084000090B490D5C08480068E8404F
:1032800006490860F8BD000000100240002002401E
:103290000CB8FFF8FFFFF6FE00127A00F4010020E0
:1032A00000093D00F801002010B501F06EFD10BDD1
:1032B00010B50121AC48FEF71AF9012803D101210C
:1032C000A948FEF727F910BD10B50420FEF766FAED
:1032D000002805D0A548006880470420FEF770FA52
:1032E00010BD10B501200003FEF758FA002808D0E1
:1032F0009F480088401C9E49088001200003FEF77B
:103300005FFA01208003FEF749FA002808D09948A7
:103310000088401C9749088001208003FEF750FA7E
:103320002020FEF73BFA002807D093480088401C75
:10333000914908802020FEF743FA10BD10B55D20AA
:10334000FDF71CF9012801D1FDF7BDFBFFF72BFAB2
:1033500010BD10B5FDF7D8F80120FDF75CF900BFEE
:103360000120FDF70BF90028FAD00020FDF70FFA35
:103370000020FDF71AFA0120FEF718FF0120FEF7E2
:1033800021FF0521C9040020FDF7AEF90120FDF75A
:10339000BAF900BF1920FDF7F1F80028FAD0022091
:1033A000FDF7E4F900BFFDF7EDF90828FBD110BDEA
:1033B0001CB5002001900090FFF7CBFF7D21C900D4
:1033C0006E48006805F0B4FC0446601E6C498842F3
:1033D00000D90CE0601E6B4948610321081F00F012
:1033E0008BF80020674988610720086100BF322000
:1033F00003F0B2FD01F01AF900F048FC01F0E9F821
:1034000001F003FC01F068FC01F035F903F0D1FE96
:1034100002F01BFA5C480078030008F002FB050785
:10342000131404171B0001F039FB00BF01F023FA4D
:1034300001F07EFA01F0F8FA322003F08DFD01F080
:10344000ABF907E006E001F08AFB03E0012000F0A1
:1034500017FC00BF00BF01F062F900F03DFE00283C
:1034600001D100F055FF01F0B7FB44E0FFF766FF24
:1034700000F063FC44480078002804D002280CD0F7
:10348000032811D100E000BF01F091FF01F0F7FE29
:1034900003F0A2FA03F088FF06E004F09FFA04F0BC
:1034A0008EF903F09DFF00BF00BF03F077FB019989
:1034B000401A009000983C2815D303F06FFB019050
:1034C00032480078002801D002F018FD2E4800781C
:1034D000002803D02C480078032804D1012000F0F4
:1034E00044FD2B4908802B48006802210840002831
:1034F00001D103F0EBF8B9E710B5002819DA264A34
:1035000003071B0F083B9B089B00D2588307DC0E68
:10351000FF23A3409A438B071B0E8407E40EA340AE
:103520001A431D4B0407240F083CA408A4001A5199
:1035300018E01A4A03231B02D21883089B00D258B2
:103540008307DC0EFF23A3409A438B071B0E8407DF
:10355000E40EA3401A43114B032424021B198408D0
:10356000A4001A5110BD0000001000407C03002090
:103570002C0300202E03002030030020F401002043
:10358000FFFFFF0000E000E016020020150200200F
:103590004C020020100200201CED00E000E100E0E1
:1035A00010B50446F948844209D101214805FDF7C8
:1035B0006EFA002101204005FDF769FA08E00121BB
:1035C0008805FDF764FA002101208005FDF75FFA08
:1035D00010BD10B50A46002103685B085B0003605C
:1035E0000168EB4B19409468240253682343194344
:1035F00001600F2424061368A343036103680124B8
:103600002343036000218160C160146993692343EF
:103610001946816083680124E40323438360D168F1
:1036200003680B4303604168DA4B1940536919433F
:10363000416010BD0021016041608160C160016195
:103640000121C9034161002181617047002904D033
:10365000026801231A43026003E002685208520024
:10366000026070470168490849000160016801680B
:103670000122114301607047002A03D003680B4305
:10368000036002E003688B4303607047002905D0A4
:10369000026801235B049A43026004E0026801238C
:1036A0005B041A4302607047002905D002680123B9
:1036B0009B041A43026004E0026801239B049A43BE
:1036C00002607047002905D0C2680123DB031A435A
:1036D000C26004E0C2680123DB039A43C260704702
:1036E00070B50B460021C168AB4C2140FE241C4044
:1036F00015020726360235402C432143C16070BDB8
:10370000002905D002680123DB041A43026004E0AB
:1037100002680123DB049A4302607047002905D048
:10372000026801231B041A43026004E002680123BB
:103730001B049A43026070470A4600214168890AC7
:10374000890293059B0D194341607047002905D0FC
:1037500042680123DB021A43426004E0426801230D
:10376000DB029A4342607047002905D0426801237A
:103770005B061A43426004E0426801235B069A43F9
:1037800042607047002905D0426801231B061A4396
:10379000426004E0426801231B069A43426070477E
:1037A00010B50A4600214168FF2424040B46A343B8
:1037B0001946130423401943416010BD002905D167
:1037C000426801239B029A43426004E0426801235D
:1037D0009B021A4342607047002905D042680123CA
:1037E0005B031A43426004E0426801235B039A438F
:1037F00042607047002905D0426801239B031A43A9
:10380000426004E0426801239B039A434260704790
:10381000002905D0426801231B031A43426004E0DB
:10382000426801231B039A4342607047002905D078
:1038300042680123DB039A43426004E042680123AB
:10384000DB031A4342607047014688697F225204B5
:103850001040000C704710B50146002200208B6913
:103860000124240423401A46002A00D101E001204B
:10387000800210BDF0B50C4600214168474D29403B
:10388000A505AD0D1604FF273F043E4035431D43FB
:10389000059E354329434160F0BD002905D00268EB
:1038A00001239B051A43026004E0026801239B0583
:1038B0009A4302607047002905D042690123DB0367
:1038C0001A43426104E042690123DB039A434261E7
:1038D0007047002905D042690123DB071A43426182
:1038E00003E042695200520842617047002905D046
:1038F000426901231B031A43426104E04269012328
:103900001B039A43426170470A4600214169090B33
:10391000090313051B0D19434161704710B50A4691
:10392000002141691E4B194013041D4CE443234000
:103930001943416110BD002905D002680123DB0550
:103940001A43026004E002680123DB059A43026027
:103950007047002905D0426801239B061A43426044
:1039600004E0426801239B069A4342607047014687
:10397000086AC0B2704708B5024600200090009265
:103980000098401800900098006808BD005400405E
:10399000FFE0CF00FF7FFF0701F8FFFF009800FC6A
:1039A000FFFF00F0816270470146486AC0B270476D
:1039B000002A03D003680B43036002E003688B43D3
:1039C0000360704710B502460023002093691C462F
:1039D0000C402346002B01D0012000E0002010BD48
:1039E000C161704770B502460023002000243F25C6
:1039F0002D020D40002D04D01568802635402C4640
:103A00000BE0C0250D40002D04D015684026354040
:103A10002C4602E015680D402C4693691D460D406A
:103A20002B46002B03D0002C01D0012000E0002009
:103A300070BDC1617047000000B589B00020FCF77F
:103A4000E8FE01214805FCF7F8FF01218804FCF796
:103A5000D8FF012206218748FCF78BFC01220721B1
:103A60008448FCF786FC07A8FCF742FC022108A862
:103A70000170C0200790012108A8C1708170032146
:103A8000417007A97B48FCF7EBFB6846FFF7D2FDC6
:103A900000200590069001900290039004907648D3
:103AA000009069467548FFF794FD01217348FFF7C0
:103AB000CDFD09B000BDF8B50546FF260120400345
:103AC00000230122D72100906C48FFF7D3FE03F0BA
:103AD00065F8044609E003F061F8001B022804D9E8
:103AE00020206649C8610020F8BD64488069022131
:103AF00008400028EFD029466048FFF753FF03F045
:103B00004DF8044609E003F049F8001B022804D9E7
:103B100020205A49C8610020E6E7584880694021C2
:103B200008400028EFD009208002CB040122D721D1
:103B300000905248FFF79EFE03F030F8044609E07B
:103B400003F02CF8001B022804D920204B49C8613F
:103B50000020C9E749488069042108400028EFD0C7
:103B60004648FFF721FF064603F018F8044609E02F
:103B700003F014F8001B022804D920203F49C86133
:103B80000020B1E73D488069202108400028EFD09F
:103B900020203A49C8613046A6E7F8B505460E46EA
:103BA00001204003C3020122D72100903348FFF7D0
:103BB00061FE02F0F3FF044608E002F0EFFF001B95
:103BC000022803D920202D49C861F8BD2B488069FF
:103BD000022108400028F0D029462848FFF7E2FEDD
:103BE00002F0DCFF044608E002F0D8FF001B0228C8
:103BF00003D920202149C861E7E720488069802156
:103C000008400028F0D001211C48FFF7ADFD02F06C
:103C1000C5FF044608E002F0C1FF001B022803D9DB
:103C200020201649C861D0E7144880690221084065
:103C30000028F0D031461148FFF7B4FE00210F48AC
:103C4000FFF7A0FD02F0AAFF044608E002F0A6FF7D
:103C5000001B022803D920200849C861B5E707489E
:103C60008069202108400028F0D020200349C86145
:103C700000BFAAE70004004812107300005400407F
:103C8000FE4909680143FD4A1160704700B50420F0
:103C9000FFF7F6FF00BDF94909688143F74A116053
:103CA00070470146F54800680840704770B5044603
:103CB000002506E0A168485D04F0DDFDA1684855D7
:103CC0006D1CA089A842F5DC70BD70B505460C4698
:103CD000284604F091FF86B23146284602F03FFFA5
:103CE000A04201D1012070BD0020FCE770B5CCB02E
:103CF00005460C461DE0601E80B20446285C2A285A
:103D000017D12246294601A804F098FF002001A9F6
:103D10000855611C681804F055FFC6B2314601A869
:103D2000FFF7D3FF002802D001204CB070BD002067
:103D3000FBE7002CDFD10020F7E7F8B5D04800788A
:103D4000002834D1CF480078030007F06AFE05044C
:103D50001C25052E2F0000BFCB480068CB498842A8
:103D600002D9002001F0F9FA01F03AF9074605F00E
:103D7000EDFD0546C64AC74B08F012FA02D20020F4
:103D800002F0C1FD12E0C0480068C049884202D973
:103D9000002001F0E2FA09E0BB4800687D2109013A
:103DA000884201D903F0C5FC00E000BF00BFBA485B
:103DB000807B002800D1F8BDB7498868B7A104F01E
:103DC00073FF002806D0B4498868B6A104F06CFFE0
:103DD000002803D10120AA4908700EE0AE4A91895B
:103DE0009068FFF783FF002807D1A54800780028D6
:103DF00003D1A94800F0C0FFDDE7A7498868ABA15F
:103E000004F0F2FE0446AA49204604F04DFF0028C3
:103E100003D0A14800F0B0FFCDE79F48FFF746FF71
:103E200098480078030007F0FCFD05040A10161CF2
:103E3000220003F005FE00209349086017E004F01B
:103E4000FFF800209049086011E003F02CFB0020EF
:103E50008D4908600BE004F0BDF900208A49086034
:103E600005E004F0EFF800208749086000BF00BFBC
:103E7000894800F081FF00BF9DE78E487047F0B58C
:103E800085B08D48046847688C486040B84210D1BE
:103E9000204605F097FE019005F058FD05460022EA
:103EA000874B05F0DFF90391029004F0F1FF05B0B4
:103EB000F0BD0020FBE7F8B505468249284608F02A
:103EC00045FA074605F01CFE044600F033FCFEF7F9
:103ED00094F93520FEF756FC7748FEF7D0F92146D5
:103EE0007548FEF712FA7548604001467248001D99
:103EF000FEF70BFAFEF78DF900F011FC6E4806682C
:103F0000A64201D10120F8BD0020FCE770B50446AF
:103F1000204604F071FE86B2002512E0701E205C7F
:103F20000D2804D1701E002801DD012070BD605DE8
:103F3000302802DB605D392801DD0020F6E7681CCF
:103F400085B2B542EADB0120F0E7704770B5044660
:103F5000002506E0A168485D04F080FCA168485592
:103F60006D1CA089A842F5DC70BD10B586B0044672
:103F70005548FDF7A7FF6846FDF7C6FF00200090F3
:103F800001206946087100200290049005904E4877
:103F9000FDF7A6FF002C05D1072201214A48FEF7B4
:103FA00051F828E0012C05D1072202214648FEF7EE
:103FB00049F820E0022C05D1072240214248FEF7B3
:103FC00041F818E0032C05D1072280213E48FEF776
:103FD00039F810E0042C0BD10722A1033A48FEF770
:103FE00031F80120FDF7F8FF0120FEF707F802E0A5
:103FF000002006B010BD3448FEF75AF801213248BF
:10400000FDF78AFF00BF01212F48FEF79BF800282B
:10401000F9D02D48FEF76FF800BF04212A48FEF7BB
:1040200091F80028F9D02848FEF76AF800BF04216B
:104030002548FEF787F80028F9D02348FEF760F8F6
:10404000D7E77FB50420FFF790FF1A490C39098B99
:104050000E1A304605F04BFB04461C4A1C4B05F07B
:1040600001F900221B4B0191009005F0CBF8039160
:10407000029004F00DFF04B070BD0000100200209B
:1040800014020020160200200C020020E09304001D
:104090009A9999999999B93F18020020312044457D
:1040A00042554700312064656275670020000000BA
:1040B00087C50008ACF7FF1F00F8030878563412D4
:1040C000000059400000C842002401406189079463
:1040D0004D59154000003E401CB501214804FCF735
:1040E00090FC0120C0030090002168460171C1715D
:1040F00069460920C006FCF7B3F80121C90309206D
:10410000C006FCF710F91CBD70B500F069FF06464B
:1041100005F01CFC0446F74AF74B08F041F801D2C1
:10412000102070BD0020FCE710B50020F349486363
:10413000012002F011FF01218903F148FCF7F3F897
:10414000002801D1802010BD8020FCE710B501209F
:10415000FFF70BFF0446532C05DDFF201C30844283
:1041600001DA402010BD0020FCE710B50020E54931
:104170004863022002F0F0FE0121C902E048FCF78A
:10418000D2F8012801D1202010BD0020FCE7F8B5AD
:10419000002500260027DC4800680221084000288E
:1041A0004DD1002419E0032001F0EEF929460090DA
:1041B00008F05CF80546042001F0E6F9314600906D
:1041C00008F054F80646052001F0DEF93946009063
:1041D00008F04CF80746601CC4B2142CE3DBCB4952
:1041E000284605F0DDFB009002F0C6FC0546C749F5
:1041F000304605F0D5FB009002F0BEFC0646C349F0
:10420000384605F0CDFB009002F0B6FC0746C049E9
:10421000284608F0F3F80ED3BD49304608F0EEF812
:1042200009D3BC49384608F0E9F804D3BA493846FE
:1042300008F062F801D20020F8BD0420FCE700205D
:10424000FAE7B148006802210840002801D10220A5
:1042500070470020FCE710B50121A948FCF77FF862
:10426000012002F079FE10210920C006FCF75BF85E
:10427000002801D1012010BD0020FCE730B58BB033
:104280000024FFF7E8FF0419FFF7DBFF0419FFF72D
:104290007EFF04190834FFF768FF0419FFF756FF83
:1042A0000419FFF741FF0419FF20F53002F054FE16
:1042B000FFF72AFF041902A9204602F049FD05462E
:1042C00096480095C36A026B416B95A004F0E2FA30
:1042D0000BB030BD30B58BB00024FFF7BCFF041924
:1042E000FFF7AFFF0419FFF752FF04190834103429
:1042F000203402A9204602F02BFD05468748009590
:10430000C36A026B416B8BA004F0C4FA0BB030BDE2
:1043100008B500F0E1FC8C480078002806D00128A0
:1043200007D0022806D003280AD106E0FFF7A6FF2F
:1043300010E00FE0FFF7CEFF0CE0FFF79FFF09E072
:1043400082A000907548C36A026B416B80A004F0A4
:10435000A1FA00BF00BF08BDF0B589B00025002656
:10436000002700240520079032200690022001F04B
:104370000BF904460494059471E0002008901BE0BA
:10438000032001F001F92946039007F06FFF05466D
:10439000042001F0F9F83146039007F067FF064664
:1043A000052001F0F1F83946039007F05FFF07465A
:1043B0000898401CC0B2089008980528E0DB6949BD
:1043C000284605F0EDFA039002F0D6FB0546654954
:1043D000304605F0E5FA039002F0CEFB064661494F
:1043E000384605F0DDFA039002F0C6FB074648495F
:1043F000284607F081FF32D84549304607F07CFF58
:104400002DD84449384607F077FF28D84249384626
:1044100007F0F4FF23D8022001F0B6F80446214645
:10442000059807F069FF00D205942146049807F02B
:10443000E5FF00D204940499059808F017F800905D
:1044400002F09AFB019005F081FA0022464B03919D
:10445000029007F0D7FE02D2002009B0F0BD069806
:10446000411EC9B20691002887D10120F5E770B539
:1044700002F094FB84B20025234800680221084022
:10448000002810D10BE002F089FB001B7D214901BF
:10449000884201D9002070BDFFF75EFF0546002D60
:1044A000F1D00820F7E70020F5E710B500202F49EC
:1044B0004863012002F050FD012109031048FBF779
:1044C00032FF002801D1402010BD4020FCE710B58C
:1044D00001210920C006FBF742FF012002F03CFD4C
:1044E00004210920C006FBF71EFF012840D110203F
:1044F00010BD00002D431CEBE2361A3F004801407E
:1045000000040048002C0140100200200000A041DF
:10451000000048420040834400806D4480F7FF1F44
:10452000253038582530385825303858203130203B
:1045300025730A002530385825303858253038582A
:104540002030312025730A001602002030000000C0
:10455000253038582530385825303858203030200C
:1045600025730A000000A04000007940004401408B
:10457000002010BD10B5012149020848FBF7EFFEED
:10458000012002F0E9FC04210448FBF7CCFE0128DD
:1045900001D1202010BD0020FCE7000000040048ED
:1045A0001CB501214804FCF72CFA01214802FCF754
:1045B00036FAC02000900321684601710021C171C4
:1045C00069460920C006FBF74BFEFE48FDF77AFC62
:1045D0001CBD10B5FFF7E4FF0220FFF7C6FC044640
:1045E000F948844203DB0020F849087019E0F848D4
:1045F000844206DBF448844203DA0220F34908705F
:104600000FE0F448844206DBF148844203DA0320D9
:10461000EE49087005E00420EC4908700120FFF71E
:104620002FFB10BD10B5FFF7D4FF10BD08B5FF215B
:10463000684601700021417001218170FDF7CAF8C0
:104640001B2168460170012141708170FDF7C2F89D
:104650001121684601700221417001218170FDF72E
:10466000B9F807216846017003214170012181706A
:10467000FDF7B0F808BD00B589B001214804FCF78A
:10468000C0F901218803FCF7CAF901220921C806F3
:10469000FBF76FFE01220A210920C006FBF769FE25
:1046A00001204002019003216846417202210172FB
:1046B00001218172C17201A90920C006FBF7D0FD5A
:1046C000012080020190032168464172022101729B
:1046D00001218172C17201A90920C006FBF7C0FD4A
:1046E000E12040020390002004900590069008907D
:1046F0000C20079003A9B848FDF75AF90022B749E2
:10470000B548FDF76FFB0021B348FDF7DAF91B2030
:1047100001218140B24A116000BF09B000BD10B54F
:104720000122AE49AC48FDF75DFB0121AA48FDF727
:10473000C8F910BD10B50022A849A748FDF752FBE3
:104740000021A548FDF7BDF910BD3EB5012110209F
:10475000FCF773F97D21C900A248006804F0E8FA6B
:10476000401E84B21420019000216846018001811E
:10477000418069469C48FCF729FA012221469A4863
:10478000FCF75AFA01219848FCF7A5FA01221146D4
:104790009548FCF793FE3EBD00B58BB0012188041F
:1047A000FCF72FF901214804FCF72BF90121C8027D
:1047B000FCF735F903200990032108A801720021B4
:1047C000C17209A90920C006FBF74AFD0120400378
:1047D0000990022108A8017200218172032141720F
:1047E0000221C17209A98148FBF73AFD0021684600
:1047F000018341837D21C9007A48006804F098FA5A
:10480000401E079000216846018408A8817000209E
:1048100003906021684681800121C18004210181CB
:104820000221018200214182FF2101318182002188
:10483000C18202220D216D48FBF79BFD06A96C4841
:10484000FCF7C4F901A96A48FCF77CFA082168481A
:10485000FCF7F0FB00216648FCF72CFA01216448C4
:10486000FCF739FA01216248FCF75BFA61486049BC
:1048700048630BB000BD00B58BB001218804FCF784
:10488000C0F8FF200130019002216846017200212A
:1048900081720321417201A95448FBF7E1FC002118
:1048A0006846018441847D21C9004E48006804F0B7
:1048B0003FFA401E099000216846018508A88172D0
:1048C000002005906021684681810121C181042179
:1048D00001820221018300214183FF210131818373
:1048E0000021C18301214804FCF799F80222082124
:1048F0003E48FBF73EFD08A93F48FCF767F903A9CE
:104900003D48FCF71FFA08213B48FCF793FB0021C8
:104910003948FCF7CFF901213748FCF7DCF90121D0
:104920003548FCF7FEF93348334948630BB000BD06
:1049300000B58BB001218804FCF763F80120400228
:1049400001900221684601720021817203214172A7
:1049500001A92648FBF784FC0021684601844184B4
:104960007D21C9001F48006804F0E2F9401E09904B
:1049700000216846018508A8817200200590602109
:10498000684681810121C1810421018202210183C4
:1049900000214183FF21013181830021C183012155
:1049A0008804FCF73CF8022209211048FBF7E1FCDF
:1049B00008A91248FCF70AF903A91048FCF7C2F944
:1049C00008211DE0002401408C0C0000160200208C
:1049D0006909000099070000003801400501050041
:1049E00000E100E0F4010020001000400004004855
:1049F000002C0140FFFF000000440140004801403E
:104A0000CF48FCF717FB0021CD48FCF753F90121F3
:104A1000CB48FCF760F90121C948FCF782F9C94885
:104A2000C74948630BB000BD1FB501218804FBF7DF
:104A3000E8FF01210846FBF7F2FF01200003029086
:104A4000002168460173C17302A9BF48FBF708FC47
:104A5000012080030290002168460173C17302A9FE
:104A6000B948FBF7FDFB0C210120FCF749FF0E21A3
:104A70000120FCF745FF012000030090002168465B
:104A800001710C21417101218171FCF729FE012086
:104A9000800300906846FCF723FE1FBD1FB501216F
:104AA0004804FBF7AEFF2020029000216846017306
:104AB000C17302A90920C006FBF7D2FB0521002023
:104AC000FCF71EFF202000900021684601710C2198
:104AD000417101218171FCF703FE1FBD00B589B052
:104AE00001214804FBF78DFF01214802FBF797FFE6
:104AF000012001900321684601720021C17201A9C1
:104B00000920C006FBF7ACFB9048FDF7DBF903A8D2
:104B1000FDF7FAF900200390012168460174002096
:104B200005900790089003A98848FDF7D9F9072256
:104B300001218648FDF786FA8448FDF7B9FA01217C
:104B40008248FDF7E9F900BF01218048FDF7FAFA34
:104B50000028F9D07D48FDF7CEFA09B000BD1CB59C
:104B600001214804FBF74DFF01218804FBF749FFB1
:104B7000012000900121684601710021817103210B
:104B800041710021C17169460920C006FBF768FB2D
:104B900001204002009001216846017181710321CA
:104BA00041710021C17169466748FBF759FB042038
:104BB0000090002168460171C17169466248FBF7A7
:104BC0004FFB01210920C006FBF7C7FB0121490269
:104BD0005D48FBF7C2FB1CBD10B50120FBF774FD5F
:104BE00000BF4120FBF7CAFC0028FAD05848FDF767
:104BF000D1FD0320FDF7D1FD7D20C000FDF7D0FDE4
:104C0000FDF7D1FDFDF7D6FD10BD1CB501218804CF
:104C1000FBF7F7FE01200090012168460171002199
:104C20008171032141710121C17169464648FBF739
:104C300017FB01214448FBF790FB1CBD1CB501216B
:104C40004804FBF7DEFE01218804FBF7DAFE1020A2
:104C500000900021684601710121C1716946092057
:104C6000C006FBF7FDFA04200090002168460171A0
:104C7000C17169460920C006FBF7F2FA01208002E3
:104C800000900021684601710121C17169462E48DA
:104C9000FBF7E6FA1CBD1CB501214804FBF7B1FE89
:104CA00001218804FBF7ADFE10200090002168462A
:104CB00001710121C17169460920C006FBF7D0FAD4
:104CC0000120C0020090002168460171C17169464F
:104CD0001D48FBF7C5FA1CBD10B51E48007803003F
:104CE00006F09FFE05040809050C0D0000BFFFF744
:104CF000D2FF04E003E0FFF7A1FF00E000BF00BF28
:104D000010BD1CB502210120FCF7FAFD0420009023
:104D10000021684601710C21417101218171FCF76C
:104D2000DFFC1CBD1CB50420009000216846017109
:104D30000C21417100218171FCF7D2FC1CBD0000E7
:104D400000480140FFFF000000040048002401402B
:104D5000555500001602002070B504460D4600BFF0
:104D600080219B48FDF772F80028F9D0A1B298483D
:104D7000FCF758FF204670BDFF21F53181800021EE
:104D80008173818102691160704710B591488089F3
:104D9000002807DD8F48006900680A2802D98D487D
:104DA000FFF7EAFF00208B49096908608A498848B3
:104DB000FDF758F8002839D08548FCF737FFC4B212
:104DC0008448808983498988884203DD8148FFF7C8
:104DD000D3FF10BD7F48807B002826D10A2C0CD041
:104DE0007C4881898089401C7A4A9081104680687D
:104DF000445400201146887317E0012075498873D8
:104E000000208968734A9289885472488168808931
:104E1000401E085C0D2808D100216E4882688089F8
:104E2000401E80B26B4B9881115400BF00BFD0E789
:104E3000F7B582B0054600200190039C04980A282B
:104E400004D000202070039805B0F0BD002D06D1DD
:104E500030202070641C002020700398F4E7002D9F
:104E600003DA2D202070641C6D425C4E17E0314641
:104E7000284603F067FF0746002F02D1019800285B
:104E800008D0384630302070641C384670432D1AE4
:104E9000012001900A21304603F054FF0646002EFF
:104EA000E5DC002020700398CEE70FB470B586B023
:104EB00006460CA8019081E00B9800785C282AD166
:104EC0000B98401C0B9000786E2810D072281DD1D2
:104ED00000BF40213046FCF7B9FF0028F9D00D2172
:104EE0003046FCF79FFE0B98401C0B9012E000BF71
:104EF00040213046FCF7AAFF0028F9D00A213046AD
:104F0000FCF790FE0B98401C0B9003E00B98401CA4
:104F10000B9000BF52E00B980078252840D10B98E9
:104F2000401C0B900078642818D0732833D1019866
:104F300010C801900BE000BF40213046FCF786FF0F
:104F40000028F9D021783046FCF76CFE641C2078EC
:104F50000028F0D10B98401C0B9020E0019820C84D
:104F600001900A2202A92846FFF762FF02AC0BE07B
:104F700000BF40213046FCF769FF0028F9D02178B6
:104F80003046FCF74FFE641C20780028F0D10B98C7
:104F9000401C0B9003E00B98401C0B9000BF0DE0F1
:104FA00000BF40213046FCF751FF0028F9D00B9894
:104FB0000178401C0B903046FCF734FE0B980078CB
:104FC000002800D078E706B070BC08BC04B01847D1
:104FD00000380140180200200501050010270000DC
:104FE00070B50024002505E00020FEF7BEFF04197F
:104FF000681CC5B2322DF7DB3221204603F098FE43
:10500000044600BFFD4884421ED8FD4800780028B1
:1050100002D0032816D109E06100FA4A505A04F080
:10502000D9FD0646F84904F0BBFC70BDF349091BE5
:105030004900F44A505A04F0CDFD0646F24904F006
:10504000AFFCF2E7F148F0E7F048EEE7F0B58BB0DF
:10505000FFF7C6FF0A900A9804F078FC07910690C3
:10506000EB48006804F072FC05460022134604F089
:10507000C9F805910490079B069A04F0D0F80991AD
:10508000089003F005FF0746384604F05FFC05462C
:105090000022E04B07F0B6F804D2DF4C0120DF49D4
:1050A0000870D5E0384604F051FC05460022DC4B80
:1050B00007F076F804D200240120D8490870C7E030
:1050C000D6480078002804D00020D6490860D3498B
:1050D00008703946D448006807F038F9D3490860A9
:1050E0003946D048006807F0C1F8CE490860D0487A
:1050F0000168CC48006807F0FFF804D2CC4800688B
:1051000004F024FC25E0CB48006804F01FFC0022DA
:10511000C94B0591049004F075F809910890C148B5
:10512000006804F013FC07910690099B089A07F0A9
:1051300069F80AD2BF48006804F008FC0022BE4BA0
:105140000991089004F05EF803E0B648006804F0A6
:10515000FDFB054603F09CFEB24908600846016865
:10516000B648006807F0F2F8B5490860B54800682D
:1051700004F0ECFB0546B44AB44B04F0C3FA0791C3
:105180000690B34801680A9807F070F9054604F0E4
:10519000DDFB03910290AF48006804F0D7FB0546A1
:1051A000AD4AAE4B04F0AEFA01910090039B029A17
:1051B00004F0A8FA05910490079B069A04F022F8DF
:1051C0000991089003F064FE9E4908609C480168BC
:1051D0009648006807F04AF805469A48016828464C
:1051E00007F044F90446204604F0B0FB05460022CF
:1051F0009B4B07F007F811D2384604F0A7FB054691
:105200000022134606F0FEFF06D2394685480068A4
:1052100007F02CF9834908607F4C19E0204604F020
:1052200095FB05460022134606F0BAFF10D8384613
:1052300004F08CFB05460022134606F0B1FF06D8A9
:1052400039467848006807F011F97649086000246B
:105250007F490A980860204604F078FCC0B20BB081
:10526000F0BDFF21091A0A0289187E4A516370476E
:1052700010B5FFF7EBFE0446FFF7F3FF10BD70B566
:105280007F26F60501207849087001F087FC7749F0
:105290000968401A142800D270BD01F07FFC7349E0
:1052A0000860FFF79DFE0646304604F04FFB0446BB
:1052B00000226F4B06F074FF03D2002001F020FBA8
:1052C00002E0FF2001F01CFB304604F03FFB0446E7
:1052D000684A694B06F064FF1CD3304604F036FB85
:1052E00004460022654B06F08DFF13D3304604F0D0
:1052F0002DFB04460022624B06F084FF0AD361486E
:1053000000886149884205DC01204002FEF7C9FCA3
:10531000002806D00020FFF7A4FF4020FEF7B0FCD5
:1053200019E03B48006804F011FB0446514A524B17
:1053300006F036FF06D80020FFF793FF4020FEF767
:10534000AAFC08E048480078002804D0FFF790FF46
:105350004020FEF7A0FC00BF9EE770B50646012086
:105360002E490870002037490860294806603046F9
:1053700004F0ECFA0446384A921F444B06F042FF10
:1053800002D2FF2001F0B4FA00204149086001F088
:1053900005FC4049086070BD70473F49091A314A11
:1053A0005163704700B50020FFF75BFF00BDFEB5FD
:1053B000002701F0F3FB37490968401A3749884252
:1053C00000D2FEBD01F0EAFB35490968471A7D208D
:1053D000000187426AD901F0E1FB314908602C489D
:1053E000006804F0B3FA05462E4A2F4B06F0D8FEAB
:1053F0005DD2FFF7F5FD26490860E2E7FF0F0000E8
:10540000160200208AC50008000020419AF979445C
:105410002C0200200000244000007F4335020020C1
:10542000000024C06C020020540200206002002012
:1054300074020020700200200000F03F580200209B
:105440006402002068020020666666666666EE3FBB
:10545000780200205C020020A09999999999A93FAF
:1054600000E06F40002C0140340200203002002098
:1054700000004440FCA9F1D24D62503F00208C4016
:1054800000A06E404C020020470200009999B93FED
:10549000400200203C020020FFFF0000204E0000E0
:1054A000380200207B14AE47E17A843F5EE0FFF7CC
:1054B00097FD044621462E48006806F0D7FF01906C
:1054C0002B48006804F042FA05462A4A2A4B06F0A7
:1054D00067FE17D229480168204606F0C7FF054637
:1054E0000121890706F08AFF0CD24020FEF7D9FB84
:1054F000002839D14020FEF7C3FB01204002FEF70F
:10550000BFFB31E01A48006804F020FA0546194A4A
:10551000194B06F077FE23D2019804F017FA0546DE
:105520000022174B06F06EFE1AD21448016820467E
:1055300006F09CFF009004F009FA05460022114B8A
:1055400006F02EFE0CD24020FEF7ABFB00280BD15C
:105550004020FEF795FB01204002FEF791FB03E09F
:1055600001204002FEF797FB0448046000BF28E7D3
:105570002C0200207B14AE47E17A843F40020020D9
:10558000000024400000F03FF0B58FB00646002434
:1055900000200E9001270025A2E0032E04D0042E47
:1055A00035D0052E32D165E02820FEF784FA044379
:1055B0002920FEF780FA0002204304B2FE4800686A
:1055C00004F0C4F907910690204604F0FBFA01901C
:1055D00004F0BCF9F94AFA4B0391029004F092F8F6
:1055E00005910490079B069A03F00CFE0B910A901C
:1055F0000E9804F0ABF9099108900B9B0A9A03F0FE
:1056000001FE0D910C9003F043FC0E9065E02A2002
:10561000FEF751FA04432B20FEF74DFA0002204317
:1056200004B2E848006804F091F90791069020461A
:1056300004F0C8FA019004F089F9E04AE04B0391C4
:10564000029004F05FF805910490079B069A03F01E
:10565000D9FD0B910A900E9804F078F90991089001
:105660000B9B0A9A03F0CEFD0D910C9003F010FCF9
:105670000E9032E02C20FEF71EFA04432D20FEF798
:105680001AFA0002204304B2CF48006804F05EF921
:1056900007910690204604F095FA019004F056F91F
:1056A000C64AC74B0391029004F02CF80591049070
:1056B000079B069A03F0A6FD0B910A900E9804F042
:1056C00045F9099108900B9B0A9A03F09BFD0D91F7
:1056D0000C9003F0DDFB0E9000BF00BF681C05B20C
:1056E000BD4200DA59E70025A2E0002E04D0012EC9
:1056F00035D0022E32D165E02220FEF7DCF90443DA
:105700002320FEF7D8F90002204304B2AF48006816
:1057100004F01CF907910690204604F053FA01901A
:1057200004F014F90022AA4B0391029003F0EAFF5F
:1057300005910490079B069A03F064FD0B910A9073
:105740000E9804F003F9099108900B9B0A9A03F054
:1057500059FD0D910C9003F09BFB0E9065E0242009
:10576000FEF7A9F904432520FEF7A5F9000220431E
:1057700004B29848006804F0E9F8079106902046C2
:1057800004F020FA019004F0E1F80022904B03911C
:10579000029003F0B7FF05910490079B069A03F06F
:1057A00031FD0B910A900E9804F0D0F80991089001
:1057B0000B9B0A9A03F026FD0D910C9003F068FBF9
:1057C0000E9032E02620FEF776F904432720FEF7FC
:1057D00072F90002204304B27F48006804F0B6F872
:1057E00007910690204604F0EDF9019004F0AEF820
:1057F0000022774B0391029003F084FF05910490FF
:10580000079B069A03F0FEFC0B910A900E9804F099
:105810009DF8099108900B9B0A9A03F0F3FC0D91F7
:105820000C9003F035FB0E9000BF00BF681C05B262
:10583000BD4200DA59E7384604F0CCF901460D9034
:105840000E9804F0ADF80FB0F0BDFEB500270524AA
:10585000FEF7F2F80220FEF713FAE7E10F20FEF759
:105860002AF90746692F00D0E0E160211020FEF7F9
:1058700094F961211120FEF790F904211220FEF71E
:105880008CF90320FFF780FE0420FFF77DFE052042
:10589000FFF77AFE0020FFF777FE0120FFF774FE86
:1058A0000220FFF771FE0320FFF76EFE009004F068
:1058B0004DF805462A460B4648A002F0EBFF0420AF
:1058C000FFF762FE009004F041F805462A460B46B9
:1058D00045A002F0DFFF0520FFF756FE009004F020
:1058E00035F805462A460B4642A002F0D3FF0320B6
:1058F000FFF74AFE009004F029F805462A460B46B9
:1059000036A002F0C7FF0420FFF73EFE009004F02F
:105910001DF805462A460B4633A002F0BBFF0520C2
:10592000FFF732FE009004F011F805462A460B46B8
:1059300030A002F0AFFF0020FFF726FE009004F039
:1059400005F805462A460B462DA002F0A3FF0120CC
:10595000FFF71AFE009003F0F9FF05462A460B46B2
:105960002AA002F097FF0220FFF70EFE009003F03E
:10597000EDFF05462A460B4627A002F08BFF0020CC
:10598000FFF702FE009003F0E1FF05462A460B46B2
:105990001BA002F07FFF0120FFF7F6FD009003F04F
:1059A000D5FF05462A460B4618A002F073FF0220D9
:1059B000FFF7EAFD009035E01C03002008AC1C5AFC
:1059C000643BAF3F2003002024030020100300208D
:1059D000008011401403002018030020416363205D
:1059E000783D256C660A000041636320793D256C93
:1059F000660A0000416363207A3D256C660A000058
:105A00004779726F20783D256C660A004779726F7E
:105A100020793D256C660A004779726F207A3D2512
:105A20006C660A0003F092FF05462A460B46FE48C4
:105A300002F030FF0020FFF7A7FD009003F086FF83
:105A400005462A460B46F848183802F023FF012085
:105A5000FFF79AFD009003F079FF05462A460B46B2
:105A6000F1480C3802F016FF0220FFF78DFD009080
:105A700003F06CFF05462A460B46EB4802F00AFF8E
:105A80000020FFF781FD009003F060FF05462A46E5
:105A90000B46E548183802F0FDFE0120FFF774FDC3
:105AA000009003F053FF05462A460B46DE480C38AB
:105AB00002F0F0FE0220FFF767FD009003F046FFC2
:105AC00005462A460B46D84802F0E4FE0320FFF7BD
:105AD0005BFD054601F050F80190019803F036FF98
