:020000040800F2
:10000000380B0020990100086530000867300008AF
:1000100000000000000000000000000000000000E0
:100020000000000000000000000000006B3000082D
:1000300000000000000000006D3000086F30000874
:10004000AB010008AB010008AB010008AB010008E0
:10005000AB010008AB010008AB010008BD3200088D
:10006000AB010008AB010008AB010008AB010008C0
:10007000AB010008AB010008AB010008AB010008B0
:10008000AB010008A532000800000000AB01000829
:10009000AB010008AB010008AB010008AB01000890
:1000A000AB010008AB010008AB0100089D3200085D
:1000B000AB01000800000000AB01000800000000D8
:1000C00000F002F800F059F80CA030C808382418E5
:1000D0002D18A246671EAB4654465D46AC4201D180
:1000E00000F04BF87E460F3E0FCCB6460126334259
:1000F00000D0FB1AA246AB463343184724C9000080
:1001000044C900000023002400250026103A01D332
:1001100078C1FBD8520700D330C100D50B607047BF
:1001200010B5662902D10AF0EFFA10BD642902D198
:1001300006F0DAFF10BD782902D107F00BF810BDE8
:10014000732902D108F0F6FB10BD002010BD1FB5C9
:100150000098019908F0F7F808F066FD0400002007
:1001600000210AF07BF8401C6060002000210AF0AA
:100170008BF8E0601FBD10B510BD09F07BF911468A
:10018000FFF7E5FF03F0F4F809F00AFC03B4FFF70A
:10019000F2FF03BC02F061FE0748804707480047B2
:1001A000FEE7FEE7FEE7FEE7FEE7FEE70448054957
:1001B000054A064B7047000073310008C100000873
:1001C00038050020380B00203807002038070020B1
:1001D00010B504460920C006844209D10121480413
:1001E00000F033FC00210120400400F02EFC30E040
:1001F0006E48844208D10121000200F026FC002153
:10020000200200F022FC24E06948844208D1012148
:10021000000200F01AFC0021200200F016FC18E099
:100220006448844209D10121080500F00EFC002138
:100230000120000500F009FC0BE05F48844208D172
:100240000121880500F001FC00210120800500F05B
:10025000FCFB10BDF0B50A4600210023002400BFBE
:100260003DE001258D402B4615681D402C469C42E3
:1002700034D11579012D02D01579022D16D185685A
:100280004F000326BE40B543856055794E00B5400A
:10029000866835438560858801268E40B543858014
:1002A000858896798E40B6B23543858005684F00C3
:1002B0000326BE40B543056015794E00B54006687B
:1002C00035430560C5684F000326BE40B543C56091
:1002D000D5794E00B540C6683543C560491C102924
:1002E000BFD3F0BD35490160002101710221417188
:1002F00000218171C171704708B50122120400927A
:10030000009A0A430092009AC261C161009AC261D8
:10031000C2690092C269009208BD02460020138A99
:100320000B40002B01D0012000E000207047014667
:10033000088A704702460020938A0B40002B01D0A8
:10034000012000E0002070470146888A70478161E3
:10035000704701857047002A01D0816100E0018566
:10036000704781827047F0B5002300244D07EE0EE0
:100370001546B5402B46CD10AE0005462035AD598B
:100380004E07F70E0F26BE40B543CE10B600074607
:100390002037BD51CD10AE003D46AD591D432C4612
:1003A000CD10AD003E467451F0BD00000004004881
:1003B00000080048000C004800140048FFFF00003F
:1003C00010B50121080700F05CFB002101200007A7
:1003D00000F057FB10BD002807D046490968FF22EE
:1003E00001321143434A116006E042490968FF2285
:1003F000013291433F4A11607047014600203D4A57
:100400001068E02302469A43104602460A4310460B
:10041000384A10607047002806D036490968102213
:100420001143344A116005E03249096810229143B2
:10043000304A11607047002905D02E4A52680243A5
:100440002C4B5A6004E02B4A52688243294B5A6075
:1004500070472949096904229143274A11610128FB
:1004600001D130BF00E020BF704710B50246002028
:10047000204B1868800880000346134318461D4B24
:1004800018601D4B1B69042423431B4C2361012965
:1004900001D130BF00E020BF174B1B690424A343E8
:1004A000154C236110BD134800680421084311490D
:1004B000086008460068022108430E4908600E489B
:1004C0000069042108430C49086130BF70470146A8
:1004D0000020084A52680A40002A01D0012000E0AA
:1004E000002070470349096882001143014A1160E6
:1004F000704700000070004000ED00E0FD4800681B
:1005000001210843FB49086008464068FA49084051
:10051000F849486008460068F8490840F54908600D
:1005200008460068012189048843F24908600846AA
:1005300040683F2109048843EE4948600846C06A84
:1005400000090001C8620846006BFF21543188434E
:10055000E84908630846406B4008400048630020B3
:10056000886070470021E34A917011468870704797
:1005700010B502460021002300205111002902D1AC
:10058000DC4C23680BE0012902D1DA4C236A06E037
:10059000022902D1D74C636A01E0D64C636BD106C5
:1005A000C90E01248C401C40002C01D0012000E029
:1005B000002010BD38B5002000900024002500BFA9
:1005C0001120FFF7D5FF05460098401C009005213B
:1005D00009020098884201D0002DF1D01120FFF7C8
:1005E000C7FF002801D0012400E00024204638BDC8
:1005F00001460020BF4A1068F82302469A4310467D
:10060000CA001043BB4A10607047002806D0B949A1
:10061000096801221143B74A116005E0B54909682C
:1006200049084900B34A1160704701460020B14AA9
:10063000506BF82302469A431046CA001043AD4A55
:1006400050637047002806D0AA49496B0122114324
:10065000A84A516305E0A749496B49084900A54AE2
:1006600051637047002806D0A249496B0422914388
:10067000A04A516305E09F49496B042211439D4AFA
:10068000516370479B49096A49084900994A1162B8
:100690001146096A04229143964A11621146096A79
:1006A0000143116270479349096A18229143914AA4
:1006B00011621146096A014311627047002806D091
:1006C0008C49496A012211438A4A516205E08949ED
:1006D000496A49084900874A51627047854A526809
:1006E0003D231B049A43834B5A601A4652680346C3
:1006F0000B431A437F4B5A607047002807D07D494F
:1007000009680122120611437A4A116006E079490C
:100710000968012212069143764A1160704701462A
:100720000020744AD06A0009000102460A431046BC
:10073000704AD0627047002807D06E4909680122CC
:10074000D20411436B4A116006E06A49096801222C
:10075000D2049143674A116070476649C871704777
:1007600001460020634A50688008800002460A4320
:100770001046604A506070475E4840680C2108404F
:100780007047014600205B4A5068F02302469A43B6
:10079000104602460A431046564A506070470146CA
:1007A0000020544A506807231B0202469A43104611
:1007B00002460A4310464F4A506070474D49496807
:1007C0000122920391434B4A51601146496882B21B
:1007D0001143484A51601146096B92159143454AAD
:1007E00011631146096B020C1143424A11637047B1
:1007F0004049096B402291433E4A11631146096BFF
:100800000143116370473B49096B10229143394AF8
:1008100011631146096B0143116370473549096B38
:1008200089088900334A11631146096B014311633A
:100830007047FEB504460025002600200190009078
:1008400000272C4840680C2108400546002D04D0A4
:10085000042D05D0082D28D105E02948206027E087
:100860002748206024E0234840680F21890408407D
:100870000646204840680121090408400190B00C58
:10088000861C0198002803D11E48704320600BE0AD
:100890001848C06A0007000F401C009018480099D3
:1008A00006F0FEFD7043206002E01548206000BFA6
:1008B00000BF10484068F021084005462D09124845
:1008C000475D2068F84060600A48406807210902D7
:1008D000084005462D0A0C48475D6068F840A06056
:1008E0000448006BFF2101310840884210D00748BE
:1008F000E0601BE0001002400CB8FFF8FFFFF6FEBE
:1009000000127A0000093D0000000020809FD50001
:1009100075484068012189030840884203D0A068D7
:100920004008E06002E0A0688008E0606E48006B6C
:1009300040210840402802D06C48206102E001209C
:10094000C00320616848006B10210840102802D0C5
:100950006748606101E0206860616348006B800760
:10096000800F002802D1A068A06119E05E48006BEA
:100970008007800F012802D12068A06110E05A484A
:10098000006B8007800F022802D18003A06107E07E
:100990005548006B8007800F032801D15448A0619F
:1009A000FEBD5149096A01434F4A11627047002850
:1009B00007D04D49096A0122D20311434A4A116204
:1009C00006E04949096A0122D2039143464A11626D
:1009D0007047002807D04449096A012212041143D4
:1009E000414A116206E04049096A0122120491431A
:1009F0003D4A11627047002905D03B4A52690243C3
:100A0000394B5A6104E0384A52698243364B5A6185
:100A10007047002905D0344A92690243324B9A61EB
:100A200004E0314A926982432F4B9A617047002952
:100A300005D02D4AD26902432B4BDA6104E02A4AE1
:100A4000D2698243284BDA617047002905D0264AD3
:100A5000926A0243244B9A6204E0234A926A8243D8
:100A6000214B9A627047002905D01F4AD268024381
:100A70001D4BDA6004E01C4AD26882431A4BDA60EC
:100A80007047002905D0184A12690243164B1A61B3
:100A900004E0154A12698243134B1A61704700291A
:100AA00005D0114A527A02430F4B5A7204E00E4AA3
:100AB000527A82430C4B5A7270470B48406A0121AC
:100AC0000906084308494862704701460020064A63
:100AD00092680A40002A01D0012000E000207047FF
:100AE0000149887270470000001002401280000027
:100AF00000127A0010B50446FE48844208D1012154
:100B0000C014FFF7B0FF0021E014FFF7ACFF56E080
:100B100001208007844208D101210846FFF7B1FF78
:100B200000210120FFF7ADFF49E0F348844208D1DE
:100B300001210220FFF7A5FF00210220FFF7A1FFFE
:100B40003DE0EE48844208D101211020FFF799FFD3
:100B500000211020FFF795FF31E0E948844208D1D9
:100B600001218015FFF78DFF0021A015FFF789FFF8
:100B700025E0E448844209D101210804FFF773FF0E
:100B8000002101200004FFF76EFF18E0DE488442D8
:100B900009D101214804FFF766FF0021012040042C
:100BA000FFF761FF0BE0D948844208D10121880496
:100BB000FFF759FF002101208004FFF754FF10BD0B
:100BC00000220288CB4B984206D001239B07984213
:100BD00002D0C94B984203D1CD4B1A404B881A43DF
:100BE000C64B984203D0CB4B1A400B891A43028064
:100BF0004B68C3620B880385BE4B984208D0C14B3B
:100C0000984205D0C04B984202D0C04B984201D1C7
:100C10008B7A03860123838270470021C943416098
:100C200000210180018141808172704701858282AB
:100C300070470A4600210188B54B19400B46134303
:100C400019460180704741627047C1627047014692
:100C5000486A70470146088D7047002904D0028811
:100C600002231A43028004E00288A94B6E331A4023
:100C700002807047002904D0028804231A430280AE
:100C800004E00288A24B6C331A40028070470029AE
:100C900004D0028880231A43028004E002889C4B1F
:100CA000103B1A40028070470288994B68331A4003
:100CB000028002880A43028070470288954B1A40DE
:100CC000028002880A4302807047002904D002880B
:100CD00001231A43028004E002888D4B6F331A40CF
:100CE000028070470A884B881A438B881A43CB8846
:100CF0001A430B891A434B891A438B891A4344239D
:100D00001A5270470021018041808180C180018199
:100D1000418181817047002907D04422125A012362
:100D2000DB031A4344231A5205E04422125A5304A7
:100D30005B0C44221352704770B50024002200233C
:100D4000058C734E6F3635400584028C8388048B86
:100D50006F4D2C40B51E2C400D882C43751E2A402B
:100D60008D892A434D882A43624DA84208D0654D9B
:100D7000A84205D0644DA84202D0644DA84212D1C9
:100D8000634D68352A40CD892A43614D6C352A4030
:100D90008D882A435E4D903D2B405F4D2B400D8A40
:100DA0002B434D8A2B43838004838D6845630284E3
:100DB00070BD70B5002400220023058C544E6036AF
:100DC00035400584028C8388048B544D2C40514D52
:100DD0002C400D782D062D0C2C434D4D50352A40BE
:100DE0008D892D052D0C2A434D882D052D0C2A4368
:100DF000404DA84219D1464D103D2A40CD892D05C0
:100E00002D0C2A43424D30352A408D882D052D0C5E
:100E10002A43434D2B40434D2B400D8AAD042D0CEE
:100E20002B434D8AAD042D0C2B43838004838D68A6
:100E30008563028470BD70B5002400220023058CF8
:100E4000334E903E35400584028C8388848B304D30
:100E50002C402F4D6D352C400D882C432E4D2A40B3
:100E60000D7B2D062D0C2A438D782D062D0C2A4343
:100E7000204DA84217D12B4D2A408D7B2D062D0CDD
:100E80002A43274D2A400D792D062D0C2A43264D45
:100E90002B40264D2B400D8A2D052D0C2B434D8AC2
:100EA0002D052D0C2B43838084838D68C5630284BC
:100EB00070BD70B5002200230024058C1A4E354009
:100EC0000584038C8488828B144D2A40114D2A405E
:100ED0000D782D062D0C2A43144D2B400D7B2D072C
:100EE0002D0C2B438D782D072D0C2B43014DA84243
:100EF00024D11DE0002C01400004004000100040FF
:100F000000200040004001400044014000480140F2
:100F10008FFF0000FFFC0000FFFD0000FF8F0000BE
:100F2000FFFB0000FFF70000FFEF0000FFDF000005
:100F3000FC4D2C400D8AAD052D0C2C438480828302
:100F40008D680564038470BD00210180418081802B
:100F500081608181C18101824182704770B5034601
:100F6000002000241846183001258D40ACB21D8C9D
:100F7000A5431D84002901D0082909D14D10281846
:100F800005687026B54305600568154305600DE0EA
:100F90000D1F2D046D0C2818056807263603B54370
:100FA000056005681606360C3543056070BD416363
:100FB000704781637047C1637047016470470A4698
:100FC0000021018BD84B19400B461343194601836E
:100FD00070470A460021018BD44B194013061B0CA5
:100FE0001943018370470A460021818BCE4B19407B
:100FF0000B4613431946818370470A460021818BB3
:10100000CA4B194013061B0C1943818370470029F2
:1010100004D0828801231A43828004E08288C24B74
:101020006F331A40828070470A460021018BBE4B05
:10103000683319400B4613431946018370470A462B
:101040000021018BBA4B194013061B0C1943018375
:1010500070470A460021818BB34B683319400B4619
:1010600013431946818370470A460021818BB04B98
:10107000194013061B0C1943818370470A4600214F
:10108000018BA94B6C3319400B461343194601835E
:1010900070470A460021018BA64B194013061B0C12
:1010A0001943018370470A460021818B9E4B6C33A4
:1010B00019400B4613431946818370470A460021A5
:1010C000818B9C4B194013061B0C1943818370477D
:1010D0000A460021018B944B103B19400B461343E9
:1010E0001946018370470A460021018B4904490CC7
:1010F00013061B0C1943018370470A460021818B9C
:10110000894B103B19400B461343194681837047A6
:101110000A460021818B4904490C13061B0C194314
:10112000818370470A460021018C7F4B6E33194042
:101130000B4613431946018470470A460021018C6F
:10114000794B683319400B461343194601847047A5
:101150000A460021018C744B5033194013051B0CB7
:101160001943018470470A460021018C6E4B103BE5
:10117000194013051B0C1943018470470A460021CE
:10118000018C6D4B194013061B0C194301847047E9
:101190000A460021018C664B194013061B0C1943AB
:1011A000018470470A460021018C644B19401307E3
:1011B0001B0C19430184704702895B4B68331A404A
:1011C000028102890A430281704730B5002301245D
:1011D0008C40A3B2048C9C430484048C15468D403F
:1011E000ADB22C43048430BD30B5002304248C40C0
:1011F000A3B2048C9C430484048C15468D40ADB28C
:101200002C43048430BD002904D0828804231A436F
:10121000828004E08288444B6C331A40828070479D
:10122000828B474B1A408283828B0B061B0C1A431E
:1012300082837047F8B50C460021002500260096F1
:10124000068C404F3E400684818B058C2607360C69
:1012500000963D4E31401606360C31431E07360CC3
:1012600031433A4E354001273F03009E3E4335430C
:1012700081830584F8BD828B2B4B64331A408283B3
:10128000828B0A4382837047F8B50C460021002503
:1012900000260096068C244F903F3E400684818BAA
:1012A000058C2606360C00961F4E833E31401E05E7
:1012B000360C16433143264E3540FF270137009E3A
:1012C0003E43354381830584F8BD028B1C4B1A4095
:1012D0000283028B0B061B0C1A4302837047F8B57E
:1012E0000C460021002500260096068C0E4F603724
:1012F0003E400684018B058C2605360C0096124E66
:1013000031401E07360C31431606360C3143064E6B
:10131000303E35401027009E3E433543018305840F
:10132000F8BD0000FFBF00008FFF0000FF8F00002E
:10133000FFF70000FFFB0000FFFD0000FFDF0000E3
:10134000FFF30000FFEF0000FF0C0000FF5F000054
:10135000FFF50000028BD84B1A400283028B0A4330
:1013600002837047F0B50C4600210025068CD24F51
:101370000B373E400684018B058CCF4EE73E314053
:101380001E05360C16433143CB4EB61C35400126A4
:101390002643354301830584F0BD70B505460C46F0
:1013A000208800280AD12389A28861882846FFF76F
:1013B000D9FFE1882846FFF7CDFF25E020880428E3
:1013C0000AD12389A28861882846FFF788FFE1882F
:1013D0002846FFF77AFF17E0208808280AD12389DA
:1013E000A28861882846FFF74FFFE1882846FFF76B
:1013F00042FF09E02389A28861882846FFF71AFF87
:10140000E1882846FFF70CFF70BD00210180418074
:10141000012181800021C18001817047F8B5054616
:101420000C46002601276088002801D1022600E032
:101430000026A088012801D1022700E0012720888A
:10144000002814D12389A28861882846FFF78AFFE3
:10145000E1882846FFF77EFF23893A463146284631
:10146000FFF73DFFE1882846FFF72FFF13E02389B0
:10147000A28861882846FFF732FFE1882846FFF7F7
:1014800024FF23893A4631462846FFF76BFFE1885F
:101490002846FFF75FFFF8BD0146486B70470146DD
:1014A000886B70470146C86B70470146086C7047EF
:1014B000002A03D083890B43838102E083898B4315
:1014C000838170478182704702460020138A0B4057
:1014D000002B01D0012000E000207047CA430282A7
:1014E000704730B50246002000230024158A0D40C5
:1014F0002B4695890D402C46002B03D0002C01D0A3
:10150000012000E0002030BDCA430282704710B5C0
:101510000B4613434824235210BD002A03D083896D
:101520000B43838102E083898B43838170470029C9
:1015300004D0828808231A43828004E082885E4BAC
:101540001B1D1A408280704701895B4A521D114061
:10155000018170470A4600210189574B643B1940BD
:101560000B46134319460181704730B504460D46BA
:1015700029462046FFF7EEFF2089072108432081F6
:1015800030BDF8B504460D4616461F46602D06D1FF
:101590003B46012231462046FFF7A1FE05E03B46CF
:1015A000012231462046FFF7DDFE29462046FFF79F
:1015B000D1FF2089072108432081F8BD30B50C46B2
:1015C00000210189C9B21D062D0C1543254329436D
:1015D000018130BDFFB505460E46174600243A4648
:1015E00031462846039BFFF7E9FF2C893248401D0E
:1015F000044007200443304864380440702004430A
:101600002C81FFBDF0B504460D4616461F463B46ED
:10161000324629462046FFF7D1FF20890121890360
:1016200008432081F0BD8288234B643B1A408280AE
:1016300082880A438280704702891F4B5B1D1A40D3
:10164000028102890A430281704702891A4B743B66
:101650001A40028102890A4302817047F0B50C46A4
:101660000021002500260189058B068C124F7F1D65
:1016700039400F4627433946104F3D40FF27023778
:101680003D430D4F9E3F3E401F053F0C17433E43D9
:10169000018105830684F0BD002904D0828880235F
:1016A0001A43828004E08288034B743B1A40828094
:1016B0007047502211527047F3FF0000FCFC0000FD
:1016C0003E483F490860002048608860C8603D4847
:1016D0004861704700213A498279002A35D00A468C
:1016E000126803689A430B461A600A4652680368F8
:1016F0009A430B465A60027951180A6803681A43E4
:101700000A602F4A926803689A432D4B9A601A46E2
:10171000D26803689A432A4BDA604279102A0CD1C6
:101720001A46926803681A43254B9A601A46D26893
:1017300003681A43224BDA600DE0214942795118BF
:101740000A6803681A430A6005E0027951180A68BA
:1017500003689A430A6070470021016001710C21FF
:101760004171002181717047154909690143144A8B
:101770001161704701460020114A52690A40002A4F
:1017800001D0012000E0002070470D4948617047FA
:101790000146002000220A4B1B680B401A46084BEA
:1017A0005B690B40002B03D0002A01D0012000E030
:1017B0000020704702494861704700000000940F04
:1017C00000040140FFFF6B0000218278002A27D02F
:1017D000274A03231B02D21803789B109B00D15881
:1017E00002789207D30EFF229A400B469343194684
:1017F00042789207120E03789B07DB0E9A40114342
:101800001B4A03231B02D21803789B109B00D15064
:101810000278D306DB0E01229A40154B1A6007E0CE
:101820000278D306DB0E01229A40114B80331A60F6
:101830007047002905D00F4A126902430D4B1A6107
:1018400004E00C4A126982430A4B1A61704704286B
:1018500006D10949096904221143074A116105E0CB
:101860000549096904229143034A11617047000048
:1018700000E100E000ED00E000E000E03A48006830
:101880008007800F384908600020886000213648B2
:10189000C160016141618069FF2101310843324922
:1018A00088617047014600202F4A10688008800038
:1018B00002460A4310462C4A10607047002905D0A2
:1018C000294A12680243284B1A6004E0264A12682B
:1018D0008243254B1A607047002905D0224A1268BE
:1018E0000243214B1A6004E01F4A126882431E4BD8
:1018F0001A60704730B500228B071C0F0F23A340DE
:101900001A46194B08338C10A4001B599343164CEC
:1019100008348D10AD00635123468C10A4001B5970
:101920008C07250F0446AC4023430F4C08348D1020
:10193000AD00635130BD0C49896901430A4A916188
:10194000704701460020084A9269FF2301331A407C
:10195000002A01D0012000E0002070470249896977
:101960000143014A916170470000014010B50446EF
:10197000F648844209D101218803FFF774F8002159
:1019800001208003FFF76FF80BE0F148844208D193
:1019900001214804FFF775F8002101204004FFF7FA
:1019A00070F810BDF0B589B004460D460027002040
:1019B00008900026206840084000206066680321E7
:1019C0000903304688430646A868064366602668D1
:1019D000E0480640E9686868084329690843064307
:1019E0002660A668032109023046884306466869D6
:1019F0000643A66001A8FEF71CFFD448844202D12A
:101A00000798089001E00398089020680121C90315
:101A1000084000280CD02968089A500005F040FDC5
:101A200007462968089A500005F03AFD0E4609E07D
:101A30002968089805F034FD07462968089805F0DC
:101A40002FFD0E4628684008B04200D87F1C206851
:101A50000121C9030840002806D03807460F384640
:101A6000BD49084030430746A78109B0F0BD4B216E
:101A7000C9010160002141608160C1600C210161E8
:101A800000214161704710B5002242680F242402F2
:101A90001346A3431A464C680B6823438C682343C0
:101AA000CC6823431A43426010BD002101604160AD
:101AB0008160C1607047002904D0026801231A4385
:101AC000026003E002685208520002607047002A78
:101AD00003D003680B43036002E003688B43036099
:101AE0007047002905D002680123DB031A43026016
:101AF00004E002680123DB039A4302607047002977
:101B000005D082680123DB021A43826004E0826808
:101B10000123DB029A4382607047002905D04268A6
:101B20000123DB041A43426004E042680123DB0422
:101B30009A4342607047002905D0426801239B0404
:101B40001A43426004E0426801239B049A434260C6
:101B50007047002A03D043680B43436002E04368A8
:101B60008B4343607047002905D042680123DB03A3
:101B70001A43426004E042680123DB039A43426057
:101B80007047002905D042680123DB051A434260F3
:101B900004E042680123DB059A43426070474269D2
:101BA000120E1206426142690A4342617047028A7C
:101BB000FF231B021A400282028A0A4302827047F4
:101BC000002904D0026802231A43026003E002687D
:101BD00002239A4302607047826803231B059A43DD
:101BE000826082680A4382607047002905D042689B
:101BF00001231B051A43426004E0426801231B05D0
:101C00009A4342607047426803235B059A434260EF
:101C100042680A4342607047CA05D20D0285704788
:101C20000146888CC005C00D704742681202120A36
:101C3000426042680B061A4342607047002905D093
:101C4000026801235B031A43026004E00268012377
:101C50005B039A430260704702680123DB029A43E8
:101C6000026002680A4302607047426810239A4388
:101C7000426042680A4342607047426820239A43A8
:101C8000426042680A4342607047002905D04268BA
:101C900001239B031A43426004E0426801239B0333
:101CA0009A4342607047002904D0826808231A438F
:101CB000826003E0826808239A4382607047028A48
:101CC000D2B20282028A0B021A43028270470029B2
:101CD00004D0826820231A43826003E082682023B4
:101CE0009A4382607047002904D0826810231A4307
:101CF000826003E0826810239A43826070478268A2
:101D000007235B049A43826082684B041A43826013
:101D1000704742691202120A426142690B061A4375
:101D200042617047826804239A43826082680A4352
:101D300082607047002904D0826802231A438260BF
:101D400003E0826802239A438260704700380140B2
:101D500000440040F3E9FFFFF0FF0000002905D038
:101D6000826801239B031A43826004E08268012396
:101D70009B039A438260704782680123DB039A4386
:101D8000826082680A438260704702681F235B0595
:101D90009A43026002684B051A430260704702686A
:101DA0001F231B049A43026002680B041A4302605B
:101DB0007047002A03D083680B43836002E0836886
:101DC0008B4383607047826801235B039A43826080
:101DD00082680A4382607047F8B5034600240026F3
:101DE00000960025002018460E04340ECEB2009650
:101DF0000127009EB7403D46022C01D1001D02E0A4
:101E0000032C00D10830002A03D006682E43066058
:101E100002E00668AE430660F8BD002A03D0038BDB
:101E20000B43038302E0038B8B4303837047826879
:101E300001231B039A43826082680A4382607047D1
:101E400002460020D3690B40002B01D0012000E0A6
:101E5000002070470162704770B502460B460024AF
:101E60000021002500201E04350ED9B201268E4027
:101E70003146012D02D11668314006E0022D02D113
:101E80005668314001E0966831401C0C0126A6409E
:101E90003446D6693440002903D0002C01D00120FB
:101EA00000E0002070BD10B5002300220B0C0124BF
:101EB0009C402246026210BD10B50446B5488442DB
:101EC00007D101214015FEF7CEFD00216015FEF778
:101ED000CAFD10BD10B50022C268AF4B1A400C7984
:101EE00064030B6823438C682343CC6823430C6949
:101EF00023434C6923431A43C26010BD0021016093
:101F000001718160C160016141617047002904D0A5
:101F1000826801231A43826003E0826802231A4325
:101F200082607047002A03D003690B43036102E01B
:101F300003698B4303617047002905D0C268012300
:101F4000DB031A43C26004E0C2680123DB039A4347
:101F5000C2607047002905D0C26801239B031A4361
:101F6000C26004E0C26801239B039A43C2607047C9
:101F7000002905D0C2680123DB051A43C26004E0D2
:101F8000C2680123DB059A43C26070470B04134308
:101F90000362704710B50A460021C1681F24A406D9
:101FA0000B46A34319460B4613431946C16010BDA7
:101FB000002905D0C26801239B051A43C26004E0D2
:101FC000C26801239B059A43C2607047002807D06E
:101FD000724989680122D2051143704A916006E076
:101FE0006E4989680122D20591436C4A916070471D
:101FF000002807D069498968012292051143674A80
:10200000916006E065498968012292059143634A1F
:1020100091607047002807D0604989680122120644
:1020200011435E4A916006E05C498968012212060C
:1020300091435A4A9160704710B50B460021846A5B
:102040001C43846200BF0C4614432146416110BD0D
:10205000002905D0C26801235B031A43C26004E073
:10206000C26801235B039A43C2607047002905D010
:10207000C26801231B041A43C26004E0C268012342
:102080001B049A43C2607047002905D0C26801232F
:102090001B031A43C26004E0C26801231B039A4376
:1020A000C260704730B501460020002200238C68D2
:1020B0000125ED072C438C6000BF8C68E30FDB0724
:1020C000521C0F242403A24201D0002BF5D18C68AE
:1020D000E40FE407002C01D1086C00E0002030BDC3
:1020E0008168102211438160704781680422114386
:1020F000816070470146086C80B27047002904D0A7
:10210000C26801231A43C26003E0C2685208520049
:10211000C2607047C26802239A43C260C2680A4321
:10212000C2607047002A03D043680B43436002E05B
:1021300043688B434360704730B50246002000235C
:10214000012424060C40002C05D0946801252D069E
:10215000AC43234600E013681C460C40002C01D021
:10216000012000E0002030BD0160704710B502463C
:102170000020002354680C40234614680C40002CB7
:1021800003D0002B01D0012000E0002010BD016031
:10219000704700000024014003D2FFFF00270140E8
:1021A00001460020FE4A10684008400002460A43EB
:1021B0001046FB4A10607047002806D0F8490968AD
:1021C00010221143F64A116005E0F5490968102212
:1021D0009143F34A116070470020F14909682022B9
:1021E0001140002901D0012000E000207047EC4898
:1021F000006980210840002804D0EA48E849486086
:10220000E94848607047E648006980210843E4498E
:10221000086170470420E249C968C907C90F00294D
:1022200001D0012010E0DE49C968102211400029C8
:1022300001D0022008E0DA49C968042211400029CF
:1022400001D0032000E00420704710B503460424A9
:10225000FFF7E0FF044603E0FFF7DCFF04465B1EE8
:10226000012C01D1002BF7D1002B00D105242046F1
:1022700010BD30B5044604250B200004FFF7E5FF30
:102280000546042D17D1C648006902210843C449F8
:10229000086108464461006940210843C04908615B
:1022A0000B200004FFF7D1FF0546BD48006902215D
:1022B0008843BB490861284630BD10B504240B2073
:1022C0000004FFF7C2FF0446042C16D1B44800698D
:1022D00004210843B24908610846006940210843C7
:1022E000AF4908610B200004FFF7AFFF0446AC487C
:1022F000006904218843AA490861204610BD78B5C9
:1023000006460C460425002000900B200004FFF731
:102310009CFF0546042D24D1A148006901210843F2
:102320009F49086134800B200004FFF78EFF0546AB
:10233000042D10D1B01C0090200C009908800B20B7
:102340000004FFF782FF05469548006940084000F9
:102350009349086105E092480069400840009049AF
:102360000861284678BD70B504460D4604260B204A
:102370000004FFF76AFF0646042E11D18848006961
:10238000012108438649086125800B200004FFF7DE
:102390005CFF0646824800694008400080490861A9
:1023A000304670BD7E48006901214902084000287E
:1023B00004D17C487A4988607B48886070477848B7
:1023C00000690121490288437549086170477448D2
:1023D00000690121490308437149086170470020E1
:1023E0006F49C96906221140002901D0012000E08F
:1023F0000020704730B5AA250424FFF7F0FF00281D
:1024000000D000250B200004FFF71FFF0446042C1A
:1024100036D16348006920210843614908610846B4
:102420000069402108435E4908610B200004FFF762
:102430000CFF0446042C1BD1594800692021884315
:10244000574908610846006910210843544908614A
:10245000564805800B200004FFF7F7FE0446052CC4
:102460000ED04F480069102188434D49086107E0AC
:10247000052C05D04A480069102188434849086165
:10248000204630BDF0B50446494E37460425E443A6
:10249000E6B2FF2000022040070A0B200004FFF7ED
:1024A000D4FE0546042D21D13D4800691021084382
:1024B0003B490861FF2E06D03C4806810B200004F2
:1024C000FFF7C3FE0546042D08D1FF2F06D037487D
:1024D00047810B200004FFF7B8FE0546052D05D007
:1024E0002F480069102188432D4908612846F0BD16
:1024F00030B5054604240B200004FFF7A6FE044671
:10250000042C36D12648006920210843244908615B
:102510000846006940210843214908610B20000456
:10252000FFF793FE0446042C1BD11D4800692021AF
:1025300088431B490861084600691021084318496F
:1025400008611A4805800B200004FFF77EFE044650
:10255000052C0ED0124800691021884310490861EB
:1025600007E0052C05D00E480069202188430C495E
:102570000861204630BDF0B505460E4617460424D6
:102580000B200004FFF761FE0446042C24D104480C
:10259000006910210843024908612846304309E0D8
:1025A0000020024023016745AB89EFCD00F8FF1FF3
:1025B000FFFF0000F82139430843714948800B2090
:1025C0000004FFF742FE0446052C05D06D48006963
:1025D000102188436B4908612046F0BD30B505469F
:1025E00004240B200004FFF730FE0446042C16D10F
:1025F000644800691021084362490861EF202843BC
:102600005F4948800B200004FFF71FFE0446052C9D
:1026100005D05C480069102188435A49086120466A
:1026200030BD30B5054604240B200004FFF70DFE35
:102630000446042C16D1534800691021084351491F
:102640000861DF2028434E4948800B200004FFF733
:10265000FCFD0446052C05D04A480069102188433A
:1026600048490861204630BD30B5054604240B209A
:102670000004FFF7EAFD0446042C16D14148006926
:10268000102108433F490861BF2028433C49488046
:102690000B200004FFF7D9FD0446052C05D039486E
:1026A00000691021884337490861204630BD30B5A4
:1026B000054604240B200004FFF7C7FD0446042C44
:1026C00016D130480069102108432E49086188203E
:1026D00028432B4948800B200004FFF7B6FD044631
:1026E000052C05D027480069102188432549086139
:1026F000204630BD70B505460E4604240B2000046C
:10270000FFF7A3FD0446042C13D11E4800691021D5
:1027100008431C4908612E800B200004FFF795FD3B
:102720000446052C05D01748006910218843154937
:102730000861204670BD1348C0690004000E704750
:102740001048006A7047002905D00E4A12690243FA
:102750000C4B1A6104E00B4A12698243094B1A615F
:10276000704701460020074AD2680A40002A01D07B
:10277000012000E0002070470249C8607047000057
:1027800000F8FF1F002002400F49086070470E4903
:10279000486070470C49886070470C480A490860D7
:1027A0007047094908617047094807490860704740
:1027B00001460020044AD2680A40002A01D00120C4
:1027C00000E000207047000000300040AAAA00008E
:1027D000CCCC0000FEB504460D460C206043F84901
:1027E0004018067A00200290019000270090002EE9
:1027F00034D10C206043401840680921C906884242
:1028000004D101214804FEF7F6F827E00C206043CC
:10281000EB4940184068EB49884204D1012100028D
:10282000FEF7E9F81AE00C206043E54940184068DB
:10283000E549884204D101210002FEF7DCF80DE0F1
:102840000C206043DE4940184068E049884204D1CA
:1028500001218805FEF7CFF800E0FEBD0C206043A3
:10286000D749085ADA49086003204871E807C00FC1
:1028700000282BD0002008712B0007F0DEFB0C2570
:1028800007250E251225082516251D2500BF002029
:10289000CF49C8710120029017E00220CC4908718D
:1028A00013E00320CA4908710FE00120C849C8712C
:1028B000002E00D1029008E00220C549C871002E08
:1028C00001D10120029000E000BF24E00120C049B6
:1028D00008710020C871A81E030007F0AEFB0906AE
:1028E0001A0B1A121A071A161A0000BF0120B8494B
:1028F00088710FE00220B649087100208871012715
:1029000008E00320B249087104E00020B049887152
:1029100000E000BF00BF0C216143A94A8918486844
:10292000AB49FDF797FC0C206043A54A801805725F
:102930000098002831D00A2C1FD00E2C0FD00F2C5D
:1029400029D10021A348FEF7C0F90021A148FEF7D4
:10295000E2F9002101204004FEF75BF81CE00021B1
:102960009D48FEF7B2F900219B48FEF7D4F90021FB
:1029700001208004FEF74DF80EE000219748FEF795
:10298000A4F900219548FEF7C6F900210120C002F4
:10299000FEF73FF800E000BF00BF002F78D0002016
:1029A0008F49088048807D21C9008E48006804F066
:1029B00077FD401E8A4948607D21C900894800682A
:1029C00004F06EFD401E81B20C2060437C4A8018EA
:1029D0004181002082490881887283498860602093
:1029E00008800120488004208880022088810020FF
:1029F000C881FF2001300882002048820A2C48D07C
:102A00000E2C23D00F2C66D101214804FEF701F8CB
:102A1000022208216B48FDF7A6FC71496D48FEF7BC
:102A2000CFF871496B48FEF787F908216948FEF72E
:102A3000FBFA00216748FEF737F901216548FEF7E8
:102A400044F901216348FEF766F945E00121880455
:102A5000FDF7DFFF022209215A48FDF784FC604997
:102A60005D48FEF7ADF860495B48FEF765F908215F
:102A70005948FEF7D9FA00215748FEF715F9012108
:102A80005548FEF722F901215348FEF744F923E0A7
:102A900023E00121C802FDF7BCFF02220D214948B5
:102AA000FDF761FC4E494D48FEF78AF84E494B4808
:102AB000FEF742F908214948FEF7B6FA00214748D7
:102AC000FEF7F2F801214548FEF7FFF801214348DF
:102AD000FEF721F900E000BF00BF00BFBDE670B502
:102AE00004460D4629462046FFF774FE70BD10B51A
:102AF0000C224243324C1219117210BD70B50446BB
:102B00000C2060432E494018067A002E03D1012183
:102B10002046FFF7E4FFF007C00F00280BD00C227F
:102B20006243274B995A0C226243D2185068FDF732
:102B3000F4FB05460AE00C226243214B995A0C2211
:102B40006243D2185068FDF7F5FB0546012D01D10F
:102B5000012070BD0020FCE770B504460D46012D34
:102B600009D10C226243164B995A0C226243D218A7
:102B70005068FDF7ECFB002D09D10C226243104B8D
:102B8000995A0C226243D2185068FDF7E2FB70BDDF
:102B9000F8B504460C20604309494018067A00271E
:102BA000012C23D0022C06D0082C24D10120084966
:102BB0000860012520E040200549086040251BE011
:102BC00014000020000400480008004800140048D9
:102BD000940100200044014000480140002C0140C5
:102BE00018030020F40100202403002080207E49E7
:102BF0000860802500E000BF00BF052E33D0012112
:102C00004802FDF706FF7948FFF756F97848FFF7C5
:102C100075F90820764908600120087101214004F7
:102C2000FDF7E9FE0320704908710020C8710920F2
:102C3000C006FDF70FFB6E496C48FFF74BF96B4878
:102C4000FFF730FA01216948FFF760F900BF6949D1
:102C50006648FFF771FA0028F9D005210C2060437F
:102C6000654A80180172072229466048FFF7E4F997
:102C70005E48FFF73AFA00BF04215C48FFF75CFAB0
:102C80000028F9D05948FFF735FA07465748FFF7AB
:102C900027FA3846F8BDF8B505460E460C206843BD
:102CA00055494018077A042F03D004212846FFF71E
:102CB00091FD3446514806800A2D04D00E2D05D0D2
:102CC0000F2D09D105E04E48446306E04D484463AA
:102CD00003E04D48446300E000BF00BFF8BD70B59D
:102CE00004460D460C20604343494018067A042EE2
:102CF00003D004212046FFF76DFD294643480068B4
:102D000004F0CEFB401E81B20C2060433A4A80188A
:102D10004181E01E030007F090F90D085B11195B7B
:102D20005B21293139424B535B000C20604332490F
:102D30004018408901218907C8624AE00C2060439D
:102D40002D49401840892F49C86242E00C20604359
:102D50002949401840892C49C8623AE00C20604358
:102D60002549401840892A49C86232E00C20604356
:102D70002149401840892249C8622AE00C2060435A
:102D80001D49401840892349C86222E00C20604355
:102D900019494018408901218907C86219E00C20AF
:102DA000604315494018408901218907C86210E035
:102DB0000C2060431049401840891249C86208E05D
:102DC0000C2060430C49401840890F49C86200E05C
:102DD00000BF00BF70BD10B50C224A43064BD4188B
:102DE0001CCC1CC00C3810BD9401002000240140F4
:102DF0003803002001000001140000201000002012
:102E0000002C01400048014000440140F401002032
:102E1000002000400004004070B5054600BF20219E
:102E20008348FFF70DF80028F9D08148FEF7F8FE37
:102E3000C4B2204670BD01460020C043704710B5A3
:102E4000044600BF80217A48FEF7FAFF0028F9D037
:102E5000A1B27748FEF7E0FE10BD00BFFEE71CB54B
:102E600001214804FDF7C7FD01218803FDF7D1FDCD
:102E7000012203210920C006FDF775FA0122022173
:102E80000920C006FDF76FFA012000900321684673
:102E900001710021C17169460920C006FDF7DAF908
:102EA0000C2000900321684641710221017100212C
:102EB00081710121C17169460920C006FDF7CAF977
:102EC0001CBD10B586B00446FFF7C9FF0094002072
:102ED00001900290039005900C200490694654489C
:102EE000FEF760FD012253495148FEF775FF0121AD
:102EF0004F48FEF7E0FD1B20012181404E4A116042
:102F000000BF06B010BD10B504462046FFF7D9FF3C
:102F10004A48046003210020FFF7E9FD0421012055
:102F2000FFF7E5FD10BD4648008870474548464913
:102F300008604649086000204149088044490880EB
:102F4000444908707047FF203D490988002917D07F
:102F50003D49096808783C490968491C3A4A1160AA
:102F600037490988491E364A11800021394A1170B3
:102F700035490A6838498A4202D93249324A1160D1
:102F80007047FF202E490988002902D02E49096880
:102F90000878704710B504463049204604F0D7F948
:102FA00010BD70B505462C4600BF2078641C2B4927
:102FB00004F0CDF920780028F7D170BD10B5044693
:102FC0002046FFF7EEFF0D20FFF7E4FF0A20FFF792
:102FD000E1FF10BD10B5044600BF80212048006805
:102FE000FEF72EFF0028F8D06106490E1C48006845
:102FF000FEF712FE0D20FFF7CDFF0A20FFF7CAFFF4
:1030000010BD10B5044600BF802115480068FEF7CA
:1030100017FF0028F8D06106490E11480068FEF736
:10302000FBFD0D20FFF7B6FF0A20FFF7B3FF10BD31
:10303000003801400501050000E100E0B401002076
:10304000E801002050030020E0010020E4010020FE
:10305000EA010020EC01002050040020AC01002017
:10306000F0010020704700BFFEE7704770470A4834
:103070000068401C0849086008480068401C07496F
:10308000086007480068002804D005480068401E12
:103090000349086070470000100300200802002068
:1030A000080300200CB500200190009073480068D0
:1030B0000121090408437149086000BF6F48006896
:1030C00001214904084000900198401C019000989B
:1030D000002804D10521090201988842EED16748F1
:1030E0000068012149040840002802D00120009016
:1030F00001E0002000900098012839D1112060499A
:1031000008605E4840685D4948600846406848601D
:10311000084640683F2109048843584948600846EA
:103120004068112109040843544948600846006872
:103130000121090608435149086000BF4F48006853
:103140000121490608400028F8D04C484068800812
:1031500080004A49486008464068022108434749C0
:10316000486000BF454840680C2108400828F9D154
:103170000CBD10B541480068012108433F49086073
:10318000084640683F4908403C4948600846006896
:103190003D49084039490860084600680121890412
:1031A000884336490860084640683F21090488433F
:1031B000324948600846C06A00090001C8620846F2
:1031C000006BFF21543188432C4908630846406B4B
:1031D00040084000486300208860FFF763FF10BD8F
:1031E000F8B50025002400260027244840680C215B
:1031F00008400546002D04D0042D06D0082D2AD104
:1032000007E022482249086029E020482049086058
:1032100025E01A4840680F218904084004461748F1
:1032200040680121090408400646A00C841C002EB9
:1032300004D118486043164908600BE00F48C06A83
:103240000007000F471C3946104804F029F9604375
:103250000F49086003E00D480D49086000BF00BF3A
:1032600006484068F021084000090B490D5C0848F9
:103270000068E84006490860F8BD00000010024000
:10328000002002400CB8FFF8FFFFF6FE00127A00A3
:10329000F401002000093D00F801002010B501F004
:1032A000AAFC10BD10B501219948FEF71AF90128B2
:1032B00003D101219648FEF727F910BD10B5012072
:1032C0000003FEF765FA002808D092480088401CE9
:1032D0009049088001200003FEF76CFA012080036A
:1032E000FEF756FA002808D08B480088401C8A490F
:1032F000088001208003FEF75DFA10BD10B55D2047
:10330000FDF736F9012801D1FDF7D7FBFFF745FAA4
:1033100010BD10B5FDF7F2F80120FDF776F900BFFA
:103320000120FDF725F90028FAD00020FDF729FA41
:103330000020FDF734FA0120FEF732FF0120FEF7EE
:103340003BFF0521C9040020FDF7C8F90120FDF766
:10335000D4F900BF1920FDF70BF90028FAD002209C
:10336000FDF7FEF900BFFDF707FA0828FBD110BDF5
:103370001CB5002001900090FFF7CBFF7D21C90014
:103380006648006804F08CF80446601E6449884270
:1033900000D90CE0601E634948610321081F00F05A
:1033A0007FF800205F4988610720086100BF322054
:1033B00003F0ACF801F0BCF800F038FC01F095F82F
:1033C00001F07AFB01F0DFFB01F0D7F802F0F5F92C
:1033D00055480078002806D0012810D002280FD0C8
:1033E000032814D10FE001F0BFF901F01AFA01F03F
:1033F00091FA322003F08AF801F047F907E006E07D
:1034000001F003FB03E0012000F00AFC00BF00BF55
:1034100001F009F900F0C4FD002801D100F0DDFF42
:1034200001F031FB3BE0FFF769FF00F054FC3E4840
:103430000078002802D101F06BFE05E03A480078E0
:10344000022801D103F07FFA02F0E7FE0199401A49
:1034500000900098642811D302F0DFFE01903348F9
:103460000078002801D002F035FC2F4800780028B1
:1034700004D1012000F036FD2D4908802D48006858
:103480000221084000280AD12A480068802108400B
:10349000002802D002F02FFB01E002F052FDC2E74B
:1034A00010B5002819DA244A03071B0F083B9B08B4
:1034B0009B00D2588307DC0EFF23A3409A438B075F
:1034C0001B0E8407E40EA3401A431B4B0407240F72
:1034D000083CA408A4001A5118E0184A03231B0250
:1034E000D21883089B00D2588307DC0EFF23A34029
:1034F0009A438B071B0E8407E40EA3401A430F4B1D
:10350000032424021B198408A4001A5110BD0000D2
:10351000001000400003002002030020F4010020FE
:10352000FFFFFF0000E000E0120200201102002077
:10353000320200200C0200201CED00E000E100E05F
:1035400010B50446F948844209D101214805FDF728
:1035500098FA002101204005FDF793FA08E00121C7
:103560008805FDF78EFA002101208005FDF789FA14
:1035700010BD10B50A46002103685B085B000360BC
:103580000168EB4B194094682402536823431943A4
:1035900001600F2424061368A34303610368012418
:1035A0002343036000218160C16014699369234350
:1035B0001946816083680124E40323438360D16852
:1035C00003680B4303604168DA4B194053691943A0
:1035D000416010BD0021016041608160C1600161F6
:1035E0000121C9034161002181617047002904D094
:1035F000026801231A43026003E002685208520085
:10360000026070470168490849000160016801686B
:103610000122114301607047002A03D003680B4365
:10362000036002E003688B4303607047002905D004
:10363000026801235B049A43026004E002680123EC
:103640005B041A4302607047002905D00268012319
:103650009B041A43026004E0026801239B049A431E
:1036600002607047002905D0C2680123DB031A43BA
:10367000C26004E0C2680123DB039A43C260704762
:1036800070B50B460021C168AB4C2140FE241C40A4
:1036900015020726360235402C432143C16070BD18
:1036A000002905D002680123DB041A43026004E00C
:1036B00002680123DB049A4302607047002905D0A9
:1036C000026801231B041A43026004E0026801231C
:1036D0001B049A43026070470A4600214168890A28
:1036E000890293059B0D194341607047002905D05D
:1036F00042680123DB021A43426004E0426801236E
:10370000DB029A4342607047002905D042680123DA
:103710005B061A43426004E0426801235B069A4359
:1037200042607047002905D0426801231B061A43F6
:10373000426004E0426801231B069A4342607047DE
:1037400010B50A4600214168FF2424040B46A34318
:103750001946130423401943416010BD002905D1C7
:10376000426801239B029A43426004E042680123BD
:103770009B021A4342607047002905D0426801232A
:103780005B031A43426004E0426801235B039A43EF
:1037900042607047002905D0426801239B031A4309
:1037A000426004E0426801239B039A4342607047F1
:1037B000002905D0426801231B031A43426004E03C
:1037C000426801231B039A4342607047002905D0D9
:1037D00042680123DB039A43426004E0426801230C
:1037E000DB031A4342607047014688697F22520416
:1037F0001040000C704710B50146002200208B6974
:103800000124240423401A46002A00D101E00120AB
:10381000800210BDF0B50C4600214168474D29409B
:10382000A505AD0D1604FF273F043E4035431D435B
:10383000059E354329434160F0BD002905D002684B
:1038400001239B051A43026004E0026801239B05E3
:103850009A4302607047002905D042690123DB03C7
:103860001A43426104E042690123DB039A43426147
:103870007047002905D042690123DB071A434261E2
:1038800003E042695200520842617047002905D0A6
:10389000426901231B031A43426104E04269012388
:1038A0001B039A43426170470A4600214169090B94
:1038B000090313051B0D19434161704710B50A46F2
:1038C000002141691E4B194013041D4CE443234061
:1038D0001943416110BD002905D002680123DB05B1
:1038E0001A43026004E002680123DB059A43026088
:1038F0007047002905D0426801239B061A434260A5
:1039000004E0426801239B069A43426070470146E7
:10391000086AC0B2704708B50246002000900092C5
:103920000098401800900098006808BD00540040BE
:10393000FFE0CF00FF7FFF0701F8FFFF009800FCCA
:10394000FFFF00F0816270470146486AC0B27047CD
:10395000002A03D003680B43036002E003688B4333
:103960000360704710B502460023002093691C468F
:103970000C402346002B01D0012000E0002010BDA8
:10398000C161704770B502460023002000243F2526
:103990002D020D40002D04D01568802635402C46A0
:1039A0000BE0C0250D40002D04D0156840263540A1
:1039B0002C4602E015680D402C4693691D460D40CB
:1039C0002B46002B03D0002C01D0012000E000206A
:1039D00070BDC1617047000000B589B00020FCF7E0
:1039E00012FF01214805FDF722F801218804FDF7A7
:1039F00002F8012206218748FCF7B5FC01220721C5
:103A00008448FCF7B0FC07A8FCF76CFC022108A86E
:103A10000170C0200790012108A8C17081700321A6
:103A2000417007A97B48FCF715FC6846FFF7D2FDFB
:103A30000020059006900190029003900490764833
:103A4000009069467548FFF794FD01217348FFF720
:103A5000CDFD09B000BDF8B50546FF2601204003A5
:103A600000230122D72100906C48FFF7D3FE02F01B
:103A7000D4FB044609E002F0D0FB001B022804D965
:103A800020206649C8610020F8BD64488069022191
:103A900008400028EFD029466048FFF753FF02F0A6
:103AA000BCFB044609E002F0B8FB001B022804D965
:103AB00020205A49C8610020E6E758488069402123
:103AC00008400028EFD009208002CB040122D72132
:103AD00000905248FFF79EFE02F09FFB044609E06B
:103AE00002F09BFB001B022804D920204B49C8612F
:103AF0000020C9E749488069042108400028EFD028
:103B00004648FFF721FF064602F087FB044609E01E
:103B100002F083FB001B022804D920203F49C86122
:103B20000020B1E73D488069202108400028EFD0FF
:103B300020203A49C8613046A6E7F8B505460E464A
:103B400001204003C3020122D72100903348FFF730
:103B500061FE02F062FB044608E002F05EFB001B1F
:103B6000022803D920202D49C861F8BD2B4880695F
:103B7000022108400028F0D029462848FFF7E2FE3D
:103B800002F04BFB044608E002F047FB001B022852
:103B900003D920202149C861E7E7204880698021B6
:103BA00008400028F0D001211C48FFF7ADFD02F0CD
:103BB00034FB044608E002F030FB001B022803D966
:103BC00020201649C861D0E71448806902210840C6
:103BD0000028F0D031461148FFF7B4FE00210F480D
:103BE000FFF7A0FD02F019FB044608E002F015FB08
:103BF000001B022803D920200849C861B5E70748FF
:103C00008069202108400028F0D020200349C861A5
:103C100000BFAAE7000400481210730000540040DF
:103C2000FE4909680143FD4A1160704700B5042050
:103C3000FFF7F6FF8020FFF7F3FF00BDF7490968A3
:103C40008143F64A1160704770B50446002506E0CE
:103C5000A168485D03F0C7F9A16848556D1CA089AB
:103C6000A842F5DC70BD70B505460C46284603F049
:103C70007BFB86B23146284602F0B0FAA04201D161
:103C8000012070BD0020FCE770B5CCB005460C46A5
:103C90001DE0601E80B20446285C2A2817D1224607
:103CA000294601A803F082FB002001A90855611CE8
:103CB000681803F03FFBC6B2314601A8FFF7D3FFF7
:103CC000002802D001204CB070BD0020FBE7002C82
:103CD000DFD10020F7E7F8B5D1480078002835D1CA
:103CE000D0480078002806D001281BD0022822D016
:103CF00003282AD128E0CC480068CC49884202D960
:103D0000002001F04FFA01F0A1F8074604F0AAF9EB
:103D10000446C74AC74B06F0FFFA02D2002002F061
:103D200007FA12E0C0480068C049884202D9002062
:103D300001F038FA09E0BC4800684B2109018842CB
:103D400001D902F0F4FD00E000BF00BFBA48807B5B
:103D5000002800D1F8BDB8498868B8A103F05CFB21
:103D6000002806D0B4498868B6A103F055FB0028A6
:103D700003D10120AA4908700EE0AF4A91899068EA
:103D8000FFF782FF002807D1A5480078002803D15B
:103D9000A94800F027FFDDE7A7498868ABA103F039
:103DA000DBFA0646AA49304603F036FB002803D06A
:103DB000A14800F017FFCDE79F48FFF745FF99485E
:103DC0000078002806D001280AD002280ED0032847
:103DD00018D111E002F020FE00209349086011E0A4
:103DE00002F0F6FF0020904908600BE002F0D8FCDA
:103DF00000208D49086005E002F0ECFF00208A49B0
:103E0000086000BF00BF8C4800F0ECFE00BFA1E7D7
:103E10009048704770B59048046845688F48604086
:103E2000A84207D1204604F059FA06468C4904F00E
:103E300043F970BD0020FCE7F8B5054688492846DF
:103E400006F06AFB074604F0E7F90446FEF7CFF9EF
:103E50003520FEF791FC8048FEF70BFA21467E489C
:103E6000FEF74DFA7D48604001467B48001DFEF795
:103E700046FAFEF7C8F978480668A64201D1012043
:103E8000F8BD0020FCE770B50446204603F06CFA4C
:103E900086B2002512E0701E205C0D2804D1701E31
:103EA000002801DD012070BD605D302802DB605D0F
:103EB000392801DD0020F6E7681C85B2B542EADB4F
:103EC0000120F0E7704770B50446002506E0A168C0
:103ED000485D03F07BF8A16848556D1CA089A84295
:103EE000F5DC70BD10B586B004465E48FDF7E4FF12
:103EF0006846FEF703F8002000900120694608712B
:103F000000200290049005905648FDF7E3FF002C36
:103F100005D1072201215348FEF78EF81AE0012C43
:103F200005D1072202214F48FEF786F812E0022C45
:103F300005D1072240214B48FEF77EF80AE0032C0A
:103F400005D1072280214748FEF776F802E00020DD
:103F500006B010BD4348FEF7A5F801214148FDF722
:103F6000D5FF00BF01213F48FEF7E6F80028F9D051
:103F70003C48FEF7BAF800BF04213A48FEF7DCF8E7
:103F80000028F9D03748FEF7B5F800BF04213548BE
:103F9000FEF7D2F80028F9D03248FEF7ABF8D7E7A1
:103FA0001CB501214804FCF726FD0120C003009048
:103FB000002168460171C17169460920C006FCF7FD
:103FC00049F90121C9030920C006FCF7A6F91CBD67
:103FD00010B5012149022448FCF7BBF9012002F089
:103FE00095FA04212048FCF798F9012801D12020F6
:103FF00010BD0020FCE710B501210920C006FCF728
:10400000A8F9012002F082FA04210920C006FCF779
:1040100084F901282AD1102010BD00000C020020D4
:10402000100200201202002008020020E093040089
:104030009A9999999999B93F1402002031204445E1
:10404000425547003120646562756700200000001A
:1040500053A70008ACF7FF1F00FC03087856341282
:104060000000C8420024014000040048002010BDA8
:10407000F0B589B000250026002700240520079010
:1040800032200690022001F03BFA04460494059485
:1040900071E0002008901BE0032001F031FA29466E
:1040A000039006F09FF90546042001F029FA3146F5
:1040B000039006F097F90646052001F021FA3946EB
:1040C000039006F08FF907460898401CC0B208908C
:1040D00008980528E0DBD949284603F0EDFF039056
:1040E00002F089F80546D549304603F0E5FF039014
:1040F00002F081F80646D149384603F0DDFF03900F
:1041000002F079F80746CE49284606F0DBF932D8A6
:10411000CB49304606F0D6F92DD8CA49384606F0C4
:10412000D1F928D8C849384606F04EFA23D80220DB
:1041300001F0E6F904462146059806F0C3F900D2DD
:1041400005942146049806F03FFA00D2049404999D
:10415000059806F071FA009002F04DF8019003F016
:1041600081FF0022B94B0391029006F007F902D2B9
:10417000002009B0F0BD0698411EC9B20691002882
:1041800087D10120F5E770B502F047F884B2002529
:10419000AF48006802210840002810D10BE002F06F
:1041A0003CF8001B7D214901884201D9002070BDE7
:1041B000FFF75EFF0546002DF1D00820F7E700204D
:1041C000F5E7F8B5002500260027A1480068022180
:1041D000084000284DD1002419E0032001F090F997
:1041E0002946009006F0FEF80546042001F088F903
:1041F0003146009006F0F6F80646052001F080F9F9
:104200003946009006F0EEF80746601CC4B2142C44
:10421000E3DB9049284603F04FFF009001F0EBFFED
:1042200005468C49304603F047FF009001F0E3FF5C
:1042300006468849384603F03FFF009001F0DBFF57
:1042400007467F49284606F0BFF90ED37C49304621
:1042500006F0BAF909D37B49384606F0B5F904D31C
:104260007949384606F02EF901D20020F8BD042025
:10427000FCE70020FAE776480068022108400028A1
:1042800001D1022070470020FCE710B501217248DF
:10429000FCF75FF8012002F039F910210920C0066F
:1042A000FCF73BF8002801D1012010BD0020FCE7FD
:1042B00030B58BB00024FFF7E8FF0419FFF7DBFFF0
:1042C0000419FFF77EFF0419FFF75DFF0419FFF7DC
:1042D00092FE0419FFF77CFE041902A9204602F0A1
:1042E00033F805465D480095C36A026B416B5CA0DC
:1042F00002F088FE0BB030BD70B500F0A7FD064699
:1043000003F0B0FE04465B4A5B4B06F005F801D2B1
:10431000102070BD0020FCE710B50020574948630D
:10432000012002F0F3F8012189034B48FBF7F5FF68
:10433000002801D1802010BD8020FCE710B50120AD
:10434000FFF7D0FD0446532C05DDFF201C308442CE
:1043500001DA402010BD0020FCE710B500204849DC
:104360004863022002F0D2F80121C9023A48FBF763
:10437000D4FF012801D1202010BD0020FCE730B57A
:104380008BB00024FFF781FF0419FFF774FF0419B5
:10439000FFF717FF0419FFF7F6FE0419FFF7DDFF1B
:1043A0000419FFF7CBFF0419FFF7B6FF0419FF202C
:1043B000F53002F0ABF8FFF79FFF041902A9204681
:1043C00001F0C2FF054625480095C36A026B416BA8
:1043D0002CA002F017FE0BB030BD08B500F0D3FBE7
:1043E0002D480078002804D0012805D0022807D1E4
:1043F00003E0FFF7C4FF0DE00CE0FFF759FF09E011
:1044000026A000901548C36A026B416B24A002F0FD
:10441000F9FD00BF00BF08BD10B500202549486365
:10442000012002F073F8012109030B48FBF775FF27
:10443000002801D1402010BD4020FCE70000A04032
:10444000000048420040834400806D440000694001
:104450000C0200200000A0410004004880F7FF1F6C
:1044600025303858253038582530385820303120FC
:1044700025730A002D431CEBE2361A3F0048014029
:10448000002C014025303858253038582530385810
:104490002031302025730A00120200203000000075
:1044A00025303858253038582530385820303020BD
:1044B00025730A00004401401CB501214804FCF7A3
:1044C0009AFA01214802FCF7A4FAC02000900321C7
:1044D000684601710021C17169460920C006FBF7D9
:1044E000B9FEFE48FDF7E8FC1CBD10B5FFF7E4FF80
:1044F0000220FFF7F7FC0446F948844203DB002062
:10450000F84908700FE0F848844206DBF44884421A
:1045100003DA0220F349087005E00320F14908702E
:104520000120FFF77DFB10BD10B5FFF7DEFF10BDCA
:1045300008B5FF216846017000214170012181709A
:10454000FDF742F91B21684601700121417081701D
:10455000FDF73AF9112168460170022141700121ED
:104560008170FDF731F90721684601700321417020
:1045700001218170FDF728F908BD00B589B001213E
:104580004804FCF738FA01218803FCF742FA0122BB
:104590000921C806FBF7E7FE01220A210920C0060F
:1045A000FBF7E1FE012040020190032168464172C1
:1045B00002210172002181720121C17201A9092029
:1045C000C006FBF747FE01208002019003216846E8
:1045D000417202210172002181720121C17201A97F
:1045E0000920C006FBF736FEE120400203900020C0
:1045F00004900590069008900C20079003A9BB48F2
:10460000FDF7D0F90022BA49B848FDF7E5FB0021D3
:10461000B648FDF750FA1B2001218140B54A1160D0
:1046200000BF09B000BD10B50122B149AF48FDF788
:10463000D3FB0121AD48FDF73EFA10BD3EB5012187
:104640001020FCF7F4F97D21C900AB48006802F0A6
:1046500027FF401E84B2142001900021684601808B
:10466000018141806946A548FCF7AAFA012221464A
:10467000A248FCF7DBFA0121A048FCF726FB012247
:1046800011469E48FCF714FF3EBD00B58BB00121DA
:104690008804FCF7B0F901214804FCF7ACF90121CA
:1046A000C802FCF7B6F903200990032108A801729B
:1046B0000021C17209A90920C006FBF7CBFD01202A
:1046C00040030990022108A8017200218172032190
:1046D00041720021C17209A98948FBF7BBFD002185
:1046E0006846018341837D21C9008348006802F048
:1046F000D7FE401E079000216846018408A88170FB
:10470000002003906021684681800121C18004213E
:1047100001810221018200214182FF210131818238
:104720000021C18202220D217548FBF71CFE06A95B
:104730007448FCF745FA01A97248FCF7FDFA082114
:104740007048FCF771FC00216E48FCF7ADFA0121BE
:104750006C48FCF7BAFA01216A48FCF7DCFA6A48AF
:10476000684948630BB000BD00B58BB001218804D7
:10477000FCF741F9FF2001300190022168460172E7
:10478000002181720321417201A95D48FBF762FD9E
:1047900000216846018441847D21C9005648006893
:1047A00002F07EFE401E099000216846018508A89F
:1047B0008172002005906021684681810121C181BC
:1047C000042101820221018300214183FF21013163
:1047D00081830021C18301214804FCF71AF90222D8
:1047E00008214748FBF7BFFD08A94848FCF7E8F94E
:1047F00003A94648FCF7A0FA08214448FCF714FC3A
:1048000000214248FCF750FA01214048FCF75DFACC
:1048100001213E48FCF77FFA3B483C4948630BB016
:1048200000BD00B58BB001218804FCF7E4F801203D
:104830004002019002216846017200218172032129
:10484000417201A92E48FBF705FD0021684601844D
:1048500041847D21C9002848006802F021FE401EE5
:10486000099000216846018508A881720020059002
:104870006021684681810121C181042101820221D8
:10488000018300214183FF21013181830021C18304
:1048900001218804FCF7BDF8022209211848FBF722
:1048A00062FD08A91A48FCF78BF903A91848FCF720
:1048B00043FA08211648FCF7B7FB00211448FCF71F
:1048C000F3F901211248FCF700FA01211048FCF726
:1048D00022FA0D480E4948630BB000BD0024014088
:1048E0008C0C000012020020690900000038014011
:1048F0000501050000E100E0F40100200010004087
:1049000000040048002C0140FFFF0000004401406B
:10491000004801401FB501218804FCF76CF8012113
:104920000846FCF776F80120000302900021684653
:104930000173C17302A99F48FBF78CFC012080031F
:104940000290002168460173C17302A99948FBF7E0
:1049500081FC0C210120FCF7CDFF0E210120FCF78A
:10496000C9FF0120000300900021684601710C215D
:10497000417101218171FCF7ADFE0120800300909F
:104980006846FCF7A7FE1FBD00B589B001214804A9
:10499000FCF731F801214802FCF73BF801200190B7
:1049A0000321684601720021C17201A90920C006D5
:1049B000FBF750FC8048FDF77FFA03A8FDF79EFA4D
:1049C00000200390012168460174002005900790A3
:1049D000089003A97848FDF77DFA0722012176485F
:1049E000FDF72AFB7448FDF75DFB01217248FDF7D6
:1049F0008DFA00BF01217048FDF79EFB0028F9D019
:104A00006D48FDF772FB09B000BD1CB501214804DB
:104A1000FBF7F1FF01218804FBF7EDFF0120009077
:104A2000012168460171002181710321417100213A
:104A3000C17169460920C006FBF70CFC0120400249
:104A400000900121684601710021817103214171AB
:104A50000021C17169465748FBF7FCFB0420009018
:104A6000002168460171C17169465248FBF7F2FBAB
:104A700001210920C006FBF76AFC012149024D48CB
:104A8000FBF765FC1CBD10B50120FBF717FE00BF4E
:104A90004120FBF76DFD0028FAD04848FDF774FE71
:104AA0000320FDF774FE7D20C000FDF773FEFDF7C7
:104AB00074FEFDF779FE10BD1CB501218804FBF7DB
:104AC0009AFF012000900121684601710021817147
:104AD000032141710121C17169463648FBF7BAFBD8
:104AE00001213448FBF733FC1CBD1CB501214804EF
:104AF000FBF781FF01218804FBF77DFF1020009068
:104B00000021684601710121C17169460920C00672
:104B1000FBF7A0FB04200090002168460171C171E1
:104B200069460920C006FBF795FB01208002009032
:104B30000021684601710121C17169461D48FBF7DA
:104B400089FB1CBD1CB501214804FBF754FF012162
:104B50008804FBF750FF1020009000216846017187
:104B60000121C17169460920C006FBF773FB0120D2
:104B7000C0020090002168460171C17169460D486C
:104B8000FBF768FB1CBD10B50D480078002806D067
:104B9000012807D0022806D0032808D106E0FFF735
:104BA000D1FF04E003E0FFF7A0FF00E000BF00BF7B
:104BB00010BD0000000400480024014055550000CD
:104BC0001202002070B504460D4600BF80219B48AC
:104BD000FDF736F90028F9D0A1B29848FDF71CF886
:104BE000204670BDFF21F5318180002181738181D4
:104BF00002691160704710B591488089002807DD6F
:104C00008F48006900680A2802D98D48FFF7EAFF3B
:104C100000208B49096908608A498848FDF71CF91A
:104C2000002839D08548FCF7FBFFC4B2844880894E
:104C300083498988884203DD8148FFF7D3FF10BD8F
:104C40007F48807B002826D10A2C0CD07C488189A3
:104C50008089401C7A4A9081104680684454002024
:104C60001146887317E00120754988730020896810
:104C7000734A92898854724881688089401E085C12
:104C80000D2808D100216E4882688089401E80B2BC
:104C90006B4B9881115400BF00BFD0E7F7B582B0CD
:104CA000054600200190039C04980A2804D00020A7
:104CB0002070039805B0F0BD002D06D13020207083
:104CC000641C002020700398F4E7002D03DA2D20E7
:104CD0002070641C6D425C4E17E03146284602F09D
:104CE000E9FB0746002F02D10198002808D038467A
:104CF00030302070641C384670432D1A012001901A
:104D00000A21304602F0D6FB0646002EE5DC0020E4
:104D100020700398CEE70FB470B586B006460CA895
:104D2000019081E00B9800785C282AD10B98401CF8
:104D30000B9000786E2810D072281DD100BF402142
:104D40003046FDF77DF80028F9D00D213046FCF7FC
:104D500063FF0B98401C0B9012E000BF40213046CF
:104D6000FDF76EF80028F9D00A213046FCF754FF11
:104D70000B98401C0B9003E00B98401C0B9000BF5D
:104D800052E00B980078252840D10B98401C0B90DE
:104D90000078642818D0732833D1019810C8019086
:104DA0000BE000BF40213046FDF74AF80028F9D05B
:104DB00021783046FCF730FF641C20780028F0D1C1
:104DC0000B98401C0B9020E0019820C801900A220B
:104DD00002A92846FFF762FF02AC0BE000BF4021AA
:104DE0003046FDF72DF80028F9D021783046FCF741
:104DF00013FF641C20780028F0D10B98401C0B9006
:104E000003E00B98401C0B9000BF0DE000BF402159
:104E10003046FDF715F80028F9D00B980178401CB2
:104E20000B903046FCF7F8FE0B980078002800D075
:104E300078E706B070BC08BC04B0184700380140E1
:104E400014020020050105001027000070B50024A1
:104E5000002505E00020FFF745F80419681CC5B2DD
:104E6000322DF7DB3221204602F01AFB044600BF48
:104E7000FE48844209D86100FD4A505A03F036FAD0
:104E80000646FC4903F018F970BDFB48FCE7F0B595
:104E90008BB0FFF7DBFF0A900A9803F0E3F80546B2
:104EA0000E46F648006803F0DDF80022134605912F
:104EB000049002F05FFD2A4633460791069002F007
:104EC00066FD0991089002F09BFB0746384603F007
:104ED000C9F805460022EA4B05F050FA04D2E94C25
:104EE0000120E9490870F9E00A9803F0BBF805468B
:104EF0000022E64B05F042FA07D200240120E249E5
:104F000008700820FEF78CFEE8E0384603F0AAF8A7
:104F100005460022DE4B05F0FFF912D3D7480068A2
:104F200003F0A0F805460022134605F0F5F908D96C
:104F30000A9803F097F805460022D64B05F01EFAB2
:104F400004D200240120D0490870C7E0CE48007880
:104F5000002804D00020D0490860CB4908703946A9
:104F6000CE48006805F0D8FACD4908603946CA48ED
:104F7000006805F037FAC8490860CA480168C648A1
:104F8000006805F09FFA04D2C648006803F06AF88A
:104F900025E0C548006803F065F80022C34B059181
:104FA000049002F0E7FC09910890BB48006803F008
:104FB00059F807910690099B089A05F0DFF90AD283
:104FC000B948006803F04EF80022B84B09910890E8
:104FD00002F0D0FC03E0B048006803F043F8054657
:104FE00002F00EFBAC49086008460168B048006852
:104FF00005F092FAAF490860AF48006803F032F854
:105000000546AE4AAE4B02F009FF07910690AD4847
:1050100001680A9805F010FB054603F023F8039198
:105020000290A948006803F01DF80546A74AA84B5E
:1050300002F0F4FE01910090039B029A02F0EEFE52
:1050400005910490079B069A02F094FC0991089040
:1050500002F0D6FA984908609648016890480068BE
:1050600005F0C0F9054694480168284605F0E4FAC1
:105070000446204602F0F6FF05460022954B05F057
:105080007DF911D2384602F0EDFF054600221346A5
:1050900005F074F906D239467F48006805F0CCFA6D
:1050A0007D490860774C19E0204602F0DBFF054699
:1050B0000022134605F030F910D8384602F0D2FF2E
:1050C00005460022134605F027F906D839467248EE
:1050D000006805F0B1FA70490860002479490A981F
:1050E00008600820FEF7AAFD204603F0BBF8C0B216
:1050F0000BB0F0BDFF21091A0A028918764A5163E4
:10510000704710B5FFF7C3FE0446FFF7F3FF10BD6D
:1051100070B5FFF79BFE064601207049087001F04C
:105120007CF86F490968401A142800D270BD01F05C
:1051300074F86B490860304602F094FF0446002280
:10514000684B05F0E9F803D2002000F0E9FF02E027
:10515000FF2000F0E5FF00214848006805F088F9CD
:1051600003D10020FFF7C6FFE0E7304602F07AFFE8
:1051700004460022454B05F001F904D35A48008843
:105180005A49884206DD0020FFF7B4FF0820FEF7E9
:1051900047FDCBE751480078002801D0FFF7B1FF69
:1051A00000BFC3E770B506460120374908700020EC
:1051B0004149086031480660304602F053FF04461A
:1051C000424A921F4A4B05F0D9F802D2FF2000F064
:1051D000A7FF70BDF0B58BB0FFF738FE0A900A98B4
:1051E00002F040FF079106902448006802F03AFF61
:1051F00005460022134602F0BDFB05910490079B73
:10520000069A02F0C4FB0991089002F0F9F90746EA
:10521000384602F027FF05460022194B05F0AEF88C
:1052200004D2184C0120184908702DE1384602F0CC
:1052300019FF05460022164B05F06EF812D30F48F1
:10524000006802F00FFF05460022134605F064F8DF
:1052500008D90A9802F006FF054600220D4B05F01A
:105260008DF849D200240120074943E0FF0F0000D8
:1052700056A70008000020419AF97944280200202E
:105280000000244000007F433102002000A06E4057
:10529000000024C000606D404C0200203402002059
:1052A0004002002054020020500200200000F03F85
:1052B000380200204402002048020020666666662C
:1052C0006666EE3F580200203C020020A0999999A2
:1052D0009999A93F00E06F40002C01403002002066
:1052E0002C0200200000444032020020470200004F
:1052F0009999B93F0870C7E06D480078002804D03C
:1053000000206C4908606A49087039466A4800689C
:1053100005F002F96949086039466648006805F0F9
:1053200061F864490860664801686248006805F0F1
:10533000C9F804D26248006802F094FE25E0614892
:10534000006802F08FFE00225F4B0591049002F08E
:1053500011FB099108905748006802F083FE0791FD
:105360000690099B089A05F009F80AD2554800688A
:1053700002F078FE0022544B0991089002F0FAFAEC
:1053800003E04C48006802F06DFE054602F038F973
:1053900048490860084601684C48006805F0BCF8B8
:1053A0004B4908604B48006802F05CFE05464A4ADB
:1053B0004A4B02F033FD07910690494801680A986C
:1053C00005F03AF9054602F04DFE0391029045487A
:1053D000006802F047FE0546434A444B02F01EFDBA
:1053E00001910090039B029A02F018FD0591049030
:1053F000079B069A02F0BEFA0991089002F000F9A4
:1054000034490860324801682C48006804F0EAFF1B
:10541000054630480168284605F00EF90446204646
:1054200002F020FE05460022314B04F0A7FF11D206
:10543000384602F017FE05460022134604F09EFF90
:1054400006D239461B48006805F0F6F8194908608D
:10545000284C19E0204602F005FE054600221346BE
:1054600004F05AFF10D8384602F0FCFD0546002231
:10547000134604F051FF06D839460E48006805F07F
:10548000DBF80C490860002415490A98086020469A
:1054900002F0E8FE80B20BB0F0BD70471649091A61
:1054A000164A5163704700B50020FFF723FE00BD88
:1054B000310200204C020020340200204002002073
:1054C00054020020500200200000F03F380200206B
:1054D0004402002048020020666666666666EE3F6B
:1054E000580200203C020020A09999999999A93F5F
:1054F00000E06F4000007F43FFFF0000002C0140F0
:10550000F0B58FB00546002400200E900A27032D29
:1055100004D0042D36D0052D33D167E02820FEF7C6
:105520009AFA04432920FEF796FA0002204304B2B7
:10553000FE48006802F096FD07910690204602F0B2
:10554000CDFE019002F08EFDF94AFA4B03910290D4
:1055500002F064FC05910490079B069A02F00AFA97
:105560000B910A900E9802F07DFD099108900B9B1B
:105570000A9A02F0FFF90D910C9002F041F80E909A
:10558000012767E02A20FEF766FA04432B20FEF786
:1055900062FA0002204304B2E748006802F062FDAC
:1055A00007910690204602F099FE019002F05AFD04
:1055B000DF4AE04B0391029002F030FC0591049029
:1055C000079B069A02F0D6F90B910A900E9802F00A
:1055D00049FD099108900B9B0A9A02F0CBF90D91B5
:1055E0000C9002F00DF80E90012733E02C20FEF70E
:1055F00032FA04432D20FEF72EFA0002204304B2B3
:10560000CE48006802F02EFD07910690204602F079
:1056100065FE019002F026FDC54AC64B039102903B
:1056200002F0FCFB05910490079B069A02F0A2F998
:105630000B910A900E9802F015FD099108900B9BB2
:105640000A9A02F097F90D910C9001F0D9FF0E9093
:10565000012700BF00BF0026A2E0002D04D0012DCD
:1056600035D0022D32D165E02220FEF7F4F9044353
:105670002320FEF7F0F90002204304B2B04800688E
:1056800002F0F0FC07910690204602F027FE019000
:1056900002F0E8FC0022AB4B0391029002F0BEFB4B
:1056A00005910490079B069A02F064F90B910A9009
:1056B0000E9802F0D7FC099108900B9B0A9A02F011
:1056C00059F90D910C9001F09BFF0E9065E024209C
:1056D000FEF7C1F904432520FEF7BDF9000220437F
:1056E00004B29948006802F0BDFC0791069020467C
:1056F00002F0F4FD019002F0B5FC0022914B039101
:10570000029002F08BFB05910490079B069A02F031
:1057100031F90B910A900E9802F0A4FC09910890BF
:105720000B9B0A9A02F026F90D910C9001F068FF8C
:105730000E9032E02620FEF78EF904432720FEF774
:105740008AF90002204304B28048006802F08AFC13
:1057500007910690204602F0C1FD019002F082FC04
:105760000022784B0391029002F058FB05910490BF
:10577000079B069A02F0FEF80B910A900E9802F031
:1057800071FC099108900B9B0A9A02F0F3F80D91B5
:105790000C9001F035FF0E9000BF00BF701C06B2E8
:1057A000BE4200DA59E7384602F0A0FD01460D90EE
:1057B0000E9802F081FC0FB0F0BDFEB50027052465
:1057C000FEF70AF90220FEF72BFA89E10F20FEF717
:1057D00042F90746692F00D082E160211020FEF7D0
:1057E000ACF961211120FEF7A8F904211220FEF77F
:1057F000A4F90320FFF784FE0420FFF781FE0520B3
:10580000FFF77EFE0020FFF77BFE0120FFF778FE0A
:105810000220FFF775FE0020FFF772FE009002F0F5
:1058200021FC05462A460B4649A001F0EBFB01206E
:10583000FFF766FE009002F015FC05462A460B466F
:1058400046A001F0DFFB0220FFF75AFE009002F0B5
:1058500009FC05462A460B4643A001F0D3FB002075
:10586000FFF74EFE009002F0FDFB05462A460B4670
:1058700037A001F0C7FB0120FFF742FE009002F0C5
:10588000F1FB05462A460B4634A001F0BBFB022083
:10589000FFF736FE009002F0E5FB05462A460B4670
:1058A00031A001F0AFFB0020FFF72AFE009002F0CC
:1058B000D9FB05462A460B4625A001F0A3FB012093
:1058C000FFF71EFE009002F0CDFB05462A460B4670
:1058D00022A001F097FB0220FFF712FE009002F0D9
:1058E000C1FB05462A460B461FA001F08BFB00209A
:1058F000FFF706FE009002F0B5FB05462A460B4670
:1059000013A001F07FFB0120FFF7FAFD009002F0E9
:10591000A9FB05462A460B4610A001F073FB0220A6
:10592000FFF7EEFD009002F09DFB23E0F402002063
:1059300008AC1C5A643BAF3FF8020020FC02002078
:10594000E802002000801140EC020020F00200205C
:105950004779726F20783D256C660A004779726F2F
:1059600020793D256C660A004779726F207A3D25C3
:105970006C660A0005462A460B46FE4801F042FBCB
:105980000320FFF7BDFD054600F035FC01900198AE
:1059900002F068FB0546F84AF84B04F0BDFC09D25A
:1059A000019802F05FFB05462A460B46F4A001F081
:1059B00029FB95E00420FFF7A3FD054600F01BFC42
:1059C0000190019802F04EFB0546EB4AEB4B04F0C8
:1059D000A3FC09D2019802F045FB05462A460B4676
:1059E000EBA001F00FFB7BE00520FFF789FD0546EA
:1059F00000F001FC0190019802F034FB0546DE4AFC
:105A0000DE4B04F089FC09D2019802F02BFB05461D
:105A10002A460B46E2A001F0F5FA61E00020FFF70C
:105A20006FFD054600F0E7FB0190019802F01AFBBC
:105A30000546D14AD14B04F06FFC04D3DC490198F0
:105A400004F0C2FD09D2019802F00CFB05462A467B
:105A50000B46D8A001F0D6FA42E00120FFF750FD36
:105A6000054600F0C8FB0190019802F0FBFA0546DC
:105A7000C14AC24B04F050FC04D3CD49019804F054
:105A8000A3FD09D2019802F0EDFA05462A460B461D
:105A9000CCA001F0B7FA23E00220FFF731FD054664
:105AA00000F0A9FB0190019802F0DCFA0546B24A29
:105AB000B24B04F031FC04D3BD49019804F084FDDD
:105AC00009D2019802F0CEFA05462A460B46C1A03B
:105AD00001F098FA04E00220FEF7B0F80120FEBDC4
